{
  "_format": "hh-sol-artifact-1",
  "contractName": "TravelRule",
  "sourceName": "src/TravelRule.sol",
  "abi": [
    {
      "inputs": [
        {
          "internalType": "address",
          "name": "_admin",
          "type": "address"
        }
      ],
      "stateMutability": "nonpayable",
      "type": "constructor"
    },
    {
      "inputs": [],
      "name": "AcknowledgementDeadlinePassed",
      "type": "error"
    },
    {
      "inputs": [],
      "name": "AlreadyAcknowledged",
      "type": "error"
    },
    {
      "inputs": [],
      "name": "BelowThreshold",
      "type": "error"
    },
    {
      "inputs": [],
      "name": "DataExpired",
      "type": "error"
    },
    {
      "inputs": [],
      "name": "DuplicateSubmission",
      "type": "error"
    },
    {
      "inputs": [
        {
          "internalType": "enum TravelRule.TravelRuleStatus",
          "name": "current",
          "type": "uint8"
        },
        {
          "internalType": "enum TravelRule.TravelRuleStatus",
          "name": "expected",
          "type": "uint8"
        }
      ],
      "name": "InvalidStatus",
      "type": "error"
    },
    {
      "inputs": [],
      "name": "RecordNotFound",
      "type": "error"
    },
    {
      "inputs": [],
      "name": "SharingNotFound",
      "type": "error"
    },
    {
      "inputs": [],
      "name": "VASPAlreadyRegistered",
      "type": "error"
    },
    {
      "inputs": [],
      "name": "VASPNotActive",
      "type": "error"
    },
    {
      "inputs": [],
      "name": "VASPNotFound",
      "type": "error"
    },
    {
      "inputs": [],
      "name": "ZeroAddress",
      "type": "error"
    },
    {
      "inputs": [],
      "name": "ZeroAmount",
      "type": "error"
    },
    {
      "anonymous": false,
      "inputs": [
        {
          "indexed": false,
          "internalType": "address",
          "name": "account",
          "type": "address"
        }
      ],
      "name": "Paused",
      "type": "event"
    },
    {
      "anonymous": false,
      "inputs": [
        {
          "indexed": true,
          "internalType": "bytes32",
          "name": "role",
          "type": "bytes32"
        },
        {
          "indexed": true,
          "internalType": "bytes32",
          "name": "previousAdminRole",
          "type": "bytes32"
        },
        {
          "indexed": true,
          "internalType": "bytes32",
          "name": "newAdminRole",
          "type": "bytes32"
        }
      ],
      "name": "RoleAdminChanged",
      "type": "event"
    },
    {
      "anonymous": false,
      "inputs": [
        {
          "indexed": true,
          "internalType": "bytes32",
          "name": "role",
          "type": "bytes32"
        },
        {
          "indexed": true,
          "internalType": "address",
          "name": "account",
          "type": "address"
        },
        {
          "indexed": true,
          "internalType": "address",
          "name": "sender",
          "type": "address"
        }
      ],
      "name": "RoleGranted",
      "type": "event"
    },
    {
      "anonymous": false,
      "inputs": [
        {
          "indexed": true,
          "internalType": "bytes32",
          "name": "role",
          "type": "bytes32"
        },
        {
          "indexed": true,
          "internalType": "address",
          "name": "account",
          "type": "address"
        },
        {
          "indexed": true,
          "internalType": "address",
          "name": "sender",
          "type": "address"
        }
      ],
      "name": "RoleRevoked",
      "type": "event"
    },
    {
      "anonymous": false,
      "inputs": [
        {
          "indexed": false,
          "internalType": "uint256",
          "name": "oldThreshold",
          "type": "uint256"
        },
        {
          "indexed": false,
          "internalType": "uint256",
          "name": "newThreshold",
          "type": "uint256"
        }
      ],
      "name": "ThresholdUpdated",
      "type": "event"
    },
    {
      "anonymous": false,
      "inputs": [
        {
          "indexed": true,
          "internalType": "bytes32",
          "name": "sharingId",
          "type": "bytes32"
        },
        {
          "indexed": true,
          "internalType": "address",
          "name": "beneficiaryVASP",
          "type": "address"
        }
      ],
      "name": "TravelRuleAcknowledged",
      "type": "event"
    },
    {
      "anonymous": false,
      "inputs": [
        {
          "indexed": true,
          "internalType": "bytes32",
          "name": "travelRuleId",
          "type": "bytes32"
        },
        {
          "indexed": true,
          "internalType": "bytes32",
          "name": "paymentId",
          "type": "bytes32"
        },
        {
          "indexed": true,
          "internalType": "address",
          "name": "originatorAddress",
          "type": "address"
        },
        {
          "indexed": false,
          "internalType": "uint256",
          "name": "amount",
          "type": "uint256"
        },
        {
          "indexed": false,
          "internalType": "bytes3",
          "name": "currency",
          "type": "bytes3"
        }
      ],
      "name": "TravelRuleDataSubmitted",
      "type": "event"
    },
    {
      "anonymous": false,
      "inputs": [
        {
          "indexed": true,
          "internalType": "bytes32",
          "name": "travelRuleId",
          "type": "bytes32"
        },
        {
          "indexed": false,
          "internalType": "string",
          "name": "reason",
          "type": "string"
        }
      ],
      "name": "TravelRuleRejected",
      "type": "event"
    },
    {
      "anonymous": false,
      "inputs": [
        {
          "indexed": true,
          "internalType": "bytes32",
          "name": "travelRuleId",
          "type": "bytes32"
        },
        {
          "indexed": true,
          "internalType": "bytes32",
          "name": "sharingId",
          "type": "bytes32"
        },
        {
          "indexed": true,
          "internalType": "address",
          "name": "beneficiaryVASP",
          "type": "address"
        }
      ],
      "name": "TravelRuleShared",
      "type": "event"
    },
    {
      "anonymous": false,
      "inputs": [
        {
          "indexed": true,
          "internalType": "bytes32",
          "name": "travelRuleId",
          "type": "bytes32"
        },
        {
          "indexed": false,
          "internalType": "address",
          "name": "verifiedBy",
          "type": "address"
        }
      ],
      "name": "TravelRuleVerified",
      "type": "event"
    },
    {
      "anonymous": false,
      "inputs": [
        {
          "indexed": false,
          "internalType": "address",
          "name": "account",
          "type": "address"
        }
      ],
      "name": "Unpaused",
      "type": "event"
    },
    {
      "anonymous": false,
      "inputs": [
        {
          "indexed": true,
          "internalType": "address",
          "name": "vasp",
          "type": "address"
        }
      ],
      "name": "VASPDeactivated",
      "type": "event"
    },
    {
      "anonymous": false,
      "inputs": [
        {
          "indexed": true,
          "internalType": "address",
          "name": "vasp",
          "type": "address"
        },
        {
          "indexed": false,
          "internalType": "bytes32",
          "name": "institutionHash",
          "type": "bytes32"
        }
      ],
      "name": "VASPRegistered",
      "type": "event"
    },
    {
      "inputs": [],
      "name": "ACKNOWLEDGEMENT_DEADLINE",
      "outputs": [
        {
          "internalType": "uint256",
          "name": "",
          "type": "uint256"
        }
      ],
      "stateMutability": "view",
      "type": "function"
    },
    {
      "inputs": [],
      "name": "ADMIN_ROLE",
      "outputs": [
        {
          "internalType": "bytes32",
          "name": "",
          "type": "bytes32"
        }
      ],
      "stateMutability": "view",
      "type": "function"
    },
    {
      "inputs": [],
      "name": "DATA_RETENTION_PERIOD",
      "outputs": [
        {
          "internalType": "uint256",
          "name": "",
          "type": "uint256"
        }
      ],
      "stateMutability": "view",
      "type": "function"
    },
    {
      "inputs": [],
      "name": "DEFAULT_ADMIN_ROLE",
      "outputs": [
        {
          "internalType": "bytes32",
          "name": "",
          "type": "bytes32"
        }
      ],
      "stateMutability": "view",
      "type": "function"
    },
    {
      "inputs": [],
      "name": "TEE_NODE_ROLE",
      "outputs": [
        {
          "internalType": "bytes32",
          "name": "",
          "type": "bytes32"
        }
      ],
      "stateMutability": "view",
      "type": "function"
    },
    {
      "inputs": [],
      "name": "TRAVEL_RULE_THRESHOLD",
      "outputs": [
        {
          "internalType": "uint256",
          "name": "",
          "type": "uint256"
        }
      ],
      "stateMutability": "view",
      "type": "function"
    },
    {
      "inputs": [],
      "name": "VASP_ROLE",
      "outputs": [
        {
          "internalType": "bytes32",
          "name": "",
          "type": "bytes32"
        }
      ],
      "stateMutability": "view",
      "type": "function"
    },
    {
      "inputs": [
        {
          "internalType": "bytes32",
          "name": "_sharingId",
          "type": "bytes32"
        }
      ],
      "name": "acknowledgeTravelRuleData",
      "outputs": [],
      "stateMutability": "nonpayable",
      "type": "function"
    },
    {
      "inputs": [
        {
          "internalType": "address",
          "name": "_vasp",
          "type": "address"
        }
      ],
      "name": "deactivateVASP",
      "outputs": [],
      "stateMutability": "nonpayable",
      "type": "function"
    },
    {
      "inputs": [
        {
          "internalType": "bytes32",
          "name": "role",
          "type": "bytes32"
        }
      ],
      "name": "getRoleAdmin",
      "outputs": [
        {
          "internalType": "bytes32",
          "name": "",
          "type": "bytes32"
        }
      ],
      "stateMutability": "view",
      "type": "function"
    },
    {
      "inputs": [
        {
          "internalType": "bytes32",
          "name": "_travelRuleId",
          "type": "bytes32"
        }
      ],
      "name": "getTravelRuleData",
      "outputs": [
        {
          "components": [
            {
              "internalType": "bytes32",
              "name": "originatorNameHash",
              "type": "bytes32"
            },
            {
              "internalType": "address",
              "name": "originatorAddress",
              "type": "address"
            },
            {
              "internalType": "bytes32",
              "name": "originatorInstitution",
              "type": "bytes32"
            },
            {
              "internalType": "bytes32",
              "name": "beneficiaryNameHash",
              "type": "bytes32"
            },
            {
              "internalType": "address",
              "name": "beneficiaryAddress",
              "type": "address"
            },
            {
              "internalType": "bytes32",
              "name": "beneficiaryInstitution",
              "type": "bytes32"
            },
            {
              "internalType": "uint256",
              "name": "amount",
              "type": "uint256"
            },
            {
              "internalType": "bytes3",
              "name": "currency",
              "type": "bytes3"
            },
            {
              "internalType": "uint256",
              "name": "timestamp",
              "type": "uint256"
            },
            {
              "internalType": "enum TravelRule.TravelRuleStatus",
              "name": "status",
              "type": "uint8"
            },
            {
              "internalType": "bytes32",
              "name": "paymentId",
              "type": "bytes32"
            },
            {
              "internalType": "bytes32",
              "name": "encryptedDataHash",
              "type": "bytes32"
            }
          ],
          "internalType": "struct TravelRule.TravelRuleData",
          "name": "",
          "type": "tuple"
        }
      ],
      "stateMutability": "view",
      "type": "function"
    },
    {
      "inputs": [
        {
          "internalType": "bytes32",
          "name": "_paymentId",
          "type": "bytes32"
        }
      ],
      "name": "getTravelRuleForPayment",
      "outputs": [
        {
          "internalType": "bytes32",
          "name": "",
          "type": "bytes32"
        }
      ],
      "stateMutability": "view",
      "type": "function"
    },
    {
      "inputs": [
        {
          "internalType": "bytes32",
          "name": "_travelRuleId",
          "type": "bytes32"
        }
      ],
      "name": "getTravelRuleStatus",
      "outputs": [
        {
          "internalType": "enum TravelRule.TravelRuleStatus",
          "name": "",
          "type": "uint8"
        }
      ],
      "stateMutability": "view",
      "type": "function"
    },
    {
      "inputs": [
        {
          "internalType": "address",
          "name": "_vasp",
          "type": "address"
        }
      ],
      "name": "getVASPDetails",
      "outputs": [
        {
          "components": [
            {
              "internalType": "address",
              "name": "wallet",
              "type": "address"
            },
            {
              "internalType": "bytes32",
              "name": "institutionHash",
              "type": "bytes32"
            },
            {
              "internalType": "bytes",
              "name": "encryptionPublicKey",
              "type": "bytes"
            },
            {
              "internalType": "bool",
              "name": "active",
              "type": "bool"
            },
            {
              "internalType": "uint256",
              "name": "registeredAt",
              "type": "uint256"
            }
          ],
          "internalType": "struct TravelRule.VASP",
          "name": "",
          "type": "tuple"
        }
      ],
      "stateMutability": "view",
      "type": "function"
    },
    {
      "inputs": [
        {
          "internalType": "bytes32",
          "name": "role",
          "type": "bytes32"
        },
        {
          "internalType": "address",
          "name": "account",
          "type": "address"
        }
      ],
      "name": "grantRole",
      "outputs": [],
      "stateMutability": "nonpayable",
      "type": "function"
    },
    {
      "inputs": [
        {
          "internalType": "bytes32",
          "name": "role",
          "type": "bytes32"
        },
        {
          "internalType": "address",
          "name": "account",
          "type": "address"
        }
      ],
      "name": "hasRole",
      "outputs": [
        {
          "internalType": "bool",
          "name": "",
          "type": "bool"
        }
      ],
      "stateMutability": "view",
      "type": "function"
    },
    {
      "inputs": [
        {
          "internalType": "bytes32",
          "name": "_travelRuleId",
          "type": "bytes32"
        }
      ],
      "name": "isRecordExpired",
      "outputs": [
        {
          "internalType": "bool",
          "name": "",
          "type": "bool"
        }
      ],
      "stateMutability": "view",
      "type": "function"
    },
    {
      "inputs": [],
      "name": "pause",
      "outputs": [],
      "stateMutability": "nonpayable",
      "type": "function"
    },
    {
      "inputs": [],
      "name": "paused",
      "outputs": [
        {
          "internalType": "bool",
          "name": "",
          "type": "bool"
        }
      ],
      "stateMutability": "view",
      "type": "function"
    },
    {
      "inputs": [
        {
          "internalType": "bytes32",
          "name": "",
          "type": "bytes32"
        }
      ],
      "name": "paymentToTravelRule",
      "outputs": [
        {
          "internalType": "bytes32",
          "name": "",
          "type": "bytes32"
        }
      ],
      "stateMutability": "view",
      "type": "function"
    },
    {
      "inputs": [
        {
          "internalType": "bytes32",
          "name": "_institutionHash",
          "type": "bytes32"
        },
        {
          "internalType": "bytes",
          "name": "_encryptionPubKey",
          "type": "bytes"
        }
      ],
      "name": "registerVASP",
      "outputs": [],
      "stateMutability": "nonpayable",
      "type": "function"
    },
    {
      "inputs": [
        {
          "internalType": "bytes32",
          "name": "_travelRuleId",
          "type": "bytes32"
        },
        {
          "internalType": "string",
          "name": "_reason",
          "type": "string"
        }
      ],
      "name": "rejectTravelRuleData",
      "outputs": [],
      "stateMutability": "nonpayable",
      "type": "function"
    },
    {
      "inputs": [
        {
          "internalType": "bytes32",
          "name": "role",
          "type": "bytes32"
        },
        {
          "internalType": "address",
          "name": "account",
          "type": "address"
        }
      ],
      "name": "renounceRole",
      "outputs": [],
      "stateMutability": "nonpayable",
      "type": "function"
    },
    {
      "inputs": [
        {
          "internalType": "uint256",
          "name": "_amount",
          "type": "uint256"
        }
      ],
      "name": "requiresFullTravelRuleData",
      "outputs": [
        {
          "internalType": "bool",
          "name": "",
          "type": "bool"
        }
      ],
      "stateMutability": "view",
      "type": "function"
    },
    {
      "inputs": [
        {
          "internalType": "bytes32",
          "name": "role",
          "type": "bytes32"
        },
        {
          "internalType": "address",
          "name": "account",
          "type": "address"
        }
      ],
      "name": "revokeRole",
      "outputs": [],
      "stateMutability": "nonpayable",
      "type": "function"
    },
    {
      "inputs": [
        {
          "internalType": "bytes32",
          "name": "_travelRuleId",
          "type": "bytes32"
        },
        {
          "internalType": "address",
          "name": "_beneficiaryVASP",
          "type": "address"
        },
        {
          "internalType": "bytes32",
          "name": "_sharedDataHash",
          "type": "bytes32"
        }
      ],
      "name": "shareWithReceivingInstitution",
      "outputs": [
        {
          "internalType": "bytes32",
          "name": "sharingId",
          "type": "bytes32"
        }
      ],
      "stateMutability": "nonpayable",
      "type": "function"
    },
    {
      "inputs": [
        {
          "internalType": "bytes32",
          "name": "",
          "type": "bytes32"
        }
      ],
      "name": "sharingRecords",
      "outputs": [
        {
          "internalType": "bytes32",
          "name": "travelRuleId",
          "type": "bytes32"
        },
        {
          "internalType": "address",
          "name": "originatingVASP",
          "type": "address"
        },
        {
          "internalType": "address",
          "name": "beneficiaryVASP",
          "type": "address"
        },
        {
          "internalType": "bytes32",
          "name": "sharedDataHash",
          "type": "bytes32"
        },
        {
          "internalType": "uint256",
          "name": "sharedAt",
          "type": "uint256"
        },
        {
          "internalType": "bool",
          "name": "acknowledged",
          "type": "bool"
        }
      ],
      "stateMutability": "view",
      "type": "function"
    },
    {
      "inputs": [
        {
          "internalType": "bytes32",
          "name": "_paymentId",
          "type": "bytes32"
        },
        {
          "internalType": "bytes32",
          "name": "_originatorNameHash",
          "type": "bytes32"
        },
        {
          "internalType": "address",
          "name": "_originatorAddress",
          "type": "address"
        },
        {
          "internalType": "bytes32",
          "name": "_originatorInstitution",
          "type": "bytes32"
        },
        {
          "internalType": "bytes32",
          "name": "_beneficiaryNameHash",
          "type": "bytes32"
        },
        {
          "internalType": "address",
          "name": "_beneficiaryAddress",
          "type": "address"
        },
        {
          "internalType": "bytes32",
          "name": "_beneficiaryInstitution",
          "type": "bytes32"
        },
        {
          "internalType": "uint256",
          "name": "_amount",
          "type": "uint256"
        },
        {
          "internalType": "bytes3",
          "name": "_currency",
          "type": "bytes3"
        },
        {
          "internalType": "bytes32",
          "name": "_encryptedDataHash",
          "type": "bytes32"
        }
      ],
      "name": "submitTravelRuleData",
      "outputs": [
        {
          "internalType": "bytes32",
          "name": "travelRuleId",
          "type": "bytes32"
        }
      ],
      "stateMutability": "nonpayable",
      "type": "function"
    },
    {
      "inputs": [
        {
          "internalType": "bytes4",
          "name": "interfaceId",
          "type": "bytes4"
        }
      ],
      "name": "supportsInterface",
      "outputs": [
        {
          "internalType": "bool",
          "name": "",
          "type": "bool"
        }
      ],
      "stateMutability": "view",
      "type": "function"
    },
    {
      "inputs": [],
      "name": "totalSubmissions",
      "outputs": [
        {
          "internalType": "uint256",
          "name": "",
          "type": "uint256"
        }
      ],
      "stateMutability": "view",
      "type": "function"
    },
    {
      "inputs": [
        {
          "internalType": "bytes32",
          "name": "",
          "type": "bytes32"
        }
      ],
      "name": "travelRuleRecords",
      "outputs": [
        {
          "internalType": "bytes32",
          "name": "originatorNameHash",
          "type": "bytes32"
        },
        {
          "internalType": "address",
          "name": "originatorAddress",
          "type": "address"
        },
        {
          "internalType": "bytes32",
          "name": "originatorInstitution",
          "type": "bytes32"
        },
        {
          "internalType": "bytes32",
          "name": "beneficiaryNameHash",
          "type": "bytes32"
        },
        {
          "internalType": "address",
          "name": "beneficiaryAddress",
          "type": "address"
        },
        {
          "internalType": "bytes32",
          "name": "beneficiaryInstitution",
          "type": "bytes32"
        },
        {
          "internalType": "uint256",
          "name": "amount",
          "type": "uint256"
        },
        {
          "internalType": "bytes3",
          "name": "currency",
          "type": "bytes3"
        },
        {
          "internalType": "uint256",
          "name": "timestamp",
          "type": "uint256"
        },
        {
          "internalType": "enum TravelRule.TravelRuleStatus",
          "name": "status",
          "type": "uint8"
        },
        {
          "internalType": "bytes32",
          "name": "paymentId",
          "type": "bytes32"
        },
        {
          "internalType": "bytes32",
          "name": "encryptedDataHash",
          "type": "bytes32"
        }
      ],
      "stateMutability": "view",
      "type": "function"
    },
    {
      "inputs": [],
      "name": "travelRuleThreshold",
      "outputs": [
        {
          "internalType": "uint256",
          "name": "",
          "type": "uint256"
        }
      ],
      "stateMutability": "view",
      "type": "function"
    },
    {
      "inputs": [],
      "name": "unpause",
      "outputs": [],
      "stateMutability": "nonpayable",
      "type": "function"
    },
    {
      "inputs": [
        {
          "internalType": "uint256",
          "name": "_newThreshold",
          "type": "uint256"
        }
      ],
      "name": "updateThreshold",
      "outputs": [],
      "stateMutability": "nonpayable",
      "type": "function"
    },
    {
      "inputs": [
        {
          "internalType": "address",
          "name": "",
          "type": "address"
        }
      ],
      "name": "vasps",
      "outputs": [
        {
          "internalType": "address",
          "name": "wallet",
          "type": "address"
        },
        {
          "internalType": "bytes32",
          "name": "institutionHash",
          "type": "bytes32"
        },
        {
          "internalType": "bytes",
          "name": "encryptionPublicKey",
          "type": "bytes"
        },
        {
          "internalType": "bool",
          "name": "active",
          "type": "bool"
        },
        {
          "internalType": "uint256",
          "name": "registeredAt",
          "type": "uint256"
        }
      ],
      "stateMutability": "view",
      "type": "function"
    },
    {
      "inputs": [
        {
          "internalType": "bytes32",
          "name": "_travelRuleId",
          "type": "bytes32"
        }
      ],
      "name": "verifyTravelRuleCompliance",
      "outputs": [],
      "stateMutability": "nonpayable",
      "type": "function"
    }
  ],
  "bytecode": "0x6080346200016757601f620023ec38819003918201601f1916830192916001600160401b038411838510176200016c57808392604095865283396020928391810103126200016757516001600160a01b03811690819003620001675760ff19918260015416600155600160025581156200015657600092838052838252848420838552825260ff85852054161562000120575b7fa49807205ce4d355092ef5a8a18f56e8913cf4a201fbe287825b095693c2177591828552848152858520848652815260ff868620541615620000e7575b85633b9aca00600855516122499081620001838239f35b8285528481528585209084865252600185852091825416179055600080516020620023cc833981519152339380a43880808080620000d0565b8380528382528484208385528252848420600182825416179055338385600080516020620023cc8339815191528180a462000092565b835163d92e233d60e01b8152600490fd5b600080fd5b634e487b7160e01b600052604160045260246000fdfe608080604052600436101561001357600080fd5b60003560e01c90816301ffc9a7146117f0575080630d0a0297146117aa5780631e59c6af1461177e5780631e5b1b301461177e57806323c7268e14611688578063248a9ca3146116595780632f2ff15d146115a65780633527073d1461139e57806335bb0a4d146110b357806336568abe14611021578063379c7381146110025780633e11f89d14610e425780633f4ba83a14610dae5780634c15aa7314610d735780635041cd0a14610ca9578063596f064614610c655780635c975abb14610c425780636ce3894d14610bbc578063740375f414610b9957806375b238fc14610b5e5780637ff2486214610b3f5780638456cb5914610ae657806389bf394314610a7357806391d1485414610a265780639834a03814610941578063a217fddf14610925578063a2cfb68614610907578063a3954016146108e9578063a49632e41461083f578063a63b3f2e14610821578063b607ebd7146106de578063b8e12d04146106b5578063c918d54c146105dc578063d547741f1461059b578063d7d7442f146104fb5763f1ae143f146101ab57600080fd5b3461049f576101b936611a1b565b6101c49291926121af565b33600052602090600482526004604060002001546104e95780156104a4576040516101ee816118d3565b33815282810184815267ffffffffffffffff928381116104895760405190601f1997610221878a601f850116018461190b565b818352368282011161049f5781600092889283860137830101526040830190815260608301906001948583526080850193428552336000526004885260406000209560018060a01b039051166001600160601b0360a01b87541617865551868601556002850191519889519182116104895761029d835461187c565b601f8111610440575b508790601f83116001146103b7575091816004959492610317947f37e87580f4c13564eb3c9a55760d5515f4081573ef9dbba81ccc36303d6944169b9c6000926103ac575b5050600019600383901b1c191690881b1790555b511515600385019060ff801983541691151516179055565b519101556000805160206121f4833981519152908160005260008352604060002033600052835260ff604060002054161561035a575b50506040519283523392a2005b8160005260008352604060002033600052835260406000209060ff19825416179055339033907f2f8788117e7eff1d82e926ec794901d17c78024a50270940304540a733656f0d600080a4388061034d565b0151905038806102eb565b82169983600052886000209a60005b81811061042b5750927f37e87580f4c13564eb3c9a55760d5515f4081573ef9dbba81ccc36303d6944169a9b61031795938a938360049a999710610412575b505050811b0190556102ff565b015160001960f88460031b161c19169055388080610405565b838301518d559b89019b928a01928a016103c6565b8360005288600020601f840160051c8101918a851061047f575b601f0160051c019088905b8281106104735750506102a6565b60008155018890610465565b909150819061045a565b634e487b7160e01b600052604160045260246000fd5b600080fd5b60405162461bcd60e51b815260048101839052601c60248201527f54726176656c52756c653a20656d707479207075626c6963206b6579000000006044820152606490fd5b604051632db21dc560e11b8152600490fd5b3461049f57602036600319011261049f57600435610517611a68565b80156105565760407fb06a54caabe58475c86c2bf9df3f2f06dd1213e9e10659c293117fe4893b274b91600854908060085582519182526020820152a1005b60405162461bcd60e51b815260206004820152601a60248201527f54726176656c52756c653a207a65726f207468726573686f6c640000000000006044820152606490fd5b3461049f57604036600319011261049f576105da6004356105ba611859565b908060005260006020526105d5600160406000200154611efb565b612005565b005b3461049f57602036600319011261049f576004356105f8611db6565b6106006121af565b80600052600360205260406000206008810154156106a357600901805460ff8116600581101561068d5780610666575060019060ff19161790557f8a32035db54a2568874e0e79f16ffeb42057464ef758173ff60e3d39da38d7516020604051338152a2005b60405163f924664d60e01b815260449161068490600483019061186f565b60006024820152fd5b634e487b7160e01b600052602160045260246000fd5b604051633e07f1a160e01b8152600490fd5b3461049f57600036600319011261049f5760206040516000805160206121f48339815191528152f35b3461049f57602036600319011261049f576004356106fa611c83565b6107026121af565b8060005260056020526040600020600481015490811561080f57600581019182549160ff83166107fd57600201546001600160a01b031633036107ac576202a30081018091116107965742116107845760ff1916600117905533907f0cb6f69181513150f54f0d19ea7710a36a8d0a91c7f99671c20abe38a07202af600080a3005b604051636619ff3360e01b8152600490fd5b634e487b7160e01b600052601160045260246000fd5b60405162461bcd60e51b8152602060048201526024808201527f54726176656c52756c653a206e6f74207468652062656e6566696369617279206044820152630564153560e41b6064820152608490fd5b6040516347b9f43760e01b8152600490fd5b6040516307493fdd60e21b8152600490fd5b3461049f57600036600319011261049f576020600854604051908152f35b3461049f5761084d36611a1b565b90610856611db6565b61085e6121af565b82600052600360205260406000206008810154156106a357600901805460ff8116600581101561068d578061066657509160409160027fda273b479b73c98c6f746f8136151d97bef1b76042ba2c7f6461711d7f4fdba7959460ff191617905582825193849260208452816020850152848401376000828201840152601f01601f19168101030190a2005b3461049f57600036600319011261049f576020600754604051908152f35b3461049f57600036600319011261049f5760206040516202a3008152f35b3461049f57600036600319011261049f57602060405160008152f35b3461049f5760208060031936011261049f5761095b611843565b906000608060405161096c816118d3565b828152828482015260606040820152826060820152015260018060a01b03809216600052600481526040600020604051916109a6836118d3565b838254168352610a1360018301548285019081526109c66002850161192d565b9060408601918252600460ff60038701541695606088019615158752015493608087019485526040519788978289525116908701525160408601525160a0606086015260c08501906119f6565b9151151560808401525160a08301520390f35b3461049f57604036600319011261049f57610a3f611859565b600435600052600060205260406000209060018060a01b0316600052602052602060ff604060002054166040519015158152f35b3461049f57602036600319011261049f57600435600052600560205260c0604060002080549060018060a01b0390816001820154169160028201541660038201549060ff6005600485015494015416936040519586526020860152604085015260608401526080830152151560a0820152f35b3461049f57600036600319011261049f57610aff611a68565b610b076121af565b600160ff19815416176001557f62e78cea01bee320cd4e420270b5ea74000d11b0c9f74754ebdbfc544b05a2586020604051338152a1005b3461049f57600036600319011261049f57602060405163096601808152f35b3461049f57600036600319011261049f5760206040517fa49807205ce4d355092ef5a8a18f56e8913cf4a201fbe287825b095693c217758152f35b3461049f57602036600319011261049f5760206008546004351015604051908152f35b3461049f57602036600319011261049f576001600160a01b0380610bde611843565b166000526004602052604060002090815416600182015491610c026002820161192d565b610c31600460ff600385015416930154916040519586958652602086015260a0604086015260a08501906119f6565b911515606084015260808301520390f35b3461049f57600036600319011261049f57602060ff600154166040519015158152f35b3461049f57602036600319011261049f57600435600052600360205260406000206008810154156106a35760ff6009602092015416610ca7604051809261186f565bf35b3461049f57602036600319011261049f576004356000526003602052610180604060002080549060018060a01b0390610d6582600183015416926002830154906003840154906004850154166005850154600686015490600787015460e81b9260088801549460ff60098a01541696600b600a8b01549a01549a6040519c8d5260208d015260408c015260608b015260808a015260a089015260c088015262ffffff60e81b1660e087015261010086015261012085019061186f565b610140830152610160820152f35b3461049f57600036600319011261049f5760206040517f8afe619008caa94d998158991ee54511e5059bcccca3d3b478569410d3f4f9db8152f35b3461049f57600036600319011261049f57610dc7611a68565b60015460ff811615610e065760ff19166001557f5db9ee0a495bf2e6ff9c91a7834c1ba4fdd244a5e8aa4e537bd38aeae4b073aa6020604051338152a1005b60405162461bcd60e51b815260206004820152601460248201527314185d5cd8589b194e881b9bdd081c185d5cd95960621b6044820152606490fd5b3461049f57602036600319011261049f576000610160604051610e64816118b6565b8281528260208201528260408201528260608201528260808201528260a08201528260c08201528260e0820152826101008201528261012082015282610140820152015260043560005260036020526040600020604051610ec4816118b6565b8154815260018201546001600160a01b0390811660208301526002830154604083015260038301546060830152600483015416608082015260058083015460a0830152600683015460c0830152600783015460e81b6001600160e81b03191660e08301526008830154610100830152600983015460ff169081101561068d5761018092600b91610120840152600a8101546101408401520154610160820152610160604051918051835260018060a01b036020820151166020840152604081015160408401526060810151606084015260018060a01b03608082015116608084015260a081015160a084015260c081015160c084015262ffffff60e81b60e08201511660e0840152610100810151610100840152610fec61012082015161012085019061186f565b6101408101516101408401520151610160820152f35b3461049f57600036600319011261049f576020604051633b9aca008152f35b3461049f57604036600319011261049f5761103a611859565b336001600160a01b03821603611056576105da90600435612005565b60405162461bcd60e51b815260206004820152602f60248201527f416363657373436f6e74726f6c3a2063616e206f6e6c792072656e6f756e636560448201526e103937b632b9903337b91039b2b63360891b6064820152608490fd5b3461049f5761014036600319011261049f576044356001600160a01b038116810361049f5760a4356001600160a01b038116810361049f57610104356001600160e81b03198116810361049f57611108611db6565b6111106121af565b6001600160a01b0383161561138c576001600160a01b0382161561138c5760e4351561137a57600435600052600660205260406000205461136857604051602081019061119d8161118f4287896004358892606894929184526001600160601b0319809260601b16602085015260601b16603483015260488201520190565b03601f19810183528261190b565b51902091604051906111ae826118b6565b602435825260018060a01b03851660208301526064356040830152608435606083015260018060a01b0316608082015260c43560a082015260e43560c082015262ffffff60e81b821660e082015242610100820152600061012082015260043561014082015261012435610160820152826000526003602052604060002090805182556001820160018060a01b03602083015116906001600160601b0360a01b91828254161790556040820151600284015560608201516003840155600483019060018060a01b036080840151169082541617905560a0810151600583015560c081015160068301556007820160e082015160e81c62ffffff198254161790556101008101516008830155600982019061012081015190600582101561068d57600b926101609260ff80198354169116179055610140810151600a8501550151910155600435600052600660205281604060002055600754926000198414610796576001602094016007556040519160e435835262ffffff60e81b168483015260018060a01b031690827f0342ce06cc66ef6a637a3b2ff876c46342daa6f04669373504609aa3ef39dc87604060043593a4604051908152f35b604051638daa9e4960e01b8152600490fd5b604051631f2a200560e01b8152600490fd5b60405163d92e233d60e01b8152600490fd5b3461049f57606036600319011261049f576004356113ba611859565b906113c3611c83565b6113cb6121af565b806000526020916003835260406000206008810154156106a3576009019060ff825416600581101561068d576001810361157f575060018060a01b0391828216918260005260048652604060002060048101541561156d576003015460ff161561155b5760405186810186815233606090811b6bffffffffffffffffffffffff19908116602084015293901b9092166034830152426048830152611472816068840161118f565b5190209260405160c081019181831067ffffffffffffffff841117610489578760059161152294604052888452818401338152604085018881526060860191604435835260808701934285528660a0890196600088528d600052526040600020975188558060018901925116916001600160601b0360a01b9283825416179055600288019251169082541617905551600385015551600484015551151591019060ff801983541691151516179055565b600360ff1982541617905581604051937fa54fc7bf7859e854b2d6ff39c8691f276aa88e46fcb67ba0e8fe0acec00ada06600080a48152f35b604051631020794f60e11b8152600490fd5b604051636bd763b360e01b8152600490fd5b60405163f924664d60e01b815260449161159d90600483019061186f565b60016024820152fd5b3461049f57604036600319011261049f576004356115c2611859565b8160005260006020526115dc600160406000200154611efb565b81600052600060205260406000209060018060a01b0316908160005260205260ff604060002054161561160b57005b8160005260006020526040600020816000526020526040600020600160ff1982541617905533917f2f8788117e7eff1d82e926ec794901d17c78024a50270940304540a733656f0d600080a4005b3461049f57602036600319011261049f5760043560005260006020526020600160406000200154604051908152f35b3461049f5760208060031936011261049f576116a2611843565b6116aa611a68565b60018060a01b0316908160005260048152604060002060048101541561156d5760030160ff19908181541690556000805160206121f4833981519152918260005260008152604060002084600052815260ff60406000205416611730575b837f9d91315c1b6f13edc9fab98fe3f016e0cc5baeb05a604728cb483fa375aea1b6600080a2005b8260005260008152604060002090846000525260406000209081541690558133917ff6391f5c32d9c69d2a47ea670b442974b53935d1edc7fd64eb21e047a839171b600080a4818080611708565b3461049f57602036600319011261049f5760043560005260066020526020604060002054604051908152f35b3461049f57602036600319011261049f57600435600052600360205260086040600020015480156106a35763096601808101809111610796576020906040519042118152f35b3461049f57602036600319011261049f576004359063ffffffff60e01b821680920361049f57602091637965db0b60e01b8114908115611832575b5015158152f35b6301ffc9a760e01b1490508361182b565b600435906001600160a01b038216820361049f57565b602435906001600160a01b038216820361049f57565b90600582101561068d5752565b90600182811c921680156118ac575b602083101461189657565b634e487b7160e01b600052602260045260246000fd5b91607f169161188b565b610180810190811067ffffffffffffffff82111761048957604052565b60a0810190811067ffffffffffffffff82111761048957604052565b6080810190811067ffffffffffffffff82111761048957604052565b90601f8019910116810190811067ffffffffffffffff82111761048957604052565b90604051918260008254926119418461187c565b9081845260019485811690816000146119b0575060011461196d575b505061196b9250038361190b565b565b9093915060005260209081600020936000915b81831061199857505061196b9350820101388061195d565b85548884018501529485019487945091830191611980565b91505061196b94506020925060ff191682840152151560051b820101388061195d565b60005b8381106119e65750506000910152565b81810151838201526020016119d6565b90602091611a0f815180928185528580860191016119d3565b601f01601f1916010190565b604060031982011261049f576004359160243567ffffffffffffffff9283821161049f578060238301121561049f57816004013593841161049f576024848301011161049f576024019190565b3360009081527f7d7ffb7a348e1c6a02869081a26547b49160dd3df72d1d75a570eb9b698292ec602090815260408083205490927fa49807205ce4d355092ef5a8a18f56e8913cf4a201fbe287825b095693c217759160ff1615611acc5750505050565b611ad5336120a0565b91845190611ae2826118ef565b60428252848201926060368537825115611c6f5760308453825190600191821015611c6f5790607860218501536041915b818311611c0157505050611bbf576048611bbb938693611b9f93611b90985198899376020b1b1b2b9b9a1b7b73a3937b61d1030b1b1b7bab73a1604d1b8a860152611b67815180928c6037890191016119d3565b8401917001034b99036b4b9b9b4b733903937b6329607d1b6037840152518093868401906119d3565b0103602881018752018561190b565b5192839262461bcd60e51b8452600484015260248301906119f6565b0390fd5b60648486519062461bcd60e51b825280600483015260248201527f537472696e67733a20686578206c656e67746820696e73756666696369656e746044820152fd5b909192600f81166010811015611c5b576f181899199a1a9b1b9c1cb0b131b232b360811b901a611c318587612079565b5360041c928015611c4757600019019190611b13565b634e487b7160e01b82526011600452602482fd5b634e487b7160e01b83526032600452602483fd5b634e487b7160e01b81526032600452602490fd5b3360009081527fad17368ab022b3dd69dcfbff79b91fbecb17afbcf3696c4c21f8e16bfd85250d602090815260408083205490926000805160206121f48339815191529160ff1615611cd55750505050565b611cde336120a0565b91845190611ceb826118ef565b60428252848201926060368537825115611c6f5760308453825190600191821015611c6f5790607860218501536041915b818311611d7057505050611bbf576048611bbb938693611b9f93611b90985198899376020b1b1b2b9b9a1b7b73a3937b61d1030b1b1b7bab73a1604d1b8a860152611b67815180928c6037890191016119d3565b909192600f81166010811015611c5b576f181899199a1a9b1b9c1cb0b131b232b360811b901a611da08587612079565b5360041c928015611c4757600019019190611d1c565b3360009081527f5c5aa4ce47aa0197f4a818693e66d92fb17e0e378c20258546593d7163a269bf602090815260408083205490927f8afe619008caa94d998158991ee54511e5059bcccca3d3b478569410d3f4f9db9160ff1615611e1a5750505050565b611e23336120a0565b91845190611e30826118ef565b60428252848201926060368537825115611c6f5760308453825190600191821015611c6f5790607860218501536041915b818311611eb557505050611bbf576048611bbb938693611b9f93611b90985198899376020b1b1b2b9b9a1b7b73a3937b61d1030b1b1b7bab73a1604d1b8a860152611b67815180928c6037890191016119d3565b909192600f81166010811015611c5b576f181899199a1a9b1b9c1cb0b131b232b360811b901a611ee58587612079565b5360041c928015611c4757600019019190611e61565b600090808252602090828252604092838120338252835260ff848220541615611f245750505050565b611f2d336120a0565b91845190611f3a826118ef565b60428252848201926060368537825115611c6f5760308453825190600191821015611c6f5790607860218501536041915b818311611fbf57505050611bbf576048611bbb938693611b9f93611b90985198899376020b1b1b2b9b9a1b7b73a3937b61d1030b1b1b7bab73a1604d1b8a860152611b67815180928c6037890191016119d3565b909192600f81166010811015611c5b576f181899199a1a9b1b9c1cb0b131b232b360811b901a611fef8587612079565b5360041c928015611c4757600019019190611f6b565b9060009180835282602052604083209160018060a01b03169182845260205260ff60408420541661203557505050565b80835282602052604083208284526020526040832060ff1981541690557ff6391f5c32d9c69d2a47ea670b442974b53935d1edc7fd64eb21e047a839171b339380a4565b90815181101561208a570160200190565b634e487b7160e01b600052603260045260246000fd5b604051906060820182811067ffffffffffffffff82111761048957604052602a825260208201604036823782511561208a5760309053815160019081101561208a57607860218401536029905b8082116121415750506120fd5790565b606460405162461bcd60e51b815260206004820152602060248201527f537472696e67733a20686578206c656e67746820696e73756666696369656e746044820152fd5b9091600f8116601081101561219a576f181899199a1a9b1b9c1cb0b131b232b360811b901a6121708486612079565b5360041c9180156121855760001901906120ed565b60246000634e487b7160e01b81526011600452fd5b60246000634e487b7160e01b81526032600452fd5b60ff600154166121bb57565b60405162461bcd60e51b815260206004820152601060248201526f14185d5cd8589b194e881c185d5cd95960821b6044820152606490fdfe355264fab2b232d4f73a1d6e76df0d3eddda816f4cbdd7b0d2174496a045e676a264697066735822122020aef49c7f4de89ec9ed7319e2ef421f54b14cf11ced3d0e1151a69daf72393e64736f6c634300081300332f8788117e7eff1d82e926ec794901d17c78024a50270940304540a733656f0d",
  "linkReferences": {},
  "deployedLinkReferences": {}
}