{
  "_format": "hh-sol-artifact-1",
  "contractName": "PaymentChannels",
  "sourceName": "src/PaymentChannels.sol",
  "abi": [
    {
      "inputs": [
        {
          "internalType": "address",
          "name": "_admin",
          "type": "address"
        },
        {
          "internalType": "address",
          "name": "_protocolTreasury",
          "type": "address"
        },
        {
          "internalType": "uint256",
          "name": "_protocolFeeBps",
          "type": "uint256"
        }
      ],
      "stateMutability": "nonpayable",
      "type": "constructor"
    },
    {
      "inputs": [],
      "name": "BatchTooLarge",
      "type": "error"
    },
    {
      "inputs": [],
      "name": "ChallengeNotExpired",
      "type": "error"
    },
    {
      "inputs": [],
      "name": "ChallengePeriodActive",
      "type": "error"
    },
    {
      "inputs": [],
      "name": "ChallengePeriodExpired",
      "type": "error"
    },
    {
      "inputs": [],
      "name": "ChannelAlreadyExists",
      "type": "error"
    },
    {
      "inputs": [],
      "name": "ChannelNotFound",
      "type": "error"
    },
    {
      "inputs": [],
      "name": "HTLCExpired",
      "type": "error"
    },
    {
      "inputs": [],
      "name": "HTLCNotExpired",
      "type": "error"
    },
    {
      "inputs": [],
      "name": "HTLCNotFound",
      "type": "error"
    },
    {
      "inputs": [],
      "name": "InsufficientDeposit",
      "type": "error"
    },
    {
      "inputs": [],
      "name": "InsufficientStake",
      "type": "error"
    },
    {
      "inputs": [],
      "name": "InvalidBalances",
      "type": "error"
    },
    {
      "inputs": [],
      "name": "InvalidChallengePeriod",
      "type": "error"
    },
    {
      "inputs": [
        {
          "internalType": "enum PaymentChannels.ChannelStatus",
          "name": "current",
          "type": "uint8"
        }
      ],
      "name": "InvalidChannelStatus",
      "type": "error"
    },
    {
      "inputs": [],
      "name": "InvalidFee",
      "type": "error"
    },
    {
      "inputs": [
        {
          "internalType": "enum PaymentChannels.HTLCStatus",
          "name": "current",
          "type": "uint8"
        }
      ],
      "name": "InvalidHTLCStatus",
      "type": "error"
    },
    {
      "inputs": [],
      "name": "InvalidPreimage",
      "type": "error"
    },
    {
      "inputs": [],
      "name": "InvalidSignature",
      "type": "error"
    },
    {
      "inputs": [],
      "name": "InvalidTimelock",
      "type": "error"
    },
    {
      "inputs": [],
      "name": "KYCRequired",
      "type": "error"
    },
    {
      "inputs": [
        {
          "internalType": "uint256",
          "name": "provided",
          "type": "uint256"
        },
        {
          "internalType": "uint256",
          "name": "current",
          "type": "uint256"
        }
      ],
      "name": "NonceTooLow",
      "type": "error"
    },
    {
      "inputs": [],
      "name": "NotChannelParty",
      "type": "error"
    },
    {
      "inputs": [],
      "name": "RoutingPathTooLong",
      "type": "error"
    },
    {
      "inputs": [],
      "name": "UnsupportedToken",
      "type": "error"
    },
    {
      "inputs": [],
      "name": "WatchtowerAlreadyRegistered",
      "type": "error"
    },
    {
      "inputs": [],
      "name": "WatchtowerNotFound",
      "type": "error"
    },
    {
      "inputs": [],
      "name": "ZeroAddress",
      "type": "error"
    },
    {
      "inputs": [],
      "name": "ZeroAmount",
      "type": "error"
    },
    {
      "anonymous": false,
      "inputs": [
        {
          "indexed": true,
          "internalType": "bytes32",
          "name": "channelId",
          "type": "bytes32"
        }
      ],
      "name": "ChannelActivated",
      "type": "event"
    },
    {
      "anonymous": false,
      "inputs": [
        {
          "indexed": false,
          "internalType": "uint256",
          "name": "count",
          "type": "uint256"
        }
      ],
      "name": "ChannelBatchOpened",
      "type": "event"
    },
    {
      "anonymous": false,
      "inputs": [
        {
          "indexed": true,
          "internalType": "bytes32",
          "name": "channelId",
          "type": "bytes32"
        },
        {
          "indexed": false,
          "internalType": "uint256",
          "name": "finalBalanceA",
          "type": "uint256"
        },
        {
          "indexed": false,
          "internalType": "uint256",
          "name": "finalBalanceB",
          "type": "uint256"
        }
      ],
      "name": "ChannelClosed",
      "type": "event"
    },
    {
      "anonymous": false,
      "inputs": [
        {
          "indexed": true,
          "internalType": "bytes32",
          "name": "channelId",
          "type": "bytes32"
        },
        {
          "indexed": false,
          "internalType": "uint256",
          "name": "finalBalanceA",
          "type": "uint256"
        },
        {
          "indexed": false,
          "internalType": "uint256",
          "name": "finalBalanceB",
          "type": "uint256"
        },
        {
          "indexed": false,
          "internalType": "uint256",
          "name": "nonce",
          "type": "uint256"
        }
      ],
      "name": "ChannelCooperativeClose",
      "type": "event"
    },
    {
      "anonymous": false,
      "inputs": [
        {
          "indexed": true,
          "internalType": "bytes32",
          "name": "channelId",
          "type": "bytes32"
        },
        {
          "indexed": true,
          "internalType": "address",
          "name": "funder",
          "type": "address"
        },
        {
          "indexed": false,
          "internalType": "uint256",
          "name": "amount",
          "type": "uint256"
        },
        {
          "indexed": false,
          "internalType": "uint256",
          "name": "totalDeposit",
          "type": "uint256"
        }
      ],
      "name": "ChannelFunded",
      "type": "event"
    },
    {
      "anonymous": false,
      "inputs": [
        {
          "indexed": true,
          "internalType": "bytes32",
          "name": "channelId",
          "type": "bytes32"
        },
        {
          "indexed": true,
          "internalType": "address",
          "name": "partyA",
          "type": "address"
        },
        {
          "indexed": true,
          "internalType": "address",
          "name": "partyB",
          "type": "address"
        },
        {
          "indexed": false,
          "internalType": "address",
          "name": "token",
          "type": "address"
        },
        {
          "indexed": false,
          "internalType": "uint256",
          "name": "depositA",
          "type": "uint256"
        },
        {
          "indexed": false,
          "internalType": "uint256",
          "name": "challengePeriod",
          "type": "uint256"
        }
      ],
      "name": "ChannelOpened",
      "type": "event"
    },
    {
      "anonymous": false,
      "inputs": [
        {
          "indexed": true,
          "internalType": "bytes32",
          "name": "channelId",
          "type": "bytes32"
        },
        {
          "indexed": true,
          "internalType": "address",
          "name": "initiator",
          "type": "address"
        },
        {
          "indexed": false,
          "internalType": "uint256",
          "name": "claimedBalanceA",
          "type": "uint256"
        },
        {
          "indexed": false,
          "internalType": "uint256",
          "name": "claimedBalanceB",
          "type": "uint256"
        },
        {
          "indexed": false,
          "internalType": "uint256",
          "name": "nonce",
          "type": "uint256"
        }
      ],
      "name": "ChannelUnilateralClose",
      "type": "event"
    },
    {
      "anonymous": false,
      "inputs": [
        {
          "indexed": true,
          "internalType": "bytes32",
          "name": "channelId",
          "type": "bytes32"
        },
        {
          "indexed": true,
          "internalType": "address",
          "name": "responder",
          "type": "address"
        },
        {
          "indexed": false,
          "internalType": "uint256",
          "name": "higherNonce",
          "type": "uint256"
        }
      ],
      "name": "DisputeCountered",
      "type": "event"
    },
    {
      "anonymous": false,
      "inputs": [
        {
          "indexed": true,
          "internalType": "bytes32",
          "name": "channelId",
          "type": "bytes32"
        },
        {
          "indexed": true,
          "internalType": "address",
          "name": "challenger",
          "type": "address"
        },
        {
          "indexed": false,
          "internalType": "uint256",
          "name": "nonce",
          "type": "uint256"
        },
        {
          "indexed": false,
          "internalType": "uint256",
          "name": "expiresAt",
          "type": "uint256"
        }
      ],
      "name": "DisputeInitiated",
      "type": "event"
    },
    {
      "anonymous": false,
      "inputs": [
        {
          "indexed": true,
          "internalType": "bytes32",
          "name": "channelId",
          "type": "bytes32"
        },
        {
          "indexed": false,
          "internalType": "uint256",
          "name": "finalBalanceA",
          "type": "uint256"
        },
        {
          "indexed": false,
          "internalType": "uint256",
          "name": "finalBalanceB",
          "type": "uint256"
        }
      ],
      "name": "DisputeResolved",
      "type": "event"
    },
    {
      "anonymous": false,
      "inputs": [
        {
          "indexed": true,
          "internalType": "bytes32",
          "name": "htlcId",
          "type": "bytes32"
        },
        {
          "indexed": false,
          "internalType": "bytes32",
          "name": "preimage",
          "type": "bytes32"
        }
      ],
      "name": "HTLCClaimed",
      "type": "event"
    },
    {
      "anonymous": false,
      "inputs": [
        {
          "indexed": true,
          "internalType": "bytes32",
          "name": "htlcId",
          "type": "bytes32"
        },
        {
          "indexed": true,
          "internalType": "bytes32",
          "name": "channelId",
          "type": "bytes32"
        },
        {
          "indexed": true,
          "internalType": "address",
          "name": "sender",
          "type": "address"
        },
        {
          "indexed": false,
          "internalType": "uint256",
          "name": "amount",
          "type": "uint256"
        },
        {
          "indexed": false,
          "internalType": "bytes32",
          "name": "hashLock",
          "type": "bytes32"
        },
        {
          "indexed": false,
          "internalType": "uint256",
          "name": "timelock",
          "type": "uint256"
        }
      ],
      "name": "HTLCCreated",
      "type": "event"
    },
    {
      "anonymous": false,
      "inputs": [
        {
          "indexed": true,
          "internalType": "bytes32",
          "name": "htlcId",
          "type": "bytes32"
        }
      ],
      "name": "HTLCRefunded",
      "type": "event"
    },
    {
      "anonymous": false,
      "inputs": [
        {
          "indexed": true,
          "internalType": "address",
          "name": "party",
          "type": "address"
        },
        {
          "indexed": false,
          "internalType": "bool",
          "name": "verified",
          "type": "bool"
        }
      ],
      "name": "KYCStatusUpdated",
      "type": "event"
    },
    {
      "anonymous": false,
      "inputs": [
        {
          "indexed": false,
          "internalType": "address",
          "name": "account",
          "type": "address"
        }
      ],
      "name": "Paused",
      "type": "event"
    },
    {
      "anonymous": false,
      "inputs": [
        {
          "indexed": true,
          "internalType": "bytes32",
          "name": "role",
          "type": "bytes32"
        },
        {
          "indexed": true,
          "internalType": "bytes32",
          "name": "previousAdminRole",
          "type": "bytes32"
        },
        {
          "indexed": true,
          "internalType": "bytes32",
          "name": "newAdminRole",
          "type": "bytes32"
        }
      ],
      "name": "RoleAdminChanged",
      "type": "event"
    },
    {
      "anonymous": false,
      "inputs": [
        {
          "indexed": true,
          "internalType": "bytes32",
          "name": "role",
          "type": "bytes32"
        },
        {
          "indexed": true,
          "internalType": "address",
          "name": "account",
          "type": "address"
        },
        {
          "indexed": true,
          "internalType": "address",
          "name": "sender",
          "type": "address"
        }
      ],
      "name": "RoleGranted",
      "type": "event"
    },
    {
      "anonymous": false,
      "inputs": [
        {
          "indexed": true,
          "internalType": "bytes32",
          "name": "role",
          "type": "bytes32"
        },
        {
          "indexed": true,
          "internalType": "address",
          "name": "account",
          "type": "address"
        },
        {
          "indexed": true,
          "internalType": "address",
          "name": "sender",
          "type": "address"
        }
      ],
      "name": "RoleRevoked",
      "type": "event"
    },
    {
      "anonymous": false,
      "inputs": [
        {
          "indexed": true,
          "internalType": "bytes32",
          "name": "pathId",
          "type": "bytes32"
        }
      ],
      "name": "RoutingPathCompleted",
      "type": "event"
    },
    {
      "anonymous": false,
      "inputs": [
        {
          "indexed": true,
          "internalType": "bytes32",
          "name": "pathId",
          "type": "bytes32"
        },
        {
          "indexed": false,
          "internalType": "uint256",
          "name": "hops",
          "type": "uint256"
        },
        {
          "indexed": false,
          "internalType": "uint256",
          "name": "amount",
          "type": "uint256"
        },
        {
          "indexed": false,
          "internalType": "uint256",
          "name": "totalFees",
          "type": "uint256"
        }
      ],
      "name": "RoutingPathCreated",
      "type": "event"
    },
    {
      "anonymous": false,
      "inputs": [
        {
          "indexed": true,
          "internalType": "address",
          "name": "token",
          "type": "address"
        },
        {
          "indexed": false,
          "internalType": "bool",
          "name": "supported",
          "type": "bool"
        }
      ],
      "name": "TokenSupported",
      "type": "event"
    },
    {
      "anonymous": false,
      "inputs": [
        {
          "indexed": false,
          "internalType": "address",
          "name": "account",
          "type": "address"
        }
      ],
      "name": "Unpaused",
      "type": "event"
    },
    {
      "anonymous": false,
      "inputs": [
        {
          "indexed": true,
          "internalType": "bytes32",
          "name": "channelId",
          "type": "bytes32"
        },
        {
          "indexed": true,
          "internalType": "address",
          "name": "watchtower",
          "type": "address"
        }
      ],
      "name": "WatchtowerAssigned",
      "type": "event"
    },
    {
      "anonymous": false,
      "inputs": [
        {
          "indexed": true,
          "internalType": "address",
          "name": "operator",
          "type": "address"
        },
        {
          "indexed": false,
          "internalType": "uint256",
          "name": "stakeReturned",
          "type": "uint256"
        }
      ],
      "name": "WatchtowerDeregistered",
      "type": "event"
    },
    {
      "anonymous": false,
      "inputs": [
        {
          "indexed": true,
          "internalType": "address",
          "name": "operator",
          "type": "address"
        },
        {
          "indexed": false,
          "internalType": "uint256",
          "name": "stake",
          "type": "uint256"
        },
        {
          "indexed": false,
          "internalType": "uint256",
          "name": "bountyBps",
          "type": "uint256"
        }
      ],
      "name": "WatchtowerRegistered",
      "type": "event"
    },
    {
      "inputs": [],
      "name": "ADMIN_ROLE",
      "outputs": [
        {
          "internalType": "bytes32",
          "name": "",
          "type": "bytes32"
        }
      ],
      "stateMutability": "view",
      "type": "function"
    },
    {
      "inputs": [],
      "name": "DEFAULT_ADMIN_ROLE",
      "outputs": [
        {
          "internalType": "bytes32",
          "name": "",
          "type": "bytes32"
        }
      ],
      "stateMutability": "view",
      "type": "function"
    },
    {
      "inputs": [],
      "name": "DEFAULT_CHALLENGE_PERIOD",
      "outputs": [
        {
          "internalType": "uint256",
          "name": "",
          "type": "uint256"
        }
      ],
      "stateMutability": "view",
      "type": "function"
    },
    {
      "inputs": [],
      "name": "MAX_BATCH_SIZE",
      "outputs": [
        {
          "internalType": "uint256",
          "name": "",
          "type": "uint256"
        }
      ],
      "stateMutability": "view",
      "type": "function"
    },
    {
      "inputs": [],
      "name": "MAX_CHALLENGE_PERIOD",
      "outputs": [
        {
          "internalType": "uint256",
          "name": "",
          "type": "uint256"
        }
      ],
      "stateMutability": "view",
      "type": "function"
    },
    {
      "inputs": [],
      "name": "MAX_HTLC_TIMELOCK",
      "outputs": [
        {
          "internalType": "uint256",
          "name": "",
          "type": "uint256"
        }
      ],
      "stateMutability": "view",
      "type": "function"
    },
    {
      "inputs": [],
      "name": "MAX_ROUTING_FEE_BPS",
      "outputs": [
        {
          "internalType": "uint256",
          "name": "",
          "type": "uint256"
        }
      ],
      "stateMutability": "view",
      "type": "function"
    },
    {
      "inputs": [],
      "name": "MAX_ROUTING_HOPS",
      "outputs": [
        {
          "internalType": "uint256",
          "name": "",
          "type": "uint256"
        }
      ],
      "stateMutability": "view",
      "type": "function"
    },
    {
      "inputs": [],
      "name": "MIN_CHALLENGE_PERIOD",
      "outputs": [
        {
          "internalType": "uint256",
          "name": "",
          "type": "uint256"
        }
      ],
      "stateMutability": "view",
      "type": "function"
    },
    {
      "inputs": [],
      "name": "MIN_HTLC_TIMELOCK",
      "outputs": [
        {
          "internalType": "uint256",
          "name": "",
          "type": "uint256"
        }
      ],
      "stateMutability": "view",
      "type": "function"
    },
    {
      "inputs": [],
      "name": "MIN_WATCHTOWER_STAKE",
      "outputs": [
        {
          "internalType": "uint256",
          "name": "",
          "type": "uint256"
        }
      ],
      "stateMutability": "view",
      "type": "function"
    },
    {
      "inputs": [],
      "name": "ROUTER_ROLE",
      "outputs": [
        {
          "internalType": "bytes32",
          "name": "",
          "type": "bytes32"
        }
      ],
      "stateMutability": "view",
      "type": "function"
    },
    {
      "inputs": [],
      "name": "WATCHTOWER_ROLE",
      "outputs": [
        {
          "internalType": "bytes32",
          "name": "",
          "type": "bytes32"
        }
      ],
      "stateMutability": "view",
      "type": "function"
    },
    {
      "inputs": [
        {
          "internalType": "bytes32",
          "name": "_channelId",
          "type": "bytes32"
        },
        {
          "internalType": "address",
          "name": "_watchtower",
          "type": "address"
        }
      ],
      "name": "assignWatchtower",
      "outputs": [],
      "stateMutability": "nonpayable",
      "type": "function"
    },
    {
      "inputs": [
        {
          "internalType": "address[]",
          "name": "_counterparties",
          "type": "address[]"
        },
        {
          "internalType": "address",
          "name": "_token",
          "type": "address"
        },
        {
          "internalType": "uint256[]",
          "name": "_deposits",
          "type": "uint256[]"
        },
        {
          "internalType": "uint256",
          "name": "_challengePeriod",
          "type": "uint256"
        },
        {
          "internalType": "uint256",
          "name": "_routingFeeBps",
          "type": "uint256"
        }
      ],
      "name": "batchOpenChannels",
      "outputs": [
        {
          "internalType": "bytes32[]",
          "name": "channelIds",
          "type": "bytes32[]"
        }
      ],
      "stateMutability": "nonpayable",
      "type": "function"
    },
    {
      "inputs": [
        {
          "internalType": "address[]",
          "name": "_parties",
          "type": "address[]"
        },
        {
          "internalType": "bool[]",
          "name": "_statuses",
          "type": "bool[]"
        }
      ],
      "name": "batchSetKYCStatus",
      "outputs": [],
      "stateMutability": "nonpayable",
      "type": "function"
    },
    {
      "inputs": [
        {
          "internalType": "bytes32",
          "name": "",
          "type": "bytes32"
        },
        {
          "internalType": "uint256",
          "name": "",
          "type": "uint256"
        }
      ],
      "name": "channelHTLCs",
      "outputs": [
        {
          "internalType": "bytes32",
          "name": "",
          "type": "bytes32"
        }
      ],
      "stateMutability": "view",
      "type": "function"
    },
    {
      "inputs": [],
      "name": "channelNonce",
      "outputs": [
        {
          "internalType": "uint256",
          "name": "",
          "type": "uint256"
        }
      ],
      "stateMutability": "view",
      "type": "function"
    },
    {
      "inputs": [
        {
          "internalType": "bytes32",
          "name": "",
          "type": "bytes32"
        },
        {
          "internalType": "uint256",
          "name": "",
          "type": "uint256"
        }
      ],
      "name": "channelWatchtowers",
      "outputs": [
        {
          "internalType": "address",
          "name": "",
          "type": "address"
        }
      ],
      "stateMutability": "view",
      "type": "function"
    },
    {
      "inputs": [
        {
          "internalType": "bytes32",
          "name": "",
          "type": "bytes32"
        }
      ],
      "name": "channels",
      "outputs": [
        {
          "internalType": "bytes32",
          "name": "channelId",
          "type": "bytes32"
        },
        {
          "internalType": "address",
          "name": "partyA",
          "type": "address"
        },
        {
          "internalType": "address",
          "name": "partyB",
          "type": "address"
        },
        {
          "internalType": "address",
          "name": "token",
          "type": "address"
        },
        {
          "internalType": "uint256",
          "name": "depositA",
          "type": "uint256"
        },
        {
          "internalType": "uint256",
          "name": "depositB",
          "type": "uint256"
        },
        {
          "internalType": "uint256",
          "name": "balanceA",
          "type": "uint256"
        },
        {
          "internalType": "uint256",
          "name": "balanceB",
          "type": "uint256"
        },
        {
          "internalType": "enum PaymentChannels.ChannelStatus",
          "name": "status",
          "type": "uint8"
        },
        {
          "internalType": "uint256",
          "name": "nonce",
          "type": "uint256"
        },
        {
          "internalType": "uint256",
          "name": "openedAt",
          "type": "uint256"
        },
        {
          "internalType": "uint256",
          "name": "closingAt",
          "type": "uint256"
        },
        {
          "internalType": "uint256",
          "name": "closedAt",
          "type": "uint256"
        },
        {
          "internalType": "uint256",
          "name": "challengePeriod",
          "type": "uint256"
        },
        {
          "internalType": "uint256",
          "name": "routingFeeBps",
          "type": "uint256"
        }
      ],
      "stateMutability": "view",
      "type": "function"
    },
    {
      "inputs": [
        {
          "internalType": "bytes32",
          "name": "_htlcId",
          "type": "bytes32"
        },
        {
          "internalType": "bytes32",
          "name": "_preimage",
          "type": "bytes32"
        }
      ],
      "name": "claimHTLC",
      "outputs": [],
      "stateMutability": "nonpayable",
      "type": "function"
    },
    {
      "inputs": [
        {
          "internalType": "bytes32",
          "name": "_pathId",
          "type": "bytes32"
        }
      ],
      "name": "completeRoutingPath",
      "outputs": [],
      "stateMutability": "nonpayable",
      "type": "function"
    },
    {
      "inputs": [
        {
          "internalType": "bytes32",
          "name": "_channelId",
          "type": "bytes32"
        },
        {
          "internalType": "uint256",
          "name": "_balanceA",
          "type": "uint256"
        },
        {
          "internalType": "uint256",
          "name": "_balanceB",
          "type": "uint256"
        },
        {
          "internalType": "uint256",
          "name": "_nonce",
          "type": "uint256"
        },
        {
          "internalType": "string",
          "name": "_type",
          "type": "string"
        }
      ],
      "name": "computeStateHash",
      "outputs": [
        {
          "internalType": "bytes32",
          "name": "",
          "type": "bytes32"
        }
      ],
      "stateMutability": "pure",
      "type": "function"
    },
    {
      "inputs": [
        {
          "internalType": "bytes32",
          "name": "_channelId",
          "type": "bytes32"
        },
        {
          "internalType": "uint256",
          "name": "_finalBalanceA",
          "type": "uint256"
        },
        {
          "internalType": "uint256",
          "name": "_finalBalanceB",
          "type": "uint256"
        },
        {
          "internalType": "uint256",
          "name": "_nonce",
          "type": "uint256"
        },
        {
          "internalType": "bytes",
          "name": "_signatureA",
          "type": "bytes"
        },
        {
          "internalType": "bytes",
          "name": "_signatureB",
          "type": "bytes"
        }
      ],
      "name": "cooperativeClose",
      "outputs": [],
      "stateMutability": "nonpayable",
      "type": "function"
    },
    {
      "inputs": [
        {
          "internalType": "bytes32",
          "name": "_channelId",
          "type": "bytes32"
        },
        {
          "internalType": "uint256",
          "name": "_balanceA",
          "type": "uint256"
        },
        {
          "internalType": "uint256",
          "name": "_balanceB",
          "type": "uint256"
        },
        {
          "internalType": "uint256",
          "name": "_nonce",
          "type": "uint256"
        },
        {
          "internalType": "bytes",
          "name": "_signature",
          "type": "bytes"
        }
      ],
      "name": "counterDispute",
      "outputs": [],
      "stateMutability": "nonpayable",
      "type": "function"
    },
    {
      "inputs": [
        {
          "internalType": "bytes32",
          "name": "_channelId",
          "type": "bytes32"
        },
        {
          "internalType": "uint256",
          "name": "_amount",
          "type": "uint256"
        },
        {
          "internalType": "bytes32",
          "name": "_hashLock",
          "type": "bytes32"
        },
        {
          "internalType": "uint256",
          "name": "_timelock",
          "type": "uint256"
        }
      ],
      "name": "createHTLC",
      "outputs": [
        {
          "internalType": "bytes32",
          "name": "htlcId",
          "type": "bytes32"
        }
      ],
      "stateMutability": "nonpayable",
      "type": "function"
    },
    {
      "inputs": [],
      "name": "deregisterWatchtower",
      "outputs": [],
      "stateMutability": "nonpayable",
      "type": "function"
    },
    {
      "inputs": [
        {
          "internalType": "bytes32",
          "name": "",
          "type": "bytes32"
        }
      ],
      "name": "disputes",
      "outputs": [
        {
          "internalType": "bytes32",
          "name": "channelId",
          "type": "bytes32"
        },
        {
          "internalType": "address",
          "name": "challenger",
          "type": "address"
        },
        {
          "internalType": "uint256",
          "name": "challengeNonce",
          "type": "uint256"
        },
        {
          "internalType": "uint256",
          "name": "challengeBalanceA",
          "type": "uint256"
        },
        {
          "internalType": "uint256",
          "name": "challengeBalanceB",
          "type": "uint256"
        },
        {
          "internalType": "uint256",
          "name": "initiatedAt",
          "type": "uint256"
        },
        {
          "internalType": "uint256",
          "name": "expiresAt",
          "type": "uint256"
        },
        {
          "internalType": "bool",
          "name": "resolved",
          "type": "bool"
        }
      ],
      "stateMutability": "view",
      "type": "function"
    },
    {
      "inputs": [
        {
          "internalType": "bytes32",
          "name": "_channelId",
          "type": "bytes32"
        }
      ],
      "name": "finalizeClose",
      "outputs": [],
      "stateMutability": "nonpayable",
      "type": "function"
    },
    {
      "inputs": [
        {
          "internalType": "bytes32",
          "name": "_channelId",
          "type": "bytes32"
        },
        {
          "internalType": "uint256",
          "name": "_amount",
          "type": "uint256"
        }
      ],
      "name": "fundChannel",
      "outputs": [],
      "stateMutability": "nonpayable",
      "type": "function"
    },
    {
      "inputs": [
        {
          "internalType": "bytes32",
          "name": "_channelId",
          "type": "bytes32"
        }
      ],
      "name": "getChannel",
      "outputs": [
        {
          "components": [
            {
              "internalType": "bytes32",
              "name": "channelId",
              "type": "bytes32"
            },
            {
              "internalType": "address",
              "name": "partyA",
              "type": "address"
            },
            {
              "internalType": "address",
              "name": "partyB",
              "type": "address"
            },
            {
              "internalType": "address",
              "name": "token",
              "type": "address"
            },
            {
              "internalType": "uint256",
              "name": "depositA",
              "type": "uint256"
            },
            {
              "internalType": "uint256",
              "name": "depositB",
              "type": "uint256"
            },
            {
              "internalType": "uint256",
              "name": "balanceA",
              "type": "uint256"
            },
            {
              "internalType": "uint256",
              "name": "balanceB",
              "type": "uint256"
            },
            {
              "internalType": "enum PaymentChannels.ChannelStatus",
              "name": "status",
              "type": "uint8"
            },
            {
              "internalType": "uint256",
              "name": "nonce",
              "type": "uint256"
            },
            {
              "internalType": "uint256",
              "name": "openedAt",
              "type": "uint256"
            },
            {
              "internalType": "uint256",
              "name": "closingAt",
              "type": "uint256"
            },
            {
              "internalType": "uint256",
              "name": "closedAt",
              "type": "uint256"
            },
            {
              "internalType": "uint256",
              "name": "challengePeriod",
              "type": "uint256"
            },
            {
              "internalType": "uint256",
              "name": "routingFeeBps",
              "type": "uint256"
            }
          ],
          "internalType": "struct PaymentChannels.Channel",
          "name": "",
          "type": "tuple"
        }
      ],
      "stateMutability": "view",
      "type": "function"
    },
    {
      "inputs": [
        {
          "internalType": "bytes32",
          "name": "_channelId",
          "type": "bytes32"
        }
      ],
      "name": "getChannelHTLCs",
      "outputs": [
        {
          "internalType": "bytes32[]",
          "name": "",
          "type": "bytes32[]"
        }
      ],
      "stateMutability": "view",
      "type": "function"
    },
    {
      "inputs": [
        {
          "internalType": "bytes32",
          "name": "_channelId",
          "type": "bytes32"
        }
      ],
      "name": "getChannelWatchtowers",
      "outputs": [
        {
          "internalType": "address[]",
          "name": "",
          "type": "address[]"
        }
      ],
      "stateMutability": "view",
      "type": "function"
    },
    {
      "inputs": [
        {
          "internalType": "bytes32",
          "name": "_channelId",
          "type": "bytes32"
        }
      ],
      "name": "getDispute",
      "outputs": [
        {
          "components": [
            {
              "internalType": "bytes32",
              "name": "channelId",
              "type": "bytes32"
            },
            {
              "internalType": "address",
              "name": "challenger",
              "type": "address"
            },
            {
              "internalType": "uint256",
              "name": "challengeNonce",
              "type": "uint256"
            },
            {
              "internalType": "uint256",
              "name": "challengeBalanceA",
              "type": "uint256"
            },
            {
              "internalType": "uint256",
              "name": "challengeBalanceB",
              "type": "uint256"
            },
            {
              "internalType": "uint256",
              "name": "initiatedAt",
              "type": "uint256"
            },
            {
              "internalType": "uint256",
              "name": "expiresAt",
              "type": "uint256"
            },
            {
              "internalType": "bool",
              "name": "resolved",
              "type": "bool"
            }
          ],
          "internalType": "struct PaymentChannels.ChannelDispute",
          "name": "",
          "type": "tuple"
        }
      ],
      "stateMutability": "view",
      "type": "function"
    },
    {
      "inputs": [
        {
          "internalType": "bytes32",
          "name": "_htlcId",
          "type": "bytes32"
        }
      ],
      "name": "getHTLC",
      "outputs": [
        {
          "components": [
            {
              "internalType": "bytes32",
              "name": "htlcId",
              "type": "bytes32"
            },
            {
              "internalType": "bytes32",
              "name": "channelId",
              "type": "bytes32"
            },
            {
              "internalType": "address",
              "name": "sender",
              "type": "address"
            },
            {
              "internalType": "address",
              "name": "receiver",
              "type": "address"
            },
            {
              "internalType": "uint256",
              "name": "amount",
              "type": "uint256"
            },
            {
              "internalType": "bytes32",
              "name": "hashLock",
              "type": "bytes32"
            },
            {
              "internalType": "uint256",
              "name": "timelock",
              "type": "uint256"
            },
            {
              "internalType": "enum PaymentChannels.HTLCStatus",
              "name": "status",
              "type": "uint8"
            },
            {
              "internalType": "uint256",
              "name": "createdAt",
              "type": "uint256"
            }
          ],
          "internalType": "struct PaymentChannels.HTLC",
          "name": "",
          "type": "tuple"
        }
      ],
      "stateMutability": "view",
      "type": "function"
    },
    {
      "inputs": [
        {
          "internalType": "bytes32",
          "name": "role",
          "type": "bytes32"
        }
      ],
      "name": "getRoleAdmin",
      "outputs": [
        {
          "internalType": "bytes32",
          "name": "",
          "type": "bytes32"
        }
      ],
      "stateMutability": "view",
      "type": "function"
    },
    {
      "inputs": [
        {
          "internalType": "bytes32",
          "name": "_pathId",
          "type": "bytes32"
        }
      ],
      "name": "getRoutingPath",
      "outputs": [
        {
          "components": [
            {
              "internalType": "bytes32",
              "name": "pathId",
              "type": "bytes32"
            },
            {
              "internalType": "bytes32[]",
              "name": "channelIds",
              "type": "bytes32[]"
            },
            {
              "internalType": "address[]",
              "name": "intermediaries",
              "type": "address[]"
            },
            {
              "internalType": "uint256",
              "name": "totalFees",
              "type": "uint256"
            },
            {
              "internalType": "uint256",
              "name": "amount",
              "type": "uint256"
            },
            {
              "internalType": "uint256",
              "name": "createdAt",
              "type": "uint256"
            },
            {
              "internalType": "bool",
              "name": "completed",
              "type": "bool"
            }
          ],
          "internalType": "struct PaymentChannels.RoutingPath",
          "name": "",
          "type": "tuple"
        }
      ],
      "stateMutability": "view",
      "type": "function"
    },
    {
      "inputs": [
        {
          "internalType": "address",
          "name": "_user",
          "type": "address"
        }
      ],
      "name": "getUserChannels",
      "outputs": [
        {
          "internalType": "bytes32[]",
          "name": "",
          "type": "bytes32[]"
        }
      ],
      "stateMutability": "view",
      "type": "function"
    },
    {
      "inputs": [
        {
          "internalType": "address",
          "name": "_operator",
          "type": "address"
        }
      ],
      "name": "getWatchtower",
      "outputs": [
        {
          "components": [
            {
              "internalType": "address",
              "name": "operator",
              "type": "address"
            },
            {
              "internalType": "uint256",
              "name": "stake",
              "type": "uint256"
            },
            {
              "internalType": "uint256",
              "name": "bountyBps",
              "type": "uint256"
            },
            {
              "internalType": "uint256",
              "name": "channelsMonitored",
              "type": "uint256"
            },
            {
              "internalType": "uint256",
              "name": "disputesRaised",
              "type": "uint256"
            },
            {
              "internalType": "bool",
              "name": "active",
              "type": "bool"
            },
            {
              "internalType": "uint256",
              "name": "registeredAt",
              "type": "uint256"
            }
          ],
          "internalType": "struct PaymentChannels.Watchtower",
          "name": "",
          "type": "tuple"
        }
      ],
      "stateMutability": "view",
      "type": "function"
    },
    {
      "inputs": [
        {
          "internalType": "bytes32",
          "name": "role",
          "type": "bytes32"
        },
        {
          "internalType": "address",
          "name": "account",
          "type": "address"
        }
      ],
      "name": "grantRole",
      "outputs": [],
      "stateMutability": "nonpayable",
      "type": "function"
    },
    {
      "inputs": [
        {
          "internalType": "bytes32",
          "name": "role",
          "type": "bytes32"
        },
        {
          "internalType": "address",
          "name": "account",
          "type": "address"
        }
      ],
      "name": "hasRole",
      "outputs": [
        {
          "internalType": "bool",
          "name": "",
          "type": "bool"
        }
      ],
      "stateMutability": "view",
      "type": "function"
    },
    {
      "inputs": [],
      "name": "htlcNonce",
      "outputs": [
        {
          "internalType": "uint256",
          "name": "",
          "type": "uint256"
        }
      ],
      "stateMutability": "view",
      "type": "function"
    },
    {
      "inputs": [
        {
          "internalType": "bytes32",
          "name": "",
          "type": "bytes32"
        }
      ],
      "name": "htlcs",
      "outputs": [
        {
          "internalType": "bytes32",
          "name": "htlcId",
          "type": "bytes32"
        },
        {
          "internalType": "bytes32",
          "name": "channelId",
          "type": "bytes32"
        },
        {
          "internalType": "address",
          "name": "sender",
          "type": "address"
        },
        {
          "internalType": "address",
          "name": "receiver",
          "type": "address"
        },
        {
          "internalType": "uint256",
          "name": "amount",
          "type": "uint256"
        },
        {
          "internalType": "bytes32",
          "name": "hashLock",
          "type": "bytes32"
        },
        {
          "internalType": "uint256",
          "name": "timelock",
          "type": "uint256"
        },
        {
          "internalType": "enum PaymentChannels.HTLCStatus",
          "name": "status",
          "type": "uint8"
        },
        {
          "internalType": "uint256",
          "name": "createdAt",
          "type": "uint256"
        }
      ],
      "stateMutability": "view",
      "type": "function"
    },
    {
      "inputs": [
        {
          "internalType": "bytes32",
          "name": "_channelId",
          "type": "bytes32"
        },
        {
          "internalType": "uint256",
          "name": "_balanceA",
          "type": "uint256"
        },
        {
          "internalType": "uint256",
          "name": "_balanceB",
          "type": "uint256"
        },
        {
          "internalType": "uint256",
          "name": "_nonce",
          "type": "uint256"
        },
        {
          "internalType": "bytes",
          "name": "_signature",
          "type": "bytes"
        }
      ],
      "name": "initiateUnilateralClose",
      "outputs": [],
      "stateMutability": "nonpayable",
      "type": "function"
    },
    {
      "inputs": [
        {
          "internalType": "address",
          "name": "",
          "type": "address"
        }
      ],
      "name": "kycVerified",
      "outputs": [
        {
          "internalType": "bool",
          "name": "",
          "type": "bool"
        }
      ],
      "stateMutability": "view",
      "type": "function"
    },
    {
      "inputs": [],
      "name": "noblePayContract",
      "outputs": [
        {
          "internalType": "address",
          "name": "",
          "type": "address"
        }
      ],
      "stateMutability": "view",
      "type": "function"
    },
    {
      "inputs": [
        {
          "internalType": "address",
          "name": "_partyB",
          "type": "address"
        },
        {
          "internalType": "address",
          "name": "_token",
          "type": "address"
        },
        {
          "internalType": "uint256",
          "name": "_depositAmount",
          "type": "uint256"
        },
        {
          "internalType": "uint256",
          "name": "_challengePeriod",
          "type": "uint256"
        },
        {
          "internalType": "uint256",
          "name": "_routingFeeBps",
          "type": "uint256"
        }
      ],
      "name": "openChannel",
      "outputs": [
        {
          "internalType": "bytes32",
          "name": "channelId",
          "type": "bytes32"
        }
      ],
      "stateMutability": "nonpayable",
      "type": "function"
    },
    {
      "inputs": [],
      "name": "pause",
      "outputs": [],
      "stateMutability": "nonpayable",
      "type": "function"
    },
    {
      "inputs": [],
      "name": "paused",
      "outputs": [
        {
          "internalType": "bool",
          "name": "",
          "type": "bool"
        }
      ],
      "stateMutability": "view",
      "type": "function"
    },
    {
      "inputs": [],
      "name": "protocolFeeBps",
      "outputs": [
        {
          "internalType": "uint256",
          "name": "",
          "type": "uint256"
        }
      ],
      "stateMutability": "view",
      "type": "function"
    },
    {
      "inputs": [],
      "name": "protocolTreasury",
      "outputs": [
        {
          "internalType": "address",
          "name": "",
          "type": "address"
        }
      ],
      "stateMutability": "view",
      "type": "function"
    },
    {
      "inputs": [
        {
          "internalType": "bytes32",
          "name": "_htlcId",
          "type": "bytes32"
        }
      ],
      "name": "refundHTLC",
      "outputs": [],
      "stateMutability": "nonpayable",
      "type": "function"
    },
    {
      "inputs": [
        {
          "internalType": "bytes32[]",
          "name": "_channelIds",
          "type": "bytes32[]"
        },
        {
          "internalType": "address[]",
          "name": "_intermediaries",
          "type": "address[]"
        },
        {
          "internalType": "uint256",
          "name": "_amount",
          "type": "uint256"
        }
      ],
      "name": "registerRoutingPath",
      "outputs": [
        {
          "internalType": "bytes32",
          "name": "pathId",
          "type": "bytes32"
        }
      ],
      "stateMutability": "nonpayable",
      "type": "function"
    },
    {
      "inputs": [
        {
          "internalType": "uint256",
          "name": "_bountyBps",
          "type": "uint256"
        }
      ],
      "name": "registerWatchtower",
      "outputs": [],
      "stateMutability": "payable",
      "type": "function"
    },
    {
      "inputs": [
        {
          "internalType": "bytes32",
          "name": "role",
          "type": "bytes32"
        },
        {
          "internalType": "address",
          "name": "account",
          "type": "address"
        }
      ],
      "name": "renounceRole",
      "outputs": [],
      "stateMutability": "nonpayable",
      "type": "function"
    },
    {
      "inputs": [
        {
          "internalType": "bytes32",
          "name": "role",
          "type": "bytes32"
        },
        {
          "internalType": "address",
          "name": "account",
          "type": "address"
        }
      ],
      "name": "revokeRole",
      "outputs": [],
      "stateMutability": "nonpayable",
      "type": "function"
    },
    {
      "inputs": [],
      "name": "routingNonce",
      "outputs": [
        {
          "internalType": "uint256",
          "name": "",
          "type": "uint256"
        }
      ],
      "stateMutability": "view",
      "type": "function"
    },
    {
      "inputs": [
        {
          "internalType": "bytes32",
          "name": "",
          "type": "bytes32"
        }
      ],
      "name": "routingPaths",
      "outputs": [
        {
          "internalType": "bytes32",
          "name": "pathId",
          "type": "bytes32"
        },
        {
          "internalType": "uint256",
          "name": "totalFees",
          "type": "uint256"
        },
        {
          "internalType": "uint256",
          "name": "amount",
          "type": "uint256"
        },
        {
          "internalType": "uint256",
          "name": "createdAt",
          "type": "uint256"
        },
        {
          "internalType": "bool",
          "name": "completed",
          "type": "bool"
        }
      ],
      "stateMutability": "view",
      "type": "function"
    },
    {
      "inputs": [
        {
          "internalType": "address",
          "name": "_party",
          "type": "address"
        },
        {
          "internalType": "bool",
          "name": "_verified",
          "type": "bool"
        }
      ],
      "name": "setKYCStatus",
      "outputs": [],
      "stateMutability": "nonpayable",
      "type": "function"
    },
    {
      "inputs": [
        {
          "internalType": "address",
          "name": "_noblepay",
          "type": "address"
        }
      ],
      "name": "setNoblePayContract",
      "outputs": [],
      "stateMutability": "nonpayable",
      "type": "function"
    },
    {
      "inputs": [
        {
          "internalType": "address",
          "name": "_token",
          "type": "address"
        },
        {
          "internalType": "bool",
          "name": "_supported",
          "type": "bool"
        }
      ],
      "name": "setSupportedToken",
      "outputs": [],
      "stateMutability": "nonpayable",
      "type": "function"
    },
    {
      "inputs": [
        {
          "internalType": "address",
          "name": "",
          "type": "address"
        }
      ],
      "name": "supportedTokens",
      "outputs": [
        {
          "internalType": "bool",
          "name": "",
          "type": "bool"
        }
      ],
      "stateMutability": "view",
      "type": "function"
    },
    {
      "inputs": [
        {
          "internalType": "bytes4",
          "name": "interfaceId",
          "type": "bytes4"
        }
      ],
      "name": "supportsInterface",
      "outputs": [
        {
          "internalType": "bool",
          "name": "",
          "type": "bool"
        }
      ],
      "stateMutability": "view",
      "type": "function"
    },
    {
      "inputs": [],
      "name": "unpause",
      "outputs": [],
      "stateMutability": "nonpayable",
      "type": "function"
    },
    {
      "inputs": [
        {
          "internalType": "address",
          "name": "",
          "type": "address"
        },
        {
          "internalType": "uint256",
          "name": "",
          "type": "uint256"
        }
      ],
      "name": "userChannels",
      "outputs": [
        {
          "internalType": "bytes32",
          "name": "",
          "type": "bytes32"
        }
      ],
      "stateMutability": "view",
      "type": "function"
    },
    {
      "inputs": [
        {
          "internalType": "address",
          "name": "",
          "type": "address"
        }
      ],
      "name": "watchtowers",
      "outputs": [
        {
          "internalType": "address",
          "name": "operator",
          "type": "address"
        },
        {
          "internalType": "uint256",
          "name": "stake",
          "type": "uint256"
        },
        {
          "internalType": "uint256",
          "name": "bountyBps",
          "type": "uint256"
        },
        {
          "internalType": "uint256",
          "name": "channelsMonitored",
          "type": "uint256"
        },
        {
          "internalType": "uint256",
          "name": "disputesRaised",
          "type": "uint256"
        },
        {
          "internalType": "bool",
          "name": "active",
          "type": "bool"
        },
        {
          "internalType": "uint256",
          "name": "registeredAt",
          "type": "uint256"
        }
      ],
      "stateMutability": "view",
      "type": "function"
    },
    {
      "stateMutability": "payable",
      "type": "receive"
    }
  ],
  "bytecode": "0x608034620001c157601f62004ceb38819003918201601f191683019291906001600160401b03841183851017620001c6578160609284926040968752833981010312620001c1576200005181620001dc565b6020908362000062838501620001dc565b9301519260ff19918260015416600155600160025560018060a01b03809116918215620001b057169283156200019f576101f485116200018e57600092838052838252868420838552825260ff87852054161562000158575b7fa49807205ce4d355092ef5a8a18f56e8913cf4a201fbe287825b095693c2177591828552848152878520848652815260ff8886205416156200011f575b601180546001600160a01b0319168717905560108790558751614ad99081620001f28239f35b828552848152878520908486525260018785209182541617905560008051602062004ccb833981519152339380a43880808080620000f9565b838052838252868420838552825286842060018282541617905533838560008051602062004ccb8339815191528180a4620000bb565b85516358d620b360e01b8152600490fd5b855163d92e233d60e01b8152600490fd5b865163d92e233d60e01b8152600490fd5b600080fd5b634e487b7160e01b600052604160045260246000fd5b51906001600160a01b0382168203620001c15756fe608080604052600436101561001d575b50361561001b57600080fd5b005b60003560e01c90816301ffc9a714613912575080630442b31b146138e6578063092bd0f21461389c57806311464e121461383f57806311be1997146137b95780631220ce421461379b57806312b7baa11461377f578063136ba6aa14613675578063156ed7e9146108065780631a4205c914613485578063203e58e614613467578063248a9ca314613438578063260b6086146132355780632f2ff15d1461318257806330d643b51461314757806335659fb81461312957806336568abe146130975780633f4ba83a1461300357806343b920c514612f0557806348507caf14612c095780634a0b448614612be65780634a4f014c1461278e57806359a86c33146127535780635c975abb14612730578063654d72011461262a57806368c4ac26146125eb5780636b8d40f3146125ba57806375b238fc1461257f57806379cd96af146122cb5780637a7ebd7b146121e65780637ec7e231146121c8578063803db96d1461219f57806380c1e706146121815780638166f95f14612039578063831c2b8214611e2a5780638456cb5914611dd157806385e684f314611d7957806390c2683814611c3857806391d1485414611beb57806391edd8f214611b5157806396ae6f9114611b335780639755dca0146119c55780639a37c69614611942578063a217fddf14611926578063a3f569ae146118b9578063a5410a661461187a578063a5fc20c21461185d578063adb666a21461183f578063b589db7b14611761578063bba91ff014611641578063c03aac1f1461154a578063c426043b146112f6578063c494549b14611296578063c692d8e51461111a578063cfdbf254146110fe578063d233805014610c3d578063d38df2ac14610c14578063d547741f14610bd5578063dc66b28a14610b8f578063def387911461080b578063e4c0c77314610806578063e53f1f7c14610578578063e798646614610500578063f5733d34146104bc578063f6c239fb146104625763f9efb7bc14610300573861000f565b3461045d57604036600319011261045d5760043561031c6139eb565b9080600052600360205260406000209160018060a01b03928380600183015416331415918261044b575b5050610439576103546142f7565b816000526003602052600a604060002001541561042757821691826000526007602052604060002060ff6005820154161561041557826000526008602052604060002091825492600160401b8410156103ff57836103b99160016003960181556139b6565b8192915490851b9187831b921b1916179055016103d6815461429b565b90557fca52fdc38d8eedb2f92ff98c5aa090c55c9afd8e480d219378d07f8db5351c43600080a3005b634e487b7160e01b600052604160045260246000fd5b604051633f91d0bd60e11b8152600490fd5b604051630781f76560e21b8152600490fd5b60405163940a88fb60e01b8152600490fd5b60029192500154163314158338610346565b600080fd5b3461045d57602036600319011261045d5761047b613a01565b610483613b38565b6001600160a01b031680156104aa576001600160601b0360a01b6012541617601255600080f35b60405163d92e233d60e01b8152600490fd5b3461045d57602036600319011261045d5760043560005260086020526104fc6104e86040600020614876565b604051918291602083526020830190613abf565b0390f35b3461045d5761050e36613b09565b90610517613b38565b6001600160a01b03169081156104aa5760207fd86c88b4a367d9b81a6e00c9d3f7d01657bffef358fa8968c91c045ae99f0d529183600052600b825261056d8160406000209060ff801983541691151516179055565b6040519015158152a2005b3461045d5761058636613a74565b91949390926105936142f7565b84600052600360205260406000209160018060a01b0392838060018301541633141591826107f4575b50506104395785600052600360205260406000209260ff60088501541660068110156107de57600381036107be57508660005260046020526040600020946006860191825442116107ac5760028701978854808c111561078e575061062a6004880154600589015490614154565b6106348787614154565b0361077c5760408051602081018c815291810187905260608101889052608081018d905264535441544560d81b60a08201526106d0946106c89390926106c29261068b8160a581015b03601f198101835282614080565b5190207f19457468657265756d205369676e6564204d6573736167653a0a333200000000600052601c52603c600020923691614595565b906146d0565b9290926145cc565b80806001880154168033146000146107775750806002880154165b169116036107655760016009958980985583600382015584600482015501336001600160601b0360a01b825416179055610729600d85015442614154565b90556006830155600782015501556040519182527f4fe30406349dabf6de5c088f77ca33d77d6955a0bc4b465669e3c67dcc08445a60203393a3005b604051638baa579f60e01b8152600490fd5b6106eb565b604051630303615360e21b8152600490fd5b8b60449160405191630117cd5b60e21b835260048301526024820152fd5b604051637222b06b60e11b8152600490fd5b60405163071b0be960e51b81526024916107dc906004830190613ab2565bfd5b634e487b7160e01b600052602160045260246000fd5b600291925001541633141583896105bc565b6139ce565b3461045d5760a036600319011261045d57610824613a01565b61082c6139eb565b906108356142f7565b61083d61433b565b33600052600c60205260ff6040600020541615610b7d576001600160a01b0381166000908152600c602052604090205460ff1615610b7d576001600160a01b038116158015610b6b575b6104aa576001600160a01b0382166000908152600b602052604090205460ff1615610b595760443515610b47576108c26084356064356148db565b600d546108ce8161429b565b600d5560405133606090811b6bffffffffffffffffffffffff199081166020840190815285831b821660348501529186901b16604883015242605c830152607c82019290925261092181609c810161067d565b519020906040519261093284614013565b82845233602085015260018060a01b038216604085015260018060a01b03811660608501526044356080850152600060a085015260443560c0850152600060e08501526000610100850152600061012085015242610140850152600061016085015260006101808501526064356101a08501526084356101c08501528260005260036020526040600020845181556001810160018060a01b03602087015116906001600160601b0360a01b91828254161790556002820160018060a01b0360408801511682825416179055600382019060018060a01b03606088015116908254161790556080850151600482015560a0850151600582015560c0850151600682015560e085015160078201556101008501519460068610156107de576101c0600e91610a63602098600886016142aa565b6101208101516009850155610140810151600a850155610160810151600b850155610180810151600c8501556101a0810151600d850155015191015533600052600a8452610ab58360406000206142c2565b60018060a01b038216600052600a8452610ad38360406000206142c2565b610aea60443530336001600160a01b03851661438f565b604080516001600160a01b039283168152604435602082015260643591810191909152911690339083907f8362dd0b67634a4019c49c8d06deaef6211ec448c4c53023a73774db1fcdafa790606090a46001600255604051908152f35b604051631f2a200560e01b8152600490fd5b60405163350b944160e11b8152600490fd5b506001600160a01b0381163314610887565b6040516320e155c960e21b8152600490fd5b3461045d57602036600319011261045d576001600160a01b03610bb0613a01565b16600052600a6020526104fc610bc96040600020614827565b60405191829182613965565b3461045d57604036600319011261045d5761001b600435610bf46139eb565b90806000526000602052610c0f600160406000200154613e94565b6140cd565b3461045d57600036600319011261045d576012546040516001600160a01b039091168152602090f35b3461045d5760a036600319011261045d576001600160401b0360043581811161045d57610c6e903690600401613a17565b91610c776139eb565b9060443590811161045d57610c90903690600401613a17565b610c9b9291926142f7565b610ca361433b565b8415610b4757601485116110ec57610cbc8186146147c7565b6001600160a01b0382166000908152600b602052604090205460ff1615610b59579291610ced6084356064356148db565b610cf6856147b0565b93610d046040519586614080565b858552601f19610d13876147b0565b013660208701376000936000925b878410610d7d576104fc877f6799b0fe7751f15a4163afd3553bfd6ed1c628dc5196d11a4d5aeb617f97d33960208b610d658b30336001600160a01b038e1661438f565b604051908152a1600160025560405191829182613965565b9091929433600052600c60205260ff604060002054161580156110bd575b610b7d57610daa8685846147a0565b3515610b4757610dc3610dbe878a866147a0565b614813565b61067d610e23600d54610dd58161429b565b600d556040516bffffffffffffffffffffffff1933606090811b82166020840190815296811b821660348401528b901b16604882015242605c820152607c810191909152918290609c820190565b5190209587518110156110a7578660208260051b8a010152610e49610dbe828b876147a0565b610e548287866147a0565b35610e608388876147a0565b359060405192610e6f84614013565b8a845233602085015260018060a01b0316604084015260018060a01b03891660608401526080830152600060a083015260c0820152600060e08201526000610100820152600061012082015242610140820152600061016082015260006101808201526064356101a08201526084356101c0820152876000526003602052604060002092815184556001840160018060a01b03602084015116906001600160601b0360a01b91828254161790556002850160018060a01b0360408501511682825416179055600385019060018060a01b03606085015116908254161790556080820151600485015560a0820151600585015560c0820151916006928386015560e08101516007860155610100810151928310156107de5784610f9961102f946008600198016142aa565b6101208201516009820155600e6101c061014084015193600a9485850155610160810151600b850155610180810151600c8501556101a0810151600d85015501519101553360005280602052610ff38a60406000206142c2565b8b611008610dbe86888060a01b03938b6147a0565b1660005260205261101d8960406000206142c2565b6110288388876147a0565b3590614154565b9661103e610dbe838c886147a0565b9061104a8388876147a0565b604080516001600160a01b038b168152913560208301526064359082015260a085901b85900392909216913391907f8362dd0b67634a4019c49c8d06deaef6211ec448c4c53023a73774db1fcdafa790606090a401929190610d21565b634e487b7160e01b600052603260045260246000fd5b506001600160a01b036110d4610dbe888b876147a0565b16600052600c60205260ff6040600020541615610d9b565b6040516305beb17160e11b8152600490fd5b3461045d57600036600319011261045d57602060405160148152f35b3461045d57600036600319011261045d5761113361433b565b33600052602060078152604060002090600682015415610415576001820160006005825494019160ff1992838154169055557f112b543827e39baa999aa686bf791fe2f6502a00cd4342e25f8c36b543f90f14908160005260008352604060002033600052835260ff60406000205416611248575b5050816111e2575b7f4a1270e79dd1095465831d7912d9a7eb246e2d218ef0d1fa732107d1f37361b6906040519283523392a26001600255005b600080808085335af16111f36144d4565b506111b0576084906040519062461bcd60e51b825260048201526024808201527f5061796d656e744368616e6e656c733a207374616b652072657475726e2066616044820152631a5b195960e21b6064820152fd5b816000526000835260406000203360005283526040600020908154169055339033907ff6391f5c32d9c69d2a47ea670b442974b53935d1edc7fd64eb21e047a839171b600080a482806111a8565b3461045d5760206112eb60a06112ab36613a74565b91908291604098969897959497519788958b87019a8b52604087015260608601526080850152848401378101600083820152036080810184520182614080565b519020604051908152f35b3461045d5760c036600319011261045d576004356064356044356024356001600160401b0360843581811161045d57611333903690600401613a47565b60a43583811161045d5761134b903690600401613a47565b9390926113566142f7565b61135e61433b565b88600052600360205260406000209260018060a01b039384806001830154163314159182611538575b50506104395789600052600360205260406000209560ff60088801541660068110156107de5760028114158061152d575b6107be57506009870154808b111561150f57506113de6004880154600589015490614154565b6113e88a8a614154565b0361077c576040519560208701918c83528960408901528a60608901528b608089015264434c4f534560d81b60a08901526085885260c0880195888710908711176103ff5761148361147d611492966106c29561149a9b61148b9a6040525190207f19457468657265756d205369676e6564204d6573736167653a0a333200000000600052601c52603c600020963691614595565b856146d0565b9690966145cc565b3691614595565b9390936145cc565b8180600186015416911603610765578060028401541691160361076557836114e87f61fd57276bf163c1796961b3ba88d3b40d493716e51135cb0941b4ed5c04397695858561150595614916565b604051938493846040919493926060820195825260208201520152565b0390a26001600255005b8a60449160405191630117cd5b60e21b835260048301526024820152fd5b5060018114156113b8565b6002919250015416331415848c611387565b3461045d57602036600319011261045d5760e0611565613a01565b600060c060405161157581613fdc565b8281528260208201528260408201528260608201528260808201528260a0820152015260018060a01b038091166000526007602052604060002090604051906115bd82613fdc565b82541691828252600181015460208301908152600282015460408401908152600383015490606085019182526004840154926080860193845260c0600660ff6005880154169660a0890197151588520154960195865260405196875251602087015251604086015251606085015251608084015251151560a08301525160c0820152f35b3461045d57604036600319011261045d576001600160401b0360043581811161045d57611672903690600401613a17565b9160243590811161045d5761168b903690600401613a17565b611693613b38565b61169e8185146147c7565b60005b8481106116aa57005b6001600160a01b0390816116c2610dbe8389896147a0565b16156104aa576001917f2df1cad2a2659e001c3804c872f69655356013e35c18c2e77a5d568078ab788f6116ff6116fa8487896147a0565b6148ce565b8261170e610dbe868c8c6147a0565b16600052611732602091600c835260406000209060ff801983541691151516179055565b611740610dbe858b8b6147a0565b9261174f6116fa86898b6147a0565b9360405194151585521692a2016116a1565b3461045d57602036600319011261045d5760043561177d6142f7565b61178561433b565b806000526003602052604060002060ff60088201541660068110156107de57600381036107be57508160005260046020526040600020906006820154421061182d578160409160077f58a2558343c2558557b34020fdd42da40f54056195b7744918f27e2e19adcc129401600160ff19825416179055611818600383019182549360048101946002865492015492614916565b54905482519182526020820152a26001600255005b604051630a8f83ff60e11b8152600490fd5b3461045d57600036600319011261045d576020604051620151808152f35b3461045d57600036600319011261045d5760206040516101f48152f35b3461045d57602036600319011261045d576001600160a01b0361189b613a01565b16600052600c602052602060ff604060002054166040519015158152f35b3461045d576118c736613b09565b906118d0613b38565b6001600160a01b03169081156104aa5760207f2df1cad2a2659e001c3804c872f69655356013e35c18c2e77a5d568078ab788f9183600052600c825261056d8160406000209060ff801983541691151516179055565b3461045d57600036600319011261045d57602060405160008152f35b3461045d57602036600319011261045d5760e06001600160a01b0380611966613a01565b1660005260076020526040600020908154169060018101549060028101546003820154600483015491600660ff600586015416940154946040519687526020870152604086015260608501526080840152151560a083015260c0820152f35b3461045d57604036600319011261045d576004356024356119e46142f7565b8160005260056020526040600020600881015415611b2157600781019182549160ff831660048110156107de5780611b03575060068101544211611af157604051602081019083825260208152611a3a8161404a565b519020600582015403611adf577f2ec5a5b79030fa7f78183883b4262597cae693c2836d6bb134dbff6d41b8395493600160209460ff191617905560018101546000526003835260406000209060018060a01b03806003830154169060018401541614600014611ac45760066004611ab89201549201918254614154565b90555b604051908152a2005b60076004611ad89201549201918254614154565b9055611abb565b604051630cb4548160e11b8152600490fd5b60405163ee10bb0160e01b8152600490fd5b6040516301eaa4ef60e61b81526024916107dc906004830190613afc565b604051637f2d204360e11b8152600490fd5b3461045d57600036600319011261045d57602060405162278d008152f35b3461045d57602036600319011261045d5760043560005260056020526101206040600020805490611be360018201549160018060a01b0380600283015416906003830154166004830154600584015491600685015493600860ff60078801541696015497604051998a5260208a015260408901526060880152608087015260a086015260c085015260e0840190613afc565b610100820152f35b3461045d57604036600319011261045d57611c046139eb565b600435600052600060205260406000209060018060a01b0316600052602052602060ff604060002054166040519015158152f35b3461045d57602036600319011261045d57604051611c5581613ff7565b6000815260006020820152600060408201526000606082015260006080820152600060a0820152600060c0820152600060e0820152600061010080920152600435600052600560205260406000209060405190611cb182613ff7565b8254825260018301546020830190815260018060a01b0380600286015416946040850195865281600382015416916060860192835260048201546080870190815260058301549060a0880191825260068401549260c0890193845260ff6007860154169560e08a019560048810156107de576101209b60088492611d729a8a520154998b8d019a8b526040519c518d525160208d0152511660408b0152511660608901525160808801525160a08701525160c08601525160e0850190613afc565b5190820152f35b3461045d57604036600319011261045d57611d92613a01565b6001600160a01b03166000908152600a602052604090208054602435919082101561045d57602091611dc3916139b6565b90546040519160031b1c8152f35b3461045d57600036600319011261045d57611dea613b38565b611df26142f7565b600160ff19815416176001557f62e78cea01bee320cd4e420270b5ea74000d11b0c9f74754ebdbfc544b05a2586020604051338152a1005b3461045d57602036600319011261045d5760006101c0604051611e4c81614013565b8281528260208201528260408201528260608201528260808201528260a08201528260c08201528260e08201528261010082015282610120820152826101408201528261016082015282610180820152826101a0820152015260043560005260036020526040600020604051611ec181614013565b8154815260018201546001600160a01b039081166020830152600283015481166040830152600383015416606082015260048201546080820152600582015460a082015260068083015460c0830152600783015460e0830152600883015460ff16908110156107de576101e092600e916101008401526009810154610120840152600a810154610140840152600b810154610160840152600c810154610180840152600d8101546101a084015201546101c08201526101c0604051918051835260018060a01b03602082015116602084015260018060a01b03604082015116604084015260018060a01b0360608201511660608401526080810151608084015260a081015160a084015260c081015160c084015260e081015160e0840152611ff3610100820151610100850190613ab2565b6101208101516101208401526101408101516101408401526101608101516101608401526101808101516101808401526101a08101516101a084015201516101c0820152f35b3461045d5760208060031936011261045d57600060c060405161205b81613fdc565b828152606084820152606060408201528260608201528260808201528260a0820152015260043560005260098152604060002060405161209a81613fdc565b8154815260016120ab818401614827565b928483019384526120be60028201614876565b9260408101938452600382015493606082019485526004830154966080830197885260ff600660058601549560a086019687520154169460c0840195151586526040519782895261010089019451838a0152519360e060408a01528451809152826101208a0195019260005b82811061216e57505050505085969161214f9151601f19888303016060890152613abf565b935160808601525160a08501525160c084015251151560e08301520390f35b845187529581019593810193830161212a565b3461045d57600036600319011261045d57602060405162093a808152f35b3461045d57600036600319011261045d576011546040516001600160a01b039091168152602090f35b3461045d57600036600319011261045d576020600f54604051908152f35b3461045d57602036600319011261045d57600435600052600360205260406000208054600160a01b6001900391826001820154169280600283015416906003830154166004830154600584015460068501546007860154600887015460ff1691600988015493600a89015495600b8a015497600c8b015499600d8c01549b600e01549c6040519e8f91825260208201526040015260608d015260808c015260a08b015260c08a015260e089015261010088016122a191613ab2565b6101208701526101408601526101608501526101808401526101a08301526101c08201526101e090f35b3461045d576122d936613a74565b909194936122e56142f7565b846000526020936003855260406000209260018060a01b03938480600183015416331415918261256d575b5050610439578660005260038652604060002090600882019283549160ff831660068110156107de57600281141580612562575b6107be575060098401978854808d1115612544575061236c6004860154600587015490614154565b6123768489614154565b0361077c5760408051808c018d8152602081018a9052918201859052606082018e905264535441544560d81b60808301526123ca936123c29390926106c29261068b816085840161067d565b9190916145cc565b868060018601541680331460001461253d575080806002870154165b16911603610765576124ec600d7f94bccc2824edd529c964cbc88dab72628228d980b9729e923269b821600061e9948c61250b9a8d986003839860ff191617905542600b84015589600684015585600784015555019660078661244a8a5442614154565b8c6040519461245886613fc0565b8386528b82870133815260408801908b82526060890192835260808901938b8552600460a08b019642885260c08c0198895260e08c019960008b5260005252604060002099518a5560018a019151166001600160601b0360a01b82541617905551600288015551600387015551600486015551600585015551600684015551151591019060ff801983541691151516179055565b6040805195865260208601919091528401523392606090a35442614154565b906040519384528301527f808e25ef9fc34fdc9c286d9b8ec65d97e254359f3f0e2423ce4f246cb58cb49a60403393a3005b81906123e6565b8c60449160405191630117cd5b60e21b835260048301526024820152fd5b506001811415612344565b6002919250015416331415848a612310565b3461045d57600036600319011261045d5760206040517fa49807205ce4d355092ef5a8a18f56e8913cf4a201fbe287825b095693c217758152f35b3461045d576125c8366139a0565b9060005260066020526040600020805482101561045d57602091611dc3916139b6565b3461045d57602036600319011261045d576001600160a01b0361260c613a01565b16600052600b602052602060ff604060002054166040519015158152f35b3461045d57602036600319011261045d57600435612646613d4e565b80600052600960205260406000206005810154156126eb57600601805460ff811661269b5760ff191660011790557f7a104c5695ad39f79b862c64e30a4beb9c3324d582d6267f5b0cdeaf897415a8600080a2005b60405162461bcd60e51b815260206004820152602260248201527f5061796d656e744368616e6e656c733a20616c726561647920636f6d706c6574604482015261195960f21b6064820152608490fd5b60405162461bcd60e51b815260206004820152601f60248201527f5061796d656e744368616e6e656c733a2070617468206e6f7420666f756e64006044820152606490fd5b3461045d57600036600319011261045d57602060ff600154166040519015158152f35b3461045d57600036600319011261045d5760206040517f112b543827e39baa999aa686bf791fe2f6502a00cd4342e25f8c36b543f90f148152f35b3461045d57606036600319011261045d576004356001600160401b03811161045d576127be903690600401613a17565b6024356001600160401b03811161045d576127dd903690600401613a17565b90916127e76142f7565b6127ef613d4e565b8015610b475760058111612bd45760018201808311612bbe578103612b695760009160005b828110612b045750600f546128288161429b565b600f5560405160208101913360601b835260443560348301524260548301526074820152607481526128598161402f565b519020936040519561286a87613fdc565b858752612876846147b0565b906128846040519283614080565b84825260208201368660051b83011161045d5781905b8660051b83018210612af45750505060208701526128b7826147b0565b916128c56040519384614080565b8083526020830191368260051b82011161045d5780925b8260051b82018410612ad25750505050604085015281606085015260443560808501524260a0850152600060c085015282600052600960205260406000208451815560208501518051906001600160401b0382116103ff57600160401b82116103ff576001830154826001850155808310612aa5575b5060200160018301600052602060002060005b838110612a9157505050506040850151948551956001600160401b0387116103ff57600160401b87116103ff576002830154876002850155808810612a64575b50602001956002830160005260206000209660005b828110612a4757602088807f75b0c1ea291784ce5b78106ef5f77fb4239e12b982ebb342a9443c71351fef1d8a8a612a268b600660c08d606081015160038501556080810151600485015560a081015160058501550151151591019060ff801983541691151516179055565b604080519182526044356020830152810191909152606090a2604051908152f35b81516001600160a01b0316818a01556020909101906001016129ba565b600284016000526020600020908882015b8183018110612a855750506129a5565b60008155600101612a75565b600190602084519401938184015501612965565b600184016000526020600020908382015b8183018110612ac6575050612952565b60008155600101612ab6565b83356001600160a01b038116900361045d5783358152602093840193016128dc565b813581526020918201910161289a565b92612b108484886147a0565b3560005260036020526040600020600a810154156104275760ff60088201541660068110156107de57600281036107be5750600191612710612b5b600e612b62940154604435614141565b0490614154565b9301612814565b60405162461bcd60e51b815260206004820152602760248201527f5061796d656e744368616e6e656c733a20696e76616c696420706174682073746044820152667275637475726560c81b6064820152608490fd5b634e487b7160e01b600052601160045260246000fd5b6040516370632a8760e11b8152600490fd5b3461045d57600036600319011261045d576020604051670de0b6b3a76400008152f35b3461045d57608036600319011261045d57612c226142f7565b6004356000526003602052604060002060018060a01b036001820154163314159081612eed575b50610439576004356000526003602052604060002060ff60088201541660068110156107de57600281036107be575060243515610b4757610e104201804211612bbe5760643510612edb5762278d004201804211612bbe5760643511612edb576001810180546001600160a01b031633148015612ed15760068301545b60243511612ebf5715612ea75760068201612ce46024358254614793565b90555b546001600160a01b0316338103612ea05750600201546001600160a01b03165b600e54612d138161429b565b600e55604051602081019160043583523360601b60408301526024356054830152604435607483015242609483015260b482015260b48152612d5481613fdc565b519020604051612d6381613ff7565b8181526020810160043581526040820193338552606083019060018060a01b0316815260808301602435815260a0840190604435825260c0850192606435845260e086019760008952610100870195428752886000526005602052604060002097518855516001880155600287019060018060a01b03905116906001600160601b0360a01b9182825416179055600387019160018060a01b03905116908254161790555160048501555160058401555160068301556007820193519060048210156107de5760209460089260ff801983541691161790555191015560043560005260068252612e568160406000206142c2565b60405160243581526044358382015260643560408201523390827fdf5e4a1a592e8ee2009fbfe23a0b2d0142cf70905d9fa73a4ebdea5141e11bfb606060043593a4604051908152f35b9050612d07565b60078201612eb86024358254614793565b9055612ce7565b60405163070f6eed60e11b8152600490fd5b6007830154612cc6565b604051637c68874160e11b8152600490fd5b600201546001600160a01b0316331415905081612c49565b3461045d57602036600319011261045d57600435612f216142f7565b8060005260056020526040600020600881015415611b215760078101805460ff811660048110156107de5780611b0357506006830154421115612ff15760029060ff19161790556001810154600052600360205260406000209060018060a01b03806002830154169060018401541614600014612fd65760066004612fac9201549201918254614154565b90555b7fcb7338a8e43edcc2e1891a284dade1a94cf794b65d41da7202bbaf88cc670516600080a2005b60076004612fea9201549201918254614154565b9055612faf565b604051636f6ab3cd60e11b8152600490fd5b3461045d57600036600319011261045d5761301c613b38565b60015460ff81161561305b5760ff19166001557f5db9ee0a495bf2e6ff9c91a7834c1ba4fdd244a5e8aa4e537bd38aeae4b073aa6020604051338152a1005b60405162461bcd60e51b815260206004820152601460248201527314185d5cd8589b194e881b9bdd081c185d5cd95960621b6044820152606490fd5b3461045d57604036600319011261045d576130b06139eb565b336001600160a01b038216036130cc5761001b906004356140cd565b60405162461bcd60e51b815260206004820152602f60248201527f416363657373436f6e74726f6c3a2063616e206f6e6c792072656e6f756e636560448201526e103937b632b9903337b91039b2b63360891b6064820152608490fd5b3461045d57600036600319011261045d576020601054604051908152f35b3461045d57600036600319011261045d5760206040517f7a05a596cb0ce7fdea8a1e1ec73be300bdb35097c944ce1897202f7a13122eb28152f35b3461045d57604036600319011261045d5760043561319e6139eb565b8160005260006020526131b8600160406000200154613e94565b81600052600060205260406000209060018060a01b0316908160005260205260ff60406000205416156131e757005b8160005260006020526040600020816000526020526040600020600160ff1982541617905533917f2f8788117e7eff1d82e926ec794901d17c78024a50270940304540a733656f0d600080a4005b3461045d57613243366139a0565b61324b6142f7565b61325361433b565b81600052600360205260406000209160018060a01b03600193818086830154163314159182613426575b5050610439578160005260036020526040600020906008820160ff8154166006811015806107de578115159081613419575b81613408575b506107be57508415610b4757858301908282541633146000146133e157600484016132e1878254614154565b9055600684016132f2878254614154565b90555b805460ff81169060068210156107de57889115806133d4575b6133a0575b5050805460ff811660068110156107de578814613390575b505061334185836003860154163090339061438f565b5416331460001461338757600401545b60405192835260208301527f5652f3419c7873b39e9dab71f7444b0483b22791fd6277d0e4d1becb12bfceb560403393a3600255005b60050154613351565b60ff19166002179055868061332b565b60ff1916178155847f96689557d296cf74dfc2375c1ecf1baddd021383b05589e215da1b0ee8c8e60c600080a28688613313565b506005860154151561330e565b600584016133f0878254614154565b905560078401613401878254614154565b90556132f5565b90506107de576002811415886132b5565b50508087141560006132af565b6002919250015416331415818661327d565b3461045d57602036600319011261045d5760043560005260006020526020600160406000200154604051908152f35b3461045d57600036600319011261045d576020600e54604051908152f35b60208060031936011261045d5760043561349d6142f7565b6134a561433b565b336000526007825260066040600020015461366357670de0b6b3a76400003410613651576101f4811161363f576040516134de81613fdc565b338152600683820134815261356e60408401858152606085016000815260808601906000825260a08701926001845260c08801954287523360005260078b5260406000209860018060a01b039051166001600160601b0360a01b8a5416178955516001890155516002880155516003870155516004860155511515600585019060ff801983541691151516179055565b519101557f112b543827e39baa999aa686bf791fe2f6502a00cd4342e25f8c36b543f90f148060005260008352604060002033600052835260ff60406000205416156135ed575b50604051913483528201527f68df7dada817adb6b5d1c5110e838bcdbcd8fc2ccb799476ffced13fbf8807d260403392a26001600255005b806000526000835260406000203360005283526040600020600160ff19825416179055339033907f2f8788117e7eff1d82e926ec794901d17c78024a50270940304540a733656f0d600080a4826135b5565b6040516358d620b360e01b8152600490fd5b6040516378de4a6960e11b8152600490fd5b604051632d9fb45760e21b8152600490fd5b3461045d57602036600319011261045d57600060e060405161369681613fc0565b8281528260208201528260408201528260608201528260808201528260a08201528260c08201520152600435600052600460205261010060406000206040516136de81613fc0565b81549182825260018060a01b03806001830154169060208401918252600283015460408501908152600384015490606086019182526004850154926080870193845260058601549460a0880195865260e060ff600760068a01549960c08c019a8b5201541698019715158852604051988952511660208801525160408701525160608601525160808501525160a08401525160c083015251151560e0820152f35b3461045d57600036600319011261045d57602060405160058152f35b3461045d57600036600319011261045d576020600d54604051908152f35b3461045d57602036600319011261045d576004356000526004602052610100604060002080549060018060a01b03600182015416906002810154600382015460048301549060058401549260ff600760068701549601541695604051978852602088015260408701526060860152608085015260a084015260c0830152151560e0820152f35b3461045d57602036600319011261045d57600435600052600960205260a06040600020805490600381015490600481015460ff60066005840154930154169260405194855260208501526040840152606083015215156080820152f35b3461045d576138aa366139a0565b9060005260086020526040600020805482101561045d576020916138cd916139b6565b905460405160039290921b1c6001600160a01b03168152f35b3461045d57602036600319011261045d5760043560005260066020526104fc610bc96040600020614827565b3461045d57602036600319011261045d576004359063ffffffff60e01b821680920361045d57602091637965db0b60e01b8114908115613954575b5015158152f35b6301ffc9a760e01b1490508361394d565b6020908160408183019282815285518094520193019160005b82811061398c575050505090565b83518552938101939281019260010161397e565b604090600319011261045d576004359060243590565b80548210156110a75760005260206000200190600090565b3461045d57600036600319011261045d576020604051610e108152f35b602435906001600160a01b038216820361045d57565b600435906001600160a01b038216820361045d57565b9181601f8401121561045d578235916001600160401b03831161045d576020808501948460051b01011161045d57565b9181601f8401121561045d578235916001600160401b03831161045d576020838186019501011161045d57565b60a060031982011261045d5760043591602435916044359160643591608435906001600160401b03821161045d57613aae91600401613a47565b9091565b9060068210156107de5752565b90815180825260208080930193019160005b828110613adf575050505090565b83516001600160a01b031685529381019392810192600101613ad1565b9060048210156107de5752565b604090600319011261045d576004356001600160a01b038116810361045d5790602435801515810361045d5790565b3360009081527f7d7ffb7a348e1c6a02869081a26547b49160dd3df72d1d75a570eb9b698292ec60209081526040808320549092907fa49807205ce4d355092ef5a8a18f56e8913cf4a201fbe287825b095693c217759060ff1615613b9d5750505050565b613ba63361418d565b845191613bb283614065565b60428352848301936060368637835115613d3a5760308553835190600191821015613d3a5790607860218601536041915b818311613ccc57505050613c8a57613c38938593613c7093613c61604894613c869951988576020b1b1b2b9b9a1b7b73a3937b61d1030b1b1b7bab73a1604d1b8b978801528251928391603789019101613f9d565b8401917001034b99036b4b9b9b4b733903937b6329607d1b603784015251809386840190613f9d565b01036028810185520183614080565b5162461bcd60e51b8152918291600483016140a1565b0390fd5b60648486519062461bcd60e51b825280600483015260248201527f537472696e67733a20686578206c656e67746820696e73756666696369656e746044820152fd5b909192600f81166010811015613d26576f181899199a1a9b1b9c1cb0b131b232b360811b901a613cfc858861417c565b5360041c928015613d1257600019019190613be3565b634e487b7160e01b82526011600452602482fd5b634e487b7160e01b83526032600452602483fd5b634e487b7160e01b81526032600452602490fd5b3360009081527fb5816a4d525ce17c45785e5fbae4518f6f00ef4e9d31d4d7bb129b76152ed32f60209081526040808320549092907f7a05a596cb0ce7fdea8a1e1ec73be300bdb35097c944ce1897202f7a13122eb29060ff1615613db35750505050565b613dbc3361418d565b845191613dc883614065565b60428352848301936060368637835115613d3a5760308553835190600191821015613d3a5790607860218601536041915b818311613e4e57505050613c8a57613c38938593613c7093613c61604894613c869951988576020b1b1b2b9b9a1b7b73a3937b61d1030b1b1b7bab73a1604d1b8b978801528251928391603789019101613f9d565b909192600f81166010811015613d26576f181899199a1a9b1b9c1cb0b131b232b360811b901a613e7e858861417c565b5360041c928015613d1257600019019190613df9565b6000818152602090808252604092838220338352835260ff848320541615613ebc5750505050565b613ec53361418d565b845191613ed183614065565b60428352848301936060368637835115613d3a5760308553835190600191821015613d3a5790607860218601536041915b818311613f5757505050613c8a57613c38938593613c7093613c61604894613c869951988576020b1b1b2b9b9a1b7b73a3937b61d1030b1b1b7bab73a1604d1b8b978801528251928391603789019101613f9d565b909192600f81166010811015613d26576f181899199a1a9b1b9c1cb0b131b232b360811b901a613f87858861417c565b5360041c928015613d1257600019019190613f02565b60005b838110613fb05750506000910152565b8181015183820152602001613fa0565b61010081019081106001600160401b038211176103ff57604052565b60e081019081106001600160401b038211176103ff57604052565b61012081019081106001600160401b038211176103ff57604052565b6101e081019081106001600160401b038211176103ff57604052565b60a081019081106001600160401b038211176103ff57604052565b604081019081106001600160401b038211176103ff57604052565b608081019081106001600160401b038211176103ff57604052565b90601f801991011681019081106001600160401b038211176103ff57604052565b604091602082526140c18151809281602086015260208686019101613f9d565b601f01601f1916010190565b9060009180835282602052604083209160018060a01b03169182845260205260ff6040842054166140fd57505050565b80835282602052604083208284526020526040832060ff1981541690557ff6391f5c32d9c69d2a47ea670b442974b53935d1edc7fd64eb21e047a839171b339380a4565b81810292918115918404141715612bbe57565b91908201809211612bbe57565b6001600160401b0381116103ff57601f01601f191660200190565b9081518110156110a7570160200190565b60405190606082018281106001600160401b038211176103ff57604052602a82526020820160403682378251156110a7576030905381516001908110156110a757607860218401536029905b80821161422d5750506141e95790565b606460405162461bcd60e51b815260206004820152602060248201527f537472696e67733a20686578206c656e67746820696e73756666696369656e746044820152fd5b9091600f81166010811015614286576f181899199a1a9b1b9c1cb0b131b232b360811b901a61425c848661417c565b5360041c9180156142715760001901906141d9565b60246000634e487b7160e01b81526011600452fd5b60246000634e487b7160e01b81526032600452fd5b6000198114612bbe5760010190565b9060068110156107de5760ff80198354169116179055565b8054600160401b8110156103ff576142df916001820181556139b6565b819291549060031b91821b91600019901b1916179055565b60ff6001541661430357565b60405162461bcd60e51b815260206004820152601060248201526f14185d5cd8589b194e881c185d5cd95960821b6044820152606490fd5b600280541461434a5760028055565b60405162461bcd60e51b815260206004820152601f60248201527f5265656e7472616e637947756172643a207265656e7472616e742063616c6c006044820152606490fd5b6040516323b872dd60e01b60208201526001600160a01b0392831660248201529290911660448301526064808301939093529181526143d6916143d18261402f565b6143d8565b565b60018060a01b0316906144376040516143f08161404a565b6020938482527f5361666545524332303a206c6f772d6c6576656c2063616c6c206661696c6564858301526000808587829751910182855af16144316144d4565b91614504565b8051918215918483156144a9575b5050509050156144525750565b6084906040519062461bcd60e51b82526004820152602a60248201527f5361666545524332303a204552433230206f7065726174696f6e20646964206e6044820152691bdd081cdd58d8d9595960b21b6064820152fd5b9193818094500103126144d0578201519081151582036144cd575080388084614445565b80fd5b5080fd5b3d156144ff573d906144e582614161565b916144f36040519384614080565b82523d6000602084013e565b606090565b919290156145665750815115614518575090565b3b156145215790565b60405162461bcd60e51b815260206004820152601d60248201527f416464726573733a2063616c6c20746f206e6f6e2d636f6e74726163740000006044820152606490fd5b8251909150156145795750805190602001fd5b60405162461bcd60e51b8152908190613c8690600483016140a1565b9291926145a182614161565b916145af6040519384614080565b82948184528183011161045d578281602093846000960137010152565b60058110156107de57806145dd5750565b6001810361462a5760405162461bcd60e51b815260206004820152601860248201527f45434453413a20696e76616c6964207369676e617475726500000000000000006044820152606490fd5b600281036146775760405162461bcd60e51b815260206004820152601f60248201527f45434453413a20696e76616c6964207369676e6174757265206c656e677468006044820152606490fd5b60031461468057565b60405162461bcd60e51b815260206004820152602260248201527f45434453413a20696e76616c6964207369676e6174757265202773272076616c604482015261756560f01b6064820152608490fd5b9060418151146000146146fa57613aae916020820151906060604084015193015160001a90614704565b5050600090600290565b9291907f7fffffffffffffffffffffffffffffff5d576e7357a4501ddfe92f46681b20a083116147875791608094939160ff602094604051948552168484015260408301526060820152600093849182805260015afa1561477a5781516001600160a01b03811615614774579190565b50600190565b50604051903d90823e3d90fd5b50505050600090600390565b91908203918211612bbe57565b91908110156110a75760051b0190565b6001600160401b0381116103ff5760051b60200190565b156147ce57565b60405162461bcd60e51b815260206004820152601f60248201527f5061796d656e744368616e6e656c733a206172726179206d69736d61746368006044820152606490fd5b356001600160a01b038116810361045d5790565b9060405191828154918282526020928383019160005283600020936000905b82821061485c575050506143d692500383614080565b855484526001958601958895509381019390910190614846565b9060405191828154918282526020928383019160005283600020936000905b8282106148ab575050506143d692500383614080565b85546001600160a01b031684526001958601958895509381019390910190614895565b35801515810361045d5790565b610e108110908115614909575b506148f7576101f41061363f57565b60405163b4e1243360e01b8152600490fd5b62093a80915011386148e8565b906040917faee37d46ae7638649199a415cd6d49cc67df520cf2c80210daac017e0df3ab98939460088201600560ff1982541617905542600c8301558260068301558560078301556009820155600080819060105480614a1e575b5061497f6149869186614793565b9188614793565b90806149f7575b50806149d0575b50806149ab575b50549382519182526020820152a2565b60038201546011546149ca92916001600160a01b039182169116614a54565b3861499b565b600383015460028401546149f192916001600160a01b039182169116614a54565b38614994565b60038401546001850154614a1892916001600160a01b039182169116614a54565b3861498d565b92505050612710614a3b81614a338487614141565b049288614141565b0461498661497f614a4c8385614154565b939150614971565b60405163a9059cbb60e01b60208201526001600160a01b03909216602483015260448083019390935291815260808101916001600160401b038311828410176103ff576143d6926040526143d856fea26469706673582212204bd05e2c1d88227df0b3cb31238d5dce27edbe07ebc995d335b0e782b1c6081864736f6c634300081300332f8788117e7eff1d82e926ec794901d17c78024a50270940304540a733656f0d",
  "linkReferences": {},
  "deployedLinkReferences": {}
}