{
  "_format": "hh-sol-artifact-1",
  "contractName": "BusinessRegistry",
  "sourceName": "src/BusinessRegistry.sol",
  "abi": [
    {
      "inputs": [
        {
          "internalType": "address",
          "name": "_admin",
          "type": "address"
        }
      ],
      "stateMutability": "nonpayable",
      "type": "constructor"
    },
    {
      "inputs": [],
      "name": "AlreadyAtMaxTier",
      "type": "error"
    },
    {
      "inputs": [],
      "name": "BusinessAlreadyRegistered",
      "type": "error"
    },
    {
      "inputs": [],
      "name": "BusinessNotFound",
      "type": "error"
    },
    {
      "inputs": [],
      "name": "CannotDowngradeTier",
      "type": "error"
    },
    {
      "inputs": [],
      "name": "InvalidBusinessName",
      "type": "error"
    },
    {
      "inputs": [
        {
          "internalType": "enum BusinessRegistry.KYCStatus",
          "name": "current",
          "type": "uint8"
        },
        {
          "internalType": "enum BusinessRegistry.KYCStatus",
          "name": "expected",
          "type": "uint8"
        }
      ],
      "name": "InvalidKYCStatus",
      "type": "error"
    },
    {
      "inputs": [],
      "name": "InvalidLicenseNumber",
      "type": "error"
    },
    {
      "inputs": [],
      "name": "LicenseAlreadyRegistered",
      "type": "error"
    },
    {
      "inputs": [],
      "name": "ReverificationNotDue",
      "type": "error"
    },
    {
      "inputs": [],
      "name": "ReverificationOverdue",
      "type": "error"
    },
    {
      "inputs": [],
      "name": "ZeroAddress",
      "type": "error"
    },
    {
      "anonymous": false,
      "inputs": [
        {
          "indexed": true,
          "internalType": "address",
          "name": "wallet",
          "type": "address"
        },
        {
          "indexed": false,
          "internalType": "string",
          "name": "licenseNumber",
          "type": "string"
        },
        {
          "indexed": false,
          "internalType": "string",
          "name": "businessName",
          "type": "string"
        },
        {
          "indexed": false,
          "internalType": "enum BusinessRegistry.Jurisdiction",
          "name": "jurisdiction",
          "type": "uint8"
        }
      ],
      "name": "BusinessRegistered",
      "type": "event"
    },
    {
      "anonymous": false,
      "inputs": [
        {
          "indexed": true,
          "internalType": "address",
          "name": "wallet",
          "type": "address"
        },
        {
          "indexed": true,
          "internalType": "address",
          "name": "reinstatedBy",
          "type": "address"
        }
      ],
      "name": "BusinessReinstated",
      "type": "event"
    },
    {
      "anonymous": false,
      "inputs": [
        {
          "indexed": true,
          "internalType": "address",
          "name": "wallet",
          "type": "address"
        },
        {
          "indexed": false,
          "internalType": "string",
          "name": "reason",
          "type": "string"
        }
      ],
      "name": "BusinessRevoked",
      "type": "event"
    },
    {
      "anonymous": false,
      "inputs": [
        {
          "indexed": true,
          "internalType": "address",
          "name": "wallet",
          "type": "address"
        },
        {
          "indexed": false,
          "internalType": "string",
          "name": "reason",
          "type": "string"
        }
      ],
      "name": "BusinessSuspended",
      "type": "event"
    },
    {
      "anonymous": false,
      "inputs": [
        {
          "indexed": true,
          "internalType": "address",
          "name": "wallet",
          "type": "address"
        },
        {
          "indexed": true,
          "internalType": "address",
          "name": "verifier",
          "type": "address"
        },
        {
          "indexed": false,
          "internalType": "uint256",
          "name": "verifiedAt",
          "type": "uint256"
        }
      ],
      "name": "BusinessVerified",
      "type": "event"
    },
    {
      "anonymous": false,
      "inputs": [
        {
          "indexed": true,
          "internalType": "address",
          "name": "wallet",
          "type": "address"
        },
        {
          "indexed": true,
          "internalType": "address",
          "name": "oldOfficer",
          "type": "address"
        },
        {
          "indexed": true,
          "internalType": "address",
          "name": "newOfficer",
          "type": "address"
        }
      ],
      "name": "ComplianceOfficerUpdated",
      "type": "event"
    },
    {
      "anonymous": false,
      "inputs": [
        {
          "indexed": true,
          "internalType": "address",
          "name": "oldContract",
          "type": "address"
        },
        {
          "indexed": true,
          "internalType": "address",
          "name": "newContract",
          "type": "address"
        }
      ],
      "name": "NoblePayContractUpdated",
      "type": "event"
    },
    {
      "anonymous": false,
      "inputs": [
        {
          "indexed": false,
          "internalType": "address",
          "name": "account",
          "type": "address"
        }
      ],
      "name": "Paused",
      "type": "event"
    },
    {
      "anonymous": false,
      "inputs": [
        {
          "indexed": true,
          "internalType": "bytes32",
          "name": "role",
          "type": "bytes32"
        },
        {
          "indexed": true,
          "internalType": "bytes32",
          "name": "previousAdminRole",
          "type": "bytes32"
        },
        {
          "indexed": true,
          "internalType": "bytes32",
          "name": "newAdminRole",
          "type": "bytes32"
        }
      ],
      "name": "RoleAdminChanged",
      "type": "event"
    },
    {
      "anonymous": false,
      "inputs": [
        {
          "indexed": true,
          "internalType": "bytes32",
          "name": "role",
          "type": "bytes32"
        },
        {
          "indexed": true,
          "internalType": "address",
          "name": "account",
          "type": "address"
        },
        {
          "indexed": true,
          "internalType": "address",
          "name": "sender",
          "type": "address"
        }
      ],
      "name": "RoleGranted",
      "type": "event"
    },
    {
      "anonymous": false,
      "inputs": [
        {
          "indexed": true,
          "internalType": "bytes32",
          "name": "role",
          "type": "bytes32"
        },
        {
          "indexed": true,
          "internalType": "address",
          "name": "account",
          "type": "address"
        },
        {
          "indexed": true,
          "internalType": "address",
          "name": "sender",
          "type": "address"
        }
      ],
      "name": "RoleRevoked",
      "type": "event"
    },
    {
      "anonymous": false,
      "inputs": [
        {
          "indexed": true,
          "internalType": "address",
          "name": "wallet",
          "type": "address"
        },
        {
          "indexed": false,
          "internalType": "enum BusinessRegistry.BusinessTier",
          "name": "oldTier",
          "type": "uint8"
        },
        {
          "indexed": false,
          "internalType": "enum BusinessRegistry.BusinessTier",
          "name": "newTier",
          "type": "uint8"
        }
      ],
      "name": "TierUpgraded",
      "type": "event"
    },
    {
      "anonymous": false,
      "inputs": [
        {
          "indexed": false,
          "internalType": "address",
          "name": "account",
          "type": "address"
        }
      ],
      "name": "Unpaused",
      "type": "event"
    },
    {
      "inputs": [],
      "name": "ADMIN_ROLE",
      "outputs": [
        {
          "internalType": "bytes32",
          "name": "",
          "type": "bytes32"
        }
      ],
      "stateMutability": "view",
      "type": "function"
    },
    {
      "inputs": [],
      "name": "DEFAULT_ADMIN_ROLE",
      "outputs": [
        {
          "internalType": "bytes32",
          "name": "",
          "type": "bytes32"
        }
      ],
      "stateMutability": "view",
      "type": "function"
    },
    {
      "inputs": [],
      "name": "MAX_LICENSE_LENGTH",
      "outputs": [
        {
          "internalType": "uint256",
          "name": "",
          "type": "uint256"
        }
      ],
      "stateMutability": "view",
      "type": "function"
    },
    {
      "inputs": [],
      "name": "MIN_LICENSE_LENGTH",
      "outputs": [
        {
          "internalType": "uint256",
          "name": "",
          "type": "uint256"
        }
      ],
      "stateMutability": "view",
      "type": "function"
    },
    {
      "inputs": [],
      "name": "REVERIFICATION_INTERVAL",
      "outputs": [
        {
          "internalType": "uint256",
          "name": "",
          "type": "uint256"
        }
      ],
      "stateMutability": "view",
      "type": "function"
    },
    {
      "inputs": [],
      "name": "VERIFIER_ROLE",
      "outputs": [
        {
          "internalType": "bytes32",
          "name": "",
          "type": "bytes32"
        }
      ],
      "stateMutability": "view",
      "type": "function"
    },
    {
      "inputs": [
        {
          "internalType": "address",
          "name": "",
          "type": "address"
        }
      ],
      "name": "businesses",
      "outputs": [
        {
          "internalType": "address",
          "name": "wallet",
          "type": "address"
        },
        {
          "internalType": "string",
          "name": "licenseNumber",
          "type": "string"
        },
        {
          "internalType": "string",
          "name": "businessName",
          "type": "string"
        },
        {
          "internalType": "enum BusinessRegistry.Jurisdiction",
          "name": "jurisdiction",
          "type": "uint8"
        },
        {
          "internalType": "enum BusinessRegistry.KYCStatus",
          "name": "kycStatus",
          "type": "uint8"
        },
        {
          "internalType": "enum BusinessRegistry.BusinessTier",
          "name": "tier",
          "type": "uint8"
        },
        {
          "internalType": "uint256",
          "name": "registeredAt",
          "type": "uint256"
        },
        {
          "internalType": "uint256",
          "name": "lastVerified",
          "type": "uint256"
        },
        {
          "internalType": "address",
          "name": "complianceOfficer",
          "type": "address"
        }
      ],
      "stateMutability": "view",
      "type": "function"
    },
    {
      "inputs": [
        {
          "internalType": "address",
          "name": "_business",
          "type": "address"
        }
      ],
      "name": "getBusinessDetails",
      "outputs": [
        {
          "components": [
            {
              "internalType": "address",
              "name": "wallet",
              "type": "address"
            },
            {
              "internalType": "string",
              "name": "licenseNumber",
              "type": "string"
            },
            {
              "internalType": "string",
              "name": "businessName",
              "type": "string"
            },
            {
              "internalType": "enum BusinessRegistry.Jurisdiction",
              "name": "jurisdiction",
              "type": "uint8"
            },
            {
              "internalType": "enum BusinessRegistry.KYCStatus",
              "name": "kycStatus",
              "type": "uint8"
            },
            {
              "internalType": "enum BusinessRegistry.BusinessTier",
              "name": "tier",
              "type": "uint8"
            },
            {
              "internalType": "uint256",
              "name": "registeredAt",
              "type": "uint256"
            },
            {
              "internalType": "uint256",
              "name": "lastVerified",
              "type": "uint256"
            },
            {
              "internalType": "address",
              "name": "complianceOfficer",
              "type": "address"
            }
          ],
          "internalType": "struct BusinessRegistry.Business",
          "name": "",
          "type": "tuple"
        }
      ],
      "stateMutability": "view",
      "type": "function"
    },
    {
      "inputs": [
        {
          "internalType": "address",
          "name": "_business",
          "type": "address"
        }
      ],
      "name": "getBusinessTier",
      "outputs": [
        {
          "internalType": "enum BusinessRegistry.BusinessTier",
          "name": "",
          "type": "uint8"
        }
      ],
      "stateMutability": "view",
      "type": "function"
    },
    {
      "inputs": [
        {
          "internalType": "bytes32",
          "name": "role",
          "type": "bytes32"
        }
      ],
      "name": "getRoleAdmin",
      "outputs": [
        {
          "internalType": "bytes32",
          "name": "",
          "type": "bytes32"
        }
      ],
      "stateMutability": "view",
      "type": "function"
    },
    {
      "inputs": [
        {
          "internalType": "bytes32",
          "name": "role",
          "type": "bytes32"
        },
        {
          "internalType": "address",
          "name": "account",
          "type": "address"
        }
      ],
      "name": "grantRole",
      "outputs": [],
      "stateMutability": "nonpayable",
      "type": "function"
    },
    {
      "inputs": [
        {
          "internalType": "bytes32",
          "name": "role",
          "type": "bytes32"
        },
        {
          "internalType": "address",
          "name": "account",
          "type": "address"
        }
      ],
      "name": "hasRole",
      "outputs": [
        {
          "internalType": "bool",
          "name": "",
          "type": "bool"
        }
      ],
      "stateMutability": "view",
      "type": "function"
    },
    {
      "inputs": [
        {
          "internalType": "address",
          "name": "_business",
          "type": "address"
        }
      ],
      "name": "isBusinessActive",
      "outputs": [
        {
          "internalType": "bool",
          "name": "",
          "type": "bool"
        }
      ],
      "stateMutability": "view",
      "type": "function"
    },
    {
      "inputs": [
        {
          "internalType": "bytes32",
          "name": "",
          "type": "bytes32"
        }
      ],
      "name": "licenseToWallet",
      "outputs": [
        {
          "internalType": "address",
          "name": "",
          "type": "address"
        }
      ],
      "stateMutability": "view",
      "type": "function"
    },
    {
      "inputs": [
        {
          "internalType": "address",
          "name": "_business",
          "type": "address"
        }
      ],
      "name": "needsReverification",
      "outputs": [
        {
          "internalType": "bool",
          "name": "",
          "type": "bool"
        }
      ],
      "stateMutability": "view",
      "type": "function"
    },
    {
      "inputs": [],
      "name": "noblePayContract",
      "outputs": [
        {
          "internalType": "address",
          "name": "",
          "type": "address"
        }
      ],
      "stateMutability": "view",
      "type": "function"
    },
    {
      "inputs": [],
      "name": "pause",
      "outputs": [],
      "stateMutability": "nonpayable",
      "type": "function"
    },
    {
      "inputs": [],
      "name": "paused",
      "outputs": [
        {
          "internalType": "bool",
          "name": "",
          "type": "bool"
        }
      ],
      "stateMutability": "view",
      "type": "function"
    },
    {
      "inputs": [
        {
          "internalType": "string",
          "name": "_licenseNumber",
          "type": "string"
        },
        {
          "internalType": "string",
          "name": "_businessName",
          "type": "string"
        },
        {
          "internalType": "enum BusinessRegistry.Jurisdiction",
          "name": "_jurisdiction",
          "type": "uint8"
        },
        {
          "internalType": "address",
          "name": "_complianceOfficer",
          "type": "address"
        }
      ],
      "name": "registerBusiness",
      "outputs": [],
      "stateMutability": "nonpayable",
      "type": "function"
    },
    {
      "inputs": [
        {
          "internalType": "address",
          "name": "_business",
          "type": "address"
        }
      ],
      "name": "reinstateBusiness",
      "outputs": [],
      "stateMutability": "nonpayable",
      "type": "function"
    },
    {
      "inputs": [
        {
          "internalType": "bytes32",
          "name": "role",
          "type": "bytes32"
        },
        {
          "internalType": "address",
          "name": "account",
          "type": "address"
        }
      ],
      "name": "renounceRole",
      "outputs": [],
      "stateMutability": "nonpayable",
      "type": "function"
    },
    {
      "inputs": [
        {
          "internalType": "address",
          "name": "_business",
          "type": "address"
        },
        {
          "internalType": "string",
          "name": "_reason",
          "type": "string"
        }
      ],
      "name": "revokeBusiness",
      "outputs": [],
      "stateMutability": "nonpayable",
      "type": "function"
    },
    {
      "inputs": [
        {
          "internalType": "bytes32",
          "name": "role",
          "type": "bytes32"
        },
        {
          "internalType": "address",
          "name": "account",
          "type": "address"
        }
      ],
      "name": "revokeRole",
      "outputs": [],
      "stateMutability": "nonpayable",
      "type": "function"
    },
    {
      "inputs": [
        {
          "internalType": "address",
          "name": "_noblepay",
          "type": "address"
        }
      ],
      "name": "setNoblePayContract",
      "outputs": [],
      "stateMutability": "nonpayable",
      "type": "function"
    },
    {
      "inputs": [
        {
          "internalType": "bytes4",
          "name": "interfaceId",
          "type": "bytes4"
        }
      ],
      "name": "supportsInterface",
      "outputs": [
        {
          "internalType": "bool",
          "name": "",
          "type": "bool"
        }
      ],
      "stateMutability": "view",
      "type": "function"
    },
    {
      "inputs": [
        {
          "internalType": "address",
          "name": "_business",
          "type": "address"
        },
        {
          "internalType": "string",
          "name": "_reason",
          "type": "string"
        }
      ],
      "name": "suspendBusiness",
      "outputs": [],
      "stateMutability": "nonpayable",
      "type": "function"
    },
    {
      "inputs": [],
      "name": "totalBusinesses",
      "outputs": [
        {
          "internalType": "uint256",
          "name": "",
          "type": "uint256"
        }
      ],
      "stateMutability": "view",
      "type": "function"
    },
    {
      "inputs": [],
      "name": "unpause",
      "outputs": [],
      "stateMutability": "nonpayable",
      "type": "function"
    },
    {
      "inputs": [
        {
          "internalType": "address",
          "name": "_newOfficer",
          "type": "address"
        }
      ],
      "name": "updateComplianceOfficer",
      "outputs": [],
      "stateMutability": "nonpayable",
      "type": "function"
    },
    {
      "inputs": [
        {
          "internalType": "address",
          "name": "_business",
          "type": "address"
        },
        {
          "internalType": "enum BusinessRegistry.BusinessTier",
          "name": "_newTier",
          "type": "uint8"
        }
      ],
      "name": "upgradeTier",
      "outputs": [],
      "stateMutability": "nonpayable",
      "type": "function"
    },
    {
      "inputs": [],
      "name": "verifiedBusinessCount",
      "outputs": [
        {
          "internalType": "uint256",
          "name": "",
          "type": "uint256"
        }
      ],
      "stateMutability": "view",
      "type": "function"
    },
    {
      "inputs": [
        {
          "internalType": "address",
          "name": "_business",
          "type": "address"
        }
      ],
      "name": "verifyBusiness",
      "outputs": [],
      "stateMutability": "nonpayable",
      "type": "function"
    }
  ],
  "bytecode": "0x608034620001cf57601f6200221538819003918201601f1916830192916001600160401b03841183851017620001d45780839260409586528339602092839181010312620001cf57516001600160a01b03811690819003620001cf5760ff199182600154166001558115620001be57600092838052838252848420838552825260ff85852054161562000188575b7fa49807205ce4d355092ef5a8a18f56e8913cf4a201fbe287825b095693c21775808552848352858520848652835260ff86862054161562000151575b507f0ce23c3e399818cfee81a7ab0880f714e53d7672b08df0fa62f2843416e1ea0991828552848152858520848652815260ff86862054161562000118575b855161200a9081620001eb8239f35b8285528481528585209084865252600185852091825416179055600080516020620021f5833981519152339380a4388080808062000109565b8085528483528585208486528352858520600183825416179055833391600080516020620021f58339815191528780a438620000ca565b8380528382528484208385528252848420600182825416179055338385600080516020620021f58339815191528180a46200008d565b835163d92e233d60e01b8152600490fd5b600080fd5b634e487b7160e01b600052604160045260246000fdfe608080604052600436101561001357600080fd5b60e0600035811c91826301ffc9a7146115675750816315325ac01461154b57816318c80cc81461152857816319e490a21461150957816323e5ead614610edf578163248a9ca314610eb05781632da5c0a414610dd85781632f2ff15d14610d2557816336568abe14610c935781633f4ba83a14610bff5781634b6f178014610be35781635c975abb14610bc05781635d1aea3714610b0d57816360d2043114610aef57816375b238fc14610ab45781638456cb5914610a5b57816389108ec61461093357816391d14854146108e65781639c8c6b0914610804578163a217fddf146107e8578163adca8f45146107b4578163b31e26e4146106d5578163bc9e2b6d1461053057508063d38df2ac14610507578063d547741f146104c6578063d89a1e3014610499578063dfa6a33f1461047b578063e21e4cfc14610328578063e64b219d146102de578063e7705db6146102a3578063f6c239fb146102335763f76758e61461018157600080fd5b3461022e57602036600319011261022e5761019a6115ba565b6101a2611eb1565b6001600160a01b0390811690811561021c57336000526002602052604060002060048101541561020a5760060180546001600160a01b03198116841790915516337f1d10c98b31e908840254e632f103a4606a404f0a710709871feaf25bdec4887c600080a4005b60405163e042642b60e01b8152600490fd5b60405163d92e233d60e01b8152600490fd5b600080fd5b3461022e57602036600319011261022e5761024c6115ba565b610254611a1c565b6001600160a01b0390811690811561021c57600654826001600160601b0360a01b821617600655167f11f816d487d272206ca8889ddbb1b85e6b03e57d52c726d8924a80e33c7f1747600080a3005b3461022e57600036600319011261022e5760206040517f0ce23c3e399818cfee81a7ab0880f714e53d7672b08df0fa62f2843416e1ea098152f35b3461022e57602036600319011261022e576001600160a01b036102ff6115ba565b166000526002602052602060ff60036040600020015460101c1661032660405180926117f5565bf35b3461022e57602036600319011261022e576103416115ba565b610349611802565b610351611eb1565b6001600160a01b0316600081815260026020526040902060048101541561020a576003810160ff815460081c166004811015806103f75781158092811561046c575b501561040d576103f7576103e4575b61010061ff0019825416179055600542910155604051904282527fe73787d8052a1474fb475648b68eeeb98985207f67b37ede98b0f529cadb080a60203393a3005b6103ef600554611e81565b6005556103a2565b634e487b7160e01b600052602160045260246000fd5b60405162461bcd60e51b815260206004820152603160248201527f427573696e65737352656769737472793a20696e76616c696420737461747573604482015270103337b9103b32b934b334b1b0ba34b7b760791b6064820152608490fd5b91505060016000911486610393565b3461022e57600036600319011261022e576020600554604051908152f35b3461022e57602036600319011261022e5760206104bc6104b76115ba565b611f74565b6040519015158152f35b3461022e57604036600319011261022e576105056004356104e56115d0565b90806000526000602052610500600160406000200154611b56565b611c55565b005b3461022e57600036600319011261022e576006546040516001600160a01b039091168152602090f35b3461022e5760208060031936011261022e5761054a6115ba565b916040519161055883611692565b60008352606081840152606060408401526000606084015260006080840152600060a0840152600060c084015260008284015260006101008094015260018060a01b0380941660005260028152604060002091604051936105b885611692565b8584541685526105ca600185016116ed565b908386019182526105dd600286016116ed565b926040870193845260038601549060608801966105fd60ff841689611e54565b60ff8360081c1660808a019360048210156103f75760ff91855260101c169260a08a019060038510156103f7578b978b9583528860048501549460c088019586528660058201549801978852600601541697878d019889528a6040519e8f9e8f9d8e525116908c0152516101206040819c01526101408d0161067e916117b6565b90518c8203601f190160608e015261069691906117b6565b995160808c016106a5916117db565b5160a08b016106b3916117e8565b5160c08a016106c1916117f5565b519088015251908601525116908301520390f35b3461022e57602036600319011261022e576001600160a01b0390816106f86115ba565b1660005260026020526040600020918083541691610718600185016116ed565b93610725600282016116ed565b916003820154936107a261076e6004850154926006600587015496015416956107606040519a8b9a8b526101208060208d01528b01906117b6565b9089820360408b01526117b6565b9561077f6060890160ff83166117db565b6107926080890160ff8360081c166117e8565b60ff60a089019160101c166117f5565b60c08601528401526101008301520390f35b3461022e57602036600319011261022e576004356000526003602052602060018060a01b0360406000205416604051908152f35b3461022e57600036600319011261022e57602060405160008152f35b3461022e5761081236611614565b9161081b611802565b610823611eb1565b6001600160a01b0316600081815260026020526040902060048101549192911561020a576003019283549360ff8560081c1660048110156103f757600181036108bf57506102007ffb624c378d6f3cb90126b304286392e7bdc95a6810c574c54bfce6becef8c064949561ff0019161790556108a0600554611cf0565b6005556108ba604051928392602084526020840191611e90565b0390a2005b60405163619f2c2160e01b81526044916108dd9060048301906117e8565b60016024820152fd5b3461022e57604036600319011261022e576108ff6115d0565b600435600052600060205260406000209060018060a01b0316600052602052602060ff604060002054166040519015158152f35b3461022e57604036600319011261022e5761094c6115ba565b60243590600382101561022e57610961611a1c565b610969611eb1565b6001600160a01b0316600081815260026020526040902060048101549192911561020a5760030190815460ff8160081c1660048110156103f757600181036108bf57506002821480610a42575b610a305760101c60ff1660038110156103f7578060ff83161115610a1e57610a1b82610a056040947fcbbf00b5f55f1857f9362f521999f79036413e420d1b236d6bc143af30db731a96611e60565b610a11845180946117f5565b60208301906117f5565ba2005b60405163c59efceb60e01b8152600490fd5b604051632726a67f60e11b8152600490fd5b5060ff8160101c1660038110156103f7576002146109b6565b3461022e57600036600319011261022e57610a74611a1c565b610a7c611eb1565b600160ff19815416176001557f62e78cea01bee320cd4e420270b5ea74000d11b0c9f74754ebdbfc544b05a2586020604051338152a1005b3461022e57600036600319011261022e5760206040517fa49807205ce4d355092ef5a8a18f56e8913cf4a201fbe287825b095693c217758152f35b3461022e57600036600319011261022e576020600454604051908152f35b3461022e57610b1b36611614565b9091610b25611a1c565b6001600160a01b0316600081815260026020526040902060048101549193911561020a576003019160ff835460081c169260048410156103f75760017fcc7ae0c3f7bc30b398ff27cac40a55be1ebea0691891184364b3d0dd5cbddd489414610bad575b61030061ff00198254161790556108ba604051928392602084526020840191611e90565b610bb8600554611cf0565b600555610b89565b3461022e57600036600319011261022e57602060ff600154166040519015158152f35b3461022e57600036600319011261022e57602060405160068152f35b3461022e57600036600319011261022e57610c18611a1c565b60015460ff811615610c575760ff19166001557f5db9ee0a495bf2e6ff9c91a7834c1ba4fdd244a5e8aa4e537bd38aeae4b073aa6020604051338152a1005b60405162461bcd60e51b815260206004820152601460248201527314185d5cd8589b194e881b9bdd081c185d5cd95960621b6044820152606490fd5b3461022e57604036600319011261022e57610cac6115d0565b336001600160a01b03821603610cc85761050590600435611c55565b60405162461bcd60e51b815260206004820152602f60248201527f416363657373436f6e74726f6c3a2063616e206f6e6c792072656e6f756e636560448201526e103937b632b9903337b91039b2b63360891b6064820152608490fd5b3461022e57604036600319011261022e57600435610d416115d0565b816000526000602052610d5b600160406000200154611b56565b81600052600060205260406000209060018060a01b0316908160005260205260ff6040600020541615610d8a57005b8160005260006020526040600020816000526020526040600020600160ff1982541617905533917f2f8788117e7eff1d82e926ec794901d17c78024a50270940304540a733656f0d600080a4005b3461022e57602036600319011261022e57610df16115ba565b610df9611802565b610e01611eb1565b6001600160a01b0316600081815260026020526040902060048101541561020a5760038101805460ff8160081c1660048110156103f75760028103610e89575061ff0019166101001790554260059182015554610e5d90611e81565b60055533907f3c996a7ebc497f86b1449f5c83932e3cbfae829c30b2b74b9be9d1e8d19998d0600080a3005b60405163619f2c2160e01b8152604491610ea79060048301906117e8565b60026024820152fd5b3461022e57602036600319011261022e5760043560005260006020526020600160406000200154604051908152f35b3461022e57608036600319011261022e5760043567ffffffffffffffff811161022e57610f109036906004016115e6565b9160243567ffffffffffffffff811161022e57610f319036906004016115e6565b6002604435101561022e576064356001600160a01b038116939084900361022e57610f5a611eb1565b3360005260026020526004604060002001546114f757831561021c576006861080156114ed575b6114765760443515611413575b811561140157604051602081019087878337610fba6020828a81016000838201520380845201826116cb565b5190206000818152600360205260409020549095906001600160a01b03166113ef5760405195610fe987611692565b338752610ff7368984611e0d565b956020880196875261100a368688611e0d565b604089015261101e60443560608a01611e54565b60006080890152600060a08901524260c089015260008489015261010088015233600052600260205260406000209560018060a01b038851166001600160601b0360a01b8854161787555180519067ffffffffffffffff821161130957819061108a60018a0154611658565b601f811161139c575b50602090601f831160011461132a5760009261131f575b50508160011b916000199060031b1c19161760018701555b604087015180519067ffffffffffffffff82116113095781906110e860028a0154611658565b601f81116112b6575b50602090601f831160011461124457600092611239575b50508160011b916000199060031b1c19161760028701555b606087015160028110156103f7576003870154608089015160048110156103f75761ff0060ff9160081b1692169061ffff19161717600387015560a08701519660038810156103f757600687611213956111a17f1d73530c96d6c36039ed23f0a2a109f1c35cdf96d129949bead89ace4bcbe8509b60036112219c01611e60565b60c084015160048301558301516005820155019061010060018060a01b03910151166001600160601b0360a01b82541617905560005260036020526040600020336001600160601b0360a01b8254161790556111fe600454611e81565b60045560405196606088526060880191611e90565b918583036020870152611e90565b91611231604082016044356117db565b8033930390a2005b015190508a80611108565b9250600289016000526020600020906000935b601f198416851061129b576001945083601f19811610611282575b505050811b016002870155611120565b015160001960f88460031b161c191690558a8080611272565b81810151835560209485019460019093019290910190611257565b909150600289016000526020600020601f840160051c810160208510611302575b90849392915b601f830160051c820181106112f35750506110f1565b600081558594506001016112dd565b50806112d7565b634e487b7160e01b600052604160045260246000fd5b015190508a806110aa565b9250600189016000526020600020906000935b601f1984168510611381576001945083601f19811610611368575b505050811b0160018701556110c2565b015160001960f88460031b161c191690558a8080611358565b8181015183556020948501946001909301929091019061133d565b909150600189016000526020600020601f840160051c8101602085106113e8575b90849392915b601f830160051c820181106113d9575050611093565b600081558594506001016113c3565b50806113bd565b604051631f9754bb60e01b8152600490fd5b604051637bbe3f2b60e11b8152600490fd5b61141e368787611e0d565b60005b87811061142f575050610f8e565b6001600160f81b03196114428284611cc9565b5116600360fc1b81101590816114de575b81156114ba575b8115611496575b8115611488575b501561147657600101611421565b6040516302e5454160e21b8152600490fd5b602d60f81b14905089611468565b9050606160f81b811015806114ac575b90611461565b50603d60f91b8111156114a6565b9050604160f81b811015806114d0575b9061145a565b50602d60f91b8111156114ca565b603960f81b8111159150611453565b5060148611610f81565b60405163924a05f160e01b8152600490fd5b3461022e57600036600319011261022e5760206040516301e133808152f35b3461022e57602036600319011261022e5760206104bc6115466115ba565b611ef5565b3461022e57600036600319011261022e57602060405160148152f35b3461022e57602036600319011261022e576004359063ffffffff60e01b821680920361022e57602091637965db0b60e01b81149081156115a9575b5015158152f35b6301ffc9a760e01b149050836115a2565b600435906001600160a01b038216820361022e57565b602435906001600160a01b038216820361022e57565b9181601f8401121561022e5782359167ffffffffffffffff831161022e576020838186019501011161022e57565b90604060031983011261022e576004356001600160a01b038116810361022e57916024359067ffffffffffffffff821161022e57611654916004016115e6565b9091565b90600182811c92168015611688575b602083101461167257565b634e487b7160e01b600052602260045260246000fd5b91607f1691611667565b610120810190811067ffffffffffffffff82111761130957604052565b6080810190811067ffffffffffffffff82111761130957604052565b90601f8019910116810190811067ffffffffffffffff82111761130957604052565b906040519182600082549261170184611658565b908184526001948581169081600014611770575060011461172d575b505061172b925003836116cb565b565b9093915060005260209081600020936000915b81831061175857505061172b9350820101388061171d565b85548884018501529485019487945091830191611740565b91505061172b94506020925060ff191682840152151560051b820101388061171d565b60005b8381106117a65750506000910152565b8181015183820152602001611796565b906020916117cf81518092818552858086019101611793565b601f01601f1916010190565b9060028210156103f75752565b9060048210156103f75752565b9060038210156103f75752565b3360009081527f1da0b5176dfe03406af5a6eed66ca01dda9b45ac4da671c3fa379cb93717ef81602090815260408083205490927f0ce23c3e399818cfee81a7ab0880f714e53d7672b08df0fa62f2843416e1ea099160ff16156118665750505050565b61186f33611d13565b9184519061187c826116af565b60428252848201926060368537825115611a08576030845382516001908110156119f45790607860218501536041915b80831161199a5750505061195857604861195493869361193893611929985198899376020b1b1b2b9b9a1b7b73a3937b61d1030b1b1b7bab73a1604d1b8a860152611900815180928c603789019101611793565b8401917001034b99036b4b9b9b4b733903937b6329607d1b603784015251809386840190611793565b010360288101875201856116cb565b5192839262461bcd60e51b8452600484015260248301906117b6565b0390fd5b60648486519062461bcd60e51b825280600483015260248201527f537472696e67733a20686578206c656e67746820696e73756666696369656e746044820152fd5b909192600f811660108110156119e0576119d991906f181899199a1a9b1b9c1cb0b131b232b360811b901a6119cf8688611cc9565b5360041c93611cf0565b91906118ac565b634e487b7160e01b84526032600452602484fd5b634e487b7160e01b82526032600452602482fd5b634e487b7160e01b81526032600452602490fd5b3360009081527f7d7ffb7a348e1c6a02869081a26547b49160dd3df72d1d75a570eb9b698292ec602090815260408083205490927fa49807205ce4d355092ef5a8a18f56e8913cf4a201fbe287825b095693c217759160ff1615611a805750505050565b611a8933611d13565b91845190611a96826116af565b60428252848201926060368537825115611a08576030845382516001908110156119f45790607860218501536041915b808311611b1a5750505061195857604861195493869361193893611929985198899376020b1b1b2b9b9a1b7b73a3937b61d1030b1b1b7bab73a1604d1b8a860152611900815180928c603789019101611793565b909192600f811660108110156119e057611b4f91906f181899199a1a9b1b9c1cb0b131b232b360811b901a6119cf8688611cc9565b9190611ac6565b600090808252602090828252604092838120338252835260ff848220541615611b7f5750505050565b611b8833611d13565b91845190611b95826116af565b60428252848201926060368537825115611a08576030845382516001908110156119f45790607860218501536041915b808311611c195750505061195857604861195493869361193893611929985198899376020b1b1b2b9b9a1b7b73a3937b61d1030b1b1b7bab73a1604d1b8a860152611900815180928c603789019101611793565b909192600f811660108110156119e057611c4e91906f181899199a1a9b1b9c1cb0b131b232b360811b901a6119cf8688611cc9565b9190611bc5565b9060009180835282602052604083209160018060a01b03169182845260205260ff604084205416611c8557505050565b80835282602052604083208284526020526040832060ff1981541690557ff6391f5c32d9c69d2a47ea670b442974b53935d1edc7fd64eb21e047a839171b339380a4565b908151811015611cda570160200190565b634e487b7160e01b600052603260045260246000fd5b8015611cfd576000190190565b634e487b7160e01b600052601160045260246000fd5b604051906060820182811067ffffffffffffffff82111761130957604052602a8252602082016040368237825115611cda57603090538151600190811015611cda57607860218401536029905b808211611db4575050611d705790565b606460405162461bcd60e51b815260206004820152602060248201527f537472696e67733a20686578206c656e67746820696e73756666696369656e746044820152fd5b9091600f8116906010821015611df857611df2916f181899199a1a9b1b9c1cb0b131b232b360811b901a611de88587611cc9565b5360041c92611cf0565b90611d60565b60246000634e487b7160e01b81526032600452fd5b92919267ffffffffffffffff82116113095760405191611e37601f8201601f1916602001846116cb565b82948184528183011161022e578281602093846000960137010152565b60028210156103f75752565b9060038110156103f75762ff000082549160101b169062ff00001916179055565b6000198114611cfd5760010190565b908060209392818452848401376000828201840152601f01601f1916010190565b60ff60015416611ebd57565b60405162461bcd60e51b815260206004820152601060248201526f14185d5cd8589b194e881c185d5cd95960821b6044820152606490fd5b6001600160a01b03166000908152600260205260408120600381015460081c60ff166004811015611f6057600103611f5c57600501546301e133808101809111611f48574211611f455750600190565b90565b634e487b7160e01b82526011600452602482fd5b5090565b634e487b7160e01b83526021600452602483fd5b6001600160a01b03166000908152600260205260408120600381015460081c60ff166004811015611f6057600103611f5c5760050154906301e133808201809211611fc0575042101590565b634e487b7160e01b81526011600452602490fdfea2646970667358221220bab604474d01ebc2c5a5cd1dc20a23187a008249084edc5ae116e71936b067b464736f6c634300081300332f8788117e7eff1d82e926ec794901d17c78024a50270940304540a733656f0d",
  "linkReferences": {},
  "deployedLinkReferences": {}
}