{"src/MultiSigTreasury.sol":{"MultiSigTreasury":{"abi":[{"inputs":[{"internalType":"address","name":"_admin","type":"address"},{"internalType":"address[]","name":"_initialSigners","type":"address[]"},{"internalType":"uint256","name":"_smallThreshold","type":"uint256"},{"internalType":"uint256","name":"_mediumThreshold","type":"uint256"},{"internalType":"uint256","name":"_largeThreshold","type":"uint256"},{"internalType":"uint256","name":"_emergencyThreshold","type":"uint256"}],"stateMutability":"nonpayable","type":"constructor"},{"inputs":[],"name":"AllocationExceeded","type":"error"},{"inputs":[],"name":"AlreadyApproved","type":"error"},{"inputs":[],"name":"AlreadyRejected","type":"error"},{"inputs":[{"internalType":"uint256","name":"requested","type":"uint256"},{"internalType":"uint256","name":"remaining","type":"uint256"}],"name":"BudgetExceeded","type":"error"},{"inputs":[],"name":"BudgetNotFound","type":"error"},{"inputs":[{"internalType":"uint256","name":"readyAt","type":"uint256"}],"name":"CooldownActive","type":"error"},{"inputs":[{"internalType":"uint256","name":"requested","type":"uint256"},{"internalType":"uint256","name":"remaining","type":"uint256"}],"name":"DailyLimitExceeded","type":"error"},{"inputs":[],"name":"DelegationNotActive","type":"error"},{"inputs":[],"name":"DelegationTooLong","type":"error"},{"inputs":[],"name":"InsufficientBalance","type":"error"},{"inputs":[{"internalType":"enum MultiSigTreasury.ProposalStatus","name":"current","type":"uint8"}],"name":"InvalidProposalStatus","type":"error"},{"inputs":[],"name":"InvalidSignerConfig","type":"error"},{"inputs":[],"name":"MaxExecutionsReached","type":"error"},{"inputs":[],"name":"MinimumSignersRequired","type":"error"},{"inputs":[{"internalType":"uint256","name":"requested","type":"uint256"},{"internalType":"uint256","name":"remaining","type":"uint256"}],"name":"MonthlyLimitExceeded","type":"error"},{"inputs":[],"name":"NotSigner","type":"error"},{"inputs":[],"name":"ProposalExpiredError","type":"error"},{"inputs":[],"name":"ProposalNotFound","type":"error"},{"inputs":[],"name":"ProtocolNotApproved","type":"error"},{"inputs":[],"name":"RecurringPaymentNotDue","type":"error"},{"inputs":[],"name":"RecurringPaymentNotFound","type":"error"},{"inputs":[],"name":"SignerAlreadyExists","type":"error"},{"inputs":[{"internalType":"uint256","name":"expiry","type":"uint256"},{"internalType":"uint256","name":"current","type":"uint256"}],"name":"TimelockNotExpired","type":"error"},{"inputs":[],"name":"UnsupportedToken","type":"error"},{"inputs":[{"internalType":"uint256","name":"requested","type":"uint256"},{"internalType":"uint256","name":"remaining","type":"uint256"}],"name":"WeeklyLimitExceeded","type":"error"},{"inputs":[],"name":"ZeroAddress","type":"error"},{"inputs":[],"name":"ZeroAmount","type":"error"},{"anonymous":false,"inputs":[{"indexed":true,"internalType":"bytes32","name":"budgetId","type":"bytes32"},{"indexed":false,"internalType":"string","name":"name","type":"string"},{"indexed":false,"internalType":"enum MultiSigTreasury.SpendingCategory","name":"category","type":"uint8"},{"indexed":false,"internalType":"uint256","name":"totalAllocation","type":"uint256"}],"name":"BudgetCreated","type":"event"},{"anonymous":false,"inputs":[{"indexed":true,"internalType":"bytes32","name":"budgetId","type":"bytes32"},{"indexed":false,"internalType":"uint256","name":"amount","type":"uint256"},{"indexed":false,"internalType":"uint256","name":"totalSpent","type":"uint256"},{"indexed":false,"internalType":"uint256","name":"remaining","type":"uint256"}],"name":"BudgetSpent","type":"event"},{"anonymous":false,"inputs":[{"indexed":true,"internalType":"address","name":"delegator","type":"address"},{"indexed":true,"internalType":"address","name":"delegate","type":"address"},{"indexed":false,"internalType":"uint256","name":"validUntil","type":"uint256"}],"name":"DelegationCreated","type":"event"},{"anonymous":false,"inputs":[{"indexed":true,"internalType":"address","name":"delegator","type":"address"},{"indexed":true,"internalType":"address","name":"delegate","type":"address"}],"name":"DelegationRevoked","type":"event"},{"anonymous":false,"inputs":[{"indexed":true,"internalType":"address","name":"oldContract","type":"address"},{"indexed":true,"internalType":"address","name":"newContract","type":"address"}],"name":"NoblePayUpdated","type":"event"},{"anonymous":false,"inputs":[{"indexed":false,"internalType":"address","name":"account","type":"address"}],"name":"Paused","type":"event"},{"anonymous":false,"inputs":[{"indexed":true,"internalType":"bytes32","name":"proposalId","type":"bytes32"},{"indexed":true,"internalType":"address","name":"signer","type":"address"},{"indexed":false,"internalType":"uint256","name":"approvalCount","type":"uint256"},{"indexed":false,"internalType":"uint256","name":"required","type":"uint256"}],"name":"ProposalApproved","type":"event"},{"anonymous":false,"inputs":[{"indexed":true,"internalType":"bytes32","name":"proposalId","type":"bytes32"},{"indexed":true,"internalType":"address","name":"cancelledBy","type":"address"}],"name":"ProposalCancelled","type":"event"},{"anonymous":false,"inputs":[{"indexed":true,"internalType":"bytes32","name":"proposalId","type":"bytes32"},{"indexed":true,"internalType":"address","name":"proposer","type":"address"},{"indexed":true,"internalType":"address","name":"recipient","type":"address"},{"indexed":false,"internalType":"uint256","name":"amount","type":"uint256"},{"indexed":false,"internalType":"enum MultiSigTreasury.TxTier","name":"tier","type":"uint8"},{"indexed":false,"internalType":"bool","name":"isEmergency","type":"bool"}],"name":"ProposalCreated","type":"event"},{"anonymous":false,"inputs":[{"indexed":true,"internalType":"bytes32","name":"proposalId","type":"bytes32"},{"indexed":true,"internalType":"address","name":"executor","type":"address"},{"indexed":false,"internalType":"uint256","name":"amount","type":"uint256"},{"indexed":false,"internalType":"uint256","name":"executedAt","type":"uint256"}],"name":"ProposalExecuted","type":"event"},{"anonymous":false,"inputs":[{"indexed":true,"internalType":"bytes32","name":"proposalId","type":"bytes32"}],"name":"ProposalExpired","type":"event"},{"anonymous":false,"inputs":[{"indexed":true,"internalType":"bytes32","name":"proposalId","type":"bytes32"},{"indexed":true,"internalType":"address","name":"signer","type":"address"},{"indexed":false,"internalType":"uint256","name":"rejectionCount","type":"uint256"}],"name":"ProposalRejected","type":"event"},{"anonymous":false,"inputs":[{"indexed":true,"internalType":"bytes32","name":"paymentId","type":"bytes32"},{"indexed":true,"internalType":"address","name":"recipient","type":"address"},{"indexed":false,"internalType":"uint256","name":"amount","type":"uint256"},{"indexed":false,"internalType":"enum MultiSigTreasury.PaymentFrequency","name":"frequency","type":"uint8"}],"name":"RecurringPaymentCreated","type":"event"},{"anonymous":false,"inputs":[{"indexed":true,"internalType":"bytes32","name":"paymentId","type":"bytes32"},{"indexed":false,"internalType":"uint256","name":"executionNumber","type":"uint256"},{"indexed":false,"internalType":"uint256","name":"amount","type":"uint256"}],"name":"RecurringPaymentExecuted","type":"event"},{"anonymous":false,"inputs":[{"indexed":true,"internalType":"bytes32","name":"paymentId","type":"bytes32"}],"name":"RecurringPaymentRevoked","type":"event"},{"anonymous":false,"inputs":[{"indexed":true,"internalType":"bytes32","name":"role","type":"bytes32"},{"indexed":true,"internalType":"bytes32","name":"previousAdminRole","type":"bytes32"},{"indexed":true,"internalType":"bytes32","name":"newAdminRole","type":"bytes32"}],"name":"RoleAdminChanged","type":"event"},{"anonymous":false,"inputs":[{"indexed":true,"internalType":"bytes32","name":"role","type":"bytes32"},{"indexed":true,"internalType":"address","name":"account","type":"address"},{"indexed":true,"internalType":"address","name":"sender","type":"address"}],"name":"RoleGranted","type":"event"},{"anonymous":false,"inputs":[{"indexed":true,"internalType":"bytes32","name":"role","type":"bytes32"},{"indexed":true,"internalType":"address","name":"account","type":"address"},{"indexed":true,"internalType":"address","name":"sender","type":"address"}],"name":"RoleRevoked","type":"event"},{"anonymous":false,"inputs":[{"indexed":true,"internalType":"address","name":"signer","type":"address"},{"indexed":false,"internalType":"uint256","name":"totalSigners","type":"uint256"}],"name":"SignerAdded","type":"event"},{"anonymous":false,"inputs":[{"indexed":false,"internalType":"uint256","name":"small","type":"uint256"},{"indexed":false,"internalType":"uint256","name":"medium","type":"uint256"},{"indexed":false,"internalType":"uint256","name":"large","type":"uint256"},{"indexed":false,"internalType":"uint256","name":"emergency","type":"uint256"}],"name":"SignerConfigUpdated","type":"event"},{"anonymous":false,"inputs":[{"indexed":true,"internalType":"address","name":"signer","type":"address"},{"indexed":false,"internalType":"uint256","name":"totalSigners","type":"uint256"}],"name":"SignerRemoved","type":"event"},{"anonymous":false,"inputs":[{"indexed":true,"internalType":"address","name":"token","type":"address"},{"indexed":false,"internalType":"bool","name":"supported","type":"bool"}],"name":"TokenSupported","type":"event"},{"anonymous":false,"inputs":[{"indexed":false,"internalType":"address","name":"account","type":"address"}],"name":"Unpaused","type":"event"},{"anonymous":false,"inputs":[{"indexed":true,"internalType":"address","name":"protocol","type":"address"},{"indexed":false,"internalType":"uint256","name":"amount","type":"uint256"}],"name":"YieldAllocated","type":"event"},{"anonymous":false,"inputs":[{"indexed":true,"internalType":"address","name":"protocol","type":"address"},{"indexed":false,"internalType":"string","name":"name","type":"string"},{"indexed":false,"internalType":"uint256","name":"maxAllocation","type":"uint256"}],"name":"YieldProtocolApproved","type":"event"},{"anonymous":false,"inputs":[{"indexed":true,"internalType":"address","name":"protocol","type":"address"},{"indexed":false,"internalType":"uint256","name":"amount","type":"uint256"}],"name":"YieldWithdrawn","type":"event"},{"inputs":[],"name":"ADMIN_ROLE","outputs":[{"internalType":"bytes32","name":"","type":"bytes32"}],"stateMutability":"view","type":"function"},{"inputs":[],"name":"BUDGET_MANAGER_ROLE","outputs":[{"internalType":"bytes32","name":"","type":"bytes32"}],"stateMutability":"view","type":"function"},{"inputs":[],"name":"DEFAULT_ADMIN_ROLE","outputs":[{"internalType":"bytes32","name":"","type":"bytes32"}],"stateMutability":"view","type":"function"},{"inputs":[],"name":"EMERGENCY_TIMELOCK","outputs":[{"internalType":"uint256","name":"","type":"uint256"}],"stateMutability":"view","type":"function"},{"inputs":[],"name":"LARGE_TIMELOCK","outputs":[{"internalType":"uint256","name":"","type":"uint256"}],"stateMutability":"view","type":"function"},{"inputs":[],"name":"LARGE_TX_THRESHOLD","outputs":[{"internalType":"uint256","name":"","type":"uint256"}],"stateMutability":"view","type":"function"},{"inputs":[],"name":"MAX_DELEGATION_PERIOD","outputs":[{"internalType":"uint256","name":"","type":"uint256"}],"stateMutability":"view","type":"function"},{"inputs":[],"name":"PROPOSAL_EXPIRY","outputs":[{"internalType":"uint256","name":"","type":"uint256"}],"stateMutability":"view","type":"function"},{"inputs":[],"name":"SIGNER_COOLDOWN","outputs":[{"internalType":"uint256","name":"","type":"uint256"}],"stateMutability":"view","type":"function"},{"inputs":[],"name":"SIGNER_ROLE","outputs":[{"internalType":"bytes32","name":"","type":"bytes32"}],"stateMutability":"view","type":"function"},{"inputs":[],"name":"SMALL_TX_THRESHOLD","outputs":[{"internalType":"uint256","name":"","type":"uint256"}],"stateMutability":"view","type":"function"},{"inputs":[],"name":"STANDARD_TIMELOCK","outputs":[{"internalType":"uint256","name":"","type":"uint256"}],"stateMutability":"view","type":"function"},{"inputs":[],"name":"YIELD_MANAGER_ROLE","outputs":[{"internalType":"bytes32","name":"","type":"bytes32"}],"stateMutability":"view","type":"function"},{"inputs":[{"internalType":"uint256","name":"","type":"uint256"}],"name":"activeBudgetIds","outputs":[{"internalType":"bytes32","name":"","type":"bytes32"}],"stateMutability":"view","type":"function"},{"inputs":[{"internalType":"uint256","name":"","type":"uint256"}],"name":"activeRecurringPaymentIds","outputs":[{"internalType":"bytes32","name":"","type":"bytes32"}],"stateMutability":"view","type":"function"},{"inputs":[{"internalType":"address","name":"_signer","type":"address"}],"name":"addSigner","outputs":[],"stateMutability":"nonpayable","type":"function"},{"inputs":[{"internalType":"address","name":"_protocol","type":"address"},{"internalType":"address","name":"_token","type":"address"},{"internalType":"uint256","name":"_amount","type":"uint256"}],"name":"allocateToYield","outputs":[],"stateMutability":"nonpayable","type":"function"},{"inputs":[{"internalType":"bytes32","name":"_proposalId","type":"bytes32"}],"name":"approveProposal","outputs":[],"stateMutability":"nonpayable","type":"function"},{"inputs":[{"internalType":"address","name":"_protocol","type":"address"},{"internalType":"string","name":"_name","type":"string"},{"internalType":"uint256","name":"_maxAllocation","type":"uint256"}],"name":"approveYieldProtocol","outputs":[],"stateMutability":"nonpayable","type":"function"},{"inputs":[],"name":"budgetNonce","outputs":[{"internalType":"uint256","name":"","type":"uint256"}],"stateMutability":"view","type":"function"},{"inputs":[{"internalType":"bytes32","name":"","type":"bytes32"}],"name":"budgets","outputs":[{"internalType":"bytes32","name":"budgetId","type":"bytes32"},{"internalType":"string","name":"name","type":"string"},{"internalType":"enum MultiSigTreasury.SpendingCategory","name":"category","type":"uint8"},{"internalType":"uint256","name":"totalAllocation","type":"uint256"},{"internalType":"uint256","name":"spent","type":"uint256"},{"internalType":"uint256","name":"dailyLimit","type":"uint256"},{"internalType":"uint256","name":"weeklyLimit","type":"uint256"},{"internalType":"uint256","name":"monthlyLimit","type":"uint256"},{"internalType":"uint256","name":"createdAt","type":"uint256"},{"internalType":"uint256","name":"periodStart","type":"uint256"},{"internalType":"uint256","name":"periodEnd","type":"uint256"},{"internalType":"bool","name":"active","type":"bool"}],"stateMutability":"view","type":"function"},{"inputs":[{"internalType":"bytes32","name":"_proposalId","type":"bytes32"}],"name":"cancelProposal","outputs":[],"stateMutability":"nonpayable","type":"function"},{"inputs":[{"internalType":"string","name":"_name","type":"string"},{"internalType":"enum MultiSigTreasury.SpendingCategory","name":"_category","type":"uint8"},{"internalType":"uint256","name":"_totalAllocation","type":"uint256"},{"internalType":"uint256","name":"_dailyLimit","type":"uint256"},{"internalType":"uint256","name":"_weeklyLimit","type":"uint256"},{"internalType":"uint256","name":"_monthlyLimit","type":"uint256"},{"internalType":"uint256","name":"_periodEnd","type":"uint256"}],"name":"createBudget","outputs":[{"internalType":"bytes32","name":"budgetId","type":"bytes32"}],"stateMutability":"nonpayable","type":"function"},{"inputs":[{"internalType":"address","name":"_recipient","type":"address"},{"internalType":"address","name":"_token","type":"address"},{"internalType":"uint256","name":"_amount","type":"uint256"},{"internalType":"enum MultiSigTreasury.SpendingCategory","name":"_category","type":"uint8"},{"internalType":"string","name":"_description","type":"string"},{"internalType":"bool","name":"_isEmergency","type":"bool"},{"internalType":"bytes32","name":"_budgetId","type":"bytes32"}],"name":"createProposal","outputs":[{"internalType":"bytes32","name":"proposalId","type":"bytes32"}],"stateMutability":"nonpayable","type":"function"},{"inputs":[{"internalType":"address","name":"_recipient","type":"address"},{"internalType":"address","name":"_token","type":"address"},{"internalType":"uint256","name":"_amount","type":"uint256"},{"internalType":"enum MultiSigTreasury.PaymentFrequency","name":"_frequency","type":"uint8"},{"internalType":"enum MultiSigTreasury.SpendingCategory","name":"_category","type":"uint8"},{"internalType":"string","name":"_description","type":"string"},{"internalType":"uint256","name":"_maxExecutions","type":"uint256"},{"internalType":"bytes32","name":"_budgetId","type":"bytes32"}],"name":"createRecurringPayment","outputs":[{"internalType":"bytes32","name":"paymentId","type":"bytes32"}],"stateMutability":"nonpayable","type":"function"},{"inputs":[{"internalType":"address","name":"_delegate","type":"address"},{"internalType":"uint256","name":"_duration","type":"uint256"}],"name":"delegateSigningAuthority","outputs":[],"stateMutability":"nonpayable","type":"function"},{"inputs":[{"internalType":"address","name":"","type":"address"}],"name":"delegations","outputs":[{"internalType":"address","name":"delegator","type":"address"},{"internalType":"address","name":"delegate","type":"address"},{"internalType":"uint256","name":"validFrom","type":"uint256"},{"internalType":"uint256","name":"validUntil","type":"uint256"},{"internalType":"bool","name":"active","type":"bool"}],"stateMutability":"view","type":"function"},{"inputs":[{"internalType":"bytes32","name":"_proposalId","type":"bytes32"}],"name":"executeProposal","outputs":[],"stateMutability":"nonpayable","type":"function"},{"inputs":[{"internalType":"bytes32","name":"_paymentId","type":"bytes32"}],"name":"executeRecurringPayment","outputs":[],"stateMutability":"nonpayable","type":"function"},{"inputs":[],"name":"getActiveBudgets","outputs":[{"internalType":"bytes32[]","name":"","type":"bytes32[]"}],"stateMutability":"view","type":"function"},{"inputs":[{"internalType":"bytes32","name":"_budgetId","type":"bytes32"}],"name":"getBudget","outputs":[{"components":[{"internalType":"bytes32","name":"budgetId","type":"bytes32"},{"internalType":"string","name":"name","type":"string"},{"internalType":"enum MultiSigTreasury.SpendingCategory","name":"category","type":"uint8"},{"internalType":"uint256","name":"totalAllocation","type":"uint256"},{"internalType":"uint256","name":"spent","type":"uint256"},{"internalType":"uint256","name":"dailyLimit","type":"uint256"},{"internalType":"uint256","name":"weeklyLimit","type":"uint256"},{"internalType":"uint256","name":"monthlyLimit","type":"uint256"},{"internalType":"uint256","name":"createdAt","type":"uint256"},{"internalType":"uint256","name":"periodStart","type":"uint256"},{"internalType":"uint256","name":"periodEnd","type":"uint256"},{"internalType":"bool","name":"active","type":"bool"}],"internalType":"struct MultiSigTreasury.Budget","name":"","type":"tuple"}],"stateMutability":"view","type":"function"},{"inputs":[{"internalType":"bytes32","name":"_proposalId","type":"bytes32"}],"name":"getProposal","outputs":[{"components":[{"internalType":"bytes32","name":"proposalId","type":"bytes32"},{"internalType":"address","name":"proposer","type":"address"},{"internalType":"address","name":"recipient","type":"address"},{"internalType":"address","name":"token","type":"address"},{"internalType":"uint256","name":"amount","type":"uint256"},{"internalType":"enum MultiSigTreasury.SpendingCategory","name":"category","type":"uint8"},{"internalType":"string","name":"description","type":"string"},{"internalType":"enum MultiSigTreasury.TxTier","name":"tier","type":"uint8"},{"internalType":"enum MultiSigTreasury.ProposalStatus","name":"status","type":"uint8"},{"internalType":"uint256","name":"approvalCount","type":"uint256"},{"internalType":"uint256","name":"rejectionCount","type":"uint256"},{"internalType":"uint256","name":"requiredApprovals","type":"uint256"},{"internalType":"uint256","name":"createdAt","type":"uint256"},{"internalType":"uint256","name":"timelockExpiry","type":"uint256"},{"internalType":"uint256","name":"expiresAt","type":"uint256"},{"internalType":"bool","name":"isEmergency","type":"bool"},{"internalType":"bytes32","name":"budgetId","type":"bytes32"}],"internalType":"struct MultiSigTreasury.Proposal","name":"","type":"tuple"}],"stateMutability":"view","type":"function"},{"inputs":[{"internalType":"bytes32","name":"_paymentId","type":"bytes32"}],"name":"getRecurringPayment","outputs":[{"components":[{"internalType":"bytes32","name":"paymentId","type":"bytes32"},{"internalType":"address","name":"recipient","type":"address"},{"internalType":"address","name":"token","type":"address"},{"internalType":"uint256","name":"amount","type":"uint256"},{"internalType":"enum MultiSigTreasury.PaymentFrequency","name":"frequency","type":"uint8"},{"internalType":"enum MultiSigTreasury.SpendingCategory","name":"category","type":"uint8"},{"internalType":"string","name":"description","type":"string"},{"internalType":"uint256","name":"nextExecution","type":"uint256"},{"internalType":"uint256","name":"lastExecuted","type":"uint256"},{"internalType":"uint256","name":"executionCount","type":"uint256"},{"internalType":"uint256","name":"maxExecutions","type":"uint256"},{"internalType":"bool","name":"active","type":"bool"},{"internalType":"bytes32","name":"budgetId","type":"bytes32"}],"internalType":"struct MultiSigTreasury.RecurringPayment","name":"","type":"tuple"}],"stateMutability":"view","type":"function"},{"inputs":[{"internalType":"bytes32","name":"role","type":"bytes32"}],"name":"getRoleAdmin","outputs":[{"internalType":"bytes32","name":"","type":"bytes32"}],"stateMutability":"view","type":"function"},{"inputs":[],"name":"getSignerConfig","outputs":[{"components":[{"internalType":"uint256","name":"totalSigners","type":"uint256"},{"internalType":"uint256","name":"smallThreshold","type":"uint256"},{"internalType":"uint256","name":"mediumThreshold","type":"uint256"},{"internalType":"uint256","name":"largeThreshold","type":"uint256"},{"internalType":"uint256","name":"emergencyThreshold","type":"uint256"}],"internalType":"struct MultiSigTreasury.SignerConfig","name":"","type":"tuple"}],"stateMutability":"view","type":"function"},{"inputs":[],"name":"getSigners","outputs":[{"internalType":"address[]","name":"","type":"address[]"}],"stateMutability":"view","type":"function"},{"inputs":[{"internalType":"bytes32","name":"_budgetId","type":"bytes32"}],"name":"getSpendingTracker","outputs":[{"components":[{"internalType":"uint256","name":"dailySpent","type":"uint256"},{"internalType":"uint256","name":"weeklySpent","type":"uint256"},{"internalType":"uint256","name":"monthlySpent","type":"uint256"},{"internalType":"uint256","name":"lastDayReset","type":"uint256"},{"internalType":"uint256","name":"lastWeekReset","type":"uint256"},{"internalType":"uint256","name":"lastMonthReset","type":"uint256"}],"internalType":"struct MultiSigTreasury.SpendingTracker","name":"","type":"tuple"}],"stateMutability":"view","type":"function"},{"inputs":[{"internalType":"bytes32","name":"role","type":"bytes32"},{"internalType":"address","name":"account","type":"address"}],"name":"grantRole","outputs":[],"stateMutability":"nonpayable","type":"function"},{"inputs":[{"internalType":"bytes32","name":"_proposalId","type":"bytes32"},{"internalType":"address","name":"_signer","type":"address"}],"name":"hasApproved","outputs":[{"internalType":"bool","name":"","type":"bool"}],"stateMutability":"view","type":"function"},{"inputs":[{"internalType":"bytes32","name":"role","type":"bytes32"},{"internalType":"address","name":"account","type":"address"}],"name":"hasRole","outputs":[{"internalType":"bool","name":"","type":"bool"}],"stateMutability":"view","type":"function"},{"inputs":[],"name":"noblePayContract","outputs":[{"internalType":"address","name":"","type":"address"}],"stateMutability":"view","type":"function"},{"inputs":[],"name":"pause","outputs":[],"stateMutability":"nonpayable","type":"function"},{"inputs":[],"name":"paused","outputs":[{"internalType":"bool","name":"","type":"bool"}],"stateMutability":"view","type":"function"},{"inputs":[{"internalType":"bytes32","name":"","type":"bytes32"},{"internalType":"address","name":"","type":"address"}],"name":"proposalApprovals","outputs":[{"internalType":"bool","name":"","type":"bool"}],"stateMutability":"view","type":"function"},{"inputs":[],"name":"proposalNonce","outputs":[{"internalType":"uint256","name":"","type":"uint256"}],"stateMutability":"view","type":"function"},{"inputs":[{"internalType":"bytes32","name":"","type":"bytes32"},{"internalType":"address","name":"","type":"address"}],"name":"proposalRejections","outputs":[{"internalType":"bool","name":"","type":"bool"}],"stateMutability":"view","type":"function"},{"inputs":[{"internalType":"bytes32","name":"","type":"bytes32"}],"name":"proposals","outputs":[{"internalType":"bytes32","name":"proposalId","type":"bytes32"},{"internalType":"address","name":"proposer","type":"address"},{"internalType":"address","name":"recipient","type":"address"},{"internalType":"address","name":"token","type":"address"},{"internalType":"uint256","name":"amount","type":"uint256"},{"internalType":"enum MultiSigTreasury.SpendingCategory","name":"category","type":"uint8"},{"internalType":"string","name":"description","type":"string"},{"internalType":"enum MultiSigTreasury.TxTier","name":"tier","type":"uint8"},{"internalType":"enum MultiSigTreasury.ProposalStatus","name":"status","type":"uint8"},{"internalType":"uint256","name":"approvalCount","type":"uint256"},{"internalType":"uint256","name":"rejectionCount","type":"uint256"},{"internalType":"uint256","name":"requiredApprovals","type":"uint256"},{"internalType":"uint256","name":"createdAt","type":"uint256"},{"internalType":"uint256","name":"timelockExpiry","type":"uint256"},{"internalType":"uint256","name":"expiresAt","type":"uint256"},{"internalType":"bool","name":"isEmergency","type":"bool"},{"internalType":"bytes32","name":"budgetId","type":"bytes32"}],"stateMutability":"view","type":"function"},{"inputs":[],"name":"recurringNonce","outputs":[{"internalType":"uint256","name":"","type":"uint256"}],"stateMutability":"view","type":"function"},{"inputs":[{"internalType":"bytes32","name":"","type":"bytes32"}],"name":"recurringPayments","outputs":[{"internalType":"bytes32","name":"paymentId","type":"bytes32"},{"internalType":"address","name":"recipient","type":"address"},{"internalType":"address","name":"token","type":"address"},{"internalType":"uint256","name":"amount","type":"uint256"},{"internalType":"enum MultiSigTreasury.PaymentFrequency","name":"frequency","type":"uint8"},{"internalType":"enum MultiSigTreasury.SpendingCategory","name":"category","type":"uint8"},{"internalType":"string","name":"description","type":"string"},{"internalType":"uint256","name":"nextExecution","type":"uint256"},{"internalType":"uint256","name":"lastExecuted","type":"uint256"},{"internalType":"uint256","name":"executionCount","type":"uint256"},{"internalType":"uint256","name":"maxExecutions","type":"uint256"},{"internalType":"bool","name":"active","type":"bool"},{"internalType":"bytes32","name":"budgetId","type":"bytes32"}],"stateMutability":"view","type":"function"},{"inputs":[{"internalType":"bytes32","name":"_proposalId","type":"bytes32"}],"name":"rejectProposal","outputs":[],"stateMutability":"nonpayable","type":"function"},{"inputs":[{"internalType":"address","name":"_signer","type":"address"}],"name":"removeSigner","outputs":[],"stateMutability":"nonpayable","type":"function"},{"inputs":[{"internalType":"bytes32","name":"role","type":"bytes32"},{"internalType":"address","name":"account","type":"address"}],"name":"renounceRole","outputs":[],"stateMutability":"nonpayable","type":"function"},{"inputs":[{"internalType":"address","name":"_delegate","type":"address"}],"name":"revokeDelegation","outputs":[],"stateMutability":"nonpayable","type":"function"},{"inputs":[{"internalType":"bytes32","name":"_paymentId","type":"bytes32"}],"name":"revokeRecurringPayment","outputs":[],"stateMutability":"nonpayable","type":"function"},{"inputs":[{"internalType":"bytes32","name":"role","type":"bytes32"},{"internalType":"address","name":"account","type":"address"}],"name":"revokeRole","outputs":[],"stateMutability":"nonpayable","type":"function"},{"inputs":[{"internalType":"address","name":"_noblepay","type":"address"}],"name":"setNoblePayContract","outputs":[],"stateMutability":"nonpayable","type":"function"},{"inputs":[{"internalType":"address","name":"_token","type":"address"},{"internalType":"bool","name":"_supported","type":"bool"}],"name":"setSupportedToken","outputs":[],"stateMutability":"nonpayable","type":"function"},{"inputs":[{"internalType":"address","name":"","type":"address"}],"name":"signerAddedAt","outputs":[{"internalType":"uint256","name":"","type":"uint256"}],"stateMutability":"view","type":"function"},{"inputs":[],"name":"signerConfig","outputs":[{"internalType":"uint256","name":"totalSigners","type":"uint256"},{"internalType":"uint256","name":"smallThreshold","type":"uint256"},{"internalType":"uint256","name":"mediumThreshold","type":"uint256"},{"internalType":"uint256","name":"largeThreshold","type":"uint256"},{"internalType":"uint256","name":"emergencyThreshold","type":"uint256"}],"stateMutability":"view","type":"function"},{"inputs":[{"internalType":"uint256","name":"","type":"uint256"}],"name":"signers","outputs":[{"internalType":"address","name":"","type":"address"}],"stateMutability":"view","type":"function"},{"inputs":[{"internalType":"bytes32","name":"","type":"bytes32"}],"name":"spendingTrackers","outputs":[{"internalType":"uint256","name":"dailySpent","type":"uint256"},{"internalType":"uint256","name":"weeklySpent","type":"uint256"},{"internalType":"uint256","name":"monthlySpent","type":"uint256"},{"internalType":"uint256","name":"lastDayReset","type":"uint256"},{"internalType":"uint256","name":"lastWeekReset","type":"uint256"},{"internalType":"uint256","name":"lastMonthReset","type":"uint256"}],"stateMutability":"view","type":"function"},{"inputs":[{"internalType":"address","name":"","type":"address"}],"name":"supportedTokens","outputs":[{"internalType":"bool","name":"","type":"bool"}],"stateMutability":"view","type":"function"},{"inputs":[{"internalType":"bytes4","name":"interfaceId","type":"bytes4"}],"name":"supportsInterface","outputs":[{"internalType":"bool","name":"","type":"bool"}],"stateMutability":"view","type":"function"},{"inputs":[],"name":"unpause","outputs":[],"stateMutability":"nonpayable","type":"function"},{"inputs":[{"internalType":"uint256","name":"_small","type":"uint256"},{"internalType":"uint256","name":"_medium","type":"uint256"},{"internalType":"uint256","name":"_large","type":"uint256"},{"internalType":"uint256","name":"_emergency","type":"uint256"}],"name":"updateSignerConfig","outputs":[],"stateMutability":"nonpayable","type":"function"},{"inputs":[{"internalType":"address","name":"","type":"address"}],"name":"yieldProtocols","outputs":[{"internalType":"address","name":"protocolAddress","type":"address"},{"internalType":"string","name":"name","type":"string"},{"internalType":"uint256","name":"maxAllocation","type":"uint256"},{"internalType":"uint256","name":"currentAllocation","type":"uint256"},{"internalType":"bool","name":"active","type":"bool"}],"stateMutability":"view","type":"function"},{"stateMutability":"payable","type":"receive"}],"evm":{"bytecode":{"linkReferences":{},"object":"6080604052346200049b57620055dc803803806200001d81620004a0565b92833981019060c0818303126200049b576200003981620004c6565b60208201516001600160401b0381116200049b5782019280601f850112156200049b578351936001600160401b038511620002ed578460051b9060208062000083818501620004a0565b8098815201928201019283116200049b57602001905b828210620004805750505060408201516060830151608084015160a0909401516001805460ff19168155600255919391926001600160a01b03168015620003465760028651106200046e578415801562000464575b80156200045a575b80156200044f575b6200043d576000818152600080516020620055bc833981519152602052604090205460ff1615620003f9575b60008181527f7d7ffb7a348e1c6a02869081a26547b49160dd3df72d1d75a570eb9b698292ec60205260409020547fa49807205ce4d355092ef5a8a18f56e8913cf4a201fbe287825b095693c21775919060ff1615620003b6575b505060005b855181101562000358576001600160a01b03620001a88288620004db565b51161562000346576001600160a01b03620001c48288620004db565b511660008181527f059f08e7d7ba1c82eddc57afae67f80df851baf38a099607a779825038c3ce5b60205260409020547fe2f4eaae4a9751e85a3e4a7b9587827a877f29914755229b07a7b2da98285f70919060ff161562000303575b5050601380549091906001600160a01b036200023e838a620004db565b511660009081526014602052604090208190556001600160a01b0362000265838a620004db565b51169068010000000000000000811015620002ed5760018101808555811015620002d7576000938452602090932090920180546001600160a01b0319169092179091556001906001600160a01b03620002bf8289620004db565b5116600052601560205242604060002055016200018a565b634e487b7160e01b600052603260045260246000fd5b634e487b7160e01b600052604160045260246000fd5b8160005260006020526040600020816000526020526040600020600160ff1982541617905533916000805160206200559c833981519152600080a4388062000221565b60405163d92e233d60e01b8152600490fd5b50845160405185919060a081016001600160401b03811182821017620002ed57869160809160405283815284602082015285604082015286606082015201526003556004556005556006556007556040516150ab9081620004f18239f35b8160005260006020526040600020816000526020526040600020600160ff1982541617905533916000805160206200559c833981519152600080a4388062000185565b6000818152600080516020620055bc83398151915260205260408120805460ff19166001179055339082906000805160206200559c8339815191528180a46200012a565b604051639067000f60e01b8152600490fd5b5085518311620000fe565b50828211620000f6565b50818511620000ee565b604051637bf345b160e11b8152600490fd5b602080916200048f84620004c6565b81520191019062000099565b600080fd5b6040519190601f01601f191682016001600160401b03811183821017620002ed57604052565b51906001600160a01b03821682036200049b57565b8051821015620002d75760209160051b01019056fe60a080604052600436101561001d575b50361561001b57600080fd5b005b60003560e01c90816301ffc9a7146141945750806302d07f2c146140de57806302ec5cfe146140225780630828973b14613fe25780630e316ab714613e225780630f7a253b1461200357806311ab31ed14613c24578063125ff8a314613b32578063186fd63414613a6d57806319d9a21b14613a0a5780631dacb969146139cf5780631fcd8642146139b15780632079fb9a1461396f57806322d42b571461393557806323cdc3f11461121b578063248a9ca314613906578063293078541461387f5780632f2ff15d146137cc57806332ed5b12146136715780633368f899146135a157806336568abe1461350f57806337376ca814613379578063387579901461335b5780633f4ba83a146132c7578063424af6b7146132a9578063430694cf1461300c578063472f2b3d14612fbb578063546887a314612e095780635c975abb14612de65780635d2869131461280f5780635e9a79d0146126ed57806360d7442b146126d057806368c4ac26146126915780636a9023da146124235780636ab31fc314612008578063741a2d291461200357806375b238fc14611fc85780637d46cb9814611e94578063808d501414611dd55780638456cb5914611d7c5780638a14e3d014611d5e5780638d20355014611a845780638f5f1bb91461137d57806391d148541461133057806394cf795e1461126857806397d736691461121b578063980ff6c614610f31578063a1ebf35d14610f08578063a217fddf14610eec578063b57939c114610ced578063b60953ca14610c57578063b8dca44014610a37578063bffe3486146109c8578063c4eb9fc11461097b578063ca1fb4d51461095b578063cbf675c91461093b578063cc3c74a11461091d578063d18f51c2146108cc578063d38df2ac146108a3578063d547741f14610864578063d669078d14610846578063e7986466146107b7578063eb12d61e14610624578063f20b5b2c146103c2578063f6c239fb146103405763fe9e964014610300573861000f565b3461033b57600036600319011261033b5760206040517f470f4f1717679395b6a9e0700797bfeeaa970f1643e72f5684d687c0be10fe278152f35b600080fd5b3461033b57602036600319011261033b576103596141e7565b6103616144b7565b6001600160a01b039081169081156103b057601954826001600160601b0360a01b821617601955167f6a5a8e8a30c2dae2c535a49446551e07c95dafe16efff837aa172914ef34b28e600080a3005b60405163d92e233d60e01b8152600490fd5b3461033b5760208060031936011261033b576004356103df614ab3565b6000805160206150568339815191528060005260008352604060002033600052835260ff6040600020541690811561058f575b501561057d578060005260088252604060002091600b8301541561056b57600783019060ff825460081c16600681101561055557806105355750600d84015442116105235761046033614d83565b60008481526009835260408082206001600160a01b0390931680835292845290205460ff1661051157836000526009825260406000209060005281526040600020600160ff19825416179055600a60088501946104bd8654614a3d565b809655015491828510156104fe575b506040519384528301527f7989491bc7c1fee580139021c9641f45f658bbfd784956c0a4ebbcc4d983a5af60403393a3005b805461ff001916610100179055846104cc565b60405163080fc0bd60e11b8152600490fd5b604051635038740760e01b8152600490fd5b60405163735671c760e11b815260249161055390600483019061447d565bfd5b634e487b7160e01b600052602160045260246000fd5b60405163635e873760e01b8152600490fd5b60405163143606b960e31b8152600490fd5b601084526040600020600481015460ff1692508261060d575b826105fe575b826105ef575b826105c2575b505083610412565b54600091825281855260408083206001600160a01b03909216835290855290205460ff16905083806105ba565b600381015442111592506105b4565b600281015442101592506105ae565b60018101546001600160a01b0316331492506105a8565b3461033b5760208060031936011261033b5761063e6141e7565b6106466144b7565b6001600160a01b0381169182156103b0576000805160206150568339815191528060005260008252604060002084600052825260ff604060002054166107a5578060005260008252604060002084600052825260ff6040600020541615610754575b506013546014825280604060002055600160401b81101561073e577f50999ebf9b59bf3157a58816611976f2d723378ad51457d7b0413209e0cdee59926106f88260016107179401601355614439565b90919082549060031b9160018060a01b03809116831b921b1916179055565b826000526015815242604060002055610731600354614a3d565b80600355604051908152a2005b634e487b7160e01b600052604160045260246000fd5b806000526000825260406000208460005282526040600020600160ff198254161790558333917f2f8788117e7eff1d82e926ec794901d17c78024a50270940304540a733656f0d600080a4836106a8565b604051630e1857b360e21b8152600490fd5b3461033b57604036600319011261033b576107d06141e7565b602435908115159081830361033b576107e76144b7565b6001600160a01b03169182156103b0577fd86c88b4a367d9b81a6e00c9d3f7d01657bffef358fa8968c91c045ae99f0d529161083d602092856000526012845260406000209060ff801983541691151516179055565b604051908152a2005b3461033b57600036600319011261033b57602060405162278d008152f35b3461033b57604036600319011261033b5761001b6004356108836141fd565b9080600052600060205261089e6001604060002001546147cc565b6148cb565b3461033b57600036600319011261033b576019546040516001600160a01b039091168152602090f35b3461033b57602036600319011261033b57600435600d5481101561033b57602090600d6000527fd7b6990105719101dabeb77144f2a3385c8033acd3af97e9423a695e81ad1eb50154604051908152f35b3461033b57600036600319011261033b576020601654604051908152f35b3461033b57600036600319011261033b5760206040516402540be4008152f35b3461033b57600036600319011261033b57602060405164174876e8008152f35b3461033b57604036600319011261033b576109946141fd565b600435600052600a60205260406000209060018060a01b0316600052602052602060ff604060002054166040519015158152f35b3461033b57602036600319011261033b5760a06001600160a01b03806109ec6141e7565b1660005260106020526040600020818154169160018201541690600281015460ff60046003840154930154169260405194855260208501526040840152606083015215156080820152f35b3461033b57602036600319011261033b57600435610a53614ab3565b610a5b614b27565b80600052600e602052604060002060ff600a8201541615610c45576006810180544210610c335760098201548015159081610c24575b50610c12576008820190610aa58254614a3d565b8255426007840155610ac6610ac060ff600486015416614ff9565b4261493f565b9055600b82015480610bfe575b5060028201546001600160a01b0390811680610bbd575047906003840154809210610bab57600080809381936001880154165af1610b0f614af7565b5015610b53577fd0cc432bbf7ba173afd8f2cd350b0f92210afb756ca9c8e2d89bcad56f8ca3169160036040925b5491015482519182526020820152a26001600255005b60405162461bcd60e51b815260206004820152602a60248201527f4d756c746953696754726561737572793a20726563757272696e67207061796d604482015269195b9d0819985a5b195960b21b6064820152608490fd5b604051631e9acf1760e31b8152600490fd5b604092610bf9600392869460017fd0cc432bbf7ba173afd8f2cd350b0f92210afb756ca9c8e2d89bcad56f8ca316980154168486015491614b7b565b610b3d565b6003830154610c0c91614ddc565b83610ad3565b6040516374e34a6360e11b8152600490fd5b90506008830154101584610a91565b6040516301d4c1c960e61b8152600490fd5b60405163e513dca760e01b8152600490fd5b3461033b57600036600319011261033b5760006080604051610c78816142be565b828152826020820152826040820152826060820152015260a0604051610c9d816142be565b600354908181526004546020820190815260055460408301908152600654916060840192835260806007549401938452604051948552516020850152516040840152516060830152516080820152f35b3461033b57602036600319011261033b576000610180604051610d0f816142d9565b8281528260208201528260408201528260608201528260808201528260a0820152606060c08201528260e0820152826101008201528261012082015282610140820152826101608201520152600435600052600e6020526040600020600b60405191610d7a836142d9565b8054835260018101546001600160a01b0390811660208501526002820154166040840152600381015460608401526004810154610dd09060ff90610dc381831660808801614d77565b60081c1660a08501614a4c565b610ddc60058201614331565b60c0840152600681015460e084015260078101546101008401526008810154610120840152600981015461014084015260ff600a82015416151561016084015201546101808201526040518091602082528051602083015260018060a01b03602082015116604083015260018060a01b03604082015116606083015260608101516080830152610e74608082015160a08401906143d7565b610e8660a082015160c08401906143e4565b60c0810151610180610ea66101a0928360e08701526101c0860190614414565b9260e08101516101008601526101008101516101208601526101208101516101408601526101408101516101608601526101608101511515828601520151908301520390f35b3461033b57600036600319011261033b57602060405160008152f35b3461033b57600036600319011261033b5760206040516000805160206150568339815191528152f35b3461033b5760208060031936011261033b57600435610f4e614ab3565b610f56614b27565b6000805160206150568339815191528060005260008352604060002033600052835260ff60406000205416908115611186575b501561057d5780600052600882526040600020600b8101541561056b5760078101805460ff8160081c16600681101561055557600181036105355750600c8301548042106111685750600d83015442116105235761ff001916610200179055600f81015480611154575b5060038101546001600160a01b03908116806110ca575047906004830154809210610bab57600080809381936002870154165af161102f614af7565b5015611074576004905b01549160405192835242908301527f25d8698ddec9ba11db006409042b24e0c42c5857553c5a32225696447213139360403393a36001600255005b60405162461bcd60e51b815260048101849052602860248201527f4d756c746953696754726561737572793a206e6174697665207472616e7366656044820152671c8819985a5b195960c21b6064820152608490fd5b91906040516370a0823160e01b81523060048201528581602481875afa9081156111485760009161111b575b506004830154809110610bab576004936111169260028501541690614b7b565b611039565b90508581813d8311611141575b6111328183614310565b8101031261033b5751866110f6565b503d611128565b6040513d6000823e3d90fd5b600482015461116291614ddc565b83610ff3565b6044906040519063126b74dd60e11b82526004820152426024820152fd5b601084526040600020600481015460ff16925082611204575b826111f5575b826111e6575b826111b9575b505083610f89565b54600091825281855260408083206001600160a01b03909216835290855290205460ff16905083806111b1565b600381015442111592506111ab565b600281015442101592506111a5565b60018101546001600160a01b03163314925061119f565b3461033b57604036600319011261033b576112346141fd565b600435600052600960205260406000209060018060a01b0316600052602052602060ff604060002054166040519015158152f35b3461033b57600036600319011261033b57604051806013548083526020809301809160136000527f66de8ffda797e3de9c05e8fc57b3bf0ec28a930d40b0d285d93c06501cf6a0909060005b868282106113135786866112ca82880383614310565b604051928392818401908285525180915260408401929160005b8281106112f357505050500390f35b83516001600160a01b0316855286955093810193928101926001016112e4565b83546001600160a01b0316855290930192600192830192016112b4565b3461033b57604036600319011261033b576113496141fd565b600435600052600060205260406000209060018060a01b0316600052602052602060ff604060002054166040519015158152f35b3461033b5760e036600319011261033b576113966141e7565b61139e6141fd565b906008606435101561033b576084356001600160401b03811161033b576113c990369060040161448a565b9160a435151560a4350361033b576113df614ab3565b3360009081527f059f08e7d7ba1c82eddc57afae67f80df851baf38a099607a779825038c3ce5b602052604090205460ff1660008051602061505683398151915281156119ec575b501561057d576001600160a01b038116156103b057604435156119da576001600160a01b0384161515806119b7575b6119a55760a435156119565760039060075492610e10905b60c4356118e4575b60165461148281614a3d565b60165560405133606090811b6bffffffffffffffffffffffff19908116602084019081529187901b166034830152604435604883015242606883015260888201929092526114dd8160a881015b03601f198101835282614310565b519020956114f46114ed33614d83565b934261493f565b9162093a80420142116118ce5761154f91604051996115128b614286565b898b523360208c01526001600160a01b0387811660408d01521660608b015260443560808b015261154860643560a08c01614a4c565b3691614a58565b60c08801526115618460e08901614a8f565b60006101008801526001610120880152600061014088015284610160880152426101808801526101a087015262093a8042016101c087015260a43515156101e087015260c4356102008701528460005260086020526040600020865181556001810160018060a01b03602089015116906001600160601b0360a01b91828254161790556002820160018060a01b0360408a01511682825416179055600382019060018060a01b0360608a015116908254161790556080870151600482015560a087015160088110156105555761163a9060058301614a9b565b60c08701518051906001600160401b03821161073e57819061165f6006850154614231565b601f811161187b575b50602090601f8311600114611809576000926117fe575b50508160011b916000199060031b1c19161760068201555b60e08701519660048810156105555760078201549061010081015190600682101561055557602099600f9360ff61ff006102009560081b1692169061ffff19161717600785015561012081015160088501556101408101516009850155610160810151600a850155610180810151600b8501556101a0810151600c8501556101c0810151600d8501556117406101e08201511515600e86019060ff801983541691151516179055565b015191015560008581526009875260408082206001600160a01b039093168252918752819020805460ff19166001179055516044358152916117859083870190614470565b60a435151560408301526001600160a01b031690339084907f8de3fd8d2f50ff70de13a476f375d0ff4187b241be75d027ac46084ae2e0f0e190606090a4604051906001825283820152817f7989491bc7c1fee580139021c9641f45f658bbfd784956c0a4ebbcc4d983a5af60403393a3604051908152f35b01519050898061167f565b9250600684016000526020600020906000935b601f1984168510611860576001945083601f19811610611847575b505050811b016006820155611697565b015160001960f88460031b161c19169055898080611837565b8181015183556020948501946001909301929091019061181c565b909150600684016000526020600020601f840160051c8101602085106118c7575b90849392915b601f830160051c820181106118b8575050611668565b600081558594506001016118a2565b508061189c565b634e487b7160e01b600052601160045260246000fd5b60c435600052600b602052604060002060ff600b820154161561194457806004600361191593015491015490614a30565b80604435116119245750611476565b60405163029a8b5f60e41b81526044803560048301526024820192909252fd5b604051633371e5a160e21b8152600490fd5b6402540be400604435116119755760009060045492620151809061146e565b64174876e800604435116119945760019060055492620151809061146e565b600290600654926202a3009061146e565b60405163350b944160e11b8152600490fd5b506001600160a01b03841660009081526012602052604090205460ff1615611456565b604051631f2a200560e01b8152600490fd5b60106020526040600020600481015460ff16925082611a6d575b82611a5e575b82611a4f575b82611a20575b505085611427565b546000918252602082815260408084206001600160a01b03909316845291905290205460ff1690508580611a18565b60038101544211159250611a12565b60028101544210159250611a0c565b60018101546001600160a01b031633149250611a06565b3461033b57606036600319011261033b57611a9d6141e7565b611aa56141fd565b604435611ab0614ab3565b611ab8614b27565b3360009081527fac7f456f33c5ee351ae3de46295d1da134dc7a37f62366914b5b4d70f151cdb060209081526040909120549091907f470f4f1717679395b6a9e0700797bfeeaa970f1643e72f5684d687c0be10fe279060ff1615611bce57506001600160a01b038481166000818152601185526040902060048101549196909160ff1615611bbc5783156119da5760038201928354926002611b5b878661493f565b91015410611baa577fee5163c7862b0ed6818c3b757f5005e43df304d9cc5db93b2dfeed63a4b26c8796611b9c94611b9487809661493f565b905516614b7b565b604051908152a26001600255005b6040516374a5d1f560e01b8152600490fd5b604051633bf8326760e21b8152600490fd5b82611bd833614985565b91604051611be5816142f5565b60428152828101916060368437815115611d4857603083538151600190811015611d4857607860218401536041905b808211611d04575050611cc157611c8d93611c9c9260489260405196879376020b1b1b2b9b9a1b7b73a3937b61d1030b1b1b7bab73a1604d1b88860152611c64815180928a6037890191016143f1565b8401917001034b99036b4b9b9b4b733903937b6329607d1b6037840152518093868401906143f1565b01036028810185520183614310565b611cbd60405192839262461bcd60e51b845260048401526024830190614414565b0390fd5b6064836040519062461bcd60e51b825280600483015260248201527f537472696e67733a20686578206c656e67746820696e73756666696369656e746044820152fd5b9091600f8116906010821015611d4857611d42916f181899199a1a9b1b9c1cb0b131b232b360811b901a611d388587614967565b5360041c92614978565b90611c14565b634e487b7160e01b600052603260045260246000fd5b3461033b57600036600319011261033b57602060405162093a808152f35b3461033b57600036600319011261033b57611d956144b7565b611d9d614ab3565b600160ff19815416176001557f62e78cea01bee320cd4e420270b5ea74000d11b0c9f74754ebdbfc544b05a2586020604051338152a1005b3461033b57602036600319011261033b57611dee6141e7565b611df66146a4565b6001600160a01b039081166000818152601060205260409020805491929091163303611e4f57600401805460ff19169055337f6f0412fa95f7f48ec7dc7631b382833d8eae9cf4082e5e859b94d091a4a846d4600080a3005b60405162461bcd60e51b815260206004820152601f60248201527f4d756c746953696754726561737572793a206e6f742064656c656761746f72006044820152606490fd5b3461033b5760208060031936011261033b5760043590611eb2614ab3565b6000805160206150568339815191528060005260008252604060002033600052825260ff60406000205416908115611f33575b501561057d57600e908260005252600a604060002001805460ff811615610c455760ff191690557f3189878ad48f773013d321c8387d69ca153eab3568d5ac33878ea9534a2cc7f0600080a2005b601083526040600020600481015460ff16925082611fb1575b82611fa2575b82611f93575b82611f66575b505083611ee5565b54600091825281845260408083206001600160a01b03909216835290845290205460ff1690508380611f5e565b60038101544211159250611f58565b60028101544210159250611f52565b60018101546001600160a01b031633149250611f4c565b3461033b57600036600319011261033b5760206040517fa49807205ce4d355092ef5a8a18f56e8913cf4a201fbe287825b095693c217758152f35b614213565b3461033b5761010036600319011261033b576120226141e7565b61202a6141fd565b6005606435101561033b576008608435101561033b5760a4356001600160401b03811161033b5761205f90369060040161448a565b9190612069614ab3565b6120716144b7565b6001600160a01b038416156103b057604435156119da57612147612099610ac0606435614ff9565b916018546120a681614a3d565b60185560405133606090811b6bffffffffffffffffffffffff1990811660208401908152918a901b166034830152604435604883015242606883015260888201929092526120f78160a881016114cf565b5190209460405194612108866142d9565b8686526001600160a01b038881166020880152166040860152604435606086015261213860643560808701614d77565b61154860843560a08701614a4c565b60c083015260e08201526000610100820152600061012082015260c435610140820152600161016082015260e43561018082015281600052600e602052604060002090805182556001820160018060a01b03602083015116906001600160601b0360a01b9182825416179055600283019060018060a01b036040840151169082541617905560608101516003830155600482016080820151600581101561055557815460a084015160088110156105555761ff0060ff9160081b1692169061ffff19161717905560c08101518051906001600160401b03821161073e576122316005850154614231565b601f81116123dc575b50602090601f8311600114612366579180600b94926101809460009261235b575b50508160011b916000199060031b1c19161760058501555b60e081015160068501556101008101516007850155610120810151600885015561014081015160098501556122be6101608201511515600a86019060ff801983541691151516179055565b0151910155600f5491600160401b83101561073e576001830180600f55831015611d485781602093600f6000527f8d1108e10bcb7c27dddfc02ed9d693a074039d026cf4ea4240b40f7d581ac8020155817f12afd1b44f67b79282546f85902a71101f0f228575a23d6db4d8a8203e06c251604080519360443585526123488786016064356143d7565b6001600160a01b031693a3604051908152f35b01519050888061225b565b906005850160005260206000209160005b601f19851681106123c4575092600b94926001926101809583601f198116106123ab575b505050811b016005850155612273565b015160001960f88460031b161c1916905588808061239b565b91926020600181928685015181550194019201612377565b600585016000526020600020601f840160051c81016020851061241c575b601f830160051c8201811061241057505061223a565b600081556001016123fa565b50806123fa565b3461033b57606036600319011261033b5761243c6141e7565b6001600160401b039060243582811161033b5761245d90369060040161448a565b6124656144b7565b6001600160a01b03838116156103b057604051612481816142be565b8185168152612491368486614a58565b9060208101918252604435604082015260006060820152600160808201528286166000526011602052604060002091838251166001600160601b0360a01b8454161783555196875190811161073e576124ed6001840154614231565b601f811161264a575b506020601f82116001146125b05761257e9392826004936080937ff3a18ee78da0e5e94a087d2ffd993ba83adb643b6f2ab1b18e079d2bcc233de39b9c6000926125a5575b50508160011b916000199060031b1c19161760018501555b60408101516002850155606081015160038501550151151591019060ff801983541691151516179055565b612595604051938493604085526040850191614d56565b94604435602084015216930390a2005b015190508c8061253b565b6001840160005260206000209860005b601f19841681106126325750926001837ff3a18ee78da0e5e94a087d2ffd993ba83adb643b6f2ab1b18e079d2bcc233de39a9b60809461257e9897600497601f19811610612619575b505050811b016001850155612553565b015160001960f88460031b161c191690558c8080612609565b828201518b556001909a0199602092830192016125c0565b600184016000526020600020601f830160051c81016020841061268a575b601f830160051c8201811061267e5750506124f6565b60008155600101612668565b5080612668565b3461033b57602036600319011261033b576001600160a01b036126b26141e7565b166000526012602052602060ff604060002054166040519015158152f35b3461033b57600036600319011261033b576020604051610e108152f35b3461033b57604036600319011261033b576127066141e7565b602435906127126146a4565b61271a614ab3565b6001600160a01b039081169182156103b05762278d0081116127fd57610ac06127cf926004612749844261493f565b9160405192612757846142be565b338452602084018881526040850190428252606086019283526080860193600185528a6000526010602052806040600020975116906001600160601b0360a01b9182895416178855600188019251169082541617905551600285015551600384015551151591019060ff801983541691151516179055565b6040519081527ff30d5f04d8ccb1d731ec50addde98da813e2697f466b244e045210fc90af129660203392a3005b604051630ba5e59f60e11b8152600490fd5b3461033b5760e036600319011261033b576004356001600160401b03811161033b5761283f90369060040161448a565b6008602435101561033b573360009081527f2ded89875c0c8052b78a2778d56ee9d7ccda9214239728c8125d6ede47e4803e60205260409020547f4d2b5a50a63f235ec870b20b9b6638d88aa0501011616a5fbf0eeafaccca85359060ff1615612c9e57506128ac614ab3565b604435156119da574260c4351115612c5a576017546128ca81614a3d565b6017556040516129076061826020810194868887378682019060243560f81b60208301524260218301526041820152036041810184520182614310565b51902090604051612917816142a2565b828152612925368386614a58565b602082015261293960243560408301614a4c565b60443560608201526000608082015260643560a082015260843560c082015260a43560e0820152426101008201524261012082015260c435610140820152600161016082015282600052600b60205260406000208151815560208201518051906001600160401b03821161073e5781906129b66001850154614231565b601f8111612c07575b50602090601f8311600114612b9557600092612b8a575b50508160011b916000199060031b1c19161760018201555b604082015191600883101561055557610160600b91612a13612a7d9560028601614a9b565b606081015160038501556080810151600485015560a0810151600585015560c0810151600685015560e0810151600785015561010081015160088501556101208101516009850155610140810151600a8501550151151591019060ff801983541691151516179055565b604051612a898161426b565b6000815260056020820160008152604083016000815260608401428152608085019142835260a086019342855288600052600c60205260406000209651875551600187015551600286015551600385015551600484015551910155600d54600160401b81101561073e576001810180600d55811015611d48576020938392837fe0be4da43238eaa02900d54e5b314940d0aecafad13d5011d0ec2ff9e75f1dc793600d6000527fd7b6990105719101dabeb77144f2a3385c8033acd3af97e9423a695e81ad1eb50155612b69604051928392606084526060840191614d56565b612b778783016024356143e4565b60443560408301520390a2604051908152f35b0151905087806129d6565b9250600184016000526020600020906000935b601f1984168510612bec576001945083601f19811610612bd3575b505050811b0160018201556129ee565b015160001960f88460031b161c19169055878080612bc3565b81810151835560209485019460019093019290910190612ba8565b909150600184016000526020600020601f840160051c810160208510612c53575b90849392915b601f830160051c82018110612c445750506129bf565b60008155859450600101612c2e565b5080612c28565b606460405162461bcd60e51b815260206004820152602060248201527f4d756c746953696754726561737572793a20696e76616c696420706572696f646044820152fd5b612ca733614985565b60405191612cb4836142f5565b6042835260208301906060368337835115611d4857603082538351600190811015611d4857607860218601536041905b808211612dac575050612d68576048612d3992612d4892611cbd9560405195869376020b1b1b2b9b9a1b7b73a3937b61d1030b1b1b7bab73a1604d1b6020860152611c648151809260206037890191016143f1565b01036028810184520182614310565b60405162461bcd60e51b8152602060048201529182916024830190614414565b606460405162461bcd60e51b815260206004820152602060248201527f537472696e67733a20686578206c656e67746820696e73756666696369656e746044820152fd5b9091600f8116906010821015611d4857612de0916f181899199a1a9b1b9c1cb0b131b232b360811b901a611d388589614967565b90612ce4565b3461033b57600036600319011261033b57602060ff600154166040519015158152f35b3461033b57602036600319011261033b576000610160604051612e2b816142a2565b828152606060208201528260408201528260608201528260808201528260a08201528260c08201528260e08201528261010082015282610120820152826101408201520152600435600052600b602052604060002060ff600b60405192612e91846142a2565b80548452612ea160018201614331565b6020850152612eb98360028301541660408601614a4c565b6003810154606085015260048101546080850152600581015460a0850152600681015460c0850152600781015460e085015260088101546101008501526009810154610120850152600a810154610140850152015416151561016082015260405180916020825280516020830152610160612f45602083015161018060408601526101a0850190614414565b91612f58604082015160608601906143e4565b60608101516080850152608081015160a085015260a081015160c085015260c081015160e085015260e081015161010085015261010081015161012085015261012081015161014085015261014081015182850152015115156101808301520390f35b3461033b57602036600319011261033b57600435600f5481101561033b57602090600f6000527f8d1108e10bcb7c27dddfc02ed9d693a074039d026cf4ea4240b40f7d581ac8020154604051908152f35b3461033b57602036600319011261033b57600061020060405161302e81614286565b8281528260208201528260408201528260608201528260808201528260a0820152606060c08201528260e08201528261010082015282610120820152826101408201528261016082015282610180820152826101a0820152826101c0820152826101e0820152015260043560005260086020526040600020604051906130b382614286565b8054825260018101546001600160a01b03908116602084015260028201548116604084015260038201541660608301526004810154608083015260058101546131029060ff1660a08401614a4c565b61310e60068201614331565b60c083015260078101549061312960ff831660e08501614a8f565b600660ff8360081c1610156105555760ff600f9260081c1661010084015260088101546101208401526009810154610140840152600a810154610160840152600b810154610180840152600c8101546101a0840152600d8101546101c084015260ff600e8201541615156101e084015201546102008201526040518091602082528051602083015260018060a01b03602082015116604083015260018060a01b03604082015116606083015260018060a01b036060820151166080830152608081015160a083015261320360a082015160c08401906143e4565b61020061322160c083015161022060e0860152610240850190614414565b9161323560e0820151610100860190614470565b61324961010082015161012086019061447d565b6101208101516101408501526101408101516101608501526101608101516101808501526101808101516101a08501526101a08101516101c08501526101c08101516101e08501526101e081015115158285015201516102208301520390f35b3461033b57600036600319011261033b576020601854604051908152f35b3461033b57600036600319011261033b576132e06144b7565b60015460ff81161561331f5760ff19166001557f5db9ee0a495bf2e6ff9c91a7834c1ba4fdd244a5e8aa4e537bd38aeae4b073aa6020604051338152a1005b60405162461bcd60e51b815260206004820152601460248201527314185d5cd8589b194e881b9bdd081c185d5cd95960621b6044820152606490fd5b3461033b57600036600319011261033b576020604051620151808152f35b3461033b5760208060031936011261033b5760043590613397614ab3565b81600052600881526040600020600b8101541561056b5760018101546001600160a01b0316331480156134cd575b15613475576007019081549060ff8260081c16600681101561055557801590811561346a575b5015613426575061ff00191661040017905533907f56a54393c88fb71d37dc109609d88e0b586637deb2452aef5f41d3eb32adedfc600080a3005b6064906040519062461bcd60e51b82526004820152601f60248201527f4d756c746953696754726561737572793a2063616e6e6f742063616e63656c006044820152fd5b6001915014856133eb565b60405162461bcd60e51b815260048101839052602a60248201527f4d756c746953696754726561737572793a206e6f7420617574686f72697a6564604482015269081d1bc818d85b98d95b60b21b6064820152608490fd5b507fa49807205ce4d355092ef5a8a18f56e8913cf4a201fbe287825b095693c2177560005260008252604060002033600052825260ff604060002054166133c5565b3461033b57604036600319011261033b576135286141fd565b336001600160a01b038216036135445761001b906004356148cb565b60405162461bcd60e51b815260206004820152602f60248201527f416363657373436f6e74726f6c3a2063616e206f6e6c792072656e6f756e636560448201526e103937b632b9903337b91039b2b63360891b6064820152608490fd5b3461033b57602036600319011261033b57600435600052600b602052604060002080546135d060018301614331565b9160ff6002820154169060038101549060048101546005820154600683015460078401549060088501549260098601549460ff600b600a890154980154169761363a61362f6040519d8e9d8e528d610180908160208201520190614414565b9a60408d01906143e4565b60608b015260808a015260a089015260c088015260e087015261010086015261012085015261014084015215156101608301520390f35b3461033b57602036600319011261033b57600435600052600860205260406000208054600160a01b600190039182600182015416836002830154169360038301541693600483015494600584015460ff1695600685016136d090614331565b96600786015497600887015490600988015492600a89015494600b8a015496600c8b015498600d8c01549a600e8d015460ff169c600f01549d60405180608052526080516020015260805160400152608051606001526080516080015260805160a00161373c916143e4565b6102208060805160c001526080510161375491614414565b9860805160e00160ff82169061376991614470565b608051610100019060081c60ff16906137819161447d565b60805161012001526080516101400152608051610160015260805161018001526080516101a001526080516101c0015215156080516101e00152608051610200015260805180910390f35b3461033b57604036600319011261033b576004356137e86141fd565b8160005260006020526138026001604060002001546147cc565b81600052600060205260406000209060018060a01b0316908160005260205260ff604060002054161561383157005b8160005260006020526040600020816000526020526040600020600160ff1982541617905533917f2f8788117e7eff1d82e926ec794901d17c78024a50270940304540a733656f0d600080a4005b3461033b57602036600319011261033b576001600160a01b03806138a16141e7565b1660005260116020526040600020908154166138bf60018301614331565b9160028101549060ff6004600383015492015416906138f0604051958695865260a0602087015260a0860190614414565b9260408501526060840152151560808301520390f35b3461033b57602036600319011261033b5760043560005260006020526020600160406000200154604051908152f35b3461033b57602036600319011261033b576001600160a01b036139566141e7565b1660005260156020526020604060002054604051908152f35b3461033b57602036600319011261033b5760043560135481101561033b57613998602091614439565b905460405160039290921b1c6001600160a01b03168152f35b3461033b57600036600319011261033b576020601754604051908152f35b3461033b57600036600319011261033b5760206040517f4d2b5a50a63f235ec870b20b9b6638d88aa0501011616a5fbf0eeafaccca85358152f35b3461033b57602036600319011261033b57600435600052600c60205260c0604060002080549060018101549060028101546003820154906005600484015493015493604051958652602086015260408501526060840152608083015260a0820152f35b3461033b57602036600319011261033b57600060a0604051613a8e8161426b565b8281528260208201528260408201528260608201528260808201520152600435600052600c60205260c06040600020604051613ac98161426b565b8154918282526001810154602083019081526002820154604084019081526003830154916060850192835260a0600560048601549560808801968752015495019485526040519586525160208601525160408501525160608401525160808301525160a0820152f35b3461033b57602036600319011261033b57600435600052600e6020526020604060002080549060018060a01b03806001830154169060028301541691600381015492600482015493613b8660058401614331565b94613bfa600685015496613be9600787015493600888015495600989015497600b60ff600a8c0154169a01549a6040519e8f9e8f908152015260408d015260608c0152613bd960808c0160ff83166143d7565b60ff60a08c019160081c166143e4565b6101a08060c08b0152890190614414565b9560e088015261010087015261012086015261014085015215156101608401526101808301520390f35b3461033b5760208060031936011261033b57600435613c41614ab3565b6000805160206150568339815191528060005260008352604060002033600052835260ff60406000205416908115613d8d575b501561057d578060005260088252604060002091600b8301541561056b57600783019060ff825460081c16600681101561055557806105355750613cb733614d83565b6000848152600a835260408082206001600160a01b0390931680835292845290205460ff16613d7b5783600052600a825260406000209060005281526040600020600160ff19825416179055613d266009850194613d158654614a3d565b809655600a60035491015490614a30565b91600183018093116118ce577fc99b604b3dc53ca720389edfcbe8b1d78c0d121f97246b87fa722e832b68aac392851015613d68575b506040519384523393a3005b805461ff00191661030017905584613d5c565b6040516324db0ba560e01b8152600490fd5b601084526040600020600481015460ff16925082613e0b575b82613dfc575b82613ded575b82613dc0575b505083613c74565b54600091825281855260408083206001600160a01b03909216835290855290205460ff1690508380613db8565b60038101544211159250613db2565b60028101544210159250613dac565b60018101546001600160a01b031633149250613da6565b3461033b5760208060031936011261033b57613e3c6141e7565b613e446144b7565b600080516020615056833981519152600081815280845260408082206001600160a01b039485168084529086529120549093919060ff161561057d576003546006541015613fd0578060005260008252604060002084600052825260ff60406000205416613f82575b50601481526040600020546013546000199391908481019081116118ce578083918303613f4f575b505050601354928315613f39577f99c1d2c0ed8107e4db2e5dbfb10a2549cd2a63cbe39cf99d2adffbcd03954418930190613f0f82614439565b909182549160031b1b19169055601355826000526014815260006040812055610731600354614978565b634e487b7160e01b600052603160045260246000fd5b613f5890614439565b90549060031b1c16613f6d816106f884614439565b60005260148352604060002055848181613ed5565b80600052600082526040600020846000528252604060002060ff1981541690558333917ff6391f5c32d9c69d2a47ea670b442974b53935d1edc7fd64eb21e047a839171b600080a483613ead565b604051637bf345b160e11b8152600490fd5b3461033b57600036600319011261033b5760a060035460045460055460065490600754926040519485526020850152604084015260608301526080820152f35b3461033b57608036600319011261033b576044356024356004356064356140476144b7565b811580156140d5575b80156140cc575b80156140c1575b6140af577ff7a96d1ab0b506139d90ff30643f0cba61b4c10044431ccc530575d9a6df3e9a9360809383600455806005558160065582600755604051938452602084015260408301526060820152a1005b604051639067000f60e01b8152600490fd5b50600354841161405e565b50838311614057565b50828211614050565b3461033b57600036600319011261033b5760405180600d5480835260208093018091600d6000527fd7b6990105719101dabeb77144f2a3385c8033acd3af97e9423a695e81ad1eb59060005b8682821061418057868661414082880383614310565b604051928392818401908285525180915260408401929160005b82811061416957505050500390f35b83518552869550938101939281019260010161415a565b83548552909301926001928301920161412a565b3461033b57602036600319011261033b576004359063ffffffff60e01b821680920361033b57602091637965db0b60e01b81149081156141d6575b5015158152f35b6301ffc9a760e01b149050836141cf565b600435906001600160a01b038216820361033b57565b602435906001600160a01b038216820361033b57565b3461033b57600036600319011261033b5760206040516202a3008152f35b90600182811c92168015614261575b602083101461424b57565b634e487b7160e01b600052602260045260246000fd5b91607f1691614240565b60c081019081106001600160401b0382111761073e57604052565b61022081019081106001600160401b0382111761073e57604052565b61018081019081106001600160401b0382111761073e57604052565b60a081019081106001600160401b0382111761073e57604052565b6101a081019081106001600160401b0382111761073e57604052565b608081019081106001600160401b0382111761073e57604052565b90601f801991011681019081106001600160401b0382111761073e57604052565b906040519182600082549261434584614231565b9081845260019485811690816000146143b45750600114614371575b505061436f92500383614310565b565b9093915060005260209081600020936000915b81831061439c57505061436f93508201013880614361565b85548884018501529485019487945091830191614384565b91505061436f94506020925060ff191682840152151560051b8201013880614361565b9060058210156105555752565b9060088210156105555752565b60005b8381106144045750506000910152565b81810151838201526020016143f4565b9060209161442d815180928185528580860191016143f1565b601f01601f1916010190565b601354811015611d485760136000527f66de8ffda797e3de9c05e8fc57b3bf0ec28a930d40b0d285d93c06501cf6a0900190600090565b9060048210156105555752565b9060068210156105555752565b9181601f8401121561033b578235916001600160401b03831161033b576020838186019501011161033b57565b3360009081527f7d7ffb7a348e1c6a02869081a26547b49160dd3df72d1d75a570eb9b698292ec602090815260408083205490927fa49807205ce4d355092ef5a8a18f56e8913cf4a201fbe287825b095693c217759160ff161561451b5750505050565b61452433614985565b91845190614531826142f5565b604282528482019260603685378251156146905760308453825160019081101561467c5790607860218501536041915b808311614622575050506145e0576048611cbd9386936145c4936145b5985198899376020b1b1b2b9b9a1b7b73a3937b61d1030b1b1b7bab73a1604d1b8a860152611c64815180928c6037890191016143f1565b01036028810187520185614310565b5192839262461bcd60e51b845260048401526024830190614414565b60648486519062461bcd60e51b825280600483015260248201527f537472696e67733a20686578206c656e67746820696e73756666696369656e746044820152fd5b909192600f811660108110156146685761466191906f181899199a1a9b1b9c1cb0b131b232b360811b901a6146578688614967565b5360041c93614978565b9190614561565b634e487b7160e01b84526032600452602484fd5b634e487b7160e01b82526032600452602482fd5b634e487b7160e01b81526032600452602490fd5b3360009081527f059f08e7d7ba1c82eddc57afae67f80df851baf38a099607a779825038c3ce5b602090815260408083205490926000805160206150568339815191529160ff16156146f65750505050565b6146ff33614985565b9184519061470c826142f5565b604282528482019260603685378251156146905760308453825160019081101561467c5790607860218501536041915b808311614790575050506145e0576048611cbd9386936145c4936145b5985198899376020b1b1b2b9b9a1b7b73a3937b61d1030b1b1b7bab73a1604d1b8a860152611c64815180928c6037890191016143f1565b909192600f81166010811015614668576147c591906f181899199a1a9b1b9c1cb0b131b232b360811b901a6146578688614967565b919061473c565b600090808252602090828252604092838120338252835260ff8482205416156147f55750505050565b6147fe33614985565b9184519061480b826142f5565b604282528482019260603685378251156146905760308453825160019081101561467c5790607860218501536041915b80831161488f575050506145e0576048611cbd9386936145c4936145b5985198899376020b1b1b2b9b9a1b7b73a3937b61d1030b1b1b7bab73a1604d1b8a860152611c64815180928c6037890191016143f1565b909192600f81166010811015614668576148c491906f181899199a1a9b1b9c1cb0b131b232b360811b901a6146578688614967565b919061483b565b9060009180835282602052604083209160018060a01b03169182845260205260ff6040842054166148fb57505050565b80835282602052604083208284526020526040832060ff1981541690557ff6391f5c32d9c69d2a47ea670b442974b53935d1edc7fd64eb21e047a839171b339380a4565b919082018092116118ce57565b6001600160401b03811161073e57601f01601f191660200190565b908151811015611d48570160200190565b80156118ce576000190190565b60405190606082018281106001600160401b0382111761073e57604052602a8252602082016040368237825115611d4857603090538151600190811015611d4857607860218401536029905b8082116149e1575050612d685790565b9091600f8116906010821015614a1b57614a15916f181899199a1a9b1b9c1cb0b131b232b360811b901a611d388587614967565b906149d1565b60246000634e487b7160e01b81526032600452fd5b919082039182116118ce57565b60001981146118ce5760010190565b60088210156105555752565b929192614a648261494c565b91614a726040519384614310565b82948184528183011161033b578281602093846000960137010152565b60048210156105555752565b9060088110156105555760ff80198354169116179055565b60ff60015416614abf57565b60405162461bcd60e51b815260206004820152601060248201526f14185d5cd8589b194e881c185d5cd95960821b6044820152606490fd5b3d15614b22573d90614b088261494c565b91614b166040519384614310565b82523d6000602084013e565b606090565b6002805414614b365760028055565b60405162461bcd60e51b815260206004820152601f60248201527f5265656e7472616e637947756172643a207265656e7472616e742063616c6c006044820152606490fd5b60405163a9059cbb60e01b602082019081526001600160a01b0393841660248301526044808301959095529381526001600160401b039260808201928484118385101761073e57169060c08101938385109085111761073e57614c1f93604052602083527f5361666545524332303a206c6f772d6c6576656c2063616c6c206661696c656460a0820152600080958192519082855af1614c19614af7565b91614cbd565b908151918215928315614c8f575b50505015614c3757565b60405162461bcd60e51b815260206004820152602a60248201527f5361666545524332303a204552433230206f7065726174696f6e20646964206e6044820152691bdd081cdd58d8d9595960b21b6064820152608490fd5b819293509060209181010312614cb95760200151908115158203614cb65750388080614c2d565b80fd5b5080fd5b91929015614d1f5750815115614cd1575090565b3b15614cda5790565b60405162461bcd60e51b815260206004820152601d60248201527f416464726573733a2063616c6c20746f206e6f6e2d636f6e74726163740000006044820152606490fd5b825190915015614d325750805190602001fd5b60405162461bcd60e51b815260206004820152908190611cbd906024830190614414565b908060209392818452848401376000828201840152601f01601f1916010190565b60058210156105555752565b6001600160a01b0380821660009081527f059f08e7d7ba1c82eddc57afae67f80df851baf38a099607a779825038c3ce5b60205260408120549192909160ff16614dd65750604090601060205220541690565b91505090565b906000828152600b602052604080822060ff600b8201541615614fe8576003810192835491600490614e1382820194855490614a30565b808811614fcc5750878352600c6020528483209260038401620151808082540490420411614fc0575b5082840162093a808082540490420411614fb1575b50600584019062278d008083540490420411614fa2575b5050600581015480614f73575b50600681015480614f41575b506007015480614f0e575b505091614efd8260028795614ec67fb54e2a7352dc6551a66f714a1d204b335a428f64602f85ae0f2ce55bf760493299606099975461493f565b8355614ed387825461493f565b815560018101614ee488825461493f565b905501614ef286825461493f565b905554809354614a30565b9181519384526020840152820152a2565b6002830154614f1c91614a30565b80871115614e8c57845163dbaa733b60e01b8152918201879052602482015260449150fd5b6001840154614f4f91614a30565b80881115614e8157826044918988519263597044df60e11b84528301526024820152fd5b8354614f7e91614a30565b80881115614e755782604491898851926377b326b560e11b84528301526024820152fd5b60028501554290553880614e68565b81600186015542905538614e51565b81855542905538614e3c565b826044918988519263029a8b5f60e41b84528301526024820152fd5b8151633371e5a160e21b8152600490fd5b600581101561055557801561504d5760018114615045576002811461503d57600381146150355760041461502e5762278d0090565b6276a70090565b5062278d0090565b506212750090565b5062093a8090565b50620151809056fee2f4eaae4a9751e85a3e4a7b9587827a877f29914755229b07a7b2da98285f70a26469706673582212209254d0e1db7fca3995f513d3f2fce9319cded9e74ff8503f1be85779fec28c4564736f6c634300081300332f8788117e7eff1d82e926ec794901d17c78024a50270940304540a733656f0dad3228b676f7d3cd4284a5443f17f1962b36e491b30a40b2405849e597ba5fb5","opcodes":"PUSH1 0x80 PUSH1 0x40 MSTORE CALLVALUE PUSH3 0x49B JUMPI PUSH3 0x55DC DUP1 CODESIZE SUB DUP1 PUSH3 0x1D DUP2 PUSH3 0x4A0 JUMP JUMPDEST SWAP3 DUP4 CODECOPY DUP2 ADD SWAP1 PUSH1 0xC0 DUP2 DUP4 SUB SLT PUSH3 0x49B JUMPI PUSH3 0x39 DUP2 PUSH3 0x4C6 JUMP JUMPDEST PUSH1 0x20 DUP3 ADD MLOAD PUSH1 0x1 PUSH1 0x1 PUSH1 0x40 SHL SUB DUP2 GT PUSH3 0x49B JUMPI DUP3 ADD SWAP3 DUP1 PUSH1 0x1F DUP6 ADD SLT ISZERO PUSH3 0x49B JUMPI DUP4 MLOAD SWAP4 PUSH1 0x1 PUSH1 0x1 PUSH1 0x40 SHL SUB DUP6 GT PUSH3 0x2ED JUMPI DUP5 PUSH1 0x5 SHL SWAP1 PUSH1 0x20 DUP1 PUSH3 0x83 DUP2 DUP6 ADD PUSH3 0x4A0 JUMP JUMPDEST DUP1 SWAP9 DUP2 MSTORE ADD SWAP3 DUP3 ADD ADD SWAP3 DUP4 GT PUSH3 0x49B JUMPI PUSH1 0x20 ADD SWAP1 JUMPDEST DUP3 DUP3 LT PUSH3 0x480 JUMPI POP POP POP PUSH1 0x40 DUP3 ADD MLOAD PUSH1 0x60 DUP4 ADD MLOAD PUSH1 0x80 DUP5 ADD MLOAD PUSH1 0xA0 SWAP1 SWAP5 ADD MLOAD PUSH1 0x1 DUP1 SLOAD PUSH1 0xFF NOT AND DUP2 SSTORE PUSH1 0x2 SSTORE SWAP2 SWAP4 SWAP2 SWAP3 PUSH1 0x1 PUSH1 0x1 PUSH1 0xA0 SHL SUB AND DUP1 ISZERO PUSH3 0x346 JUMPI PUSH1 0x2 DUP7 MLOAD LT PUSH3 0x46E JUMPI DUP5 ISZERO DUP1 ISZERO PUSH3 0x464 JUMPI JUMPDEST DUP1 ISZERO PUSH3 0x45A JUMPI JUMPDEST DUP1 ISZERO PUSH3 0x44F JUMPI JUMPDEST PUSH3 0x43D JUMPI PUSH1 0x0 DUP2 DUP2 MSTORE PUSH1 0x0 DUP1 MLOAD PUSH1 0x20 PUSH3 0x55BC DUP4 CODECOPY DUP2 MLOAD SWAP2 MSTORE PUSH1 0x20 MSTORE PUSH1 0x40 SWAP1 KECCAK256 SLOAD PUSH1 0xFF AND ISZERO PUSH3 0x3F9 JUMPI JUMPDEST PUSH1 0x0 DUP2 DUP2 MSTORE PUSH32 0x7D7FFB7A348E1C6A02869081A26547B49160DD3DF72D1D75A570EB9B698292EC PUSH1 0x20 MSTORE PUSH1 0x40 SWAP1 KECCAK256 SLOAD PUSH32 0xA49807205CE4D355092EF5A8A18F56E8913CF4A201FBE287825B095693C21775 SWAP2 SWAP1 PUSH1 0xFF AND ISZERO PUSH3 0x3B6 JUMPI JUMPDEST POP POP PUSH1 0x0 JUMPDEST DUP6 MLOAD DUP2 LT ISZERO PUSH3 0x358 JUMPI PUSH1 0x1 PUSH1 0x1 PUSH1 0xA0 SHL SUB PUSH3 0x1A8 DUP3 DUP9 PUSH3 0x4DB JUMP JUMPDEST MLOAD AND ISZERO PUSH3 0x346 JUMPI PUSH1 0x1 PUSH1 0x1 PUSH1 0xA0 SHL SUB PUSH3 0x1C4 DUP3 DUP9 PUSH3 0x4DB JUMP JUMPDEST MLOAD AND PUSH1 0x0 DUP2 DUP2 MSTORE PUSH32 0x59F08E7D7BA1C82EDDC57AFAE67F80DF851BAF38A099607A779825038C3CE5B PUSH1 0x20 MSTORE PUSH1 0x40 SWAP1 KECCAK256 SLOAD PUSH32 0xE2F4EAAE4A9751E85A3E4A7B9587827A877F29914755229B07A7B2DA98285F70 SWAP2 SWAP1 PUSH1 0xFF AND ISZERO PUSH3 0x303 JUMPI JUMPDEST POP POP PUSH1 0x13 DUP1 SLOAD SWAP1 SWAP2 SWAP1 PUSH1 0x1 PUSH1 0x1 PUSH1 0xA0 SHL SUB PUSH3 0x23E DUP4 DUP11 PUSH3 0x4DB JUMP JUMPDEST MLOAD AND PUSH1 0x0 SWAP1 DUP2 MSTORE PUSH1 0x14 PUSH1 0x20 MSTORE PUSH1 0x40 SWAP1 KECCAK256 DUP2 SWAP1 SSTORE PUSH1 0x1 PUSH1 0x1 PUSH1 0xA0 SHL SUB PUSH3 0x265 DUP4 DUP11 PUSH3 0x4DB JUMP JUMPDEST MLOAD AND SWAP1 PUSH9 0x10000000000000000 DUP2 LT ISZERO PUSH3 0x2ED JUMPI PUSH1 0x1 DUP2 ADD DUP1 DUP6 SSTORE DUP2 LT ISZERO PUSH3 0x2D7 JUMPI PUSH1 0x0 SWAP4 DUP5 MSTORE PUSH1 0x20 SWAP1 SWAP4 KECCAK256 SWAP1 SWAP3 ADD DUP1 SLOAD PUSH1 0x1 PUSH1 0x1 PUSH1 0xA0 SHL SUB NOT AND SWAP1 SWAP3 OR SWAP1 SWAP2 SSTORE PUSH1 0x1 SWAP1 PUSH1 0x1 PUSH1 0x1 PUSH1 0xA0 SHL SUB PUSH3 0x2BF DUP3 DUP10 PUSH3 0x4DB JUMP JUMPDEST MLOAD AND PUSH1 0x0 MSTORE PUSH1 0x15 PUSH1 0x20 MSTORE TIMESTAMP PUSH1 0x40 PUSH1 0x0 KECCAK256 SSTORE ADD PUSH3 0x18A JUMP JUMPDEST PUSH4 0x4E487B71 PUSH1 0xE0 SHL PUSH1 0x0 MSTORE PUSH1 0x32 PUSH1 0x4 MSTORE PUSH1 0x24 PUSH1 0x0 REVERT JUMPDEST PUSH4 0x4E487B71 PUSH1 0xE0 SHL PUSH1 0x0 MSTORE PUSH1 0x41 PUSH1 0x4 MSTORE PUSH1 0x24 PUSH1 0x0 REVERT JUMPDEST DUP2 PUSH1 0x0 MSTORE PUSH1 0x0 PUSH1 0x20 MSTORE PUSH1 0x40 PUSH1 0x0 KECCAK256 DUP2 PUSH1 0x0 MSTORE PUSH1 0x20 MSTORE PUSH1 0x40 PUSH1 0x0 KECCAK256 PUSH1 0x1 PUSH1 0xFF NOT DUP3 SLOAD AND OR SWAP1 SSTORE CALLER SWAP2 PUSH1 0x0 DUP1 MLOAD PUSH1 0x20 PUSH3 0x559C DUP4 CODECOPY DUP2 MLOAD SWAP2 MSTORE PUSH1 0x0 DUP1 LOG4 CODESIZE DUP1 PUSH3 0x221 JUMP JUMPDEST PUSH1 0x40 MLOAD PUSH4 0xD92E233D PUSH1 0xE0 SHL DUP2 MSTORE PUSH1 0x4 SWAP1 REVERT JUMPDEST POP DUP5 MLOAD PUSH1 0x40 MLOAD DUP6 SWAP2 SWAP1 PUSH1 0xA0 DUP2 ADD PUSH1 0x1 PUSH1 0x1 PUSH1 0x40 SHL SUB DUP2 GT DUP3 DUP3 LT OR PUSH3 0x2ED JUMPI DUP7 SWAP2 PUSH1 0x80 SWAP2 PUSH1 0x40 MSTORE DUP4 DUP2 MSTORE DUP5 PUSH1 0x20 DUP3 ADD MSTORE DUP6 PUSH1 0x40 DUP3 ADD MSTORE DUP7 PUSH1 0x60 DUP3 ADD MSTORE ADD MSTORE PUSH1 0x3 SSTORE PUSH1 0x4 SSTORE PUSH1 0x5 SSTORE PUSH1 0x6 SSTORE PUSH1 0x7 SSTORE PUSH1 0x40 MLOAD PUSH2 0x50AB SWAP1 DUP2 PUSH3 0x4F1 DUP3 CODECOPY RETURN JUMPDEST DUP2 PUSH1 0x0 MSTORE PUSH1 0x0 PUSH1 0x20 MSTORE PUSH1 0x40 PUSH1 0x0 KECCAK256 DUP2 PUSH1 0x0 MSTORE PUSH1 0x20 MSTORE PUSH1 0x40 PUSH1 0x0 KECCAK256 PUSH1 0x1 PUSH1 0xFF NOT DUP3 SLOAD AND OR SWAP1 SSTORE CALLER SWAP2 PUSH1 0x0 DUP1 MLOAD PUSH1 0x20 PUSH3 0x559C DUP4 CODECOPY DUP2 MLOAD SWAP2 MSTORE PUSH1 0x0 DUP1 LOG4 CODESIZE DUP1 PUSH3 0x185 JUMP JUMPDEST PUSH1 0x0 DUP2 DUP2 MSTORE PUSH1 0x0 DUP1 MLOAD PUSH1 0x20 PUSH3 0x55BC DUP4 CODECOPY DUP2 MLOAD SWAP2 MSTORE PUSH1 0x20 MSTORE PUSH1 0x40 DUP2 KECCAK256 DUP1 SLOAD PUSH1 0xFF NOT AND PUSH1 0x1 OR SWAP1 SSTORE CALLER SWAP1 DUP3 SWAP1 PUSH1 0x0 DUP1 MLOAD PUSH1 0x20 PUSH3 0x559C DUP4 CODECOPY DUP2 MLOAD SWAP2 MSTORE DUP2 DUP1 LOG4 PUSH3 0x12A JUMP JUMPDEST PUSH1 0x40 MLOAD PUSH4 0x9067000F PUSH1 0xE0 SHL DUP2 MSTORE PUSH1 0x4 SWAP1 REVERT JUMPDEST POP DUP6 MLOAD DUP4 GT PUSH3 0xFE JUMP JUMPDEST POP DUP3 DUP3 GT PUSH3 0xF6 JUMP JUMPDEST POP DUP2 DUP6 GT PUSH3 0xEE JUMP JUMPDEST PUSH1 0x40 MLOAD PUSH4 0x7BF345B1 PUSH1 0xE1 SHL DUP2 MSTORE PUSH1 0x4 SWAP1 REVERT JUMPDEST PUSH1 0x20 DUP1 SWAP2 PUSH3 0x48F DUP5 PUSH3 0x4C6 JUMP JUMPDEST DUP2 MSTORE ADD SWAP2 ADD SWAP1 PUSH3 0x99 JUMP JUMPDEST PUSH1 0x0 DUP1 REVERT JUMPDEST PUSH1 0x40 MLOAD SWAP2 SWAP1 PUSH1 0x1F ADD PUSH1 0x1F NOT AND DUP3 ADD PUSH1 0x1 PUSH1 0x1 PUSH1 0x40 SHL SUB DUP2 GT DUP4 DUP3 LT OR PUSH3 0x2ED JUMPI PUSH1 0x40 MSTORE JUMP JUMPDEST MLOAD SWAP1 PUSH1 0x1 PUSH1 0x1 PUSH1 0xA0 SHL SUB DUP3 AND DUP3 SUB PUSH3 0x49B JUMPI JUMP JUMPDEST DUP1 MLOAD DUP3 LT ISZERO PUSH3 0x2D7 JUMPI PUSH1 0x20 SWAP2 PUSH1 0x5 SHL ADD ADD SWAP1 JUMP INVALID PUSH1 0xA0 DUP1 PUSH1 0x40 MSTORE PUSH1 0x4 CALLDATASIZE LT ISZERO PUSH2 0x1D JUMPI JUMPDEST POP CALLDATASIZE ISZERO PUSH2 0x1B JUMPI PUSH1 0x0 DUP1 REVERT JUMPDEST STOP JUMPDEST PUSH1 0x0 CALLDATALOAD PUSH1 0xE0 SHR SWAP1 DUP2 PUSH4 0x1FFC9A7 EQ PUSH2 0x4194 JUMPI POP DUP1 PUSH4 0x2D07F2C EQ PUSH2 0x40DE JUMPI DUP1 PUSH4 0x2EC5CFE EQ PUSH2 0x4022 JUMPI DUP1 PUSH4 0x828973B EQ PUSH2 0x3FE2 JUMPI DUP1 PUSH4 0xE316AB7 EQ PUSH2 0x3E22 JUMPI DUP1 PUSH4 0xF7A253B EQ PUSH2 0x2003 JUMPI DUP1 PUSH4 0x11AB31ED EQ PUSH2 0x3C24 JUMPI DUP1 PUSH4 0x125FF8A3 EQ PUSH2 0x3B32 JUMPI DUP1 PUSH4 0x186FD634 EQ PUSH2 0x3A6D JUMPI DUP1 PUSH4 0x19D9A21B EQ PUSH2 0x3A0A JUMPI DUP1 PUSH4 0x1DACB969 EQ PUSH2 0x39CF JUMPI DUP1 PUSH4 0x1FCD8642 EQ PUSH2 0x39B1 JUMPI DUP1 PUSH4 0x2079FB9A EQ PUSH2 0x396F JUMPI DUP1 PUSH4 0x22D42B57 EQ PUSH2 0x3935 JUMPI DUP1 PUSH4 0x23CDC3F1 EQ PUSH2 0x121B JUMPI DUP1 PUSH4 0x248A9CA3 EQ PUSH2 0x3906 JUMPI DUP1 PUSH4 0x29307854 EQ PUSH2 0x387F JUMPI DUP1 PUSH4 0x2F2FF15D EQ PUSH2 0x37CC JUMPI DUP1 PUSH4 0x32ED5B12 EQ PUSH2 0x3671 JUMPI DUP1 PUSH4 0x3368F899 EQ PUSH2 0x35A1 JUMPI DUP1 PUSH4 0x36568ABE EQ PUSH2 0x350F JUMPI DUP1 PUSH4 0x37376CA8 EQ PUSH2 0x3379 JUMPI DUP1 PUSH4 0x38757990 EQ PUSH2 0x335B JUMPI DUP1 PUSH4 0x3F4BA83A EQ PUSH2 0x32C7 JUMPI DUP1 PUSH4 0x424AF6B7 EQ PUSH2 0x32A9 JUMPI DUP1 PUSH4 0x430694CF EQ PUSH2 0x300C JUMPI DUP1 PUSH4 0x472F2B3D EQ PUSH2 0x2FBB JUMPI DUP1 PUSH4 0x546887A3 EQ PUSH2 0x2E09 JUMPI DUP1 PUSH4 0x5C975ABB EQ PUSH2 0x2DE6 JUMPI DUP1 PUSH4 0x5D286913 EQ PUSH2 0x280F JUMPI DUP1 PUSH4 0x5E9A79D0 EQ PUSH2 0x26ED JUMPI DUP1 PUSH4 0x60D7442B EQ PUSH2 0x26D0 JUMPI DUP1 PUSH4 0x68C4AC26 EQ PUSH2 0x2691 JUMPI DUP1 PUSH4 0x6A9023DA EQ PUSH2 0x2423 JUMPI DUP1 PUSH4 0x6AB31FC3 EQ PUSH2 0x2008 JUMPI DUP1 PUSH4 0x741A2D29 EQ PUSH2 0x2003 JUMPI DUP1 PUSH4 0x75B238FC EQ PUSH2 0x1FC8 JUMPI DUP1 PUSH4 0x7D46CB98 EQ PUSH2 0x1E94 JUMPI DUP1 PUSH4 0x808D5014 EQ PUSH2 0x1DD5 JUMPI DUP1 PUSH4 0x8456CB59 EQ PUSH2 0x1D7C JUMPI DUP1 PUSH4 0x8A14E3D0 EQ PUSH2 0x1D5E JUMPI DUP1 PUSH4 0x8D203550 EQ PUSH2 0x1A84 JUMPI DUP1 PUSH4 0x8F5F1BB9 EQ PUSH2 0x137D JUMPI DUP1 PUSH4 0x91D14854 EQ PUSH2 0x1330 JUMPI DUP1 PUSH4 0x94CF795E EQ PUSH2 0x1268 JUMPI DUP1 PUSH4 0x97D73669 EQ PUSH2 0x121B JUMPI DUP1 PUSH4 0x980FF6C6 EQ PUSH2 0xF31 JUMPI DUP1 PUSH4 0xA1EBF35D EQ PUSH2 0xF08 JUMPI DUP1 PUSH4 0xA217FDDF EQ PUSH2 0xEEC JUMPI DUP1 PUSH4 0xB57939C1 EQ PUSH2 0xCED JUMPI DUP1 PUSH4 0xB60953CA EQ PUSH2 0xC57 JUMPI DUP1 PUSH4 0xB8DCA440 EQ PUSH2 0xA37 JUMPI DUP1 PUSH4 0xBFFE3486 EQ PUSH2 0x9C8 JUMPI DUP1 PUSH4 0xC4EB9FC1 EQ PUSH2 0x97B JUMPI DUP1 PUSH4 0xCA1FB4D5 EQ PUSH2 0x95B JUMPI DUP1 PUSH4 0xCBF675C9 EQ PUSH2 0x93B JUMPI DUP1 PUSH4 0xCC3C74A1 EQ PUSH2 0x91D JUMPI DUP1 PUSH4 0xD18F51C2 EQ PUSH2 0x8CC JUMPI DUP1 PUSH4 0xD38DF2AC EQ PUSH2 0x8A3 JUMPI DUP1 PUSH4 0xD547741F EQ PUSH2 0x864 JUMPI DUP1 PUSH4 0xD669078D EQ PUSH2 0x846 JUMPI DUP1 PUSH4 0xE7986466 EQ PUSH2 0x7B7 JUMPI DUP1 PUSH4 0xEB12D61E EQ PUSH2 0x624 JUMPI DUP1 PUSH4 0xF20B5B2C EQ PUSH2 0x3C2 JUMPI DUP1 PUSH4 0xF6C239FB EQ PUSH2 0x340 JUMPI PUSH4 0xFE9E9640 EQ PUSH2 0x300 JUMPI CODESIZE PUSH2 0xF JUMP JUMPDEST CALLVALUE PUSH2 0x33B JUMPI PUSH1 0x0 CALLDATASIZE PUSH1 0x3 NOT ADD SLT PUSH2 0x33B JUMPI PUSH1 0x20 PUSH1 0x40 MLOAD PUSH32 0x470F4F1717679395B6A9E0700797BFEEAA970F1643E72F5684D687C0BE10FE27 DUP2 MSTORE RETURN JUMPDEST PUSH1 0x0 DUP1 REVERT JUMPDEST CALLVALUE PUSH2 0x33B JUMPI PUSH1 0x20 CALLDATASIZE PUSH1 0x3 NOT ADD SLT PUSH2 0x33B JUMPI PUSH2 0x359 PUSH2 0x41E7 JUMP JUMPDEST PUSH2 0x361 PUSH2 0x44B7 JUMP JUMPDEST PUSH1 0x1 PUSH1 0x1 PUSH1 0xA0 SHL SUB SWAP1 DUP2 AND SWAP1 DUP2 ISZERO PUSH2 0x3B0 JUMPI PUSH1 0x19 SLOAD DUP3 PUSH1 0x1 PUSH1 0x1 PUSH1 0x60 SHL SUB PUSH1 0xA0 SHL DUP3 AND OR PUSH1 0x19 SSTORE AND PUSH32 0x6A5A8E8A30C2DAE2C535A49446551E07C95DAFE16EFFF837AA172914EF34B28E PUSH1 0x0 DUP1 LOG3 STOP JUMPDEST PUSH1 0x40 MLOAD PUSH4 0xD92E233D PUSH1 0xE0 SHL DUP2 MSTORE PUSH1 0x4 SWAP1 REVERT JUMPDEST CALLVALUE PUSH2 0x33B JUMPI PUSH1 0x20 DUP1 PUSH1 0x3 NOT CALLDATASIZE ADD SLT PUSH2 0x33B JUMPI PUSH1 0x4 CALLDATALOAD PUSH2 0x3DF PUSH2 0x4AB3 JUMP JUMPDEST PUSH1 0x0 DUP1 MLOAD PUSH1 0x20 PUSH2 0x5056 DUP4 CODECOPY DUP2 MLOAD SWAP2 MSTORE DUP1 PUSH1 0x0 MSTORE PUSH1 0x0 DUP4 MSTORE PUSH1 0x40 PUSH1 0x0 KECCAK256 CALLER PUSH1 0x0 MSTORE DUP4 MSTORE PUSH1 0xFF PUSH1 0x40 PUSH1 0x0 KECCAK256 SLOAD AND SWAP1 DUP2 ISZERO PUSH2 0x58F JUMPI JUMPDEST POP ISZERO PUSH2 0x57D JUMPI DUP1 PUSH1 0x0 MSTORE PUSH1 0x8 DUP3 MSTORE PUSH1 0x40 PUSH1 0x0 KECCAK256 SWAP2 PUSH1 0xB DUP4 ADD SLOAD ISZERO PUSH2 0x56B JUMPI PUSH1 0x7 DUP4 ADD SWAP1 PUSH1 0xFF DUP3 SLOAD PUSH1 0x8 SHR AND PUSH1 0x6 DUP2 LT ISZERO PUSH2 0x555 JUMPI DUP1 PUSH2 0x535 JUMPI POP PUSH1 0xD DUP5 ADD SLOAD TIMESTAMP GT PUSH2 0x523 JUMPI PUSH2 0x460 CALLER PUSH2 0x4D83 JUMP JUMPDEST PUSH1 0x0 DUP5 DUP2 MSTORE PUSH1 0x9 DUP4 MSTORE PUSH1 0x40 DUP1 DUP3 KECCAK256 PUSH1 0x1 PUSH1 0x1 PUSH1 0xA0 SHL SUB SWAP1 SWAP4 AND DUP1 DUP4 MSTORE SWAP3 DUP5 MSTORE SWAP1 KECCAK256 SLOAD PUSH1 0xFF AND PUSH2 0x511 JUMPI DUP4 PUSH1 0x0 MSTORE PUSH1 0x9 DUP3 MSTORE PUSH1 0x40 PUSH1 0x0 KECCAK256 SWAP1 PUSH1 0x0 MSTORE DUP2 MSTORE PUSH1 0x40 PUSH1 0x0 KECCAK256 PUSH1 0x1 PUSH1 0xFF NOT DUP3 SLOAD AND OR SWAP1 SSTORE PUSH1 0xA PUSH1 0x8 DUP6 ADD SWAP5 PUSH2 0x4BD DUP7 SLOAD PUSH2 0x4A3D JUMP JUMPDEST DUP1 SWAP7 SSTORE ADD SLOAD SWAP2 DUP3 DUP6 LT ISZERO PUSH2 0x4FE JUMPI JUMPDEST POP PUSH1 0x40 MLOAD SWAP4 DUP5 MSTORE DUP4 ADD MSTORE PUSH32 0x7989491BC7C1FEE580139021C9641F45F658BBFD784956C0A4EBBCC4D983A5AF PUSH1 0x40 CALLER SWAP4 LOG3 STOP JUMPDEST DUP1 SLOAD PUSH2 0xFF00 NOT AND PUSH2 0x100 OR SWAP1 SSTORE DUP5 PUSH2 0x4CC JUMP JUMPDEST PUSH1 0x40 MLOAD PUSH4 0x80FC0BD PUSH1 0xE1 SHL DUP2 MSTORE PUSH1 0x4 SWAP1 REVERT JUMPDEST PUSH1 0x40 MLOAD PUSH4 0x50387407 PUSH1 0xE0 SHL DUP2 MSTORE PUSH1 0x4 SWAP1 REVERT JUMPDEST PUSH1 0x40 MLOAD PUSH4 0x735671C7 PUSH1 0xE1 SHL DUP2 MSTORE PUSH1 0x24 SWAP2 PUSH2 0x553 SWAP1 PUSH1 0x4 DUP4 ADD SWAP1 PUSH2 0x447D JUMP JUMPDEST REVERT JUMPDEST PUSH4 0x4E487B71 PUSH1 0xE0 SHL PUSH1 0x0 MSTORE PUSH1 0x21 PUSH1 0x4 MSTORE PUSH1 0x24 PUSH1 0x0 REVERT JUMPDEST PUSH1 0x40 MLOAD PUSH4 0x635E8737 PUSH1 0xE0 SHL DUP2 MSTORE PUSH1 0x4 SWAP1 REVERT JUMPDEST PUSH1 0x40 MLOAD PUSH4 0x143606B9 PUSH1 0xE3 SHL DUP2 MSTORE PUSH1 0x4 SWAP1 REVERT JUMPDEST PUSH1 0x10 DUP5 MSTORE PUSH1 0x40 PUSH1 0x0 KECCAK256 PUSH1 0x4 DUP2 ADD SLOAD PUSH1 0xFF AND SWAP3 POP DUP3 PUSH2 0x60D JUMPI JUMPDEST DUP3 PUSH2 0x5FE JUMPI JUMPDEST DUP3 PUSH2 0x5EF JUMPI JUMPDEST DUP3 PUSH2 0x5C2 JUMPI JUMPDEST POP POP DUP4 PUSH2 0x412 JUMP JUMPDEST SLOAD PUSH1 0x0 SWAP2 DUP3 MSTORE DUP2 DUP6 MSTORE PUSH1 0x40 DUP1 DUP4 KECCAK256 PUSH1 0x1 PUSH1 0x1 PUSH1 0xA0 SHL SUB SWAP1 SWAP3 AND DUP4 MSTORE SWAP1 DUP6 MSTORE SWAP1 KECCAK256 SLOAD PUSH1 0xFF AND SWAP1 POP DUP4 DUP1 PUSH2 0x5BA JUMP JUMPDEST PUSH1 0x3 DUP2 ADD SLOAD TIMESTAMP GT ISZERO SWAP3 POP PUSH2 0x5B4 JUMP JUMPDEST PUSH1 0x2 DUP2 ADD SLOAD TIMESTAMP LT ISZERO SWAP3 POP PUSH2 0x5AE JUMP JUMPDEST PUSH1 0x1 DUP2 ADD SLOAD PUSH1 0x1 PUSH1 0x1 PUSH1 0xA0 SHL SUB AND CALLER EQ SWAP3 POP PUSH2 0x5A8 JUMP JUMPDEST CALLVALUE PUSH2 0x33B JUMPI PUSH1 0x20 DUP1 PUSH1 0x3 NOT CALLDATASIZE ADD SLT PUSH2 0x33B JUMPI PUSH2 0x63E PUSH2 0x41E7 JUMP JUMPDEST PUSH2 0x646 PUSH2 0x44B7 JUMP JUMPDEST PUSH1 0x1 PUSH1 0x1 PUSH1 0xA0 SHL SUB DUP2 AND SWAP2 DUP3 ISZERO PUSH2 0x3B0 JUMPI PUSH1 0x0 DUP1 MLOAD PUSH1 0x20 PUSH2 0x5056 DUP4 CODECOPY DUP2 MLOAD SWAP2 MSTORE DUP1 PUSH1 0x0 MSTORE PUSH1 0x0 DUP3 MSTORE PUSH1 0x40 PUSH1 0x0 KECCAK256 DUP5 PUSH1 0x0 MSTORE DUP3 MSTORE PUSH1 0xFF PUSH1 0x40 PUSH1 0x0 KECCAK256 SLOAD AND PUSH2 0x7A5 JUMPI DUP1 PUSH1 0x0 MSTORE PUSH1 0x0 DUP3 MSTORE PUSH1 0x40 PUSH1 0x0 KECCAK256 DUP5 PUSH1 0x0 MSTORE DUP3 MSTORE PUSH1 0xFF PUSH1 0x40 PUSH1 0x0 KECCAK256 SLOAD AND ISZERO PUSH2 0x754 JUMPI JUMPDEST POP PUSH1 0x13 SLOAD PUSH1 0x14 DUP3 MSTORE DUP1 PUSH1 0x40 PUSH1 0x0 KECCAK256 SSTORE PUSH1 0x1 PUSH1 0x40 SHL DUP2 LT ISZERO PUSH2 0x73E JUMPI PUSH32 0x50999EBF9B59BF3157A58816611976F2D723378AD51457D7B0413209E0CDEE59 SWAP3 PUSH2 0x6F8 DUP3 PUSH1 0x1 PUSH2 0x717 SWAP5 ADD PUSH1 0x13 SSTORE PUSH2 0x4439 JUMP JUMPDEST SWAP1 SWAP2 SWAP1 DUP3 SLOAD SWAP1 PUSH1 0x3 SHL SWAP2 PUSH1 0x1 DUP1 PUSH1 0xA0 SHL SUB DUP1 SWAP2 AND DUP4 SHL SWAP3 SHL NOT AND OR SWAP1 SSTORE JUMP JUMPDEST DUP3 PUSH1 0x0 MSTORE PUSH1 0x15 DUP2 MSTORE TIMESTAMP PUSH1 0x40 PUSH1 0x0 KECCAK256 SSTORE PUSH2 0x731 PUSH1 0x3 SLOAD PUSH2 0x4A3D JUMP JUMPDEST DUP1 PUSH1 0x3 SSTORE PUSH1 0x40 MLOAD SWAP1 DUP2 MSTORE LOG2 STOP JUMPDEST PUSH4 0x4E487B71 PUSH1 0xE0 SHL PUSH1 0x0 MSTORE PUSH1 0x41 PUSH1 0x4 MSTORE PUSH1 0x24 PUSH1 0x0 REVERT JUMPDEST DUP1 PUSH1 0x0 MSTORE PUSH1 0x0 DUP3 MSTORE PUSH1 0x40 PUSH1 0x0 KECCAK256 DUP5 PUSH1 0x0 MSTORE DUP3 MSTORE PUSH1 0x40 PUSH1 0x0 KECCAK256 PUSH1 0x1 PUSH1 0xFF NOT DUP3 SLOAD AND OR SWAP1 SSTORE DUP4 CALLER SWAP2 PUSH32 0x2F8788117E7EFF1D82E926EC794901D17C78024A50270940304540A733656F0D PUSH1 0x0 DUP1 LOG4 DUP4 PUSH2 0x6A8 JUMP JUMPDEST PUSH1 0x40 MLOAD PUSH4 0xE1857B3 PUSH1 0xE2 SHL DUP2 MSTORE PUSH1 0x4 SWAP1 REVERT JUMPDEST CALLVALUE PUSH2 0x33B JUMPI PUSH1 0x40 CALLDATASIZE PUSH1 0x3 NOT ADD SLT PUSH2 0x33B JUMPI PUSH2 0x7D0 PUSH2 0x41E7 JUMP JUMPDEST PUSH1 0x24 CALLDATALOAD SWAP1 DUP2 ISZERO ISZERO SWAP1 DUP2 DUP4 SUB PUSH2 0x33B JUMPI PUSH2 0x7E7 PUSH2 0x44B7 JUMP JUMPDEST PUSH1 0x1 PUSH1 0x1 PUSH1 0xA0 SHL SUB AND SWAP2 DUP3 ISZERO PUSH2 0x3B0 JUMPI PUSH32 0xD86C88B4A367D9B81A6E00C9D3F7D01657BFFEF358FA8968C91C045AE99F0D52 SWAP2 PUSH2 0x83D PUSH1 0x20 SWAP3 DUP6 PUSH1 0x0 MSTORE PUSH1 0x12 DUP5 MSTORE PUSH1 0x40 PUSH1 0x0 KECCAK256 SWAP1 PUSH1 0xFF DUP1 NOT DUP4 SLOAD AND SWAP2 ISZERO ISZERO AND OR SWAP1 SSTORE JUMP JUMPDEST PUSH1 0x40 MLOAD SWAP1 DUP2 MSTORE LOG2 STOP JUMPDEST CALLVALUE PUSH2 0x33B JUMPI PUSH1 0x0 CALLDATASIZE PUSH1 0x3 NOT ADD SLT PUSH2 0x33B JUMPI PUSH1 0x20 PUSH1 0x40 MLOAD PUSH3 0x278D00 DUP2 MSTORE RETURN JUMPDEST CALLVALUE PUSH2 0x33B JUMPI PUSH1 0x40 CALLDATASIZE PUSH1 0x3 NOT ADD SLT PUSH2 0x33B JUMPI PUSH2 0x1B PUSH1 0x4 CALLDATALOAD PUSH2 0x883 PUSH2 0x41FD JUMP JUMPDEST SWAP1 DUP1 PUSH1 0x0 MSTORE PUSH1 0x0 PUSH1 0x20 MSTORE PUSH2 0x89E PUSH1 0x1 PUSH1 0x40 PUSH1 0x0 KECCAK256 ADD SLOAD PUSH2 0x47CC JUMP JUMPDEST PUSH2 0x48CB JUMP JUMPDEST CALLVALUE PUSH2 0x33B JUMPI PUSH1 0x0 CALLDATASIZE PUSH1 0x3 NOT ADD SLT PUSH2 0x33B JUMPI PUSH1 0x19 SLOAD PUSH1 0x40 MLOAD PUSH1 0x1 PUSH1 0x1 PUSH1 0xA0 SHL SUB SWAP1 SWAP2 AND DUP2 MSTORE PUSH1 0x20 SWAP1 RETURN JUMPDEST CALLVALUE PUSH2 0x33B JUMPI PUSH1 0x20 CALLDATASIZE PUSH1 0x3 NOT ADD SLT PUSH2 0x33B JUMPI PUSH1 0x4 CALLDATALOAD PUSH1 0xD SLOAD DUP2 LT ISZERO PUSH2 0x33B JUMPI PUSH1 0x20 SWAP1 PUSH1 0xD PUSH1 0x0 MSTORE PUSH32 0xD7B6990105719101DABEB77144F2A3385C8033ACD3AF97E9423A695E81AD1EB5 ADD SLOAD PUSH1 0x40 MLOAD SWAP1 DUP2 MSTORE RETURN JUMPDEST CALLVALUE PUSH2 0x33B JUMPI PUSH1 0x0 CALLDATASIZE PUSH1 0x3 NOT ADD SLT PUSH2 0x33B JUMPI PUSH1 0x20 PUSH1 0x16 SLOAD PUSH1 0x40 MLOAD SWAP1 DUP2 MSTORE RETURN JUMPDEST CALLVALUE PUSH2 0x33B JUMPI PUSH1 0x0 CALLDATASIZE PUSH1 0x3 NOT ADD SLT PUSH2 0x33B JUMPI PUSH1 0x20 PUSH1 0x40 MLOAD PUSH5 0x2540BE400 DUP2 MSTORE RETURN JUMPDEST CALLVALUE PUSH2 0x33B JUMPI PUSH1 0x0 CALLDATASIZE PUSH1 0x3 NOT ADD SLT PUSH2 0x33B JUMPI PUSH1 0x20 PUSH1 0x40 MLOAD PUSH5 0x174876E800 DUP2 MSTORE RETURN JUMPDEST CALLVALUE PUSH2 0x33B JUMPI PUSH1 0x40 CALLDATASIZE PUSH1 0x3 NOT ADD SLT PUSH2 0x33B JUMPI PUSH2 0x994 PUSH2 0x41FD JUMP JUMPDEST PUSH1 0x4 CALLDATALOAD PUSH1 0x0 MSTORE PUSH1 0xA PUSH1 0x20 MSTORE PUSH1 0x40 PUSH1 0x0 KECCAK256 SWAP1 PUSH1 0x1 DUP1 PUSH1 0xA0 SHL SUB AND PUSH1 0x0 MSTORE PUSH1 0x20 MSTORE PUSH1 0x20 PUSH1 0xFF PUSH1 0x40 PUSH1 0x0 KECCAK256 SLOAD AND PUSH1 0x40 MLOAD SWAP1 ISZERO ISZERO DUP2 MSTORE RETURN JUMPDEST CALLVALUE PUSH2 0x33B JUMPI PUSH1 0x20 CALLDATASIZE PUSH1 0x3 NOT ADD SLT PUSH2 0x33B JUMPI PUSH1 0xA0 PUSH1 0x1 PUSH1 0x1 PUSH1 0xA0 SHL SUB DUP1 PUSH2 0x9EC PUSH2 0x41E7 JUMP JUMPDEST AND PUSH1 0x0 MSTORE PUSH1 0x10 PUSH1 0x20 MSTORE PUSH1 0x40 PUSH1 0x0 KECCAK256 DUP2 DUP2 SLOAD AND SWAP2 PUSH1 0x1 DUP3 ADD SLOAD AND SWAP1 PUSH1 0x2 DUP2 ADD SLOAD PUSH1 0xFF PUSH1 0x4 PUSH1 0x3 DUP5 ADD SLOAD SWAP4 ADD SLOAD AND SWAP3 PUSH1 0x40 MLOAD SWAP5 DUP6 MSTORE PUSH1 0x20 DUP6 ADD MSTORE PUSH1 0x40 DUP5 ADD MSTORE PUSH1 0x60 DUP4 ADD MSTORE ISZERO ISZERO PUSH1 0x80 DUP3 ADD MSTORE RETURN JUMPDEST CALLVALUE PUSH2 0x33B JUMPI PUSH1 0x20 CALLDATASIZE PUSH1 0x3 NOT ADD SLT PUSH2 0x33B JUMPI PUSH1 0x4 CALLDATALOAD PUSH2 0xA53 PUSH2 0x4AB3 JUMP JUMPDEST PUSH2 0xA5B PUSH2 0x4B27 JUMP JUMPDEST DUP1 PUSH1 0x0 MSTORE PUSH1 0xE PUSH1 0x20 MSTORE PUSH1 0x40 PUSH1 0x0 KECCAK256 PUSH1 0xFF PUSH1 0xA DUP3 ADD SLOAD AND ISZERO PUSH2 0xC45 JUMPI PUSH1 0x6 DUP2 ADD DUP1 SLOAD TIMESTAMP LT PUSH2 0xC33 JUMPI PUSH1 0x9 DUP3 ADD SLOAD DUP1 ISZERO ISZERO SWAP1 DUP2 PUSH2 0xC24 JUMPI JUMPDEST POP PUSH2 0xC12 JUMPI PUSH1 0x8 DUP3 ADD SWAP1 PUSH2 0xAA5 DUP3 SLOAD PUSH2 0x4A3D JUMP JUMPDEST DUP3 SSTORE TIMESTAMP PUSH1 0x7 DUP5 ADD SSTORE PUSH2 0xAC6 PUSH2 0xAC0 PUSH1 0xFF PUSH1 0x4 DUP7 ADD SLOAD AND PUSH2 0x4FF9 JUMP JUMPDEST TIMESTAMP PUSH2 0x493F JUMP JUMPDEST SWAP1 SSTORE PUSH1 0xB DUP3 ADD SLOAD DUP1 PUSH2 0xBFE JUMPI JUMPDEST POP PUSH1 0x2 DUP3 ADD SLOAD PUSH1 0x1 PUSH1 0x1 PUSH1 0xA0 SHL SUB SWAP1 DUP2 AND DUP1 PUSH2 0xBBD JUMPI POP SELFBALANCE SWAP1 PUSH1 0x3 DUP5 ADD SLOAD DUP1 SWAP3 LT PUSH2 0xBAB JUMPI PUSH1 0x0 DUP1 DUP1 SWAP4 DUP2 SWAP4 PUSH1 0x1 DUP9 ADD SLOAD AND GAS CALL PUSH2 0xB0F PUSH2 0x4AF7 JUMP JUMPDEST POP ISZERO PUSH2 0xB53 JUMPI PUSH32 0xD0CC432BBF7BA173AFD8F2CD350B0F92210AFB756CA9C8E2D89BCAD56F8CA316 SWAP2 PUSH1 0x3 PUSH1 0x40 SWAP3 JUMPDEST SLOAD SWAP2 ADD SLOAD DUP3 MLOAD SWAP2 DUP3 MSTORE PUSH1 0x20 DUP3 ADD MSTORE LOG2 PUSH1 0x1 PUSH1 0x2 SSTORE STOP JUMPDEST PUSH1 0x40 MLOAD PUSH3 0x461BCD PUSH1 0xE5 SHL DUP2 MSTORE PUSH1 0x20 PUSH1 0x4 DUP3 ADD MSTORE PUSH1 0x2A PUSH1 0x24 DUP3 ADD MSTORE PUSH32 0x4D756C746953696754726561737572793A20726563757272696E67207061796D PUSH1 0x44 DUP3 ADD MSTORE PUSH10 0x195B9D0819985A5B1959 PUSH1 0xB2 SHL PUSH1 0x64 DUP3 ADD MSTORE PUSH1 0x84 SWAP1 REVERT JUMPDEST PUSH1 0x40 MLOAD PUSH4 0x1E9ACF17 PUSH1 0xE3 SHL DUP2 MSTORE PUSH1 0x4 SWAP1 REVERT JUMPDEST PUSH1 0x40 SWAP3 PUSH2 0xBF9 PUSH1 0x3 SWAP3 DUP7 SWAP5 PUSH1 0x1 PUSH32 0xD0CC432BBF7BA173AFD8F2CD350B0F92210AFB756CA9C8E2D89BCAD56F8CA316 SWAP9 ADD SLOAD AND DUP5 DUP7 ADD SLOAD SWAP2 PUSH2 0x4B7B JUMP JUMPDEST PUSH2 0xB3D JUMP JUMPDEST PUSH1 0x3 DUP4 ADD SLOAD PUSH2 0xC0C SWAP2 PUSH2 0x4DDC JUMP JUMPDEST DUP4 PUSH2 0xAD3 JUMP JUMPDEST PUSH1 0x40 MLOAD PUSH4 0x74E34A63 PUSH1 0xE1 SHL DUP2 MSTORE PUSH1 0x4 SWAP1 REVERT JUMPDEST SWAP1 POP PUSH1 0x8 DUP4 ADD SLOAD LT ISZERO DUP5 PUSH2 0xA91 JUMP JUMPDEST PUSH1 0x40 MLOAD PUSH4 0x1D4C1C9 PUSH1 0xE6 SHL DUP2 MSTORE PUSH1 0x4 SWAP1 REVERT JUMPDEST PUSH1 0x40 MLOAD PUSH4 0xE513DCA7 PUSH1 0xE0 SHL DUP2 MSTORE PUSH1 0x4 SWAP1 REVERT JUMPDEST CALLVALUE PUSH2 0x33B JUMPI PUSH1 0x0 CALLDATASIZE PUSH1 0x3 NOT ADD SLT PUSH2 0x33B JUMPI PUSH1 0x0 PUSH1 0x80 PUSH1 0x40 MLOAD PUSH2 0xC78 DUP2 PUSH2 0x42BE JUMP JUMPDEST DUP3 DUP2 MSTORE DUP3 PUSH1 0x20 DUP3 ADD MSTORE DUP3 PUSH1 0x40 DUP3 ADD MSTORE DUP3 PUSH1 0x60 DUP3 ADD MSTORE ADD MSTORE PUSH1 0xA0 PUSH1 0x40 MLOAD PUSH2 0xC9D DUP2 PUSH2 0x42BE JUMP JUMPDEST PUSH1 0x3 SLOAD SWAP1 DUP2 DUP2 MSTORE PUSH1 0x4 SLOAD PUSH1 0x20 DUP3 ADD SWAP1 DUP2 MSTORE PUSH1 0x5 SLOAD PUSH1 0x40 DUP4 ADD SWAP1 DUP2 MSTORE PUSH1 0x6 SLOAD SWAP2 PUSH1 0x60 DUP5 ADD SWAP3 DUP4 MSTORE PUSH1 0x80 PUSH1 0x7 SLOAD SWAP5 ADD SWAP4 DUP5 MSTORE PUSH1 0x40 MLOAD SWAP5 DUP6 MSTORE MLOAD PUSH1 0x20 DUP6 ADD MSTORE MLOAD PUSH1 0x40 DUP5 ADD MSTORE MLOAD PUSH1 0x60 DUP4 ADD MSTORE MLOAD PUSH1 0x80 DUP3 ADD MSTORE RETURN JUMPDEST CALLVALUE PUSH2 0x33B JUMPI PUSH1 0x20 CALLDATASIZE PUSH1 0x3 NOT ADD SLT PUSH2 0x33B JUMPI PUSH1 0x0 PUSH2 0x180 PUSH1 0x40 MLOAD PUSH2 0xD0F DUP2 PUSH2 0x42D9 JUMP JUMPDEST DUP3 DUP2 MSTORE DUP3 PUSH1 0x20 DUP3 ADD MSTORE DUP3 PUSH1 0x40 DUP3 ADD MSTORE DUP3 PUSH1 0x60 DUP3 ADD MSTORE DUP3 PUSH1 0x80 DUP3 ADD MSTORE DUP3 PUSH1 0xA0 DUP3 ADD MSTORE PUSH1 0x60 PUSH1 0xC0 DUP3 ADD MSTORE DUP3 PUSH1 0xE0 DUP3 ADD MSTORE DUP3 PUSH2 0x100 DUP3 ADD MSTORE DUP3 PUSH2 0x120 DUP3 ADD MSTORE DUP3 PUSH2 0x140 DUP3 ADD MSTORE DUP3 PUSH2 0x160 DUP3 ADD MSTORE ADD MSTORE PUSH1 0x4 CALLDATALOAD PUSH1 0x0 MSTORE PUSH1 0xE PUSH1 0x20 MSTORE PUSH1 0x40 PUSH1 0x0 KECCAK256 PUSH1 0xB PUSH1 0x40 MLOAD SWAP2 PUSH2 0xD7A DUP4 PUSH2 0x42D9 JUMP JUMPDEST DUP1 SLOAD DUP4 MSTORE PUSH1 0x1 DUP2 ADD SLOAD PUSH1 0x1 PUSH1 0x1 PUSH1 0xA0 SHL SUB SWAP1 DUP2 AND PUSH1 0x20 DUP6 ADD MSTORE PUSH1 0x2 DUP3 ADD SLOAD AND PUSH1 0x40 DUP5 ADD MSTORE PUSH1 0x3 DUP2 ADD SLOAD PUSH1 0x60 DUP5 ADD MSTORE PUSH1 0x4 DUP2 ADD SLOAD PUSH2 0xDD0 SWAP1 PUSH1 0xFF SWAP1 PUSH2 0xDC3 DUP2 DUP4 AND PUSH1 0x80 DUP9 ADD PUSH2 0x4D77 JUMP JUMPDEST PUSH1 0x8 SHR AND PUSH1 0xA0 DUP6 ADD PUSH2 0x4A4C JUMP JUMPDEST PUSH2 0xDDC PUSH1 0x5 DUP3 ADD PUSH2 0x4331 JUMP JUMPDEST PUSH1 0xC0 DUP5 ADD MSTORE PUSH1 0x6 DUP2 ADD SLOAD PUSH1 0xE0 DUP5 ADD MSTORE PUSH1 0x7 DUP2 ADD SLOAD PUSH2 0x100 DUP5 ADD MSTORE PUSH1 0x8 DUP2 ADD SLOAD PUSH2 0x120 DUP5 ADD MSTORE PUSH1 0x9 DUP2 ADD SLOAD PUSH2 0x140 DUP5 ADD MSTORE PUSH1 0xFF PUSH1 0xA DUP3 ADD SLOAD AND ISZERO ISZERO PUSH2 0x160 DUP5 ADD MSTORE ADD SLOAD PUSH2 0x180 DUP3 ADD MSTORE PUSH1 0x40 MLOAD DUP1 SWAP2 PUSH1 0x20 DUP3 MSTORE DUP1 MLOAD PUSH1 0x20 DUP4 ADD MSTORE PUSH1 0x1 DUP1 PUSH1 0xA0 SHL SUB PUSH1 0x20 DUP3 ADD MLOAD AND PUSH1 0x40 DUP4 ADD MSTORE PUSH1 0x1 DUP1 PUSH1 0xA0 SHL SUB PUSH1 0x40 DUP3 ADD MLOAD AND PUSH1 0x60 DUP4 ADD MSTORE PUSH1 0x60 DUP2 ADD MLOAD PUSH1 0x80 DUP4 ADD MSTORE PUSH2 0xE74 PUSH1 0x80 DUP3 ADD MLOAD PUSH1 0xA0 DUP5 ADD SWAP1 PUSH2 0x43D7 JUMP JUMPDEST PUSH2 0xE86 PUSH1 0xA0 DUP3 ADD MLOAD PUSH1 0xC0 DUP5 ADD SWAP1 PUSH2 0x43E4 JUMP JUMPDEST PUSH1 0xC0 DUP2 ADD MLOAD PUSH2 0x180 PUSH2 0xEA6 PUSH2 0x1A0 SWAP3 DUP4 PUSH1 0xE0 DUP8 ADD MSTORE PUSH2 0x1C0 DUP7 ADD SWAP1 PUSH2 0x4414 JUMP JUMPDEST SWAP3 PUSH1 0xE0 DUP2 ADD MLOAD PUSH2 0x100 DUP7 ADD MSTORE PUSH2 0x100 DUP2 ADD MLOAD PUSH2 0x120 DUP7 ADD MSTORE PUSH2 0x120 DUP2 ADD MLOAD PUSH2 0x140 DUP7 ADD MSTORE PUSH2 0x140 DUP2 ADD MLOAD PUSH2 0x160 DUP7 ADD MSTORE PUSH2 0x160 DUP2 ADD MLOAD ISZERO ISZERO DUP3 DUP7 ADD MSTORE ADD MLOAD SWAP1 DUP4 ADD MSTORE SUB SWAP1 RETURN JUMPDEST CALLVALUE PUSH2 0x33B JUMPI PUSH1 0x0 CALLDATASIZE PUSH1 0x3 NOT ADD SLT PUSH2 0x33B JUMPI PUSH1 0x20 PUSH1 0x40 MLOAD PUSH1 0x0 DUP2 MSTORE RETURN JUMPDEST CALLVALUE PUSH2 0x33B JUMPI PUSH1 0x0 CALLDATASIZE PUSH1 0x3 NOT ADD SLT PUSH2 0x33B JUMPI PUSH1 0x20 PUSH1 0x40 MLOAD PUSH1 0x0 DUP1 MLOAD PUSH1 0x20 PUSH2 0x5056 DUP4 CODECOPY DUP2 MLOAD SWAP2 MSTORE DUP2 MSTORE RETURN JUMPDEST CALLVALUE PUSH2 0x33B JUMPI PUSH1 0x20 DUP1 PUSH1 0x3 NOT CALLDATASIZE ADD SLT PUSH2 0x33B JUMPI PUSH1 0x4 CALLDATALOAD PUSH2 0xF4E PUSH2 0x4AB3 JUMP JUMPDEST PUSH2 0xF56 PUSH2 0x4B27 JUMP JUMPDEST PUSH1 0x0 DUP1 MLOAD PUSH1 0x20 PUSH2 0x5056 DUP4 CODECOPY DUP2 MLOAD SWAP2 MSTORE DUP1 PUSH1 0x0 MSTORE PUSH1 0x0 DUP4 MSTORE PUSH1 0x40 PUSH1 0x0 KECCAK256 CALLER PUSH1 0x0 MSTORE DUP4 MSTORE PUSH1 0xFF PUSH1 0x40 PUSH1 0x0 KECCAK256 SLOAD AND SWAP1 DUP2 ISZERO PUSH2 0x1186 JUMPI JUMPDEST POP ISZERO PUSH2 0x57D JUMPI DUP1 PUSH1 0x0 MSTORE PUSH1 0x8 DUP3 MSTORE PUSH1 0x40 PUSH1 0x0 KECCAK256 PUSH1 0xB DUP2 ADD SLOAD ISZERO PUSH2 0x56B JUMPI PUSH1 0x7 DUP2 ADD DUP1 SLOAD PUSH1 0xFF DUP2 PUSH1 0x8 SHR AND PUSH1 0x6 DUP2 LT ISZERO PUSH2 0x555 JUMPI PUSH1 0x1 DUP2 SUB PUSH2 0x535 JUMPI POP PUSH1 0xC DUP4 ADD SLOAD DUP1 TIMESTAMP LT PUSH2 0x1168 JUMPI POP PUSH1 0xD DUP4 ADD SLOAD TIMESTAMP GT PUSH2 0x523 JUMPI PUSH2 0xFF00 NOT AND PUSH2 0x200 OR SWAP1 SSTORE PUSH1 0xF DUP2 ADD SLOAD DUP1 PUSH2 0x1154 JUMPI JUMPDEST POP PUSH1 0x3 DUP2 ADD SLOAD PUSH1 0x1 PUSH1 0x1 PUSH1 0xA0 SHL SUB SWAP1 DUP2 AND DUP1 PUSH2 0x10CA JUMPI POP SELFBALANCE SWAP1 PUSH1 0x4 DUP4 ADD SLOAD DUP1 SWAP3 LT PUSH2 0xBAB JUMPI PUSH1 0x0 DUP1 DUP1 SWAP4 DUP2 SWAP4 PUSH1 0x2 DUP8 ADD SLOAD AND GAS CALL PUSH2 0x102F PUSH2 0x4AF7 JUMP JUMPDEST POP ISZERO PUSH2 0x1074 JUMPI PUSH1 0x4 SWAP1 JUMPDEST ADD SLOAD SWAP2 PUSH1 0x40 MLOAD SWAP3 DUP4 MSTORE TIMESTAMP SWAP1 DUP4 ADD MSTORE PUSH32 0x25D8698DDEC9BA11DB006409042B24E0C42C5857553C5A322256964472131393 PUSH1 0x40 CALLER SWAP4 LOG3 PUSH1 0x1 PUSH1 0x2 SSTORE STOP JUMPDEST PUSH1 0x40 MLOAD PUSH3 0x461BCD PUSH1 0xE5 SHL DUP2 MSTORE PUSH1 0x4 DUP2 ADD DUP5 SWAP1 MSTORE PUSH1 0x28 PUSH1 0x24 DUP3 ADD MSTORE PUSH32 0x4D756C746953696754726561737572793A206E6174697665207472616E736665 PUSH1 0x44 DUP3 ADD MSTORE PUSH8 0x1C8819985A5B1959 PUSH1 0xC2 SHL PUSH1 0x64 DUP3 ADD MSTORE PUSH1 0x84 SWAP1 REVERT JUMPDEST SWAP2 SWAP1 PUSH1 0x40 MLOAD PUSH4 0x70A08231 PUSH1 0xE0 SHL DUP2 MSTORE ADDRESS PUSH1 0x4 DUP3 ADD MSTORE DUP6 DUP2 PUSH1 0x24 DUP2 DUP8 GAS STATICCALL SWAP1 DUP2 ISZERO PUSH2 0x1148 JUMPI PUSH1 0x0 SWAP2 PUSH2 0x111B JUMPI JUMPDEST POP PUSH1 0x4 DUP4 ADD SLOAD DUP1 SWAP2 LT PUSH2 0xBAB JUMPI PUSH1 0x4 SWAP4 PUSH2 0x1116 SWAP3 PUSH1 0x2 DUP6 ADD SLOAD AND SWAP1 PUSH2 0x4B7B JUMP JUMPDEST PUSH2 0x1039 JUMP JUMPDEST SWAP1 POP DUP6 DUP2 DUP2 RETURNDATASIZE DUP4 GT PUSH2 0x1141 JUMPI JUMPDEST PUSH2 0x1132 DUP2 DUP4 PUSH2 0x4310 JUMP JUMPDEST DUP2 ADD SUB SLT PUSH2 0x33B JUMPI MLOAD DUP7 PUSH2 0x10F6 JUMP JUMPDEST POP RETURNDATASIZE PUSH2 0x1128 JUMP JUMPDEST PUSH1 0x40 MLOAD RETURNDATASIZE PUSH1 0x0 DUP3 RETURNDATACOPY RETURNDATASIZE SWAP1 REVERT JUMPDEST PUSH1 0x4 DUP3 ADD SLOAD PUSH2 0x1162 SWAP2 PUSH2 0x4DDC JUMP JUMPDEST DUP4 PUSH2 0xFF3 JUMP JUMPDEST PUSH1 0x44 SWAP1 PUSH1 0x40 MLOAD SWAP1 PUSH4 0x126B74DD PUSH1 0xE1 SHL DUP3 MSTORE PUSH1 0x4 DUP3 ADD MSTORE TIMESTAMP PUSH1 0x24 DUP3 ADD MSTORE REVERT JUMPDEST PUSH1 0x10 DUP5 MSTORE PUSH1 0x40 PUSH1 0x0 KECCAK256 PUSH1 0x4 DUP2 ADD SLOAD PUSH1 0xFF AND SWAP3 POP DUP3 PUSH2 0x1204 JUMPI JUMPDEST DUP3 PUSH2 0x11F5 JUMPI JUMPDEST DUP3 PUSH2 0x11E6 JUMPI JUMPDEST DUP3 PUSH2 0x11B9 JUMPI JUMPDEST POP POP DUP4 PUSH2 0xF89 JUMP JUMPDEST SLOAD PUSH1 0x0 SWAP2 DUP3 MSTORE DUP2 DUP6 MSTORE PUSH1 0x40 DUP1 DUP4 KECCAK256 PUSH1 0x1 PUSH1 0x1 PUSH1 0xA0 SHL SUB SWAP1 SWAP3 AND DUP4 MSTORE SWAP1 DUP6 MSTORE SWAP1 KECCAK256 SLOAD PUSH1 0xFF AND SWAP1 POP DUP4 DUP1 PUSH2 0x11B1 JUMP JUMPDEST PUSH1 0x3 DUP2 ADD SLOAD TIMESTAMP GT ISZERO SWAP3 POP PUSH2 0x11AB JUMP JUMPDEST PUSH1 0x2 DUP2 ADD SLOAD TIMESTAMP LT ISZERO SWAP3 POP PUSH2 0x11A5 JUMP JUMPDEST PUSH1 0x1 DUP2 ADD SLOAD PUSH1 0x1 PUSH1 0x1 PUSH1 0xA0 SHL SUB AND CALLER EQ SWAP3 POP PUSH2 0x119F JUMP JUMPDEST CALLVALUE PUSH2 0x33B JUMPI PUSH1 0x40 CALLDATASIZE PUSH1 0x3 NOT ADD SLT PUSH2 0x33B JUMPI PUSH2 0x1234 PUSH2 0x41FD JUMP JUMPDEST PUSH1 0x4 CALLDATALOAD PUSH1 0x0 MSTORE PUSH1 0x9 PUSH1 0x20 MSTORE PUSH1 0x40 PUSH1 0x0 KECCAK256 SWAP1 PUSH1 0x1 DUP1 PUSH1 0xA0 SHL SUB AND PUSH1 0x0 MSTORE PUSH1 0x20 MSTORE PUSH1 0x20 PUSH1 0xFF PUSH1 0x40 PUSH1 0x0 KECCAK256 SLOAD AND PUSH1 0x40 MLOAD SWAP1 ISZERO ISZERO DUP2 MSTORE RETURN JUMPDEST CALLVALUE PUSH2 0x33B JUMPI PUSH1 0x0 CALLDATASIZE PUSH1 0x3 NOT ADD SLT PUSH2 0x33B JUMPI PUSH1 0x40 MLOAD DUP1 PUSH1 0x13 SLOAD DUP1 DUP4 MSTORE PUSH1 0x20 DUP1 SWAP4 ADD DUP1 SWAP2 PUSH1 0x13 PUSH1 0x0 MSTORE PUSH32 0x66DE8FFDA797E3DE9C05E8FC57B3BF0EC28A930D40B0D285D93C06501CF6A090 SWAP1 PUSH1 0x0 JUMPDEST DUP7 DUP3 DUP3 LT PUSH2 0x1313 JUMPI DUP7 DUP7 PUSH2 0x12CA DUP3 DUP9 SUB DUP4 PUSH2 0x4310 JUMP JUMPDEST PUSH1 0x40 MLOAD SWAP3 DUP4 SWAP3 DUP2 DUP5 ADD SWAP1 DUP3 DUP6 MSTORE MLOAD DUP1 SWAP2 MSTORE PUSH1 0x40 DUP5 ADD SWAP3 SWAP2 PUSH1 0x0 JUMPDEST DUP3 DUP2 LT PUSH2 0x12F3 JUMPI POP POP POP POP SUB SWAP1 RETURN JUMPDEST DUP4 MLOAD PUSH1 0x1 PUSH1 0x1 PUSH1 0xA0 SHL SUB AND DUP6 MSTORE DUP7 SWAP6 POP SWAP4 DUP2 ADD SWAP4 SWAP3 DUP2 ADD SWAP3 PUSH1 0x1 ADD PUSH2 0x12E4 JUMP JUMPDEST DUP4 SLOAD PUSH1 0x1 PUSH1 0x1 PUSH1 0xA0 SHL SUB AND DUP6 MSTORE SWAP1 SWAP4 ADD SWAP3 PUSH1 0x1 SWAP3 DUP4 ADD SWAP3 ADD PUSH2 0x12B4 JUMP JUMPDEST CALLVALUE PUSH2 0x33B JUMPI PUSH1 0x40 CALLDATASIZE PUSH1 0x3 NOT ADD SLT PUSH2 0x33B JUMPI PUSH2 0x1349 PUSH2 0x41FD JUMP JUMPDEST PUSH1 0x4 CALLDATALOAD PUSH1 0x0 MSTORE PUSH1 0x0 PUSH1 0x20 MSTORE PUSH1 0x40 PUSH1 0x0 KECCAK256 SWAP1 PUSH1 0x1 DUP1 PUSH1 0xA0 SHL SUB AND PUSH1 0x0 MSTORE PUSH1 0x20 MSTORE PUSH1 0x20 PUSH1 0xFF PUSH1 0x40 PUSH1 0x0 KECCAK256 SLOAD AND PUSH1 0x40 MLOAD SWAP1 ISZERO ISZERO DUP2 MSTORE RETURN JUMPDEST CALLVALUE PUSH2 0x33B JUMPI PUSH1 0xE0 CALLDATASIZE PUSH1 0x3 NOT ADD SLT PUSH2 0x33B JUMPI PUSH2 0x1396 PUSH2 0x41E7 JUMP JUMPDEST PUSH2 0x139E PUSH2 0x41FD JUMP JUMPDEST SWAP1 PUSH1 0x8 PUSH1 0x64 CALLDATALOAD LT ISZERO PUSH2 0x33B JUMPI PUSH1 0x84 CALLDATALOAD PUSH1 0x1 PUSH1 0x1 PUSH1 0x40 SHL SUB DUP2 GT PUSH2 0x33B JUMPI PUSH2 0x13C9 SWAP1 CALLDATASIZE SWAP1 PUSH1 0x4 ADD PUSH2 0x448A JUMP JUMPDEST SWAP2 PUSH1 0xA4 CALLDATALOAD ISZERO ISZERO PUSH1 0xA4 CALLDATALOAD SUB PUSH2 0x33B JUMPI PUSH2 0x13DF PUSH2 0x4AB3 JUMP JUMPDEST CALLER PUSH1 0x0 SWAP1 DUP2 MSTORE PUSH32 0x59F08E7D7BA1C82EDDC57AFAE67F80DF851BAF38A099607A779825038C3CE5B PUSH1 0x20 MSTORE PUSH1 0x40 SWAP1 KECCAK256 SLOAD PUSH1 0xFF AND PUSH1 0x0 DUP1 MLOAD PUSH1 0x20 PUSH2 0x5056 DUP4 CODECOPY DUP2 MLOAD SWAP2 MSTORE DUP2 ISZERO PUSH2 0x19EC JUMPI JUMPDEST POP ISZERO PUSH2 0x57D JUMPI PUSH1 0x1 PUSH1 0x1 PUSH1 0xA0 SHL SUB DUP2 AND ISZERO PUSH2 0x3B0 JUMPI PUSH1 0x44 CALLDATALOAD ISZERO PUSH2 0x19DA JUMPI PUSH1 0x1 PUSH1 0x1 PUSH1 0xA0 SHL SUB DUP5 AND ISZERO ISZERO DUP1 PUSH2 0x19B7 JUMPI JUMPDEST PUSH2 0x19A5 JUMPI PUSH1 0xA4 CALLDATALOAD ISZERO PUSH2 0x1956 JUMPI PUSH1 0x3 SWAP1 PUSH1 0x7 SLOAD SWAP3 PUSH2 0xE10 SWAP1 JUMPDEST PUSH1 0xC4 CALLDATALOAD PUSH2 0x18E4 JUMPI JUMPDEST PUSH1 0x16 SLOAD PUSH2 0x1482 DUP2 PUSH2 0x4A3D JUMP JUMPDEST PUSH1 0x16 SSTORE PUSH1 0x40 MLOAD CALLER PUSH1 0x60 SWAP1 DUP2 SHL PUSH12 0xFFFFFFFFFFFFFFFFFFFFFFFF NOT SWAP1 DUP2 AND PUSH1 0x20 DUP5 ADD SWAP1 DUP2 MSTORE SWAP2 DUP8 SWAP1 SHL AND PUSH1 0x34 DUP4 ADD MSTORE PUSH1 0x44 CALLDATALOAD PUSH1 0x48 DUP4 ADD MSTORE TIMESTAMP PUSH1 0x68 DUP4 ADD MSTORE PUSH1 0x88 DUP3 ADD SWAP3 SWAP1 SWAP3 MSTORE PUSH2 0x14DD DUP2 PUSH1 0xA8 DUP2 ADD JUMPDEST SUB PUSH1 0x1F NOT DUP2 ADD DUP4 MSTORE DUP3 PUSH2 0x4310 JUMP JUMPDEST MLOAD SWAP1 KECCAK256 SWAP6 PUSH2 0x14F4 PUSH2 0x14ED CALLER PUSH2 0x4D83 JUMP JUMPDEST SWAP4 TIMESTAMP PUSH2 0x493F JUMP JUMPDEST SWAP2 PUSH3 0x93A80 TIMESTAMP ADD TIMESTAMP GT PUSH2 0x18CE JUMPI PUSH2 0x154F SWAP2 PUSH1 0x40 MLOAD SWAP10 PUSH2 0x1512 DUP12 PUSH2 0x4286 JUMP JUMPDEST DUP10 DUP12 MSTORE CALLER PUSH1 0x20 DUP13 ADD MSTORE PUSH1 0x1 PUSH1 0x1 PUSH1 0xA0 SHL SUB DUP8 DUP2 AND PUSH1 0x40 DUP14 ADD MSTORE AND PUSH1 0x60 DUP12 ADD MSTORE PUSH1 0x44 CALLDATALOAD PUSH1 0x80 DUP12 ADD MSTORE PUSH2 0x1548 PUSH1 0x64 CALLDATALOAD PUSH1 0xA0 DUP13 ADD PUSH2 0x4A4C JUMP JUMPDEST CALLDATASIZE SWAP2 PUSH2 0x4A58 JUMP JUMPDEST PUSH1 0xC0 DUP9 ADD MSTORE PUSH2 0x1561 DUP5 PUSH1 0xE0 DUP10 ADD PUSH2 0x4A8F JUMP JUMPDEST PUSH1 0x0 PUSH2 0x100 DUP9 ADD MSTORE PUSH1 0x1 PUSH2 0x120 DUP9 ADD MSTORE PUSH1 0x0 PUSH2 0x140 DUP9 ADD MSTORE DUP5 PUSH2 0x160 DUP9 ADD MSTORE TIMESTAMP PUSH2 0x180 DUP9 ADD MSTORE PUSH2 0x1A0 DUP8 ADD MSTORE PUSH3 0x93A80 TIMESTAMP ADD PUSH2 0x1C0 DUP8 ADD MSTORE PUSH1 0xA4 CALLDATALOAD ISZERO ISZERO PUSH2 0x1E0 DUP8 ADD MSTORE PUSH1 0xC4 CALLDATALOAD PUSH2 0x200 DUP8 ADD MSTORE DUP5 PUSH1 0x0 MSTORE PUSH1 0x8 PUSH1 0x20 MSTORE PUSH1 0x40 PUSH1 0x0 KECCAK256 DUP7 MLOAD DUP2 SSTORE PUSH1 0x1 DUP2 ADD PUSH1 0x1 DUP1 PUSH1 0xA0 SHL SUB PUSH1 0x20 DUP10 ADD MLOAD AND SWAP1 PUSH1 0x1 PUSH1 0x1 PUSH1 0x60 SHL SUB PUSH1 0xA0 SHL SWAP2 DUP3 DUP3 SLOAD AND OR SWAP1 SSTORE PUSH1 0x2 DUP3 ADD PUSH1 0x1 DUP1 PUSH1 0xA0 SHL SUB PUSH1 0x40 DUP11 ADD MLOAD AND DUP3 DUP3 SLOAD AND OR SWAP1 SSTORE PUSH1 0x3 DUP3 ADD SWAP1 PUSH1 0x1 DUP1 PUSH1 0xA0 SHL SUB PUSH1 0x60 DUP11 ADD MLOAD AND SWAP1 DUP3 SLOAD AND OR SWAP1 SSTORE PUSH1 0x80 DUP8 ADD MLOAD PUSH1 0x4 DUP3 ADD SSTORE PUSH1 0xA0 DUP8 ADD MLOAD PUSH1 0x8 DUP2 LT ISZERO PUSH2 0x555 JUMPI PUSH2 0x163A SWAP1 PUSH1 0x5 DUP4 ADD PUSH2 0x4A9B JUMP JUMPDEST PUSH1 0xC0 DUP8 ADD MLOAD DUP1 MLOAD SWAP1 PUSH1 0x1 PUSH1 0x1 PUSH1 0x40 SHL SUB DUP3 GT PUSH2 0x73E JUMPI DUP2 SWAP1 PUSH2 0x165F PUSH1 0x6 DUP6 ADD SLOAD PUSH2 0x4231 JUMP JUMPDEST PUSH1 0x1F DUP2 GT PUSH2 0x187B JUMPI JUMPDEST POP PUSH1 0x20 SWAP1 PUSH1 0x1F DUP4 GT PUSH1 0x1 EQ PUSH2 0x1809 JUMPI PUSH1 0x0 SWAP3 PUSH2 0x17FE JUMPI JUMPDEST POP POP DUP2 PUSH1 0x1 SHL SWAP2 PUSH1 0x0 NOT SWAP1 PUSH1 0x3 SHL SHR NOT AND OR PUSH1 0x6 DUP3 ADD SSTORE JUMPDEST PUSH1 0xE0 DUP8 ADD MLOAD SWAP7 PUSH1 0x4 DUP9 LT ISZERO PUSH2 0x555 JUMPI PUSH1 0x7 DUP3 ADD SLOAD SWAP1 PUSH2 0x100 DUP2 ADD MLOAD SWAP1 PUSH1 0x6 DUP3 LT ISZERO PUSH2 0x555 JUMPI PUSH1 0x20 SWAP10 PUSH1 0xF SWAP4 PUSH1 0xFF PUSH2 0xFF00 PUSH2 0x200 SWAP6 PUSH1 0x8 SHL AND SWAP3 AND SWAP1 PUSH2 0xFFFF NOT AND OR OR PUSH1 0x7 DUP6 ADD SSTORE PUSH2 0x120 DUP2 ADD MLOAD PUSH1 0x8 DUP6 ADD SSTORE PUSH2 0x140 DUP2 ADD MLOAD PUSH1 0x9 DUP6 ADD SSTORE PUSH2 0x160 DUP2 ADD MLOAD PUSH1 0xA DUP6 ADD SSTORE PUSH2 0x180 DUP2 ADD MLOAD PUSH1 0xB DUP6 ADD SSTORE PUSH2 0x1A0 DUP2 ADD MLOAD PUSH1 0xC DUP6 ADD SSTORE PUSH2 0x1C0 DUP2 ADD MLOAD PUSH1 0xD DUP6 ADD SSTORE PUSH2 0x1740 PUSH2 0x1E0 DUP3 ADD MLOAD ISZERO ISZERO PUSH1 0xE DUP7 ADD SWAP1 PUSH1 0xFF DUP1 NOT DUP4 SLOAD AND SWAP2 ISZERO ISZERO AND OR SWAP1 SSTORE JUMP JUMPDEST ADD MLOAD SWAP2 ADD SSTORE PUSH1 0x0 DUP6 DUP2 MSTORE PUSH1 0x9 DUP8 MSTORE PUSH1 0x40 DUP1 DUP3 KECCAK256 PUSH1 0x1 PUSH1 0x1 PUSH1 0xA0 SHL SUB SWAP1 SWAP4 AND DUP3 MSTORE SWAP2 DUP8 MSTORE DUP2 SWAP1 KECCAK256 DUP1 SLOAD PUSH1 0xFF NOT AND PUSH1 0x1 OR SWAP1 SSTORE MLOAD PUSH1 0x44 CALLDATALOAD DUP2 MSTORE SWAP2 PUSH2 0x1785 SWAP1 DUP4 DUP8 ADD SWAP1 PUSH2 0x4470 JUMP JUMPDEST PUSH1 0xA4 CALLDATALOAD ISZERO ISZERO PUSH1 0x40 DUP4 ADD MSTORE PUSH1 0x1 PUSH1 0x1 PUSH1 0xA0 SHL SUB AND SWAP1 CALLER SWAP1 DUP5 SWAP1 PUSH32 0x8DE3FD8D2F50FF70DE13A476F375D0FF4187B241BE75D027AC46084AE2E0F0E1 SWAP1 PUSH1 0x60 SWAP1 LOG4 PUSH1 0x40 MLOAD SWAP1 PUSH1 0x1 DUP3 MSTORE DUP4 DUP3 ADD MSTORE DUP2 PUSH32 0x7989491BC7C1FEE580139021C9641F45F658BBFD784956C0A4EBBCC4D983A5AF PUSH1 0x40 CALLER SWAP4 LOG3 PUSH1 0x40 MLOAD SWAP1 DUP2 MSTORE RETURN JUMPDEST ADD MLOAD SWAP1 POP DUP10 DUP1 PUSH2 0x167F JUMP JUMPDEST SWAP3 POP PUSH1 0x6 DUP5 ADD PUSH1 0x0 MSTORE PUSH1 0x20 PUSH1 0x0 KECCAK256 SWAP1 PUSH1 0x0 SWAP4 JUMPDEST PUSH1 0x1F NOT DUP5 AND DUP6 LT PUSH2 0x1860 JUMPI PUSH1 0x1 SWAP5 POP DUP4 PUSH1 0x1F NOT DUP2 AND LT PUSH2 0x1847 JUMPI JUMPDEST POP POP POP DUP2 SHL ADD PUSH1 0x6 DUP3 ADD SSTORE PUSH2 0x1697 JUMP JUMPDEST ADD MLOAD PUSH1 0x0 NOT PUSH1 0xF8 DUP5 PUSH1 0x3 SHL AND SHR NOT AND SWAP1 SSTORE DUP10 DUP1 DUP1 PUSH2 0x1837 JUMP JUMPDEST DUP2 DUP2 ADD MLOAD DUP4 SSTORE PUSH1 0x20 SWAP5 DUP6 ADD SWAP5 PUSH1 0x1 SWAP1 SWAP4 ADD SWAP3 SWAP1 SWAP2 ADD SWAP1 PUSH2 0x181C JUMP JUMPDEST SWAP1 SWAP2 POP PUSH1 0x6 DUP5 ADD PUSH1 0x0 MSTORE PUSH1 0x20 PUSH1 0x0 KECCAK256 PUSH1 0x1F DUP5 ADD PUSH1 0x5 SHR DUP2 ADD PUSH1 0x20 DUP6 LT PUSH2 0x18C7 JUMPI JUMPDEST SWAP1 DUP5 SWAP4 SWAP3 SWAP2 JUMPDEST PUSH1 0x1F DUP4 ADD PUSH1 0x5 SHR DUP3 ADD DUP2 LT PUSH2 0x18B8 JUMPI POP POP PUSH2 0x1668 JUMP JUMPDEST PUSH1 0x0 DUP2 SSTORE DUP6 SWAP5 POP PUSH1 0x1 ADD PUSH2 0x18A2 JUMP JUMPDEST POP DUP1 PUSH2 0x189C JUMP JUMPDEST PUSH4 0x4E487B71 PUSH1 0xE0 SHL PUSH1 0x0 MSTORE PUSH1 0x11 PUSH1 0x4 MSTORE PUSH1 0x24 PUSH1 0x0 REVERT JUMPDEST PUSH1 0xC4 CALLDATALOAD PUSH1 0x0 MSTORE PUSH1 0xB PUSH1 0x20 MSTORE PUSH1 0x40 PUSH1 0x0 KECCAK256 PUSH1 0xFF PUSH1 0xB DUP3 ADD SLOAD AND ISZERO PUSH2 0x1944 JUMPI DUP1 PUSH1 0x4 PUSH1 0x3 PUSH2 0x1915 SWAP4 ADD SLOAD SWAP2 ADD SLOAD SWAP1 PUSH2 0x4A30 JUMP JUMPDEST DUP1 PUSH1 0x44 CALLDATALOAD GT PUSH2 0x1924 JUMPI POP PUSH2 0x1476 JUMP JUMPDEST PUSH1 0x40 MLOAD PUSH4 0x29A8B5F PUSH1 0xE4 SHL DUP2 MSTORE PUSH1 0x44 DUP1 CALLDATALOAD PUSH1 0x4 DUP4 ADD MSTORE PUSH1 0x24 DUP3 ADD SWAP3 SWAP1 SWAP3 MSTORE REVERT JUMPDEST PUSH1 0x40 MLOAD PUSH4 0x3371E5A1 PUSH1 0xE2 SHL DUP2 MSTORE PUSH1 0x4 SWAP1 REVERT JUMPDEST PUSH5 0x2540BE400 PUSH1 0x44 CALLDATALOAD GT PUSH2 0x1975 JUMPI PUSH1 0x0 SWAP1 PUSH1 0x4 SLOAD SWAP3 PUSH3 0x15180 SWAP1 PUSH2 0x146E JUMP JUMPDEST PUSH5 0x174876E800 PUSH1 0x44 CALLDATALOAD GT PUSH2 0x1994 JUMPI PUSH1 0x1 SWAP1 PUSH1 0x5 SLOAD SWAP3 PUSH3 0x15180 SWAP1 PUSH2 0x146E JUMP JUMPDEST PUSH1 0x2 SWAP1 PUSH1 0x6 SLOAD SWAP3 PUSH3 0x2A300 SWAP1 PUSH2 0x146E JUMP JUMPDEST PUSH1 0x40 MLOAD PUSH4 0x350B9441 PUSH1 0xE1 SHL DUP2 MSTORE PUSH1 0x4 SWAP1 REVERT JUMPDEST POP PUSH1 0x1 PUSH1 0x1 PUSH1 0xA0 SHL SUB DUP5 AND PUSH1 0x0 SWAP1 DUP2 MSTORE PUSH1 0x12 PUSH1 0x20 MSTORE PUSH1 0x40 SWAP1 KECCAK256 SLOAD PUSH1 0xFF AND ISZERO PUSH2 0x1456 JUMP JUMPDEST PUSH1 0x40 MLOAD PUSH4 0x1F2A2005 PUSH1 0xE0 SHL DUP2 MSTORE PUSH1 0x4 SWAP1 REVERT JUMPDEST PUSH1 0x10 PUSH1 0x20 MSTORE PUSH1 0x40 PUSH1 0x0 KECCAK256 PUSH1 0x4 DUP2 ADD SLOAD PUSH1 0xFF AND SWAP3 POP DUP3 PUSH2 0x1A6D JUMPI JUMPDEST DUP3 PUSH2 0x1A5E JUMPI JUMPDEST DUP3 PUSH2 0x1A4F JUMPI JUMPDEST DUP3 PUSH2 0x1A20 JUMPI JUMPDEST POP POP DUP6 PUSH2 0x1427 JUMP JUMPDEST SLOAD PUSH1 0x0 SWAP2 DUP3 MSTORE PUSH1 0x20 DUP3 DUP2 MSTORE PUSH1 0x40 DUP1 DUP5 KECCAK256 PUSH1 0x1 PUSH1 0x1 PUSH1 0xA0 SHL SUB SWAP1 SWAP4 AND DUP5 MSTORE SWAP2 SWAP1 MSTORE SWAP1 KECCAK256 SLOAD PUSH1 0xFF AND SWAP1 POP DUP6 DUP1 PUSH2 0x1A18 JUMP JUMPDEST PUSH1 0x3 DUP2 ADD SLOAD TIMESTAMP GT ISZERO SWAP3 POP PUSH2 0x1A12 JUMP JUMPDEST PUSH1 0x2 DUP2 ADD SLOAD TIMESTAMP LT ISZERO SWAP3 POP PUSH2 0x1A0C JUMP JUMPDEST PUSH1 0x1 DUP2 ADD SLOAD PUSH1 0x1 PUSH1 0x1 PUSH1 0xA0 SHL SUB AND CALLER EQ SWAP3 POP PUSH2 0x1A06 JUMP JUMPDEST CALLVALUE PUSH2 0x33B JUMPI PUSH1 0x60 CALLDATASIZE PUSH1 0x3 NOT ADD SLT PUSH2 0x33B JUMPI PUSH2 0x1A9D PUSH2 0x41E7 JUMP JUMPDEST PUSH2 0x1AA5 PUSH2 0x41FD JUMP JUMPDEST PUSH1 0x44 CALLDATALOAD PUSH2 0x1AB0 PUSH2 0x4AB3 JUMP JUMPDEST PUSH2 0x1AB8 PUSH2 0x4B27 JUMP JUMPDEST CALLER PUSH1 0x0 SWAP1 DUP2 MSTORE PUSH32 0xAC7F456F33C5EE351AE3DE46295D1DA134DC7A37F62366914B5B4D70F151CDB0 PUSH1 0x20 SWAP1 DUP2 MSTORE PUSH1 0x40 SWAP1 SWAP2 KECCAK256 SLOAD SWAP1 SWAP2 SWAP1 PUSH32 0x470F4F1717679395B6A9E0700797BFEEAA970F1643E72F5684D687C0BE10FE27 SWAP1 PUSH1 0xFF AND ISZERO PUSH2 0x1BCE JUMPI POP PUSH1 0x1 PUSH1 0x1 PUSH1 0xA0 SHL SUB DUP5 DUP2 AND PUSH1 0x0 DUP2 DUP2 MSTORE PUSH1 0x11 DUP6 MSTORE PUSH1 0x40 SWAP1 KECCAK256 PUSH1 0x4 DUP2 ADD SLOAD SWAP2 SWAP7 SWAP1 SWAP2 PUSH1 0xFF AND ISZERO PUSH2 0x1BBC JUMPI DUP4 ISZERO PUSH2 0x19DA JUMPI PUSH1 0x3 DUP3 ADD SWAP3 DUP4 SLOAD SWAP3 PUSH1 0x2 PUSH2 0x1B5B DUP8 DUP7 PUSH2 0x493F JUMP JUMPDEST SWAP2 ADD SLOAD LT PUSH2 0x1BAA JUMPI PUSH32 0xEE5163C7862B0ED6818C3B757F5005E43DF304D9CC5DB93B2DFEED63A4B26C87 SWAP7 PUSH2 0x1B9C SWAP5 PUSH2 0x1B94 DUP8 DUP1 SWAP7 PUSH2 0x493F JUMP JUMPDEST SWAP1 SSTORE AND PUSH2 0x4B7B JUMP JUMPDEST PUSH1 0x40 MLOAD SWAP1 DUP2 MSTORE LOG2 PUSH1 0x1 PUSH1 0x2 SSTORE STOP JUMPDEST PUSH1 0x40 MLOAD PUSH4 0x74A5D1F5 PUSH1 0xE0 SHL DUP2 MSTORE PUSH1 0x4 SWAP1 REVERT JUMPDEST PUSH1 0x40 MLOAD PUSH4 0x3BF83267 PUSH1 0xE2 SHL DUP2 MSTORE PUSH1 0x4 SWAP1 REVERT JUMPDEST DUP3 PUSH2 0x1BD8 CALLER PUSH2 0x4985 JUMP JUMPDEST SWAP2 PUSH1 0x40 MLOAD PUSH2 0x1BE5 DUP2 PUSH2 0x42F5 JUMP JUMPDEST PUSH1 0x42 DUP2 MSTORE DUP3 DUP2 ADD SWAP2 PUSH1 0x60 CALLDATASIZE DUP5 CALLDATACOPY DUP2 MLOAD ISZERO PUSH2 0x1D48 JUMPI PUSH1 0x30 DUP4 MSTORE8 DUP2 MLOAD PUSH1 0x1 SWAP1 DUP2 LT ISZERO PUSH2 0x1D48 JUMPI PUSH1 0x78 PUSH1 0x21 DUP5 ADD MSTORE8 PUSH1 0x41 SWAP1 JUMPDEST DUP1 DUP3 GT PUSH2 0x1D04 JUMPI POP POP PUSH2 0x1CC1 JUMPI PUSH2 0x1C8D SWAP4 PUSH2 0x1C9C SWAP3 PUSH1 0x48 SWAP3 PUSH1 0x40 MLOAD SWAP7 DUP8 SWAP4 PUSH23 0x20B1B1B2B9B9A1B7B73A3937B61D1030B1B1B7BAB73A1 PUSH1 0x4D SHL DUP9 DUP7 ADD MSTORE PUSH2 0x1C64 DUP2 MLOAD DUP1 SWAP3 DUP11 PUSH1 0x37 DUP10 ADD SWAP2 ADD PUSH2 0x43F1 JUMP JUMPDEST DUP5 ADD SWAP2 PUSH17 0x1034B99036B4B9B9B4B733903937B6329 PUSH1 0x7D SHL PUSH1 0x37 DUP5 ADD MSTORE MLOAD DUP1 SWAP4 DUP7 DUP5 ADD SWAP1 PUSH2 0x43F1 JUMP JUMPDEST ADD SUB PUSH1 0x28 DUP2 ADD DUP6 MSTORE ADD DUP4 PUSH2 0x4310 JUMP JUMPDEST PUSH2 0x1CBD PUSH1 0x40 MLOAD SWAP3 DUP4 SWAP3 PUSH3 0x461BCD PUSH1 0xE5 SHL DUP5 MSTORE PUSH1 0x4 DUP5 ADD MSTORE PUSH1 0x24 DUP4 ADD SWAP1 PUSH2 0x4414 JUMP JUMPDEST SUB SWAP1 REVERT JUMPDEST PUSH1 0x64 DUP4 PUSH1 0x40 MLOAD SWAP1 PUSH3 0x461BCD PUSH1 0xE5 SHL DUP3 MSTORE DUP1 PUSH1 0x4 DUP4 ADD MSTORE PUSH1 0x24 DUP3 ADD MSTORE PUSH32 0x537472696E67733A20686578206C656E67746820696E73756666696369656E74 PUSH1 0x44 DUP3 ADD MSTORE REVERT JUMPDEST SWAP1 SWAP2 PUSH1 0xF DUP2 AND SWAP1 PUSH1 0x10 DUP3 LT ISZERO PUSH2 0x1D48 JUMPI PUSH2 0x1D42 SWAP2 PUSH16 0x181899199A1A9B1B9C1CB0B131B232B3 PUSH1 0x81 SHL SWAP1 BYTE PUSH2 0x1D38 DUP6 DUP8 PUSH2 0x4967 JUMP JUMPDEST MSTORE8 PUSH1 0x4 SHR SWAP3 PUSH2 0x4978 JUMP JUMPDEST SWAP1 PUSH2 0x1C14 JUMP JUMPDEST PUSH4 0x4E487B71 PUSH1 0xE0 SHL PUSH1 0x0 MSTORE PUSH1 0x32 PUSH1 0x4 MSTORE PUSH1 0x24 PUSH1 0x0 REVERT JUMPDEST CALLVALUE PUSH2 0x33B JUMPI PUSH1 0x0 CALLDATASIZE PUSH1 0x3 NOT ADD SLT PUSH2 0x33B JUMPI PUSH1 0x20 PUSH1 0x40 MLOAD PUSH3 0x93A80 DUP2 MSTORE RETURN JUMPDEST CALLVALUE PUSH2 0x33B JUMPI PUSH1 0x0 CALLDATASIZE PUSH1 0x3 NOT ADD SLT PUSH2 0x33B JUMPI PUSH2 0x1D95 PUSH2 0x44B7 JUMP JUMPDEST PUSH2 0x1D9D PUSH2 0x4AB3 JUMP JUMPDEST PUSH1 0x1 PUSH1 0xFF NOT DUP2 SLOAD AND OR PUSH1 0x1 SSTORE PUSH32 0x62E78CEA01BEE320CD4E420270B5EA74000D11B0C9F74754EBDBFC544B05A258 PUSH1 0x20 PUSH1 0x40 MLOAD CALLER DUP2 MSTORE LOG1 STOP JUMPDEST CALLVALUE PUSH2 0x33B JUMPI PUSH1 0x20 CALLDATASIZE PUSH1 0x3 NOT ADD SLT PUSH2 0x33B JUMPI PUSH2 0x1DEE PUSH2 0x41E7 JUMP JUMPDEST PUSH2 0x1DF6 PUSH2 0x46A4 JUMP JUMPDEST PUSH1 0x1 PUSH1 0x1 PUSH1 0xA0 SHL SUB SWAP1 DUP2 AND PUSH1 0x0 DUP2 DUP2 MSTORE PUSH1 0x10 PUSH1 0x20 MSTORE PUSH1 0x40 SWAP1 KECCAK256 DUP1 SLOAD SWAP2 SWAP3 SWAP1 SWAP2 AND CALLER SUB PUSH2 0x1E4F JUMPI PUSH1 0x4 ADD DUP1 SLOAD PUSH1 0xFF NOT AND SWAP1 SSTORE CALLER PUSH32 0x6F0412FA95F7F48EC7DC7631B382833D8EAE9CF4082E5E859B94D091A4A846D4 PUSH1 0x0 DUP1 LOG3 STOP JUMPDEST PUSH1 0x40 MLOAD PUSH3 0x461BCD PUSH1 0xE5 SHL DUP2 MSTORE PUSH1 0x20 PUSH1 0x4 DUP3 ADD MSTORE PUSH1 0x1F PUSH1 0x24 DUP3 ADD MSTORE PUSH32 0x4D756C746953696754726561737572793A206E6F742064656C656761746F7200 PUSH1 0x44 DUP3 ADD MSTORE PUSH1 0x64 SWAP1 REVERT JUMPDEST CALLVALUE PUSH2 0x33B JUMPI PUSH1 0x20 DUP1 PUSH1 0x3 NOT CALLDATASIZE ADD SLT PUSH2 0x33B JUMPI PUSH1 0x4 CALLDATALOAD SWAP1 PUSH2 0x1EB2 PUSH2 0x4AB3 JUMP JUMPDEST PUSH1 0x0 DUP1 MLOAD PUSH1 0x20 PUSH2 0x5056 DUP4 CODECOPY DUP2 MLOAD SWAP2 MSTORE DUP1 PUSH1 0x0 MSTORE PUSH1 0x0 DUP3 MSTORE PUSH1 0x40 PUSH1 0x0 KECCAK256 CALLER PUSH1 0x0 MSTORE DUP3 MSTORE PUSH1 0xFF PUSH1 0x40 PUSH1 0x0 KECCAK256 SLOAD AND SWAP1 DUP2 ISZERO PUSH2 0x1F33 JUMPI JUMPDEST POP ISZERO PUSH2 0x57D JUMPI PUSH1 0xE SWAP1 DUP3 PUSH1 0x0 MSTORE MSTORE PUSH1 0xA PUSH1 0x40 PUSH1 0x0 KECCAK256 ADD DUP1 SLOAD PUSH1 0xFF DUP2 AND ISZERO PUSH2 0xC45 JUMPI PUSH1 0xFF NOT AND SWAP1 SSTORE PUSH32 0x3189878AD48F773013D321C8387D69CA153EAB3568D5AC33878EA9534A2CC7F0 PUSH1 0x0 DUP1 LOG2 STOP JUMPDEST PUSH1 0x10 DUP4 MSTORE PUSH1 0x40 PUSH1 0x0 KECCAK256 PUSH1 0x4 DUP2 ADD SLOAD PUSH1 0xFF AND SWAP3 POP DUP3 PUSH2 0x1FB1 JUMPI JUMPDEST DUP3 PUSH2 0x1FA2 JUMPI JUMPDEST DUP3 PUSH2 0x1F93 JUMPI JUMPDEST DUP3 PUSH2 0x1F66 JUMPI JUMPDEST POP POP DUP4 PUSH2 0x1EE5 JUMP JUMPDEST SLOAD PUSH1 0x0 SWAP2 DUP3 MSTORE DUP2 DUP5 MSTORE PUSH1 0x40 DUP1 DUP4 KECCAK256 PUSH1 0x1 PUSH1 0x1 PUSH1 0xA0 SHL SUB SWAP1 SWAP3 AND DUP4 MSTORE SWAP1 DUP5 MSTORE SWAP1 KECCAK256 SLOAD PUSH1 0xFF AND SWAP1 POP DUP4 DUP1 PUSH2 0x1F5E JUMP JUMPDEST PUSH1 0x3 DUP2 ADD SLOAD TIMESTAMP GT ISZERO SWAP3 POP PUSH2 0x1F58 JUMP JUMPDEST PUSH1 0x2 DUP2 ADD SLOAD TIMESTAMP LT ISZERO SWAP3 POP PUSH2 0x1F52 JUMP JUMPDEST PUSH1 0x1 DUP2 ADD SLOAD PUSH1 0x1 PUSH1 0x1 PUSH1 0xA0 SHL SUB AND CALLER EQ SWAP3 POP PUSH2 0x1F4C JUMP JUMPDEST CALLVALUE PUSH2 0x33B JUMPI PUSH1 0x0 CALLDATASIZE PUSH1 0x3 NOT ADD SLT PUSH2 0x33B JUMPI PUSH1 0x20 PUSH1 0x40 MLOAD PUSH32 0xA49807205CE4D355092EF5A8A18F56E8913CF4A201FBE287825B095693C21775 DUP2 MSTORE RETURN JUMPDEST PUSH2 0x4213 JUMP JUMPDEST CALLVALUE PUSH2 0x33B JUMPI PUSH2 0x100 CALLDATASIZE PUSH1 0x3 NOT ADD SLT PUSH2 0x33B JUMPI PUSH2 0x2022 PUSH2 0x41E7 JUMP JUMPDEST PUSH2 0x202A PUSH2 0x41FD JUMP JUMPDEST PUSH1 0x5 PUSH1 0x64 CALLDATALOAD LT ISZERO PUSH2 0x33B JUMPI PUSH1 0x8 PUSH1 0x84 CALLDATALOAD LT ISZERO PUSH2 0x33B JUMPI PUSH1 0xA4 CALLDATALOAD PUSH1 0x1 PUSH1 0x1 PUSH1 0x40 SHL SUB DUP2 GT PUSH2 0x33B JUMPI PUSH2 0x205F SWAP1 CALLDATASIZE SWAP1 PUSH1 0x4 ADD PUSH2 0x448A JUMP JUMPDEST SWAP2 SWAP1 PUSH2 0x2069 PUSH2 0x4AB3 JUMP JUMPDEST PUSH2 0x2071 PUSH2 0x44B7 JUMP JUMPDEST PUSH1 0x1 PUSH1 0x1 PUSH1 0xA0 SHL SUB DUP5 AND ISZERO PUSH2 0x3B0 JUMPI PUSH1 0x44 CALLDATALOAD ISZERO PUSH2 0x19DA JUMPI PUSH2 0x2147 PUSH2 0x2099 PUSH2 0xAC0 PUSH1 0x64 CALLDATALOAD PUSH2 0x4FF9 JUMP JUMPDEST SWAP2 PUSH1 0x18 SLOAD PUSH2 0x20A6 DUP2 PUSH2 0x4A3D JUMP JUMPDEST PUSH1 0x18 SSTORE PUSH1 0x40 MLOAD CALLER PUSH1 0x60 SWAP1 DUP2 SHL PUSH12 0xFFFFFFFFFFFFFFFFFFFFFFFF NOT SWAP1 DUP2 AND PUSH1 0x20 DUP5 ADD SWAP1 DUP2 MSTORE SWAP2 DUP11 SWAP1 SHL AND PUSH1 0x34 DUP4 ADD MSTORE PUSH1 0x44 CALLDATALOAD PUSH1 0x48 DUP4 ADD MSTORE TIMESTAMP PUSH1 0x68 DUP4 ADD MSTORE PUSH1 0x88 DUP3 ADD SWAP3 SWAP1 SWAP3 MSTORE PUSH2 0x20F7 DUP2 PUSH1 0xA8 DUP2 ADD PUSH2 0x14CF JUMP JUMPDEST MLOAD SWAP1 KECCAK256 SWAP5 PUSH1 0x40 MLOAD SWAP5 PUSH2 0x2108 DUP7 PUSH2 0x42D9 JUMP JUMPDEST DUP7 DUP7 MSTORE PUSH1 0x1 PUSH1 0x1 PUSH1 0xA0 SHL SUB DUP9 DUP2 AND PUSH1 0x20 DUP9 ADD MSTORE AND PUSH1 0x40 DUP7 ADD MSTORE PUSH1 0x44 CALLDATALOAD PUSH1 0x60 DUP7 ADD MSTORE PUSH2 0x2138 PUSH1 0x64 CALLDATALOAD PUSH1 0x80 DUP8 ADD PUSH2 0x4D77 JUMP JUMPDEST PUSH2 0x1548 PUSH1 0x84 CALLDATALOAD PUSH1 0xA0 DUP8 ADD PUSH2 0x4A4C JUMP JUMPDEST PUSH1 0xC0 DUP4 ADD MSTORE PUSH1 0xE0 DUP3 ADD MSTORE PUSH1 0x0 PUSH2 0x100 DUP3 ADD MSTORE PUSH1 0x0 PUSH2 0x120 DUP3 ADD MSTORE PUSH1 0xC4 CALLDATALOAD PUSH2 0x140 DUP3 ADD MSTORE PUSH1 0x1 PUSH2 0x160 DUP3 ADD MSTORE PUSH1 0xE4 CALLDATALOAD PUSH2 0x180 DUP3 ADD MSTORE DUP2 PUSH1 0x0 MSTORE PUSH1 0xE PUSH1 0x20 MSTORE PUSH1 0x40 PUSH1 0x0 KECCAK256 SWAP1 DUP1 MLOAD DUP3 SSTORE PUSH1 0x1 DUP3 ADD PUSH1 0x1 DUP1 PUSH1 0xA0 SHL SUB PUSH1 0x20 DUP4 ADD MLOAD AND SWAP1 PUSH1 0x1 PUSH1 0x1 PUSH1 0x60 SHL SUB PUSH1 0xA0 SHL SWAP2 DUP3 DUP3 SLOAD AND OR SWAP1 SSTORE PUSH1 0x2 DUP4 ADD SWAP1 PUSH1 0x1 DUP1 PUSH1 0xA0 SHL SUB PUSH1 0x40 DUP5 ADD MLOAD AND SWAP1 DUP3 SLOAD AND OR SWAP1 SSTORE PUSH1 0x60 DUP2 ADD MLOAD PUSH1 0x3 DUP4 ADD SSTORE PUSH1 0x4 DUP3 ADD PUSH1 0x80 DUP3 ADD MLOAD PUSH1 0x5 DUP2 LT ISZERO PUSH2 0x555 JUMPI DUP2 SLOAD PUSH1 0xA0 DUP5 ADD MLOAD PUSH1 0x8 DUP2 LT ISZERO PUSH2 0x555 JUMPI PUSH2 0xFF00 PUSH1 0xFF SWAP2 PUSH1 0x8 SHL AND SWAP3 AND SWAP1 PUSH2 0xFFFF NOT AND OR OR SWAP1 SSTORE PUSH1 0xC0 DUP2 ADD MLOAD DUP1 MLOAD SWAP1 PUSH1 0x1 PUSH1 0x1 PUSH1 0x40 SHL SUB DUP3 GT PUSH2 0x73E JUMPI PUSH2 0x2231 PUSH1 0x5 DUP6 ADD SLOAD PUSH2 0x4231 JUMP JUMPDEST PUSH1 0x1F DUP2 GT PUSH2 0x23DC JUMPI JUMPDEST POP PUSH1 0x20 SWAP1 PUSH1 0x1F DUP4 GT PUSH1 0x1 EQ PUSH2 0x2366 JUMPI SWAP2 DUP1 PUSH1 0xB SWAP5 SWAP3 PUSH2 0x180 SWAP5 PUSH1 0x0 SWAP3 PUSH2 0x235B JUMPI JUMPDEST POP POP DUP2 PUSH1 0x1 SHL SWAP2 PUSH1 0x0 NOT SWAP1 PUSH1 0x3 SHL SHR NOT AND OR PUSH1 0x5 DUP6 ADD SSTORE JUMPDEST PUSH1 0xE0 DUP2 ADD MLOAD PUSH1 0x6 DUP6 ADD SSTORE PUSH2 0x100 DUP2 ADD MLOAD PUSH1 0x7 DUP6 ADD SSTORE PUSH2 0x120 DUP2 ADD MLOAD PUSH1 0x8 DUP6 ADD SSTORE PUSH2 0x140 DUP2 ADD MLOAD PUSH1 0x9 DUP6 ADD SSTORE PUSH2 0x22BE PUSH2 0x160 DUP3 ADD MLOAD ISZERO ISZERO PUSH1 0xA DUP7 ADD SWAP1 PUSH1 0xFF DUP1 NOT DUP4 SLOAD AND SWAP2 ISZERO ISZERO AND OR SWAP1 SSTORE JUMP JUMPDEST ADD MLOAD SWAP2 ADD SSTORE PUSH1 0xF SLOAD SWAP2 PUSH1 0x1 PUSH1 0x40 SHL DUP4 LT ISZERO PUSH2 0x73E JUMPI PUSH1 0x1 DUP4 ADD DUP1 PUSH1 0xF SSTORE DUP4 LT ISZERO PUSH2 0x1D48 JUMPI DUP2 PUSH1 0x20 SWAP4 PUSH1 0xF PUSH1 0x0 MSTORE PUSH32 0x8D1108E10BCB7C27DDDFC02ED9D693A074039D026CF4EA4240B40F7D581AC802 ADD SSTORE DUP2 PUSH32 0x12AFD1B44F67B79282546F85902A71101F0F228575A23D6DB4D8A8203E06C251 PUSH1 0x40 DUP1 MLOAD SWAP4 PUSH1 0x44 CALLDATALOAD DUP6 MSTORE PUSH2 0x2348 DUP8 DUP7 ADD PUSH1 0x64 CALLDATALOAD PUSH2 0x43D7 JUMP JUMPDEST PUSH1 0x1 PUSH1 0x1 PUSH1 0xA0 SHL SUB AND SWAP4 LOG3 PUSH1 0x40 MLOAD SWAP1 DUP2 MSTORE RETURN JUMPDEST ADD MLOAD SWAP1 POP DUP9 DUP1 PUSH2 0x225B JUMP JUMPDEST SWAP1 PUSH1 0x5 DUP6 ADD PUSH1 0x0 MSTORE PUSH1 0x20 PUSH1 0x0 KECCAK256 SWAP2 PUSH1 0x0 JUMPDEST PUSH1 0x1F NOT DUP6 AND DUP2 LT PUSH2 0x23C4 JUMPI POP SWAP3 PUSH1 0xB SWAP5 SWAP3 PUSH1 0x1 SWAP3 PUSH2 0x180 SWAP6 DUP4 PUSH1 0x1F NOT DUP2 AND LT PUSH2 0x23AB JUMPI JUMPDEST POP POP POP DUP2 SHL ADD PUSH1 0x5 DUP6 ADD SSTORE PUSH2 0x2273 JUMP JUMPDEST ADD MLOAD PUSH1 0x0 NOT PUSH1 0xF8 DUP5 PUSH1 0x3 SHL AND SHR NOT AND SWAP1 SSTORE DUP9 DUP1 DUP1 PUSH2 0x239B JUMP JUMPDEST SWAP2 SWAP3 PUSH1 0x20 PUSH1 0x1 DUP2 SWAP3 DUP7 DUP6 ADD MLOAD DUP2 SSTORE ADD SWAP5 ADD SWAP3 ADD PUSH2 0x2377 JUMP JUMPDEST PUSH1 0x5 DUP6 ADD PUSH1 0x0 MSTORE PUSH1 0x20 PUSH1 0x0 KECCAK256 PUSH1 0x1F DUP5 ADD PUSH1 0x5 SHR DUP2 ADD PUSH1 0x20 DUP6 LT PUSH2 0x241C JUMPI JUMPDEST PUSH1 0x1F DUP4 ADD PUSH1 0x5 SHR DUP3 ADD DUP2 LT PUSH2 0x2410 JUMPI POP POP PUSH2 0x223A JUMP JUMPDEST PUSH1 0x0 DUP2 SSTORE PUSH1 0x1 ADD PUSH2 0x23FA JUMP JUMPDEST POP DUP1 PUSH2 0x23FA JUMP JUMPDEST CALLVALUE PUSH2 0x33B JUMPI PUSH1 0x60 CALLDATASIZE PUSH1 0x3 NOT ADD SLT PUSH2 0x33B JUMPI PUSH2 0x243C PUSH2 0x41E7 JUMP JUMPDEST PUSH1 0x1 PUSH1 0x1 PUSH1 0x40 SHL SUB SWAP1 PUSH1 0x24 CALLDATALOAD DUP3 DUP2 GT PUSH2 0x33B JUMPI PUSH2 0x245D SWAP1 CALLDATASIZE SWAP1 PUSH1 0x4 ADD PUSH2 0x448A JUMP JUMPDEST PUSH2 0x2465 PUSH2 0x44B7 JUMP JUMPDEST PUSH1 0x1 PUSH1 0x1 PUSH1 0xA0 SHL SUB DUP4 DUP2 AND ISZERO PUSH2 0x3B0 JUMPI PUSH1 0x40 MLOAD PUSH2 0x2481 DUP2 PUSH2 0x42BE JUMP JUMPDEST DUP2 DUP6 AND DUP2 MSTORE PUSH2 0x2491 CALLDATASIZE DUP5 DUP7 PUSH2 0x4A58 JUMP JUMPDEST SWAP1 PUSH1 0x20 DUP2 ADD SWAP2 DUP3 MSTORE PUSH1 0x44 CALLDATALOAD PUSH1 0x40 DUP3 ADD MSTORE PUSH1 0x0 PUSH1 0x60 DUP3 ADD MSTORE PUSH1 0x1 PUSH1 0x80 DUP3 ADD MSTORE DUP3 DUP7 AND PUSH1 0x0 MSTORE PUSH1 0x11 PUSH1 0x20 MSTORE PUSH1 0x40 PUSH1 0x0 KECCAK256 SWAP2 DUP4 DUP3 MLOAD AND PUSH1 0x1 PUSH1 0x1 PUSH1 0x60 SHL SUB PUSH1 0xA0 SHL DUP5 SLOAD AND OR DUP4 SSTORE MLOAD SWAP7 DUP8 MLOAD SWAP1 DUP2 GT PUSH2 0x73E JUMPI PUSH2 0x24ED PUSH1 0x1 DUP5 ADD SLOAD PUSH2 0x4231 JUMP JUMPDEST PUSH1 0x1F DUP2 GT PUSH2 0x264A JUMPI JUMPDEST POP PUSH1 0x20 PUSH1 0x1F DUP3 GT PUSH1 0x1 EQ PUSH2 0x25B0 JUMPI PUSH2 0x257E SWAP4 SWAP3 DUP3 PUSH1 0x4 SWAP4 PUSH1 0x80 SWAP4 PUSH32 0xF3A18EE78DA0E5E94A087D2FFD993BA83ADB643B6F2AB1B18E079D2BCC233DE3 SWAP12 SWAP13 PUSH1 0x0 SWAP3 PUSH2 0x25A5 JUMPI JUMPDEST POP POP DUP2 PUSH1 0x1 SHL SWAP2 PUSH1 0x0 NOT SWAP1 PUSH1 0x3 SHL SHR NOT AND OR PUSH1 0x1 DUP6 ADD SSTORE JUMPDEST PUSH1 0x40 DUP2 ADD MLOAD PUSH1 0x2 DUP6 ADD SSTORE PUSH1 0x60 DUP2 ADD MLOAD PUSH1 0x3 DUP6 ADD SSTORE ADD MLOAD ISZERO ISZERO SWAP2 ADD SWAP1 PUSH1 0xFF DUP1 NOT DUP4 SLOAD AND SWAP2 ISZERO ISZERO AND OR SWAP1 SSTORE JUMP JUMPDEST PUSH2 0x2595 PUSH1 0x40 MLOAD SWAP4 DUP5 SWAP4 PUSH1 0x40 DUP6 MSTORE PUSH1 0x40 DUP6 ADD SWAP2 PUSH2 0x4D56 JUMP JUMPDEST SWAP5 PUSH1 0x44 CALLDATALOAD PUSH1 0x20 DUP5 ADD MSTORE AND SWAP4 SUB SWAP1 LOG2 STOP JUMPDEST ADD MLOAD SWAP1 POP DUP13 DUP1 PUSH2 0x253B JUMP JUMPDEST PUSH1 0x1 DUP5 ADD PUSH1 0x0 MSTORE PUSH1 0x20 PUSH1 0x0 KECCAK256 SWAP9 PUSH1 0x0 JUMPDEST PUSH1 0x1F NOT DUP5 AND DUP2 LT PUSH2 0x2632 JUMPI POP SWAP3 PUSH1 0x1 DUP4 PUSH32 0xF3A18EE78DA0E5E94A087D2FFD993BA83ADB643B6F2AB1B18E079D2BCC233DE3 SWAP11 SWAP12 PUSH1 0x80 SWAP5 PUSH2 0x257E SWAP9 SWAP8 PUSH1 0x4 SWAP8 PUSH1 0x1F NOT DUP2 AND LT PUSH2 0x2619 JUMPI JUMPDEST POP POP POP DUP2 SHL ADD PUSH1 0x1 DUP6 ADD SSTORE PUSH2 0x2553 JUMP JUMPDEST ADD MLOAD PUSH1 0x0 NOT PUSH1 0xF8 DUP5 PUSH1 0x3 SHL AND SHR NOT AND SWAP1 SSTORE DUP13 DUP1 DUP1 PUSH2 0x2609 JUMP JUMPDEST DUP3 DUP3 ADD MLOAD DUP12 SSTORE PUSH1 0x1 SWAP1 SWAP11 ADD SWAP10 PUSH1 0x20 SWAP3 DUP4 ADD SWAP3 ADD PUSH2 0x25C0 JUMP JUMPDEST PUSH1 0x1 DUP5 ADD PUSH1 0x0 MSTORE PUSH1 0x20 PUSH1 0x0 KECCAK256 PUSH1 0x1F DUP4 ADD PUSH1 0x5 SHR DUP2 ADD PUSH1 0x20 DUP5 LT PUSH2 0x268A JUMPI JUMPDEST PUSH1 0x1F DUP4 ADD PUSH1 0x5 SHR DUP3 ADD DUP2 LT PUSH2 0x267E JUMPI POP POP PUSH2 0x24F6 JUMP JUMPDEST PUSH1 0x0 DUP2 SSTORE PUSH1 0x1 ADD PUSH2 0x2668 JUMP JUMPDEST POP DUP1 PUSH2 0x2668 JUMP JUMPDEST CALLVALUE PUSH2 0x33B JUMPI PUSH1 0x20 CALLDATASIZE PUSH1 0x3 NOT ADD SLT PUSH2 0x33B JUMPI PUSH1 0x1 PUSH1 0x1 PUSH1 0xA0 SHL SUB PUSH2 0x26B2 PUSH2 0x41E7 JUMP JUMPDEST AND PUSH1 0x0 MSTORE PUSH1 0x12 PUSH1 0x20 MSTORE PUSH1 0x20 PUSH1 0xFF PUSH1 0x40 PUSH1 0x0 KECCAK256 SLOAD AND PUSH1 0x40 MLOAD SWAP1 ISZERO ISZERO DUP2 MSTORE RETURN JUMPDEST CALLVALUE PUSH2 0x33B JUMPI PUSH1 0x0 CALLDATASIZE PUSH1 0x3 NOT ADD SLT PUSH2 0x33B JUMPI PUSH1 0x20 PUSH1 0x40 MLOAD PUSH2 0xE10 DUP2 MSTORE RETURN JUMPDEST CALLVALUE PUSH2 0x33B JUMPI PUSH1 0x40 CALLDATASIZE PUSH1 0x3 NOT ADD SLT PUSH2 0x33B JUMPI PUSH2 0x2706 PUSH2 0x41E7 JUMP JUMPDEST PUSH1 0x24 CALLDATALOAD SWAP1 PUSH2 0x2712 PUSH2 0x46A4 JUMP JUMPDEST PUSH2 0x271A PUSH2 0x4AB3 JUMP JUMPDEST PUSH1 0x1 PUSH1 0x1 PUSH1 0xA0 SHL SUB SWAP1 DUP2 AND SWAP2 DUP3 ISZERO PUSH2 0x3B0 JUMPI PUSH3 0x278D00 DUP2 GT PUSH2 0x27FD JUMPI PUSH2 0xAC0 PUSH2 0x27CF SWAP3 PUSH1 0x4 PUSH2 0x2749 DUP5 TIMESTAMP PUSH2 0x493F JUMP JUMPDEST SWAP2 PUSH1 0x40 MLOAD SWAP3 PUSH2 0x2757 DUP5 PUSH2 0x42BE JUMP JUMPDEST CALLER DUP5 MSTORE PUSH1 0x20 DUP5 ADD DUP9 DUP2 MSTORE PUSH1 0x40 DUP6 ADD SWAP1 TIMESTAMP DUP3 MSTORE PUSH1 0x60 DUP7 ADD SWAP3 DUP4 MSTORE PUSH1 0x80 DUP7 ADD SWAP4 PUSH1 0x1 DUP6 MSTORE DUP11 PUSH1 0x0 MSTORE PUSH1 0x10 PUSH1 0x20 MSTORE DUP1 PUSH1 0x40 PUSH1 0x0 KECCAK256 SWAP8 MLOAD AND SWAP1 PUSH1 0x1 PUSH1 0x1 PUSH1 0x60 SHL SUB PUSH1 0xA0 SHL SWAP2 DUP3 DUP10 SLOAD AND OR DUP9 SSTORE PUSH1 0x1 DUP9 ADD SWAP3 MLOAD AND SWAP1 DUP3 SLOAD AND OR SWAP1 SSTORE MLOAD PUSH1 0x2 DUP6 ADD SSTORE MLOAD PUSH1 0x3 DUP5 ADD SSTORE MLOAD ISZERO ISZERO SWAP2 ADD SWAP1 PUSH1 0xFF DUP1 NOT DUP4 SLOAD AND SWAP2 ISZERO ISZERO AND OR SWAP1 SSTORE JUMP JUMPDEST PUSH1 0x40 MLOAD SWAP1 DUP2 MSTORE PUSH32 0xF30D5F04D8CCB1D731EC50ADDDE98DA813E2697F466B244E045210FC90AF1296 PUSH1 0x20 CALLER SWAP3 LOG3 STOP JUMPDEST PUSH1 0x40 MLOAD PUSH4 0xBA5E59F PUSH1 0xE1 SHL DUP2 MSTORE PUSH1 0x4 SWAP1 REVERT JUMPDEST CALLVALUE PUSH2 0x33B JUMPI PUSH1 0xE0 CALLDATASIZE PUSH1 0x3 NOT ADD SLT PUSH2 0x33B JUMPI PUSH1 0x4 CALLDATALOAD PUSH1 0x1 PUSH1 0x1 PUSH1 0x40 SHL SUB DUP2 GT PUSH2 0x33B JUMPI PUSH2 0x283F SWAP1 CALLDATASIZE SWAP1 PUSH1 0x4 ADD PUSH2 0x448A JUMP JUMPDEST PUSH1 0x8 PUSH1 0x24 CALLDATALOAD LT ISZERO PUSH2 0x33B JUMPI CALLER PUSH1 0x0 SWAP1 DUP2 MSTORE PUSH32 0x2DED89875C0C8052B78A2778D56EE9D7CCDA9214239728C8125D6EDE47E4803E PUSH1 0x20 MSTORE PUSH1 0x40 SWAP1 KECCAK256 SLOAD PUSH32 0x4D2B5A50A63F235EC870B20B9B6638D88AA0501011616A5FBF0EEAFACCCA8535 SWAP1 PUSH1 0xFF AND ISZERO PUSH2 0x2C9E JUMPI POP PUSH2 0x28AC PUSH2 0x4AB3 JUMP JUMPDEST PUSH1 0x44 CALLDATALOAD ISZERO PUSH2 0x19DA JUMPI TIMESTAMP PUSH1 0xC4 CALLDATALOAD GT ISZERO PUSH2 0x2C5A JUMPI PUSH1 0x17 SLOAD PUSH2 0x28CA DUP2 PUSH2 0x4A3D JUMP JUMPDEST PUSH1 0x17 SSTORE PUSH1 0x40 MLOAD PUSH2 0x2907 PUSH1 0x61 DUP3 PUSH1 0x20 DUP2 ADD SWAP5 DUP7 DUP9 DUP8 CALLDATACOPY DUP7 DUP3 ADD SWAP1 PUSH1 0x24 CALLDATALOAD PUSH1 0xF8 SHL PUSH1 0x20 DUP4 ADD MSTORE TIMESTAMP PUSH1 0x21 DUP4 ADD MSTORE PUSH1 0x41 DUP3 ADD MSTORE SUB PUSH1 0x41 DUP2 ADD DUP5 MSTORE ADD DUP3 PUSH2 0x4310 JUMP JUMPDEST MLOAD SWAP1 KECCAK256 SWAP1 PUSH1 0x40 MLOAD PUSH2 0x2917 DUP2 PUSH2 0x42A2 JUMP JUMPDEST DUP3 DUP2 MSTORE PUSH2 0x2925 CALLDATASIZE DUP4 DUP7 PUSH2 0x4A58 JUMP JUMPDEST PUSH1 0x20 DUP3 ADD MSTORE PUSH2 0x2939 PUSH1 0x24 CALLDATALOAD PUSH1 0x40 DUP4 ADD PUSH2 0x4A4C JUMP JUMPDEST PUSH1 0x44 CALLDATALOAD PUSH1 0x60 DUP3 ADD MSTORE PUSH1 0x0 PUSH1 0x80 DUP3 ADD MSTORE PUSH1 0x64 CALLDATALOAD PUSH1 0xA0 DUP3 ADD MSTORE PUSH1 0x84 CALLDATALOAD PUSH1 0xC0 DUP3 ADD MSTORE PUSH1 0xA4 CALLDATALOAD PUSH1 0xE0 DUP3 ADD MSTORE TIMESTAMP PUSH2 0x100 DUP3 ADD MSTORE TIMESTAMP PUSH2 0x120 DUP3 ADD MSTORE PUSH1 0xC4 CALLDATALOAD PUSH2 0x140 DUP3 ADD MSTORE PUSH1 0x1 PUSH2 0x160 DUP3 ADD MSTORE DUP3 PUSH1 0x0 MSTORE PUSH1 0xB PUSH1 0x20 MSTORE PUSH1 0x40 PUSH1 0x0 KECCAK256 DUP2 MLOAD DUP2 SSTORE PUSH1 0x20 DUP3 ADD MLOAD DUP1 MLOAD SWAP1 PUSH1 0x1 PUSH1 0x1 PUSH1 0x40 SHL SUB DUP3 GT PUSH2 0x73E JUMPI DUP2 SWAP1 PUSH2 0x29B6 PUSH1 0x1 DUP6 ADD SLOAD PUSH2 0x4231 JUMP JUMPDEST PUSH1 0x1F DUP2 GT PUSH2 0x2C07 JUMPI JUMPDEST POP PUSH1 0x20 SWAP1 PUSH1 0x1F DUP4 GT PUSH1 0x1 EQ PUSH2 0x2B95 JUMPI PUSH1 0x0 SWAP3 PUSH2 0x2B8A JUMPI JUMPDEST POP POP DUP2 PUSH1 0x1 SHL SWAP2 PUSH1 0x0 NOT SWAP1 PUSH1 0x3 SHL SHR NOT AND OR PUSH1 0x1 DUP3 ADD SSTORE JUMPDEST PUSH1 0x40 DUP3 ADD MLOAD SWAP2 PUSH1 0x8 DUP4 LT ISZERO PUSH2 0x555 JUMPI PUSH2 0x160 PUSH1 0xB SWAP2 PUSH2 0x2A13 PUSH2 0x2A7D SWAP6 PUSH1 0x2 DUP7 ADD PUSH2 0x4A9B JUMP JUMPDEST PUSH1 0x60 DUP2 ADD MLOAD PUSH1 0x3 DUP6 ADD SSTORE PUSH1 0x80 DUP2 ADD MLOAD PUSH1 0x4 DUP6 ADD SSTORE PUSH1 0xA0 DUP2 ADD MLOAD PUSH1 0x5 DUP6 ADD SSTORE PUSH1 0xC0 DUP2 ADD MLOAD PUSH1 0x6 DUP6 ADD SSTORE PUSH1 0xE0 DUP2 ADD MLOAD PUSH1 0x7 DUP6 ADD SSTORE PUSH2 0x100 DUP2 ADD MLOAD PUSH1 0x8 DUP6 ADD SSTORE PUSH2 0x120 DUP2 ADD MLOAD PUSH1 0x9 DUP6 ADD SSTORE PUSH2 0x140 DUP2 ADD MLOAD PUSH1 0xA DUP6 ADD SSTORE ADD MLOAD ISZERO ISZERO SWAP2 ADD SWAP1 PUSH1 0xFF DUP1 NOT DUP4 SLOAD AND SWAP2 ISZERO ISZERO AND OR SWAP1 SSTORE JUMP JUMPDEST PUSH1 0x40 MLOAD PUSH2 0x2A89 DUP2 PUSH2 0x426B JUMP JUMPDEST PUSH1 0x0 DUP2 MSTORE PUSH1 0x5 PUSH1 0x20 DUP3 ADD PUSH1 0x0 DUP2 MSTORE PUSH1 0x40 DUP4 ADD PUSH1 0x0 DUP2 MSTORE PUSH1 0x60 DUP5 ADD TIMESTAMP DUP2 MSTORE PUSH1 0x80 DUP6 ADD SWAP2 TIMESTAMP DUP4 MSTORE PUSH1 0xA0 DUP7 ADD SWAP4 TIMESTAMP DUP6 MSTORE DUP9 PUSH1 0x0 MSTORE PUSH1 0xC PUSH1 0x20 MSTORE PUSH1 0x40 PUSH1 0x0 KECCAK256 SWAP7 MLOAD DUP8 SSTORE MLOAD PUSH1 0x1 DUP8 ADD SSTORE MLOAD PUSH1 0x2 DUP7 ADD SSTORE MLOAD PUSH1 0x3 DUP6 ADD SSTORE MLOAD PUSH1 0x4 DUP5 ADD SSTORE MLOAD SWAP2 ADD SSTORE PUSH1 0xD SLOAD PUSH1 0x1 PUSH1 0x40 SHL DUP2 LT ISZERO PUSH2 0x73E JUMPI PUSH1 0x1 DUP2 ADD DUP1 PUSH1 0xD SSTORE DUP2 LT ISZERO PUSH2 0x1D48 JUMPI PUSH1 0x20 SWAP4 DUP4 SWAP3 DUP4 PUSH32 0xE0BE4DA43238EAA02900D54E5B314940D0AECAFAD13D5011D0EC2FF9E75F1DC7 SWAP4 PUSH1 0xD PUSH1 0x0 MSTORE PUSH32 0xD7B6990105719101DABEB77144F2A3385C8033ACD3AF97E9423A695E81AD1EB5 ADD SSTORE PUSH2 0x2B69 PUSH1 0x40 MLOAD SWAP3 DUP4 SWAP3 PUSH1 0x60 DUP5 MSTORE PUSH1 0x60 DUP5 ADD SWAP2 PUSH2 0x4D56 JUMP JUMPDEST PUSH2 0x2B77 DUP8 DUP4 ADD PUSH1 0x24 CALLDATALOAD PUSH2 0x43E4 JUMP JUMPDEST PUSH1 0x44 CALLDATALOAD PUSH1 0x40 DUP4 ADD MSTORE SUB SWAP1 LOG2 PUSH1 0x40 MLOAD SWAP1 DUP2 MSTORE RETURN JUMPDEST ADD MLOAD SWAP1 POP DUP8 DUP1 PUSH2 0x29D6 JUMP JUMPDEST SWAP3 POP PUSH1 0x1 DUP5 ADD PUSH1 0x0 MSTORE PUSH1 0x20 PUSH1 0x0 KECCAK256 SWAP1 PUSH1 0x0 SWAP4 JUMPDEST PUSH1 0x1F NOT DUP5 AND DUP6 LT PUSH2 0x2BEC JUMPI PUSH1 0x1 SWAP5 POP DUP4 PUSH1 0x1F NOT DUP2 AND LT PUSH2 0x2BD3 JUMPI JUMPDEST POP POP POP DUP2 SHL ADD PUSH1 0x1 DUP3 ADD SSTORE PUSH2 0x29EE JUMP JUMPDEST ADD MLOAD PUSH1 0x0 NOT PUSH1 0xF8 DUP5 PUSH1 0x3 SHL AND SHR NOT AND SWAP1 SSTORE DUP8 DUP1 DUP1 PUSH2 0x2BC3 JUMP JUMPDEST DUP2 DUP2 ADD MLOAD DUP4 SSTORE PUSH1 0x20 SWAP5 DUP6 ADD SWAP5 PUSH1 0x1 SWAP1 SWAP4 ADD SWAP3 SWAP1 SWAP2 ADD SWAP1 PUSH2 0x2BA8 JUMP JUMPDEST SWAP1 SWAP2 POP PUSH1 0x1 DUP5 ADD PUSH1 0x0 MSTORE PUSH1 0x20 PUSH1 0x0 KECCAK256 PUSH1 0x1F DUP5 ADD PUSH1 0x5 SHR DUP2 ADD PUSH1 0x20 DUP6 LT PUSH2 0x2C53 JUMPI JUMPDEST SWAP1 DUP5 SWAP4 SWAP3 SWAP2 JUMPDEST PUSH1 0x1F DUP4 ADD PUSH1 0x5 SHR DUP3 ADD DUP2 LT PUSH2 0x2C44 JUMPI POP POP PUSH2 0x29BF JUMP JUMPDEST PUSH1 0x0 DUP2 SSTORE DUP6 SWAP5 POP PUSH1 0x1 ADD PUSH2 0x2C2E JUMP JUMPDEST POP DUP1 PUSH2 0x2C28 JUMP JUMPDEST PUSH1 0x64 PUSH1 0x40 MLOAD PUSH3 0x461BCD PUSH1 0xE5 SHL DUP2 MSTORE PUSH1 0x20 PUSH1 0x4 DUP3 ADD MSTORE PUSH1 0x20 PUSH1 0x24 DUP3 ADD MSTORE PUSH32 0x4D756C746953696754726561737572793A20696E76616C696420706572696F64 PUSH1 0x44 DUP3 ADD MSTORE REVERT JUMPDEST PUSH2 0x2CA7 CALLER PUSH2 0x4985 JUMP JUMPDEST PUSH1 0x40 MLOAD SWAP2 PUSH2 0x2CB4 DUP4 PUSH2 0x42F5 JUMP JUMPDEST PUSH1 0x42 DUP4 MSTORE PUSH1 0x20 DUP4 ADD SWAP1 PUSH1 0x60 CALLDATASIZE DUP4 CALLDATACOPY DUP4 MLOAD ISZERO PUSH2 0x1D48 JUMPI PUSH1 0x30 DUP3 MSTORE8 DUP4 MLOAD PUSH1 0x1 SWAP1 DUP2 LT ISZERO PUSH2 0x1D48 JUMPI PUSH1 0x78 PUSH1 0x21 DUP7 ADD MSTORE8 PUSH1 0x41 SWAP1 JUMPDEST DUP1 DUP3 GT PUSH2 0x2DAC JUMPI POP POP PUSH2 0x2D68 JUMPI PUSH1 0x48 PUSH2 0x2D39 SWAP3 PUSH2 0x2D48 SWAP3 PUSH2 0x1CBD SWAP6 PUSH1 0x40 MLOAD SWAP6 DUP7 SWAP4 PUSH23 0x20B1B1B2B9B9A1B7B73A3937B61D1030B1B1B7BAB73A1 PUSH1 0x4D SHL PUSH1 0x20 DUP7 ADD MSTORE PUSH2 0x1C64 DUP2 MLOAD DUP1 SWAP3 PUSH1 0x20 PUSH1 0x37 DUP10 ADD SWAP2 ADD PUSH2 0x43F1 JUMP JUMPDEST ADD SUB PUSH1 0x28 DUP2 ADD DUP5 MSTORE ADD DUP3 PUSH2 0x4310 JUMP JUMPDEST PUSH1 0x40 MLOAD PUSH3 0x461BCD PUSH1 0xE5 SHL DUP2 MSTORE PUSH1 0x20 PUSH1 0x4 DUP3 ADD MSTORE SWAP2 DUP3 SWAP2 PUSH1 0x24 DUP4 ADD SWAP1 PUSH2 0x4414 JUMP JUMPDEST PUSH1 0x64 PUSH1 0x40 MLOAD PUSH3 0x461BCD PUSH1 0xE5 SHL DUP2 MSTORE PUSH1 0x20 PUSH1 0x4 DUP3 ADD MSTORE PUSH1 0x20 PUSH1 0x24 DUP3 ADD MSTORE PUSH32 0x537472696E67733A20686578206C656E67746820696E73756666696369656E74 PUSH1 0x44 DUP3 ADD MSTORE REVERT JUMPDEST SWAP1 SWAP2 PUSH1 0xF DUP2 AND SWAP1 PUSH1 0x10 DUP3 LT ISZERO PUSH2 0x1D48 JUMPI PUSH2 0x2DE0 SWAP2 PUSH16 0x181899199A1A9B1B9C1CB0B131B232B3 PUSH1 0x81 SHL SWAP1 BYTE PUSH2 0x1D38 DUP6 DUP10 PUSH2 0x4967 JUMP JUMPDEST SWAP1 PUSH2 0x2CE4 JUMP JUMPDEST CALLVALUE PUSH2 0x33B JUMPI PUSH1 0x0 CALLDATASIZE PUSH1 0x3 NOT ADD SLT PUSH2 0x33B JUMPI PUSH1 0x20 PUSH1 0xFF PUSH1 0x1 SLOAD AND PUSH1 0x40 MLOAD SWAP1 ISZERO ISZERO DUP2 MSTORE RETURN JUMPDEST CALLVALUE PUSH2 0x33B JUMPI PUSH1 0x20 CALLDATASIZE PUSH1 0x3 NOT ADD SLT PUSH2 0x33B JUMPI PUSH1 0x0 PUSH2 0x160 PUSH1 0x40 MLOAD PUSH2 0x2E2B DUP2 PUSH2 0x42A2 JUMP JUMPDEST DUP3 DUP2 MSTORE PUSH1 0x60 PUSH1 0x20 DUP3 ADD MSTORE DUP3 PUSH1 0x40 DUP3 ADD MSTORE DUP3 PUSH1 0x60 DUP3 ADD MSTORE DUP3 PUSH1 0x80 DUP3 ADD MSTORE DUP3 PUSH1 0xA0 DUP3 ADD MSTORE DUP3 PUSH1 0xC0 DUP3 ADD MSTORE DUP3 PUSH1 0xE0 DUP3 ADD MSTORE DUP3 PUSH2 0x100 DUP3 ADD MSTORE DUP3 PUSH2 0x120 DUP3 ADD MSTORE DUP3 PUSH2 0x140 DUP3 ADD MSTORE ADD MSTORE PUSH1 0x4 CALLDATALOAD PUSH1 0x0 MSTORE PUSH1 0xB PUSH1 0x20 MSTORE PUSH1 0x40 PUSH1 0x0 KECCAK256 PUSH1 0xFF PUSH1 0xB PUSH1 0x40 MLOAD SWAP3 PUSH2 0x2E91 DUP5 PUSH2 0x42A2 JUMP JUMPDEST DUP1 SLOAD DUP5 MSTORE PUSH2 0x2EA1 PUSH1 0x1 DUP3 ADD PUSH2 0x4331 JUMP JUMPDEST PUSH1 0x20 DUP6 ADD MSTORE PUSH2 0x2EB9 DUP4 PUSH1 0x2 DUP4 ADD SLOAD AND PUSH1 0x40 DUP7 ADD PUSH2 0x4A4C JUMP JUMPDEST PUSH1 0x3 DUP2 ADD SLOAD PUSH1 0x60 DUP6 ADD MSTORE PUSH1 0x4 DUP2 ADD SLOAD PUSH1 0x80 DUP6 ADD MSTORE PUSH1 0x5 DUP2 ADD SLOAD PUSH1 0xA0 DUP6 ADD MSTORE PUSH1 0x6 DUP2 ADD SLOAD PUSH1 0xC0 DUP6 ADD MSTORE PUSH1 0x7 DUP2 ADD SLOAD PUSH1 0xE0 DUP6 ADD MSTORE PUSH1 0x8 DUP2 ADD SLOAD PUSH2 0x100 DUP6 ADD MSTORE PUSH1 0x9 DUP2 ADD SLOAD PUSH2 0x120 DUP6 ADD MSTORE PUSH1 0xA DUP2 ADD SLOAD PUSH2 0x140 DUP6 ADD MSTORE ADD SLOAD AND ISZERO ISZERO PUSH2 0x160 DUP3 ADD MSTORE PUSH1 0x40 MLOAD DUP1 SWAP2 PUSH1 0x20 DUP3 MSTORE DUP1 MLOAD PUSH1 0x20 DUP4 ADD MSTORE PUSH2 0x160 PUSH2 0x2F45 PUSH1 0x20 DUP4 ADD MLOAD PUSH2 0x180 PUSH1 0x40 DUP7 ADD MSTORE PUSH2 0x1A0 DUP6 ADD SWAP1 PUSH2 0x4414 JUMP JUMPDEST SWAP2 PUSH2 0x2F58 PUSH1 0x40 DUP3 ADD MLOAD PUSH1 0x60 DUP7 ADD SWAP1 PUSH2 0x43E4 JUMP JUMPDEST PUSH1 0x60 DUP2 ADD MLOAD PUSH1 0x80 DUP6 ADD MSTORE PUSH1 0x80 DUP2 ADD MLOAD PUSH1 0xA0 DUP6 ADD MSTORE PUSH1 0xA0 DUP2 ADD MLOAD PUSH1 0xC0 DUP6 ADD MSTORE PUSH1 0xC0 DUP2 ADD MLOAD PUSH1 0xE0 DUP6 ADD MSTORE PUSH1 0xE0 DUP2 ADD MLOAD PUSH2 0x100 DUP6 ADD MSTORE PUSH2 0x100 DUP2 ADD MLOAD PUSH2 0x120 DUP6 ADD MSTORE PUSH2 0x120 DUP2 ADD MLOAD PUSH2 0x140 DUP6 ADD MSTORE PUSH2 0x140 DUP2 ADD MLOAD DUP3 DUP6 ADD MSTORE ADD MLOAD ISZERO ISZERO PUSH2 0x180 DUP4 ADD MSTORE SUB SWAP1 RETURN JUMPDEST CALLVALUE PUSH2 0x33B JUMPI PUSH1 0x20 CALLDATASIZE PUSH1 0x3 NOT ADD SLT PUSH2 0x33B JUMPI PUSH1 0x4 CALLDATALOAD PUSH1 0xF SLOAD DUP2 LT ISZERO PUSH2 0x33B JUMPI PUSH1 0x20 SWAP1 PUSH1 0xF PUSH1 0x0 MSTORE PUSH32 0x8D1108E10BCB7C27DDDFC02ED9D693A074039D026CF4EA4240B40F7D581AC802 ADD SLOAD PUSH1 0x40 MLOAD SWAP1 DUP2 MSTORE RETURN JUMPDEST CALLVALUE PUSH2 0x33B JUMPI PUSH1 0x20 CALLDATASIZE PUSH1 0x3 NOT ADD SLT PUSH2 0x33B JUMPI PUSH1 0x0 PUSH2 0x200 PUSH1 0x40 MLOAD PUSH2 0x302E DUP2 PUSH2 0x4286 JUMP JUMPDEST DUP3 DUP2 MSTORE DUP3 PUSH1 0x20 DUP3 ADD MSTORE DUP3 PUSH1 0x40 DUP3 ADD MSTORE DUP3 PUSH1 0x60 DUP3 ADD MSTORE DUP3 PUSH1 0x80 DUP3 ADD MSTORE DUP3 PUSH1 0xA0 DUP3 ADD MSTORE PUSH1 0x60 PUSH1 0xC0 DUP3 ADD MSTORE DUP3 PUSH1 0xE0 DUP3 ADD MSTORE DUP3 PUSH2 0x100 DUP3 ADD MSTORE DUP3 PUSH2 0x120 DUP3 ADD MSTORE DUP3 PUSH2 0x140 DUP3 ADD MSTORE DUP3 PUSH2 0x160 DUP3 ADD MSTORE DUP3 PUSH2 0x180 DUP3 ADD MSTORE DUP3 PUSH2 0x1A0 DUP3 ADD MSTORE DUP3 PUSH2 0x1C0 DUP3 ADD MSTORE DUP3 PUSH2 0x1E0 DUP3 ADD MSTORE ADD MSTORE PUSH1 0x4 CALLDATALOAD PUSH1 0x0 MSTORE PUSH1 0x8 PUSH1 0x20 MSTORE PUSH1 0x40 PUSH1 0x0 KECCAK256 PUSH1 0x40 MLOAD SWAP1 PUSH2 0x30B3 DUP3 PUSH2 0x4286 JUMP JUMPDEST DUP1 SLOAD DUP3 MSTORE PUSH1 0x1 DUP2 ADD SLOAD PUSH1 0x1 PUSH1 0x1 PUSH1 0xA0 SHL SUB SWAP1 DUP2 AND PUSH1 0x20 DUP5 ADD MSTORE PUSH1 0x2 DUP3 ADD SLOAD DUP2 AND PUSH1 0x40 DUP5 ADD MSTORE PUSH1 0x3 DUP3 ADD SLOAD AND PUSH1 0x60 DUP4 ADD MSTORE PUSH1 0x4 DUP2 ADD SLOAD PUSH1 0x80 DUP4 ADD MSTORE PUSH1 0x5 DUP2 ADD SLOAD PUSH2 0x3102 SWAP1 PUSH1 0xFF AND PUSH1 0xA0 DUP5 ADD PUSH2 0x4A4C JUMP JUMPDEST PUSH2 0x310E PUSH1 0x6 DUP3 ADD PUSH2 0x4331 JUMP JUMPDEST PUSH1 0xC0 DUP4 ADD MSTORE PUSH1 0x7 DUP2 ADD SLOAD SWAP1 PUSH2 0x3129 PUSH1 0xFF DUP4 AND PUSH1 0xE0 DUP6 ADD PUSH2 0x4A8F JUMP JUMPDEST PUSH1 0x6 PUSH1 0xFF DUP4 PUSH1 0x8 SHR AND LT ISZERO PUSH2 0x555 JUMPI PUSH1 0xFF PUSH1 0xF SWAP3 PUSH1 0x8 SHR AND PUSH2 0x100 DUP5 ADD MSTORE PUSH1 0x8 DUP2 ADD SLOAD PUSH2 0x120 DUP5 ADD MSTORE PUSH1 0x9 DUP2 ADD SLOAD PUSH2 0x140 DUP5 ADD MSTORE PUSH1 0xA DUP2 ADD SLOAD PUSH2 0x160 DUP5 ADD MSTORE PUSH1 0xB DUP2 ADD SLOAD PUSH2 0x180 DUP5 ADD MSTORE PUSH1 0xC DUP2 ADD SLOAD PUSH2 0x1A0 DUP5 ADD MSTORE PUSH1 0xD DUP2 ADD SLOAD PUSH2 0x1C0 DUP5 ADD MSTORE PUSH1 0xFF PUSH1 0xE DUP3 ADD SLOAD AND ISZERO ISZERO PUSH2 0x1E0 DUP5 ADD MSTORE ADD SLOAD PUSH2 0x200 DUP3 ADD MSTORE PUSH1 0x40 MLOAD DUP1 SWAP2 PUSH1 0x20 DUP3 MSTORE DUP1 MLOAD PUSH1 0x20 DUP4 ADD MSTORE PUSH1 0x1 DUP1 PUSH1 0xA0 SHL SUB PUSH1 0x20 DUP3 ADD MLOAD AND PUSH1 0x40 DUP4 ADD MSTORE PUSH1 0x1 DUP1 PUSH1 0xA0 SHL SUB PUSH1 0x40 DUP3 ADD MLOAD AND PUSH1 0x60 DUP4 ADD MSTORE PUSH1 0x1 DUP1 PUSH1 0xA0 SHL SUB PUSH1 0x60 DUP3 ADD MLOAD AND PUSH1 0x80 DUP4 ADD MSTORE PUSH1 0x80 DUP2 ADD MLOAD PUSH1 0xA0 DUP4 ADD MSTORE PUSH2 0x3203 PUSH1 0xA0 DUP3 ADD MLOAD PUSH1 0xC0 DUP5 ADD SWAP1 PUSH2 0x43E4 JUMP JUMPDEST PUSH2 0x200 PUSH2 0x3221 PUSH1 0xC0 DUP4 ADD MLOAD PUSH2 0x220 PUSH1 0xE0 DUP7 ADD MSTORE PUSH2 0x240 DUP6 ADD SWAP1 PUSH2 0x4414 JUMP JUMPDEST SWAP2 PUSH2 0x3235 PUSH1 0xE0 DUP3 ADD MLOAD PUSH2 0x100 DUP7 ADD SWAP1 PUSH2 0x4470 JUMP JUMPDEST PUSH2 0x3249 PUSH2 0x100 DUP3 ADD MLOAD PUSH2 0x120 DUP7 ADD SWAP1 PUSH2 0x447D JUMP JUMPDEST PUSH2 0x120 DUP2 ADD MLOAD PUSH2 0x140 DUP6 ADD MSTORE PUSH2 0x140 DUP2 ADD MLOAD PUSH2 0x160 DUP6 ADD MSTORE PUSH2 0x160 DUP2 ADD MLOAD PUSH2 0x180 DUP6 ADD MSTORE PUSH2 0x180 DUP2 ADD MLOAD PUSH2 0x1A0 DUP6 ADD MSTORE PUSH2 0x1A0 DUP2 ADD MLOAD PUSH2 0x1C0 DUP6 ADD MSTORE PUSH2 0x1C0 DUP2 ADD MLOAD PUSH2 0x1E0 DUP6 ADD MSTORE PUSH2 0x1E0 DUP2 ADD MLOAD ISZERO ISZERO DUP3 DUP6 ADD MSTORE ADD MLOAD PUSH2 0x220 DUP4 ADD MSTORE SUB SWAP1 RETURN JUMPDEST CALLVALUE PUSH2 0x33B JUMPI PUSH1 0x0 CALLDATASIZE PUSH1 0x3 NOT ADD SLT PUSH2 0x33B JUMPI PUSH1 0x20 PUSH1 0x18 SLOAD PUSH1 0x40 MLOAD SWAP1 DUP2 MSTORE RETURN JUMPDEST CALLVALUE PUSH2 0x33B JUMPI PUSH1 0x0 CALLDATASIZE PUSH1 0x3 NOT ADD SLT PUSH2 0x33B JUMPI PUSH2 0x32E0 PUSH2 0x44B7 JUMP JUMPDEST PUSH1 0x1 SLOAD PUSH1 0xFF DUP2 AND ISZERO PUSH2 0x331F JUMPI PUSH1 0xFF NOT AND PUSH1 0x1 SSTORE PUSH32 0x5DB9EE0A495BF2E6FF9C91A7834C1BA4FDD244A5E8AA4E537BD38AEAE4B073AA PUSH1 0x20 PUSH1 0x40 MLOAD CALLER DUP2 MSTORE LOG1 STOP JUMPDEST PUSH1 0x40 MLOAD PUSH3 0x461BCD PUSH1 0xE5 SHL DUP2 MSTORE PUSH1 0x20 PUSH1 0x4 DUP3 ADD MSTORE PUSH1 0x14 PUSH1 0x24 DUP3 ADD MSTORE PUSH20 0x14185D5CD8589B194E881B9BDD081C185D5CD959 PUSH1 0x62 SHL PUSH1 0x44 DUP3 ADD MSTORE PUSH1 0x64 SWAP1 REVERT JUMPDEST CALLVALUE PUSH2 0x33B JUMPI PUSH1 0x0 CALLDATASIZE PUSH1 0x3 NOT ADD SLT PUSH2 0x33B JUMPI PUSH1 0x20 PUSH1 0x40 MLOAD PUSH3 0x15180 DUP2 MSTORE RETURN JUMPDEST CALLVALUE PUSH2 0x33B JUMPI PUSH1 0x20 DUP1 PUSH1 0x3 NOT CALLDATASIZE ADD SLT PUSH2 0x33B JUMPI PUSH1 0x4 CALLDATALOAD SWAP1 PUSH2 0x3397 PUSH2 0x4AB3 JUMP JUMPDEST DUP2 PUSH1 0x0 MSTORE PUSH1 0x8 DUP2 MSTORE PUSH1 0x40 PUSH1 0x0 KECCAK256 PUSH1 0xB DUP2 ADD SLOAD ISZERO PUSH2 0x56B JUMPI PUSH1 0x1 DUP2 ADD SLOAD PUSH1 0x1 PUSH1 0x1 PUSH1 0xA0 SHL SUB AND CALLER EQ DUP1 ISZERO PUSH2 0x34CD JUMPI JUMPDEST ISZERO PUSH2 0x3475 JUMPI PUSH1 0x7 ADD SWAP1 DUP2 SLOAD SWAP1 PUSH1 0xFF DUP3 PUSH1 0x8 SHR AND PUSH1 0x6 DUP2 LT ISZERO PUSH2 0x555 JUMPI DUP1 ISZERO SWAP1 DUP2 ISZERO PUSH2 0x346A JUMPI JUMPDEST POP ISZERO PUSH2 0x3426 JUMPI POP PUSH2 0xFF00 NOT AND PUSH2 0x400 OR SWAP1 SSTORE CALLER SWAP1 PUSH32 0x56A54393C88FB71D37DC109609D88E0B586637DEB2452AEF5F41D3EB32ADEDFC PUSH1 0x0 DUP1 LOG3 STOP JUMPDEST PUSH1 0x64 SWAP1 PUSH1 0x40 MLOAD SWAP1 PUSH3 0x461BCD PUSH1 0xE5 SHL DUP3 MSTORE PUSH1 0x4 DUP3 ADD MSTORE PUSH1 0x1F PUSH1 0x24 DUP3 ADD MSTORE PUSH32 0x4D756C746953696754726561737572793A2063616E6E6F742063616E63656C00 PUSH1 0x44 DUP3 ADD MSTORE REVERT JUMPDEST PUSH1 0x1 SWAP2 POP EQ DUP6 PUSH2 0x33EB JUMP JUMPDEST PUSH1 0x40 MLOAD PUSH3 0x461BCD PUSH1 0xE5 SHL DUP2 MSTORE PUSH1 0x4 DUP2 ADD DUP4 SWAP1 MSTORE PUSH1 0x2A PUSH1 0x24 DUP3 ADD MSTORE PUSH32 0x4D756C746953696754726561737572793A206E6F7420617574686F72697A6564 PUSH1 0x44 DUP3 ADD MSTORE PUSH10 0x81D1BC818D85B98D95B PUSH1 0xB2 SHL PUSH1 0x64 DUP3 ADD MSTORE PUSH1 0x84 SWAP1 REVERT JUMPDEST POP PUSH32 0xA49807205CE4D355092EF5A8A18F56E8913CF4A201FBE287825B095693C21775 PUSH1 0x0 MSTORE PUSH1 0x0 DUP3 MSTORE PUSH1 0x40 PUSH1 0x0 KECCAK256 CALLER PUSH1 0x0 MSTORE DUP3 MSTORE PUSH1 0xFF PUSH1 0x40 PUSH1 0x0 KECCAK256 SLOAD AND PUSH2 0x33C5 JUMP JUMPDEST CALLVALUE PUSH2 0x33B JUMPI PUSH1 0x40 CALLDATASIZE PUSH1 0x3 NOT ADD SLT PUSH2 0x33B JUMPI PUSH2 0x3528 PUSH2 0x41FD JUMP JUMPDEST CALLER PUSH1 0x1 PUSH1 0x1 PUSH1 0xA0 SHL SUB DUP3 AND SUB PUSH2 0x3544 JUMPI PUSH2 0x1B SWAP1 PUSH1 0x4 CALLDATALOAD PUSH2 0x48CB JUMP JUMPDEST PUSH1 0x40 MLOAD PUSH3 0x461BCD PUSH1 0xE5 SHL DUP2 MSTORE PUSH1 0x20 PUSH1 0x4 DUP3 ADD MSTORE PUSH1 0x2F PUSH1 0x24 DUP3 ADD MSTORE PUSH32 0x416363657373436F6E74726F6C3A2063616E206F6E6C792072656E6F756E6365 PUSH1 0x44 DUP3 ADD MSTORE PUSH15 0x103937B632B9903337B91039B2B633 PUSH1 0x89 SHL PUSH1 0x64 DUP3 ADD MSTORE PUSH1 0x84 SWAP1 REVERT JUMPDEST CALLVALUE PUSH2 0x33B JUMPI PUSH1 0x20 CALLDATASIZE PUSH1 0x3 NOT ADD SLT PUSH2 0x33B JUMPI PUSH1 0x4 CALLDATALOAD PUSH1 0x0 MSTORE PUSH1 0xB PUSH1 0x20 MSTORE PUSH1 0x40 PUSH1 0x0 KECCAK256 DUP1 SLOAD PUSH2 0x35D0 PUSH1 0x1 DUP4 ADD PUSH2 0x4331 JUMP JUMPDEST SWAP2 PUSH1 0xFF PUSH1 0x2 DUP3 ADD SLOAD AND SWAP1 PUSH1 0x3 DUP2 ADD SLOAD SWAP1 PUSH1 0x4 DUP2 ADD SLOAD PUSH1 0x5 DUP3 ADD SLOAD PUSH1 0x6 DUP4 ADD SLOAD PUSH1 0x7 DUP5 ADD SLOAD SWAP1 PUSH1 0x8 DUP6 ADD SLOAD SWAP3 PUSH1 0x9 DUP7 ADD SLOAD SWAP5 PUSH1 0xFF PUSH1 0xB PUSH1 0xA DUP10 ADD SLOAD SWAP9 ADD SLOAD AND SWAP8 PUSH2 0x363A PUSH2 0x362F PUSH1 0x40 MLOAD SWAP14 DUP15 SWAP14 DUP15 MSTORE DUP14 PUSH2 0x180 SWAP1 DUP2 PUSH1 0x20 DUP3 ADD MSTORE ADD SWAP1 PUSH2 0x4414 JUMP JUMPDEST SWAP11 PUSH1 0x40 DUP14 ADD SWAP1 PUSH2 0x43E4 JUMP JUMPDEST PUSH1 0x60 DUP12 ADD MSTORE PUSH1 0x80 DUP11 ADD MSTORE PUSH1 0xA0 DUP10 ADD MSTORE PUSH1 0xC0 DUP9 ADD MSTORE PUSH1 0xE0 DUP8 ADD MSTORE PUSH2 0x100 DUP7 ADD MSTORE PUSH2 0x120 DUP6 ADD MSTORE PUSH2 0x140 DUP5 ADD MSTORE ISZERO ISZERO PUSH2 0x160 DUP4 ADD MSTORE SUB SWAP1 RETURN JUMPDEST CALLVALUE PUSH2 0x33B JUMPI PUSH1 0x20 CALLDATASIZE PUSH1 0x3 NOT ADD SLT PUSH2 0x33B JUMPI PUSH1 0x4 CALLDATALOAD PUSH1 0x0 MSTORE PUSH1 0x8 PUSH1 0x20 MSTORE PUSH1 0x40 PUSH1 0x0 KECCAK256 DUP1 SLOAD PUSH1 0x1 PUSH1 0xA0 SHL PUSH1 0x1 SWAP1 SUB SWAP2 DUP3 PUSH1 0x1 DUP3 ADD SLOAD AND DUP4 PUSH1 0x2 DUP4 ADD SLOAD AND SWAP4 PUSH1 0x3 DUP4 ADD SLOAD AND SWAP4 PUSH1 0x4 DUP4 ADD SLOAD SWAP5 PUSH1 0x5 DUP5 ADD SLOAD PUSH1 0xFF AND SWAP6 PUSH1 0x6 DUP6 ADD PUSH2 0x36D0 SWAP1 PUSH2 0x4331 JUMP JUMPDEST SWAP7 PUSH1 0x7 DUP7 ADD SLOAD SWAP8 PUSH1 0x8 DUP8 ADD SLOAD SWAP1 PUSH1 0x9 DUP9 ADD SLOAD SWAP3 PUSH1 0xA DUP10 ADD SLOAD SWAP5 PUSH1 0xB DUP11 ADD SLOAD SWAP7 PUSH1 0xC DUP12 ADD SLOAD SWAP9 PUSH1 0xD DUP13 ADD SLOAD SWAP11 PUSH1 0xE DUP14 ADD SLOAD PUSH1 0xFF AND SWAP13 PUSH1 0xF ADD SLOAD SWAP14 PUSH1 0x40 MLOAD DUP1 PUSH1 0x80 MSTORE MSTORE PUSH1 0x80 MLOAD PUSH1 0x20 ADD MSTORE PUSH1 0x80 MLOAD PUSH1 0x40 ADD MSTORE PUSH1 0x80 MLOAD PUSH1 0x60 ADD MSTORE PUSH1 0x80 MLOAD PUSH1 0x80 ADD MSTORE PUSH1 0x80 MLOAD PUSH1 0xA0 ADD PUSH2 0x373C SWAP2 PUSH2 0x43E4 JUMP JUMPDEST PUSH2 0x220 DUP1 PUSH1 0x80 MLOAD PUSH1 0xC0 ADD MSTORE PUSH1 0x80 MLOAD ADD PUSH2 0x3754 SWAP2 PUSH2 0x4414 JUMP JUMPDEST SWAP9 PUSH1 0x80 MLOAD PUSH1 0xE0 ADD PUSH1 0xFF DUP3 AND SWAP1 PUSH2 0x3769 SWAP2 PUSH2 0x4470 JUMP JUMPDEST PUSH1 0x80 MLOAD PUSH2 0x100 ADD SWAP1 PUSH1 0x8 SHR PUSH1 0xFF AND SWAP1 PUSH2 0x3781 SWAP2 PUSH2 0x447D JUMP JUMPDEST PUSH1 0x80 MLOAD PUSH2 0x120 ADD MSTORE PUSH1 0x80 MLOAD PUSH2 0x140 ADD MSTORE PUSH1 0x80 MLOAD PUSH2 0x160 ADD MSTORE PUSH1 0x80 MLOAD PUSH2 0x180 ADD MSTORE PUSH1 0x80 MLOAD PUSH2 0x1A0 ADD MSTORE PUSH1 0x80 MLOAD PUSH2 0x1C0 ADD MSTORE ISZERO ISZERO PUSH1 0x80 MLOAD PUSH2 0x1E0 ADD MSTORE PUSH1 0x80 MLOAD PUSH2 0x200 ADD MSTORE PUSH1 0x80 MLOAD DUP1 SWAP2 SUB SWAP1 RETURN JUMPDEST CALLVALUE PUSH2 0x33B JUMPI PUSH1 0x40 CALLDATASIZE PUSH1 0x3 NOT ADD SLT PUSH2 0x33B JUMPI PUSH1 0x4 CALLDATALOAD PUSH2 0x37E8 PUSH2 0x41FD JUMP JUMPDEST DUP2 PUSH1 0x0 MSTORE PUSH1 0x0 PUSH1 0x20 MSTORE PUSH2 0x3802 PUSH1 0x1 PUSH1 0x40 PUSH1 0x0 KECCAK256 ADD SLOAD PUSH2 0x47CC JUMP JUMPDEST DUP2 PUSH1 0x0 MSTORE PUSH1 0x0 PUSH1 0x20 MSTORE PUSH1 0x40 PUSH1 0x0 KECCAK256 SWAP1 PUSH1 0x1 DUP1 PUSH1 0xA0 SHL SUB AND SWAP1 DUP2 PUSH1 0x0 MSTORE PUSH1 0x20 MSTORE PUSH1 0xFF PUSH1 0x40 PUSH1 0x0 KECCAK256 SLOAD AND ISZERO PUSH2 0x3831 JUMPI STOP JUMPDEST DUP2 PUSH1 0x0 MSTORE PUSH1 0x0 PUSH1 0x20 MSTORE PUSH1 0x40 PUSH1 0x0 KECCAK256 DUP2 PUSH1 0x0 MSTORE PUSH1 0x20 MSTORE PUSH1 0x40 PUSH1 0x0 KECCAK256 PUSH1 0x1 PUSH1 0xFF NOT DUP3 SLOAD AND OR SWAP1 SSTORE CALLER SWAP2 PUSH32 0x2F8788117E7EFF1D82E926EC794901D17C78024A50270940304540A733656F0D PUSH1 0x0 DUP1 LOG4 STOP JUMPDEST CALLVALUE PUSH2 0x33B JUMPI PUSH1 0x20 CALLDATASIZE PUSH1 0x3 NOT ADD SLT PUSH2 0x33B JUMPI PUSH1 0x1 PUSH1 0x1 PUSH1 0xA0 SHL SUB DUP1 PUSH2 0x38A1 PUSH2 0x41E7 JUMP JUMPDEST AND PUSH1 0x0 MSTORE PUSH1 0x11 PUSH1 0x20 MSTORE PUSH1 0x40 PUSH1 0x0 KECCAK256 SWAP1 DUP2 SLOAD AND PUSH2 0x38BF PUSH1 0x1 DUP4 ADD PUSH2 0x4331 JUMP JUMPDEST SWAP2 PUSH1 0x2 DUP2 ADD SLOAD SWAP1 PUSH1 0xFF PUSH1 0x4 PUSH1 0x3 DUP4 ADD SLOAD SWAP3 ADD SLOAD AND SWAP1 PUSH2 0x38F0 PUSH1 0x40 MLOAD SWAP6 DUP7 SWAP6 DUP7 MSTORE PUSH1 0xA0 PUSH1 0x20 DUP8 ADD MSTORE PUSH1 0xA0 DUP7 ADD SWAP1 PUSH2 0x4414 JUMP JUMPDEST SWAP3 PUSH1 0x40 DUP6 ADD MSTORE PUSH1 0x60 DUP5 ADD MSTORE ISZERO ISZERO PUSH1 0x80 DUP4 ADD MSTORE SUB SWAP1 RETURN JUMPDEST CALLVALUE PUSH2 0x33B JUMPI PUSH1 0x20 CALLDATASIZE PUSH1 0x3 NOT ADD SLT PUSH2 0x33B JUMPI PUSH1 0x4 CALLDATALOAD PUSH1 0x0 MSTORE PUSH1 0x0 PUSH1 0x20 MSTORE PUSH1 0x20 PUSH1 0x1 PUSH1 0x40 PUSH1 0x0 KECCAK256 ADD SLOAD PUSH1 0x40 MLOAD SWAP1 DUP2 MSTORE RETURN JUMPDEST CALLVALUE PUSH2 0x33B JUMPI PUSH1 0x20 CALLDATASIZE PUSH1 0x3 NOT ADD SLT PUSH2 0x33B JUMPI PUSH1 0x1 PUSH1 0x1 PUSH1 0xA0 SHL SUB PUSH2 0x3956 PUSH2 0x41E7 JUMP JUMPDEST AND PUSH1 0x0 MSTORE PUSH1 0x15 PUSH1 0x20 MSTORE PUSH1 0x20 PUSH1 0x40 PUSH1 0x0 KECCAK256 SLOAD PUSH1 0x40 MLOAD SWAP1 DUP2 MSTORE RETURN JUMPDEST CALLVALUE PUSH2 0x33B JUMPI PUSH1 0x20 CALLDATASIZE PUSH1 0x3 NOT ADD SLT PUSH2 0x33B JUMPI PUSH1 0x4 CALLDATALOAD PUSH1 0x13 SLOAD DUP2 LT ISZERO PUSH2 0x33B JUMPI PUSH2 0x3998 PUSH1 0x20 SWAP2 PUSH2 0x4439 JUMP JUMPDEST SWAP1 SLOAD PUSH1 0x40 MLOAD PUSH1 0x3 SWAP3 SWAP1 SWAP3 SHL SHR PUSH1 0x1 PUSH1 0x1 PUSH1 0xA0 SHL SUB AND DUP2 MSTORE RETURN JUMPDEST CALLVALUE PUSH2 0x33B JUMPI PUSH1 0x0 CALLDATASIZE PUSH1 0x3 NOT ADD SLT PUSH2 0x33B JUMPI PUSH1 0x20 PUSH1 0x17 SLOAD PUSH1 0x40 MLOAD SWAP1 DUP2 MSTORE RETURN JUMPDEST CALLVALUE PUSH2 0x33B JUMPI PUSH1 0x0 CALLDATASIZE PUSH1 0x3 NOT ADD SLT PUSH2 0x33B JUMPI PUSH1 0x20 PUSH1 0x40 MLOAD PUSH32 0x4D2B5A50A63F235EC870B20B9B6638D88AA0501011616A5FBF0EEAFACCCA8535 DUP2 MSTORE RETURN JUMPDEST CALLVALUE PUSH2 0x33B JUMPI PUSH1 0x20 CALLDATASIZE PUSH1 0x3 NOT ADD SLT PUSH2 0x33B JUMPI PUSH1 0x4 CALLDATALOAD PUSH1 0x0 MSTORE PUSH1 0xC PUSH1 0x20 MSTORE PUSH1 0xC0 PUSH1 0x40 PUSH1 0x0 KECCAK256 DUP1 SLOAD SWAP1 PUSH1 0x1 DUP2 ADD SLOAD SWAP1 PUSH1 0x2 DUP2 ADD SLOAD PUSH1 0x3 DUP3 ADD SLOAD SWAP1 PUSH1 0x5 PUSH1 0x4 DUP5 ADD SLOAD SWAP4 ADD SLOAD SWAP4 PUSH1 0x40 MLOAD SWAP6 DUP7 MSTORE PUSH1 0x20 DUP7 ADD MSTORE PUSH1 0x40 DUP6 ADD MSTORE PUSH1 0x60 DUP5 ADD MSTORE PUSH1 0x80 DUP4 ADD MSTORE PUSH1 0xA0 DUP3 ADD MSTORE RETURN JUMPDEST CALLVALUE PUSH2 0x33B JUMPI PUSH1 0x20 CALLDATASIZE PUSH1 0x3 NOT ADD SLT PUSH2 0x33B JUMPI PUSH1 0x0 PUSH1 0xA0 PUSH1 0x40 MLOAD PUSH2 0x3A8E DUP2 PUSH2 0x426B JUMP JUMPDEST DUP3 DUP2 MSTORE DUP3 PUSH1 0x20 DUP3 ADD MSTORE DUP3 PUSH1 0x40 DUP3 ADD MSTORE DUP3 PUSH1 0x60 DUP3 ADD MSTORE DUP3 PUSH1 0x80 DUP3 ADD MSTORE ADD MSTORE PUSH1 0x4 CALLDATALOAD PUSH1 0x0 MSTORE PUSH1 0xC PUSH1 0x20 MSTORE PUSH1 0xC0 PUSH1 0x40 PUSH1 0x0 KECCAK256 PUSH1 0x40 MLOAD PUSH2 0x3AC9 DUP2 PUSH2 0x426B JUMP JUMPDEST DUP2 SLOAD SWAP2 DUP3 DUP3 MSTORE PUSH1 0x1 DUP2 ADD SLOAD PUSH1 0x20 DUP4 ADD SWAP1 DUP2 MSTORE PUSH1 0x2 DUP3 ADD SLOAD PUSH1 0x40 DUP5 ADD SWAP1 DUP2 MSTORE PUSH1 0x3 DUP4 ADD SLOAD SWAP2 PUSH1 0x60 DUP6 ADD SWAP3 DUP4 MSTORE PUSH1 0xA0 PUSH1 0x5 PUSH1 0x4 DUP7 ADD SLOAD SWAP6 PUSH1 0x80 DUP9 ADD SWAP7 DUP8 MSTORE ADD SLOAD SWAP6 ADD SWAP5 DUP6 MSTORE PUSH1 0x40 MLOAD SWAP6 DUP7 MSTORE MLOAD PUSH1 0x20 DUP7 ADD MSTORE MLOAD PUSH1 0x40 DUP6 ADD MSTORE MLOAD PUSH1 0x60 DUP5 ADD MSTORE MLOAD PUSH1 0x80 DUP4 ADD MSTORE MLOAD PUSH1 0xA0 DUP3 ADD MSTORE RETURN JUMPDEST CALLVALUE PUSH2 0x33B JUMPI PUSH1 0x20 CALLDATASIZE PUSH1 0x3 NOT ADD SLT PUSH2 0x33B JUMPI PUSH1 0x4 CALLDATALOAD PUSH1 0x0 MSTORE PUSH1 0xE PUSH1 0x20 MSTORE PUSH1 0x20 PUSH1 0x40 PUSH1 0x0 KECCAK256 DUP1 SLOAD SWAP1 PUSH1 0x1 DUP1 PUSH1 0xA0 SHL SUB DUP1 PUSH1 0x1 DUP4 ADD SLOAD AND SWAP1 PUSH1 0x2 DUP4 ADD SLOAD AND SWAP2 PUSH1 0x3 DUP2 ADD SLOAD SWAP3 PUSH1 0x4 DUP3 ADD SLOAD SWAP4 PUSH2 0x3B86 PUSH1 0x5 DUP5 ADD PUSH2 0x4331 JUMP JUMPDEST SWAP5 PUSH2 0x3BFA PUSH1 0x6 DUP6 ADD SLOAD SWAP7 PUSH2 0x3BE9 PUSH1 0x7 DUP8 ADD SLOAD SWAP4 PUSH1 0x8 DUP9 ADD SLOAD SWAP6 PUSH1 0x9 DUP10 ADD SLOAD SWAP8 PUSH1 0xB PUSH1 0xFF PUSH1 0xA DUP13 ADD SLOAD AND SWAP11 ADD SLOAD SWAP11 PUSH1 0x40 MLOAD SWAP15 DUP16 SWAP15 DUP16 SWAP1 DUP2 MSTORE ADD MSTORE PUSH1 0x40 DUP14 ADD MSTORE PUSH1 0x60 DUP13 ADD MSTORE PUSH2 0x3BD9 PUSH1 0x80 DUP13 ADD PUSH1 0xFF DUP4 AND PUSH2 0x43D7 JUMP JUMPDEST PUSH1 0xFF PUSH1 0xA0 DUP13 ADD SWAP2 PUSH1 0x8 SHR AND PUSH2 0x43E4 JUMP JUMPDEST PUSH2 0x1A0 DUP1 PUSH1 0xC0 DUP12 ADD MSTORE DUP10 ADD SWAP1 PUSH2 0x4414 JUMP JUMPDEST SWAP6 PUSH1 0xE0 DUP9 ADD MSTORE PUSH2 0x100 DUP8 ADD MSTORE PUSH2 0x120 DUP7 ADD MSTORE PUSH2 0x140 DUP6 ADD MSTORE ISZERO ISZERO PUSH2 0x160 DUP5 ADD MSTORE PUSH2 0x180 DUP4 ADD MSTORE SUB SWAP1 RETURN JUMPDEST CALLVALUE PUSH2 0x33B JUMPI PUSH1 0x20 DUP1 PUSH1 0x3 NOT CALLDATASIZE ADD SLT PUSH2 0x33B JUMPI PUSH1 0x4 CALLDATALOAD PUSH2 0x3C41 PUSH2 0x4AB3 JUMP JUMPDEST PUSH1 0x0 DUP1 MLOAD PUSH1 0x20 PUSH2 0x5056 DUP4 CODECOPY DUP2 MLOAD SWAP2 MSTORE DUP1 PUSH1 0x0 MSTORE PUSH1 0x0 DUP4 MSTORE PUSH1 0x40 PUSH1 0x0 KECCAK256 CALLER PUSH1 0x0 MSTORE DUP4 MSTORE PUSH1 0xFF PUSH1 0x40 PUSH1 0x0 KECCAK256 SLOAD AND SWAP1 DUP2 ISZERO PUSH2 0x3D8D JUMPI JUMPDEST POP ISZERO PUSH2 0x57D JUMPI DUP1 PUSH1 0x0 MSTORE PUSH1 0x8 DUP3 MSTORE PUSH1 0x40 PUSH1 0x0 KECCAK256 SWAP2 PUSH1 0xB DUP4 ADD SLOAD ISZERO PUSH2 0x56B JUMPI PUSH1 0x7 DUP4 ADD SWAP1 PUSH1 0xFF DUP3 SLOAD PUSH1 0x8 SHR AND PUSH1 0x6 DUP2 LT ISZERO PUSH2 0x555 JUMPI DUP1 PUSH2 0x535 JUMPI POP PUSH2 0x3CB7 CALLER PUSH2 0x4D83 JUMP JUMPDEST PUSH1 0x0 DUP5 DUP2 MSTORE PUSH1 0xA DUP4 MSTORE PUSH1 0x40 DUP1 DUP3 KECCAK256 PUSH1 0x1 PUSH1 0x1 PUSH1 0xA0 SHL SUB SWAP1 SWAP4 AND DUP1 DUP4 MSTORE SWAP3 DUP5 MSTORE SWAP1 KECCAK256 SLOAD PUSH1 0xFF AND PUSH2 0x3D7B JUMPI DUP4 PUSH1 0x0 MSTORE PUSH1 0xA DUP3 MSTORE PUSH1 0x40 PUSH1 0x0 KECCAK256 SWAP1 PUSH1 0x0 MSTORE DUP2 MSTORE PUSH1 0x40 PUSH1 0x0 KECCAK256 PUSH1 0x1 PUSH1 0xFF NOT DUP3 SLOAD AND OR SWAP1 SSTORE PUSH2 0x3D26 PUSH1 0x9 DUP6 ADD SWAP5 PUSH2 0x3D15 DUP7 SLOAD PUSH2 0x4A3D JUMP JUMPDEST DUP1 SWAP7 SSTORE PUSH1 0xA PUSH1 0x3 SLOAD SWAP2 ADD SLOAD SWAP1 PUSH2 0x4A30 JUMP JUMPDEST SWAP2 PUSH1 0x1 DUP4 ADD DUP1 SWAP4 GT PUSH2 0x18CE JUMPI PUSH32 0xC99B604B3DC53CA720389EDFCBE8B1D78C0D121F97246B87FA722E832B68AAC3 SWAP3 DUP6 LT ISZERO PUSH2 0x3D68 JUMPI JUMPDEST POP PUSH1 0x40 MLOAD SWAP4 DUP5 MSTORE CALLER SWAP4 LOG3 STOP JUMPDEST DUP1 SLOAD PUSH2 0xFF00 NOT AND PUSH2 0x300 OR SWAP1 SSTORE DUP5 PUSH2 0x3D5C JUMP JUMPDEST PUSH1 0x40 MLOAD PUSH4 0x24DB0BA5 PUSH1 0xE0 SHL DUP2 MSTORE PUSH1 0x4 SWAP1 REVERT JUMPDEST PUSH1 0x10 DUP5 MSTORE PUSH1 0x40 PUSH1 0x0 KECCAK256 PUSH1 0x4 DUP2 ADD SLOAD PUSH1 0xFF AND SWAP3 POP DUP3 PUSH2 0x3E0B JUMPI JUMPDEST DUP3 PUSH2 0x3DFC JUMPI JUMPDEST DUP3 PUSH2 0x3DED JUMPI JUMPDEST DUP3 PUSH2 0x3DC0 JUMPI JUMPDEST POP POP DUP4 PUSH2 0x3C74 JUMP JUMPDEST SLOAD PUSH1 0x0 SWAP2 DUP3 MSTORE DUP2 DUP6 MSTORE PUSH1 0x40 DUP1 DUP4 KECCAK256 PUSH1 0x1 PUSH1 0x1 PUSH1 0xA0 SHL SUB SWAP1 SWAP3 AND DUP4 MSTORE SWAP1 DUP6 MSTORE SWAP1 KECCAK256 SLOAD PUSH1 0xFF AND SWAP1 POP DUP4 DUP1 PUSH2 0x3DB8 JUMP JUMPDEST PUSH1 0x3 DUP2 ADD SLOAD TIMESTAMP GT ISZERO SWAP3 POP PUSH2 0x3DB2 JUMP JUMPDEST PUSH1 0x2 DUP2 ADD SLOAD TIMESTAMP LT ISZERO SWAP3 POP PUSH2 0x3DAC JUMP JUMPDEST PUSH1 0x1 DUP2 ADD SLOAD PUSH1 0x1 PUSH1 0x1 PUSH1 0xA0 SHL SUB AND CALLER EQ SWAP3 POP PUSH2 0x3DA6 JUMP JUMPDEST CALLVALUE PUSH2 0x33B JUMPI PUSH1 0x20 DUP1 PUSH1 0x3 NOT CALLDATASIZE ADD SLT PUSH2 0x33B JUMPI PUSH2 0x3E3C PUSH2 0x41E7 JUMP JUMPDEST PUSH2 0x3E44 PUSH2 0x44B7 JUMP JUMPDEST PUSH1 0x0 DUP1 MLOAD PUSH1 0x20 PUSH2 0x5056 DUP4 CODECOPY DUP2 MLOAD SWAP2 MSTORE PUSH1 0x0 DUP2 DUP2 MSTORE DUP1 DUP5 MSTORE PUSH1 0x40 DUP1 DUP3 KECCAK256 PUSH1 0x1 PUSH1 0x1 PUSH1 0xA0 SHL SUB SWAP5 DUP6 AND DUP1 DUP5 MSTORE SWAP1 DUP7 MSTORE SWAP2 KECCAK256 SLOAD SWAP1 SWAP4 SWAP2 SWAP1 PUSH1 0xFF AND ISZERO PUSH2 0x57D JUMPI PUSH1 0x3 SLOAD PUSH1 0x6 SLOAD LT ISZERO PUSH2 0x3FD0 JUMPI DUP1 PUSH1 0x0 MSTORE PUSH1 0x0 DUP3 MSTORE PUSH1 0x40 PUSH1 0x0 KECCAK256 DUP5 PUSH1 0x0 MSTORE DUP3 MSTORE PUSH1 0xFF PUSH1 0x40 PUSH1 0x0 KECCAK256 SLOAD AND PUSH2 0x3F82 JUMPI JUMPDEST POP PUSH1 0x14 DUP2 MSTORE PUSH1 0x40 PUSH1 0x0 KECCAK256 SLOAD PUSH1 0x13 SLOAD PUSH1 0x0 NOT SWAP4 SWAP2 SWAP1 DUP5 DUP2 ADD SWAP1 DUP2 GT PUSH2 0x18CE JUMPI DUP1 DUP4 SWAP2 DUP4 SUB PUSH2 0x3F4F JUMPI JUMPDEST POP POP POP PUSH1 0x13 SLOAD SWAP3 DUP4 ISZERO PUSH2 0x3F39 JUMPI PUSH32 0x99C1D2C0ED8107E4DB2E5DBFB10A2549CD2A63CBE39CF99D2ADFFBCD03954418 SWAP4 ADD SWAP1 PUSH2 0x3F0F DUP3 PUSH2 0x4439 JUMP JUMPDEST SWAP1 SWAP2 DUP3 SLOAD SWAP2 PUSH1 0x3 SHL SHL NOT AND SWAP1 SSTORE PUSH1 0x13 SSTORE DUP3 PUSH1 0x0 MSTORE PUSH1 0x14 DUP2 MSTORE PUSH1 0x0 PUSH1 0x40 DUP2 KECCAK256 SSTORE PUSH2 0x731 PUSH1 0x3 SLOAD PUSH2 0x4978 JUMP JUMPDEST PUSH4 0x4E487B71 PUSH1 0xE0 SHL PUSH1 0x0 MSTORE PUSH1 0x31 PUSH1 0x4 MSTORE PUSH1 0x24 PUSH1 0x0 REVERT JUMPDEST PUSH2 0x3F58 SWAP1 PUSH2 0x4439 JUMP JUMPDEST SWAP1 SLOAD SWAP1 PUSH1 0x3 SHL SHR AND PUSH2 0x3F6D DUP2 PUSH2 0x6F8 DUP5 PUSH2 0x4439 JUMP JUMPDEST PUSH1 0x0 MSTORE PUSH1 0x14 DUP4 MSTORE PUSH1 0x40 PUSH1 0x0 KECCAK256 SSTORE DUP5 DUP2 DUP2 PUSH2 0x3ED5 JUMP JUMPDEST DUP1 PUSH1 0x0 MSTORE PUSH1 0x0 DUP3 MSTORE PUSH1 0x40 PUSH1 0x0 KECCAK256 DUP5 PUSH1 0x0 MSTORE DUP3 MSTORE PUSH1 0x40 PUSH1 0x0 KECCAK256 PUSH1 0xFF NOT DUP2 SLOAD AND SWAP1 SSTORE DUP4 CALLER SWAP2 PUSH32 0xF6391F5C32D9C69D2A47EA670B442974B53935D1EDC7FD64EB21E047A839171B PUSH1 0x0 DUP1 LOG4 DUP4 PUSH2 0x3EAD JUMP JUMPDEST PUSH1 0x40 MLOAD PUSH4 0x7BF345B1 PUSH1 0xE1 SHL DUP2 MSTORE PUSH1 0x4 SWAP1 REVERT JUMPDEST CALLVALUE PUSH2 0x33B JUMPI PUSH1 0x0 CALLDATASIZE PUSH1 0x3 NOT ADD SLT PUSH2 0x33B JUMPI PUSH1 0xA0 PUSH1 0x3 SLOAD PUSH1 0x4 SLOAD PUSH1 0x5 SLOAD PUSH1 0x6 SLOAD SWAP1 PUSH1 0x7 SLOAD SWAP3 PUSH1 0x40 MLOAD SWAP5 DUP6 MSTORE PUSH1 0x20 DUP6 ADD MSTORE PUSH1 0x40 DUP5 ADD MSTORE PUSH1 0x60 DUP4 ADD MSTORE PUSH1 0x80 DUP3 ADD MSTORE RETURN JUMPDEST CALLVALUE PUSH2 0x33B JUMPI PUSH1 0x80 CALLDATASIZE PUSH1 0x3 NOT ADD SLT PUSH2 0x33B JUMPI PUSH1 0x44 CALLDATALOAD PUSH1 0x24 CALLDATALOAD PUSH1 0x4 CALLDATALOAD PUSH1 0x64 CALLDATALOAD PUSH2 0x4047 PUSH2 0x44B7 JUMP JUMPDEST DUP2 ISZERO DUP1 ISZERO PUSH2 0x40D5 JUMPI JUMPDEST DUP1 ISZERO PUSH2 0x40CC JUMPI JUMPDEST DUP1 ISZERO PUSH2 0x40C1 JUMPI JUMPDEST PUSH2 0x40AF JUMPI PUSH32 0xF7A96D1AB0B506139D90FF30643F0CBA61B4C10044431CCC530575D9A6DF3E9A SWAP4 PUSH1 0x80 SWAP4 DUP4 PUSH1 0x4 SSTORE DUP1 PUSH1 0x5 SSTORE DUP2 PUSH1 0x6 SSTORE DUP3 PUSH1 0x7 SSTORE PUSH1 0x40 MLOAD SWAP4 DUP5 MSTORE PUSH1 0x20 DUP5 ADD MSTORE PUSH1 0x40 DUP4 ADD MSTORE PUSH1 0x60 DUP3 ADD MSTORE LOG1 STOP JUMPDEST PUSH1 0x40 MLOAD PUSH4 0x9067000F PUSH1 0xE0 SHL DUP2 MSTORE PUSH1 0x4 SWAP1 REVERT JUMPDEST POP PUSH1 0x3 SLOAD DUP5 GT PUSH2 0x405E JUMP JUMPDEST POP DUP4 DUP4 GT PUSH2 0x4057 JUMP JUMPDEST POP DUP3 DUP3 GT PUSH2 0x4050 JUMP JUMPDEST CALLVALUE PUSH2 0x33B JUMPI PUSH1 0x0 CALLDATASIZE PUSH1 0x3 NOT ADD SLT PUSH2 0x33B JUMPI PUSH1 0x40 MLOAD DUP1 PUSH1 0xD SLOAD DUP1 DUP4 MSTORE PUSH1 0x20 DUP1 SWAP4 ADD DUP1 SWAP2 PUSH1 0xD PUSH1 0x0 MSTORE PUSH32 0xD7B6990105719101DABEB77144F2A3385C8033ACD3AF97E9423A695E81AD1EB5 SWAP1 PUSH1 0x0 JUMPDEST DUP7 DUP3 DUP3 LT PUSH2 0x4180 JUMPI DUP7 DUP7 PUSH2 0x4140 DUP3 DUP9 SUB DUP4 PUSH2 0x4310 JUMP JUMPDEST PUSH1 0x40 MLOAD SWAP3 DUP4 SWAP3 DUP2 DUP5 ADD SWAP1 DUP3 DUP6 MSTORE MLOAD DUP1 SWAP2 MSTORE PUSH1 0x40 DUP5 ADD SWAP3 SWAP2 PUSH1 0x0 JUMPDEST DUP3 DUP2 LT PUSH2 0x4169 JUMPI POP POP POP POP SUB SWAP1 RETURN JUMPDEST DUP4 MLOAD DUP6 MSTORE DUP7 SWAP6 POP SWAP4 DUP2 ADD SWAP4 SWAP3 DUP2 ADD SWAP3 PUSH1 0x1 ADD PUSH2 0x415A JUMP JUMPDEST DUP4 SLOAD DUP6 MSTORE SWAP1 SWAP4 ADD SWAP3 PUSH1 0x1 SWAP3 DUP4 ADD SWAP3 ADD PUSH2 0x412A JUMP JUMPDEST CALLVALUE PUSH2 0x33B JUMPI PUSH1 0x20 CALLDATASIZE PUSH1 0x3 NOT ADD SLT PUSH2 0x33B JUMPI PUSH1 0x4 CALLDATALOAD SWAP1 PUSH4 0xFFFFFFFF PUSH1 0xE0 SHL DUP3 AND DUP1 SWAP3 SUB PUSH2 0x33B JUMPI PUSH1 0x20 SWAP2 PUSH4 0x7965DB0B PUSH1 0xE0 SHL DUP2 EQ SWAP1 DUP2 ISZERO PUSH2 0x41D6 JUMPI JUMPDEST POP ISZERO ISZERO DUP2 MSTORE RETURN JUMPDEST PUSH4 0x1FFC9A7 PUSH1 0xE0 SHL EQ SWAP1 POP DUP4 PUSH2 0x41CF JUMP JUMPDEST PUSH1 0x4 CALLDATALOAD SWAP1 PUSH1 0x1 PUSH1 0x1 PUSH1 0xA0 SHL SUB DUP3 AND DUP3 SUB PUSH2 0x33B JUMPI JUMP JUMPDEST PUSH1 0x24 CALLDATALOAD SWAP1 PUSH1 0x1 PUSH1 0x1 PUSH1 0xA0 SHL SUB DUP3 AND DUP3 SUB PUSH2 0x33B JUMPI JUMP JUMPDEST CALLVALUE PUSH2 0x33B JUMPI PUSH1 0x0 CALLDATASIZE PUSH1 0x3 NOT ADD SLT PUSH2 0x33B JUMPI PUSH1 0x20 PUSH1 0x40 MLOAD PUSH3 0x2A300 DUP2 MSTORE RETURN JUMPDEST SWAP1 PUSH1 0x1 DUP3 DUP2 SHR SWAP3 AND DUP1 ISZERO PUSH2 0x4261 JUMPI JUMPDEST PUSH1 0x20 DUP4 LT EQ PUSH2 0x424B JUMPI JUMP JUMPDEST PUSH4 0x4E487B71 PUSH1 0xE0 SHL PUSH1 0x0 MSTORE PUSH1 0x22 PUSH1 0x4 MSTORE PUSH1 0x24 PUSH1 0x0 REVERT JUMPDEST SWAP2 PUSH1 0x7F AND SWAP2 PUSH2 0x4240 JUMP JUMPDEST PUSH1 0xC0 DUP2 ADD SWAP1 DUP2 LT PUSH1 0x1 PUSH1 0x1 PUSH1 0x40 SHL SUB DUP3 GT OR PUSH2 0x73E JUMPI PUSH1 0x40 MSTORE JUMP JUMPDEST PUSH2 0x220 DUP2 ADD SWAP1 DUP2 LT PUSH1 0x1 PUSH1 0x1 PUSH1 0x40 SHL SUB DUP3 GT OR PUSH2 0x73E JUMPI PUSH1 0x40 MSTORE JUMP JUMPDEST PUSH2 0x180 DUP2 ADD SWAP1 DUP2 LT PUSH1 0x1 PUSH1 0x1 PUSH1 0x40 SHL SUB DUP3 GT OR PUSH2 0x73E JUMPI PUSH1 0x40 MSTORE JUMP JUMPDEST PUSH1 0xA0 DUP2 ADD SWAP1 DUP2 LT PUSH1 0x1 PUSH1 0x1 PUSH1 0x40 SHL SUB DUP3 GT OR PUSH2 0x73E JUMPI PUSH1 0x40 MSTORE JUMP JUMPDEST PUSH2 0x1A0 DUP2 ADD SWAP1 DUP2 LT PUSH1 0x1 PUSH1 0x1 PUSH1 0x40 SHL SUB DUP3 GT OR PUSH2 0x73E JUMPI PUSH1 0x40 MSTORE JUMP JUMPDEST PUSH1 0x80 DUP2 ADD SWAP1 DUP2 LT PUSH1 0x1 PUSH1 0x1 PUSH1 0x40 SHL SUB DUP3 GT OR PUSH2 0x73E JUMPI PUSH1 0x40 MSTORE JUMP JUMPDEST SWAP1 PUSH1 0x1F DUP1 NOT SWAP2 ADD AND DUP2 ADD SWAP1 DUP2 LT PUSH1 0x1 PUSH1 0x1 PUSH1 0x40 SHL SUB DUP3 GT OR PUSH2 0x73E JUMPI PUSH1 0x40 MSTORE JUMP JUMPDEST SWAP1 PUSH1 0x40 MLOAD SWAP2 DUP3 PUSH1 0x0 DUP3 SLOAD SWAP3 PUSH2 0x4345 DUP5 PUSH2 0x4231 JUMP JUMPDEST SWAP1 DUP2 DUP5 MSTORE PUSH1 0x1 SWAP5 DUP6 DUP2 AND SWAP1 DUP2 PUSH1 0x0 EQ PUSH2 0x43B4 JUMPI POP PUSH1 0x1 EQ PUSH2 0x4371 JUMPI JUMPDEST POP POP PUSH2 0x436F SWAP3 POP SUB DUP4 PUSH2 0x4310 JUMP JUMPDEST JUMP JUMPDEST SWAP1 SWAP4 SWAP2 POP PUSH1 0x0 MSTORE PUSH1 0x20 SWAP1 DUP2 PUSH1 0x0 KECCAK256 SWAP4 PUSH1 0x0 SWAP2 JUMPDEST DUP2 DUP4 LT PUSH2 0x439C JUMPI POP POP PUSH2 0x436F SWAP4 POP DUP3 ADD ADD CODESIZE DUP1 PUSH2 0x4361 JUMP JUMPDEST DUP6 SLOAD DUP9 DUP5 ADD DUP6 ADD MSTORE SWAP5 DUP6 ADD SWAP5 DUP8 SWAP5 POP SWAP2 DUP4 ADD SWAP2 PUSH2 0x4384 JUMP JUMPDEST SWAP2 POP POP PUSH2 0x436F SWAP5 POP PUSH1 0x20 SWAP3 POP PUSH1 0xFF NOT AND DUP3 DUP5 ADD MSTORE ISZERO ISZERO PUSH1 0x5 SHL DUP3 ADD ADD CODESIZE DUP1 PUSH2 0x4361 JUMP JUMPDEST SWAP1 PUSH1 0x5 DUP3 LT ISZERO PUSH2 0x555 JUMPI MSTORE JUMP JUMPDEST SWAP1 PUSH1 0x8 DUP3 LT ISZERO PUSH2 0x555 JUMPI MSTORE JUMP JUMPDEST PUSH1 0x0 JUMPDEST DUP4 DUP2 LT PUSH2 0x4404 JUMPI POP POP PUSH1 0x0 SWAP2 ADD MSTORE JUMP JUMPDEST DUP2 DUP2 ADD MLOAD DUP4 DUP3 ADD MSTORE PUSH1 0x20 ADD PUSH2 0x43F4 JUMP JUMPDEST SWAP1 PUSH1 0x20 SWAP2 PUSH2 0x442D DUP2 MLOAD DUP1 SWAP3 DUP2 DUP6 MSTORE DUP6 DUP1 DUP7 ADD SWAP2 ADD PUSH2 0x43F1 JUMP JUMPDEST PUSH1 0x1F ADD PUSH1 0x1F NOT AND ADD ADD SWAP1 JUMP JUMPDEST PUSH1 0x13 SLOAD DUP2 LT ISZERO PUSH2 0x1D48 JUMPI PUSH1 0x13 PUSH1 0x0 MSTORE PUSH32 0x66DE8FFDA797E3DE9C05E8FC57B3BF0EC28A930D40B0D285D93C06501CF6A090 ADD SWAP1 PUSH1 0x0 SWAP1 JUMP JUMPDEST SWAP1 PUSH1 0x4 DUP3 LT ISZERO PUSH2 0x555 JUMPI MSTORE JUMP JUMPDEST SWAP1 PUSH1 0x6 DUP3 LT ISZERO PUSH2 0x555 JUMPI MSTORE JUMP JUMPDEST SWAP2 DUP2 PUSH1 0x1F DUP5 ADD SLT ISZERO PUSH2 0x33B JUMPI DUP3 CALLDATALOAD SWAP2 PUSH1 0x1 PUSH1 0x1 PUSH1 0x40 SHL SUB DUP4 GT PUSH2 0x33B JUMPI PUSH1 0x20 DUP4 DUP2 DUP7 ADD SWAP6 ADD ADD GT PUSH2 0x33B JUMPI JUMP JUMPDEST CALLER PUSH1 0x0 SWAP1 DUP2 MSTORE PUSH32 0x7D7FFB7A348E1C6A02869081A26547B49160DD3DF72D1D75A570EB9B698292EC PUSH1 0x20 SWAP1 DUP2 MSTORE PUSH1 0x40 DUP1 DUP4 KECCAK256 SLOAD SWAP1 SWAP3 PUSH32 0xA49807205CE4D355092EF5A8A18F56E8913CF4A201FBE287825B095693C21775 SWAP2 PUSH1 0xFF AND ISZERO PUSH2 0x451B JUMPI POP POP POP POP JUMP JUMPDEST PUSH2 0x4524 CALLER PUSH2 0x4985 JUMP JUMPDEST SWAP2 DUP5 MLOAD SWAP1 PUSH2 0x4531 DUP3 PUSH2 0x42F5 JUMP JUMPDEST PUSH1 0x42 DUP3 MSTORE DUP5 DUP3 ADD SWAP3 PUSH1 0x60 CALLDATASIZE DUP6 CALLDATACOPY DUP3 MLOAD ISZERO PUSH2 0x4690 JUMPI PUSH1 0x30 DUP5 MSTORE8 DUP3 MLOAD PUSH1 0x1 SWAP1 DUP2 LT ISZERO PUSH2 0x467C JUMPI SWAP1 PUSH1 0x78 PUSH1 0x21 DUP6 ADD MSTORE8 PUSH1 0x41 SWAP2 JUMPDEST DUP1 DUP4 GT PUSH2 0x4622 JUMPI POP POP POP PUSH2 0x45E0 JUMPI PUSH1 0x48 PUSH2 0x1CBD SWAP4 DUP7 SWAP4 PUSH2 0x45C4 SWAP4 PUSH2 0x45B5 SWAP9 MLOAD SWAP9 DUP10 SWAP4 PUSH23 0x20B1B1B2B9B9A1B7B73A3937B61D1030B1B1B7BAB73A1 PUSH1 0x4D SHL DUP11 DUP7 ADD MSTORE PUSH2 0x1C64 DUP2 MLOAD DUP1 SWAP3 DUP13 PUSH1 0x37 DUP10 ADD SWAP2 ADD PUSH2 0x43F1 JUMP JUMPDEST ADD SUB PUSH1 0x28 DUP2 ADD DUP8 MSTORE ADD DUP6 PUSH2 0x4310 JUMP JUMPDEST MLOAD SWAP3 DUP4 SWAP3 PUSH3 0x461BCD PUSH1 0xE5 SHL DUP5 MSTORE PUSH1 0x4 DUP5 ADD MSTORE PUSH1 0x24 DUP4 ADD SWAP1 PUSH2 0x4414 JUMP JUMPDEST PUSH1 0x64 DUP5 DUP7 MLOAD SWAP1 PUSH3 0x461BCD PUSH1 0xE5 SHL DUP3 MSTORE DUP1 PUSH1 0x4 DUP4 ADD MSTORE PUSH1 0x24 DUP3 ADD MSTORE PUSH32 0x537472696E67733A20686578206C656E67746820696E73756666696369656E74 PUSH1 0x44 DUP3 ADD MSTORE REVERT JUMPDEST SWAP1 SWAP2 SWAP3 PUSH1 0xF DUP2 AND PUSH1 0x10 DUP2 LT ISZERO PUSH2 0x4668 JUMPI PUSH2 0x4661 SWAP2 SWAP1 PUSH16 0x181899199A1A9B1B9C1CB0B131B232B3 PUSH1 0x81 SHL SWAP1 BYTE PUSH2 0x4657 DUP7 DUP9 PUSH2 0x4967 JUMP JUMPDEST MSTORE8 PUSH1 0x4 SHR SWAP4 PUSH2 0x4978 JUMP JUMPDEST SWAP2 SWAP1 PUSH2 0x4561 JUMP JUMPDEST PUSH4 0x4E487B71 PUSH1 0xE0 SHL DUP5 MSTORE PUSH1 0x32 PUSH1 0x4 MSTORE PUSH1 0x24 DUP5 REVERT JUMPDEST PUSH4 0x4E487B71 PUSH1 0xE0 SHL DUP3 MSTORE PUSH1 0x32 PUSH1 0x4 MSTORE PUSH1 0x24 DUP3 REVERT JUMPDEST PUSH4 0x4E487B71 PUSH1 0xE0 SHL DUP2 MSTORE PUSH1 0x32 PUSH1 0x4 MSTORE PUSH1 0x24 SWAP1 REVERT JUMPDEST CALLER PUSH1 0x0 SWAP1 DUP2 MSTORE PUSH32 0x59F08E7D7BA1C82EDDC57AFAE67F80DF851BAF38A099607A779825038C3CE5B PUSH1 0x20 SWAP1 DUP2 MSTORE PUSH1 0x40 DUP1 DUP4 KECCAK256 SLOAD SWAP1 SWAP3 PUSH1 0x0 DUP1 MLOAD PUSH1 0x20 PUSH2 0x5056 DUP4 CODECOPY DUP2 MLOAD SWAP2 MSTORE SWAP2 PUSH1 0xFF AND ISZERO PUSH2 0x46F6 JUMPI POP POP POP POP JUMP JUMPDEST PUSH2 0x46FF CALLER PUSH2 0x4985 JUMP JUMPDEST SWAP2 DUP5 MLOAD SWAP1 PUSH2 0x470C DUP3 PUSH2 0x42F5 JUMP JUMPDEST PUSH1 0x42 DUP3 MSTORE DUP5 DUP3 ADD SWAP3 PUSH1 0x60 CALLDATASIZE DUP6 CALLDATACOPY DUP3 MLOAD ISZERO PUSH2 0x4690 JUMPI PUSH1 0x30 DUP5 MSTORE8 DUP3 MLOAD PUSH1 0x1 SWAP1 DUP2 LT ISZERO PUSH2 0x467C JUMPI SWAP1 PUSH1 0x78 PUSH1 0x21 DUP6 ADD MSTORE8 PUSH1 0x41 SWAP2 JUMPDEST DUP1 DUP4 GT PUSH2 0x4790 JUMPI POP POP POP PUSH2 0x45E0 JUMPI PUSH1 0x48 PUSH2 0x1CBD SWAP4 DUP7 SWAP4 PUSH2 0x45C4 SWAP4 PUSH2 0x45B5 SWAP9 MLOAD SWAP9 DUP10 SWAP4 PUSH23 0x20B1B1B2B9B9A1B7B73A3937B61D1030B1B1B7BAB73A1 PUSH1 0x4D SHL DUP11 DUP7 ADD MSTORE PUSH2 0x1C64 DUP2 MLOAD DUP1 SWAP3 DUP13 PUSH1 0x37 DUP10 ADD SWAP2 ADD PUSH2 0x43F1 JUMP JUMPDEST SWAP1 SWAP2 SWAP3 PUSH1 0xF DUP2 AND PUSH1 0x10 DUP2 LT ISZERO PUSH2 0x4668 JUMPI PUSH2 0x47C5 SWAP2 SWAP1 PUSH16 0x181899199A1A9B1B9C1CB0B131B232B3 PUSH1 0x81 SHL SWAP1 BYTE PUSH2 0x4657 DUP7 DUP9 PUSH2 0x4967 JUMP JUMPDEST SWAP2 SWAP1 PUSH2 0x473C JUMP JUMPDEST PUSH1 0x0 SWAP1 DUP1 DUP3 MSTORE PUSH1 0x20 SWAP1 DUP3 DUP3 MSTORE PUSH1 0x40 SWAP3 DUP4 DUP2 KECCAK256 CALLER DUP3 MSTORE DUP4 MSTORE PUSH1 0xFF DUP5 DUP3 KECCAK256 SLOAD AND ISZERO PUSH2 0x47F5 JUMPI POP POP POP POP JUMP JUMPDEST PUSH2 0x47FE CALLER PUSH2 0x4985 JUMP JUMPDEST SWAP2 DUP5 MLOAD SWAP1 PUSH2 0x480B DUP3 PUSH2 0x42F5 JUMP JUMPDEST PUSH1 0x42 DUP3 MSTORE DUP5 DUP3 ADD SWAP3 PUSH1 0x60 CALLDATASIZE DUP6 CALLDATACOPY DUP3 MLOAD ISZERO PUSH2 0x4690 JUMPI PUSH1 0x30 DUP5 MSTORE8 DUP3 MLOAD PUSH1 0x1 SWAP1 DUP2 LT ISZERO PUSH2 0x467C JUMPI SWAP1 PUSH1 0x78 PUSH1 0x21 DUP6 ADD MSTORE8 PUSH1 0x41 SWAP2 JUMPDEST DUP1 DUP4 GT PUSH2 0x488F JUMPI POP POP POP PUSH2 0x45E0 JUMPI PUSH1 0x48 PUSH2 0x1CBD SWAP4 DUP7 SWAP4 PUSH2 0x45C4 SWAP4 PUSH2 0x45B5 SWAP9 MLOAD SWAP9 DUP10 SWAP4 PUSH23 0x20B1B1B2B9B9A1B7B73A3937B61D1030B1B1B7BAB73A1 PUSH1 0x4D SHL DUP11 DUP7 ADD MSTORE PUSH2 0x1C64 DUP2 MLOAD DUP1 SWAP3 DUP13 PUSH1 0x37 DUP10 ADD SWAP2 ADD PUSH2 0x43F1 JUMP JUMPDEST SWAP1 SWAP2 SWAP3 PUSH1 0xF DUP2 AND PUSH1 0x10 DUP2 LT ISZERO PUSH2 0x4668 JUMPI PUSH2 0x48C4 SWAP2 SWAP1 PUSH16 0x181899199A1A9B1B9C1CB0B131B232B3 PUSH1 0x81 SHL SWAP1 BYTE PUSH2 0x4657 DUP7 DUP9 PUSH2 0x4967 JUMP JUMPDEST SWAP2 SWAP1 PUSH2 0x483B JUMP JUMPDEST SWAP1 PUSH1 0x0 SWAP2 DUP1 DUP4 MSTORE DUP3 PUSH1 0x20 MSTORE PUSH1 0x40 DUP4 KECCAK256 SWAP2 PUSH1 0x1 DUP1 PUSH1 0xA0 SHL SUB AND SWAP2 DUP3 DUP5 MSTORE PUSH1 0x20 MSTORE PUSH1 0xFF PUSH1 0x40 DUP5 KECCAK256 SLOAD AND PUSH2 0x48FB JUMPI POP POP POP JUMP JUMPDEST DUP1 DUP4 MSTORE DUP3 PUSH1 0x20 MSTORE PUSH1 0x40 DUP4 KECCAK256 DUP3 DUP5 MSTORE PUSH1 0x20 MSTORE PUSH1 0x40 DUP4 KECCAK256 PUSH1 0xFF NOT DUP2 SLOAD AND SWAP1 SSTORE PUSH32 0xF6391F5C32D9C69D2A47EA670B442974B53935D1EDC7FD64EB21E047A839171B CALLER SWAP4 DUP1 LOG4 JUMP JUMPDEST SWAP2 SWAP1 DUP3 ADD DUP1 SWAP3 GT PUSH2 0x18CE JUMPI JUMP JUMPDEST PUSH1 0x1 PUSH1 0x1 PUSH1 0x40 SHL SUB DUP2 GT PUSH2 0x73E JUMPI PUSH1 0x1F ADD PUSH1 0x1F NOT AND PUSH1 0x20 ADD SWAP1 JUMP JUMPDEST SWAP1 DUP2 MLOAD DUP2 LT ISZERO PUSH2 0x1D48 JUMPI ADD PUSH1 0x20 ADD SWAP1 JUMP JUMPDEST DUP1 ISZERO PUSH2 0x18CE JUMPI PUSH1 0x0 NOT ADD SWAP1 JUMP JUMPDEST PUSH1 0x40 MLOAD SWAP1 PUSH1 0x60 DUP3 ADD DUP3 DUP2 LT PUSH1 0x1 PUSH1 0x1 PUSH1 0x40 SHL SUB DUP3 GT OR PUSH2 0x73E JUMPI PUSH1 0x40 MSTORE PUSH1 0x2A DUP3 MSTORE PUSH1 0x20 DUP3 ADD PUSH1 0x40 CALLDATASIZE DUP3 CALLDATACOPY DUP3 MLOAD ISZERO PUSH2 0x1D48 JUMPI PUSH1 0x30 SWAP1 MSTORE8 DUP2 MLOAD PUSH1 0x1 SWAP1 DUP2 LT ISZERO PUSH2 0x1D48 JUMPI PUSH1 0x78 PUSH1 0x21 DUP5 ADD MSTORE8 PUSH1 0x29 SWAP1 JUMPDEST DUP1 DUP3 GT PUSH2 0x49E1 JUMPI POP POP PUSH2 0x2D68 JUMPI SWAP1 JUMP JUMPDEST SWAP1 SWAP2 PUSH1 0xF DUP2 AND SWAP1 PUSH1 0x10 DUP3 LT ISZERO PUSH2 0x4A1B JUMPI PUSH2 0x4A15 SWAP2 PUSH16 0x181899199A1A9B1B9C1CB0B131B232B3 PUSH1 0x81 SHL SWAP1 BYTE PUSH2 0x1D38 DUP6 DUP8 PUSH2 0x4967 JUMP JUMPDEST SWAP1 PUSH2 0x49D1 JUMP JUMPDEST PUSH1 0x24 PUSH1 0x0 PUSH4 0x4E487B71 PUSH1 0xE0 SHL DUP2 MSTORE PUSH1 0x32 PUSH1 0x4 MSTORE REVERT JUMPDEST SWAP2 SWAP1 DUP3 SUB SWAP2 DUP3 GT PUSH2 0x18CE JUMPI JUMP JUMPDEST PUSH1 0x0 NOT DUP2 EQ PUSH2 0x18CE JUMPI PUSH1 0x1 ADD SWAP1 JUMP JUMPDEST PUSH1 0x8 DUP3 LT ISZERO PUSH2 0x555 JUMPI MSTORE JUMP JUMPDEST SWAP3 SWAP2 SWAP3 PUSH2 0x4A64 DUP3 PUSH2 0x494C JUMP JUMPDEST SWAP2 PUSH2 0x4A72 PUSH1 0x40 MLOAD SWAP4 DUP5 PUSH2 0x4310 JUMP JUMPDEST DUP3 SWAP5 DUP2 DUP5 MSTORE DUP2 DUP4 ADD GT PUSH2 0x33B JUMPI DUP3 DUP2 PUSH1 0x20 SWAP4 DUP5 PUSH1 0x0 SWAP7 ADD CALLDATACOPY ADD ADD MSTORE JUMP JUMPDEST PUSH1 0x4 DUP3 LT ISZERO PUSH2 0x555 JUMPI MSTORE JUMP JUMPDEST SWAP1 PUSH1 0x8 DUP2 LT ISZERO PUSH2 0x555 JUMPI PUSH1 0xFF DUP1 NOT DUP4 SLOAD AND SWAP2 AND OR SWAP1 SSTORE JUMP JUMPDEST PUSH1 0xFF PUSH1 0x1 SLOAD AND PUSH2 0x4ABF JUMPI JUMP JUMPDEST PUSH1 0x40 MLOAD PUSH3 0x461BCD PUSH1 0xE5 SHL DUP2 MSTORE PUSH1 0x20 PUSH1 0x4 DUP3 ADD MSTORE PUSH1 0x10 PUSH1 0x24 DUP3 ADD MSTORE PUSH16 0x14185D5CD8589B194E881C185D5CD959 PUSH1 0x82 SHL PUSH1 0x44 DUP3 ADD MSTORE PUSH1 0x64 SWAP1 REVERT JUMPDEST RETURNDATASIZE ISZERO PUSH2 0x4B22 JUMPI RETURNDATASIZE SWAP1 PUSH2 0x4B08 DUP3 PUSH2 0x494C JUMP JUMPDEST SWAP2 PUSH2 0x4B16 PUSH1 0x40 MLOAD SWAP4 DUP5 PUSH2 0x4310 JUMP JUMPDEST DUP3 MSTORE RETURNDATASIZE PUSH1 0x0 PUSH1 0x20 DUP5 ADD RETURNDATACOPY JUMP JUMPDEST PUSH1 0x60 SWAP1 JUMP JUMPDEST PUSH1 0x2 DUP1 SLOAD EQ PUSH2 0x4B36 JUMPI PUSH1 0x2 DUP1 SSTORE JUMP JUMPDEST PUSH1 0x40 MLOAD PUSH3 0x461BCD PUSH1 0xE5 SHL DUP2 MSTORE PUSH1 0x20 PUSH1 0x4 DUP3 ADD MSTORE PUSH1 0x1F PUSH1 0x24 DUP3 ADD MSTORE PUSH32 0x5265656E7472616E637947756172643A207265656E7472616E742063616C6C00 PUSH1 0x44 DUP3 ADD MSTORE PUSH1 0x64 SWAP1 REVERT JUMPDEST PUSH1 0x40 MLOAD PUSH4 0xA9059CBB PUSH1 0xE0 SHL PUSH1 0x20 DUP3 ADD SWAP1 DUP2 MSTORE PUSH1 0x1 PUSH1 0x1 PUSH1 0xA0 SHL SUB SWAP4 DUP5 AND PUSH1 0x24 DUP4 ADD MSTORE PUSH1 0x44 DUP1 DUP4 ADD SWAP6 SWAP1 SWAP6 MSTORE SWAP4 DUP2 MSTORE PUSH1 0x1 PUSH1 0x1 PUSH1 0x40 SHL SUB SWAP3 PUSH1 0x80 DUP3 ADD SWAP3 DUP5 DUP5 GT DUP4 DUP6 LT OR PUSH2 0x73E JUMPI AND SWAP1 PUSH1 0xC0 DUP2 ADD SWAP4 DUP4 DUP6 LT SWAP1 DUP6 GT OR PUSH2 0x73E JUMPI PUSH2 0x4C1F SWAP4 PUSH1 0x40 MSTORE PUSH1 0x20 DUP4 MSTORE PUSH32 0x5361666545524332303A206C6F772D6C6576656C2063616C6C206661696C6564 PUSH1 0xA0 DUP3 ADD MSTORE PUSH1 0x0 DUP1 SWAP6 DUP2 SWAP3 MLOAD SWAP1 DUP3 DUP6 GAS CALL PUSH2 0x4C19 PUSH2 0x4AF7 JUMP JUMPDEST SWAP2 PUSH2 0x4CBD JUMP JUMPDEST SWAP1 DUP2 MLOAD SWAP2 DUP3 ISZERO SWAP3 DUP4 ISZERO PUSH2 0x4C8F JUMPI JUMPDEST POP POP POP ISZERO PUSH2 0x4C37 JUMPI JUMP JUMPDEST PUSH1 0x40 MLOAD PUSH3 0x461BCD PUSH1 0xE5 SHL DUP2 MSTORE PUSH1 0x20 PUSH1 0x4 DUP3 ADD MSTORE PUSH1 0x2A PUSH1 0x24 DUP3 ADD MSTORE PUSH32 0x5361666545524332303A204552433230206F7065726174696F6E20646964206E PUSH1 0x44 DUP3 ADD MSTORE PUSH10 0x1BDD081CDD58D8D95959 PUSH1 0xB2 SHL PUSH1 0x64 DUP3 ADD MSTORE PUSH1 0x84 SWAP1 REVERT JUMPDEST DUP2 SWAP3 SWAP4 POP SWAP1 PUSH1 0x20 SWAP2 DUP2 ADD SUB SLT PUSH2 0x4CB9 JUMPI PUSH1 0x20 ADD MLOAD SWAP1 DUP2 ISZERO ISZERO DUP3 SUB PUSH2 0x4CB6 JUMPI POP CODESIZE DUP1 DUP1 PUSH2 0x4C2D JUMP JUMPDEST DUP1 REVERT JUMPDEST POP DUP1 REVERT JUMPDEST SWAP2 SWAP3 SWAP1 ISZERO PUSH2 0x4D1F JUMPI POP DUP2 MLOAD ISZERO PUSH2 0x4CD1 JUMPI POP SWAP1 JUMP JUMPDEST EXTCODESIZE ISZERO PUSH2 0x4CDA JUMPI SWAP1 JUMP JUMPDEST PUSH1 0x40 MLOAD PUSH3 0x461BCD PUSH1 0xE5 SHL DUP2 MSTORE PUSH1 0x20 PUSH1 0x4 DUP3 ADD MSTORE PUSH1 0x1D PUSH1 0x24 DUP3 ADD MSTORE PUSH32 0x416464726573733A2063616C6C20746F206E6F6E2D636F6E7472616374000000 PUSH1 0x44 DUP3 ADD MSTORE PUSH1 0x64 SWAP1 REVERT JUMPDEST DUP3 MLOAD SWAP1 SWAP2 POP ISZERO PUSH2 0x4D32 JUMPI POP DUP1 MLOAD SWAP1 PUSH1 0x20 ADD REVERT JUMPDEST PUSH1 0x40 MLOAD PUSH3 0x461BCD PUSH1 0xE5 SHL DUP2 MSTORE PUSH1 0x20 PUSH1 0x4 DUP3 ADD MSTORE SWAP1 DUP2 SWAP1 PUSH2 0x1CBD SWAP1 PUSH1 0x24 DUP4 ADD SWAP1 PUSH2 0x4414 JUMP JUMPDEST SWAP1 DUP1 PUSH1 0x20 SWAP4 SWAP3 DUP2 DUP5 MSTORE DUP5 DUP5 ADD CALLDATACOPY PUSH1 0x0 DUP3 DUP3 ADD DUP5 ADD MSTORE PUSH1 0x1F ADD PUSH1 0x1F NOT AND ADD ADD SWAP1 JUMP JUMPDEST PUSH1 0x5 DUP3 LT ISZERO PUSH2 0x555 JUMPI MSTORE JUMP JUMPDEST PUSH1 0x1 PUSH1 0x1 PUSH1 0xA0 SHL SUB DUP1 DUP3 AND PUSH1 0x0 SWAP1 DUP2 MSTORE PUSH32 0x59F08E7D7BA1C82EDDC57AFAE67F80DF851BAF38A099607A779825038C3CE5B PUSH1 0x20 MSTORE PUSH1 0x40 DUP2 KECCAK256 SLOAD SWAP2 SWAP3 SWAP1 SWAP2 PUSH1 0xFF AND PUSH2 0x4DD6 JUMPI POP PUSH1 0x40 SWAP1 PUSH1 0x10 PUSH1 0x20 MSTORE KECCAK256 SLOAD AND SWAP1 JUMP JUMPDEST SWAP2 POP POP SWAP1 JUMP JUMPDEST SWAP1 PUSH1 0x0 DUP3 DUP2 MSTORE PUSH1 0xB PUSH1 0x20 MSTORE PUSH1 0x40 DUP1 DUP3 KECCAK256 PUSH1 0xFF PUSH1 0xB DUP3 ADD SLOAD AND ISZERO PUSH2 0x4FE8 JUMPI PUSH1 0x3 DUP2 ADD SWAP3 DUP4 SLOAD SWAP2 PUSH1 0x4 SWAP1 PUSH2 0x4E13 DUP3 DUP3 ADD SWAP5 DUP6 SLOAD SWAP1 PUSH2 0x4A30 JUMP JUMPDEST DUP1 DUP9 GT PUSH2 0x4FCC JUMPI POP DUP8 DUP4 MSTORE PUSH1 0xC PUSH1 0x20 MSTORE DUP5 DUP4 KECCAK256 SWAP3 PUSH1 0x3 DUP5 ADD PUSH3 0x15180 DUP1 DUP3 SLOAD DIV SWAP1 TIMESTAMP DIV GT PUSH2 0x4FC0 JUMPI JUMPDEST POP DUP3 DUP5 ADD PUSH3 0x93A80 DUP1 DUP3 SLOAD DIV SWAP1 TIMESTAMP DIV GT PUSH2 0x4FB1 JUMPI JUMPDEST POP PUSH1 0x5 DUP5 ADD SWAP1 PUSH3 0x278D00 DUP1 DUP4 SLOAD DIV SWAP1 TIMESTAMP DIV GT PUSH2 0x4FA2 JUMPI JUMPDEST POP POP PUSH1 0x5 DUP2 ADD SLOAD DUP1 PUSH2 0x4F73 JUMPI JUMPDEST POP PUSH1 0x6 DUP2 ADD SLOAD DUP1 PUSH2 0x4F41 JUMPI JUMPDEST POP PUSH1 0x7 ADD SLOAD DUP1 PUSH2 0x4F0E JUMPI JUMPDEST POP POP SWAP2 PUSH2 0x4EFD DUP3 PUSH1 0x2 DUP8 SWAP6 PUSH2 0x4EC6 PUSH32 0xB54E2A7352DC6551A66F714A1D204B335A428F64602F85AE0F2CE55BF7604932 SWAP10 PUSH1 0x60 SWAP10 SWAP8 SLOAD PUSH2 0x493F JUMP JUMPDEST DUP4 SSTORE PUSH2 0x4ED3 DUP8 DUP3 SLOAD PUSH2 0x493F JUMP JUMPDEST DUP2 SSTORE PUSH1 0x1 DUP2 ADD PUSH2 0x4EE4 DUP9 DUP3 SLOAD PUSH2 0x493F JUMP JUMPDEST SWAP1 SSTORE ADD PUSH2 0x4EF2 DUP7 DUP3 SLOAD PUSH2 0x493F JUMP JUMPDEST SWAP1 SSTORE SLOAD DUP1 SWAP4 SLOAD PUSH2 0x4A30 JUMP JUMPDEST SWAP2 DUP2 MLOAD SWAP4 DUP5 MSTORE PUSH1 0x20 DUP5 ADD MSTORE DUP3 ADD MSTORE LOG2 JUMP JUMPDEST PUSH1 0x2 DUP4 ADD SLOAD PUSH2 0x4F1C SWAP2 PUSH2 0x4A30 JUMP JUMPDEST DUP1 DUP8 GT ISZERO PUSH2 0x4E8C JUMPI DUP5 MLOAD PUSH4 0xDBAA733B PUSH1 0xE0 SHL DUP2 MSTORE SWAP2 DUP3 ADD DUP8 SWAP1 MSTORE PUSH1 0x24 DUP3 ADD MSTORE PUSH1 0x44 SWAP2 POP REVERT JUMPDEST PUSH1 0x1 DUP5 ADD SLOAD PUSH2 0x4F4F SWAP2 PUSH2 0x4A30 JUMP JUMPDEST DUP1 DUP9 GT ISZERO PUSH2 0x4E81 JUMPI DUP3 PUSH1 0x44 SWAP2 DUP10 DUP9 MLOAD SWAP3 PUSH4 0x597044DF PUSH1 0xE1 SHL DUP5 MSTORE DUP4 ADD MSTORE PUSH1 0x24 DUP3 ADD MSTORE REVERT JUMPDEST DUP4 SLOAD PUSH2 0x4F7E SWAP2 PUSH2 0x4A30 JUMP JUMPDEST DUP1 DUP9 GT ISZERO PUSH2 0x4E75 JUMPI DUP3 PUSH1 0x44 SWAP2 DUP10 DUP9 MLOAD SWAP3 PUSH4 0x77B326B5 PUSH1 0xE1 SHL DUP5 MSTORE DUP4 ADD MSTORE PUSH1 0x24 DUP3 ADD MSTORE REVERT JUMPDEST PUSH1 0x2 DUP6 ADD SSTORE TIMESTAMP SWAP1 SSTORE CODESIZE DUP1 PUSH2 0x4E68 JUMP JUMPDEST DUP2 PUSH1 0x1 DUP7 ADD SSTORE TIMESTAMP SWAP1 SSTORE CODESIZE PUSH2 0x4E51 JUMP JUMPDEST DUP2 DUP6 SSTORE TIMESTAMP SWAP1 SSTORE CODESIZE PUSH2 0x4E3C JUMP JUMPDEST DUP3 PUSH1 0x44 SWAP2 DUP10 DUP9 MLOAD SWAP3 PUSH4 0x29A8B5F PUSH1 0xE4 SHL DUP5 MSTORE DUP4 ADD MSTORE PUSH1 0x24 DUP3 ADD MSTORE REVERT JUMPDEST DUP2 MLOAD PUSH4 0x3371E5A1 PUSH1 0xE2 SHL DUP2 MSTORE PUSH1 0x4 SWAP1 REVERT JUMPDEST PUSH1 0x5 DUP2 LT ISZERO PUSH2 0x555 JUMPI DUP1 ISZERO PUSH2 0x504D JUMPI PUSH1 0x1 DUP2 EQ PUSH2 0x5045 JUMPI PUSH1 0x2 DUP2 EQ PUSH2 0x503D JUMPI PUSH1 0x3 DUP2 EQ PUSH2 0x5035 JUMPI PUSH1 0x4 EQ PUSH2 0x502E JUMPI PUSH3 0x278D00 SWAP1 JUMP JUMPDEST PUSH3 0x76A700 SWAP1 JUMP JUMPDEST POP PUSH3 0x278D00 SWAP1 JUMP JUMPDEST POP PUSH3 0x127500 SWAP1 JUMP JUMPDEST POP PUSH3 0x93A80 SWAP1 JUMP JUMPDEST POP PUSH3 0x15180 SWAP1 JUMP INVALID 0xE2 DELEGATECALL 0xEA 0xAE 0x4A SWAP8 MLOAD 0xE8 GAS RETURNDATACOPY 0x4A PUSH28 0x9587827A877F29914755229B07A7B2DA98285F70A264697066735822 SLT KECCAK256 SWAP3 SLOAD 0xD0 0xE1 0xDB PUSH32 0xCA3995F513D3F2FCE9319CDED9E74FF8503F1BE85779FEC28C4564736F6C6343 STOP ADDMOD SGT STOP CALLER 0x2F DUP8 DUP9 GT PUSH31 0x7EFF1D82E926EC794901D17C78024A50270940304540A733656F0DAD3228B6 PUSH23 0xF7D3CD4284A5443F17F1962B36E491B30A40B2405849E5 SWAP8 0xBA 0x5F 0xB5 "},"methodIdentifiers":{"ADMIN_ROLE()":"75b238fc","BUDGET_MANAGER_ROLE()":"1dacb969","DEFAULT_ADMIN_ROLE()":"a217fddf","EMERGENCY_TIMELOCK()":"60d7442b","LARGE_TIMELOCK()":"0f7a253b","LARGE_TX_THRESHOLD()":"ca1fb4d5","MAX_DELEGATION_PERIOD()":"d669078d","PROPOSAL_EXPIRY()":"8a14e3d0","SIGNER_COOLDOWN()":"741a2d29","SIGNER_ROLE()":"a1ebf35d","SMALL_TX_THRESHOLD()":"cbf675c9","STANDARD_TIMELOCK()":"38757990","YIELD_MANAGER_ROLE()":"fe9e9640","activeBudgetIds(uint256)":"d18f51c2","activeRecurringPaymentIds(uint256)":"472f2b3d","addSigner(address)":"eb12d61e","allocateToYield(address,address,uint256)":"8d203550","approveProposal(bytes32)":"f20b5b2c","approveYieldProtocol(address,string,uint256)":"6a9023da","budgetNonce()":"1fcd8642","budgets(bytes32)":"3368f899","cancelProposal(bytes32)":"37376ca8","createBudget(string,uint8,uint256,uint256,uint256,uint256,uint256)":"5d286913","createProposal(address,address,uint256,uint8,string,bool,bytes32)":"8f5f1bb9","createRecurringPayment(address,address,uint256,uint8,uint8,string,uint256,bytes32)":"6ab31fc3","delegateSigningAuthority(address,uint256)":"5e9a79d0","delegations(address)":"bffe3486","executeProposal(bytes32)":"980ff6c6","executeRecurringPayment(bytes32)":"b8dca440","getActiveBudgets()":"02d07f2c","getBudget(bytes32)":"546887a3","getProposal(bytes32)":"430694cf","getRecurringPayment(bytes32)":"b57939c1","getRoleAdmin(bytes32)":"248a9ca3","getSignerConfig()":"b60953ca","getSigners()":"94cf795e","getSpendingTracker(bytes32)":"186fd634","grantRole(bytes32,address)":"2f2ff15d","hasApproved(bytes32,address)":"23cdc3f1","hasRole(bytes32,address)":"91d14854","noblePayContract()":"d38df2ac","pause()":"8456cb59","paused()":"5c975abb","proposalApprovals(bytes32,address)":"97d73669","proposalNonce()":"cc3c74a1","proposalRejections(bytes32,address)":"c4eb9fc1","proposals(bytes32)":"32ed5b12","recurringNonce()":"424af6b7","recurringPayments(bytes32)":"125ff8a3","rejectProposal(bytes32)":"11ab31ed","removeSigner(address)":"0e316ab7","renounceRole(bytes32,address)":"36568abe","revokeDelegation(address)":"808d5014","revokeRecurringPayment(bytes32)":"7d46cb98","revokeRole(bytes32,address)":"d547741f","setNoblePayContract(address)":"f6c239fb","setSupportedToken(address,bool)":"e7986466","signerAddedAt(address)":"22d42b57","signerConfig()":"0828973b","signers(uint256)":"2079fb9a","spendingTrackers(bytes32)":"19d9a21b","supportedTokens(address)":"68c4ac26","supportsInterface(bytes4)":"01ffc9a7","unpause()":"3f4ba83a","updateSignerConfig(uint256,uint256,uint256,uint256)":"02ec5cfe","yieldProtocols(address)":"29307854"}}}}}