{
  "_format": "hh-sol-artifact-1",
  "contractName": "StreamingPayments",
  "sourceName": "src/StreamingPayments.sol",
  "abi": [
    {
      "inputs": [
        {
          "internalType": "address",
          "name": "_admin",
          "type": "address"
        }
      ],
      "stateMutability": "nonpayable",
      "type": "constructor"
    },
    {
      "inputs": [],
      "name": "ArrayLengthMismatch",
      "type": "error"
    },
    {
      "inputs": [
        {
          "internalType": "uint256",
          "name": "provided",
          "type": "uint256"
        },
        {
          "internalType": "uint256",
          "name": "maximum",
          "type": "uint256"
        }
      ],
      "name": "BatchTooLarge",
      "type": "error"
    },
    {
      "inputs": [],
      "name": "CliffExceedsDuration",
      "type": "error"
    },
    {
      "inputs": [
        {
          "internalType": "uint256",
          "name": "cliffEnd",
          "type": "uint256"
        },
        {
          "internalType": "uint256",
          "name": "currentTime",
          "type": "uint256"
        }
      ],
      "name": "CliffNotReached",
      "type": "error"
    },
    {
      "inputs": [
        {
          "internalType": "uint256",
          "name": "provided",
          "type": "uint256"
        },
        {
          "internalType": "uint256",
          "name": "maximum",
          "type": "uint256"
        }
      ],
      "name": "CliffTooLong",
      "type": "error"
    },
    {
      "inputs": [
        {
          "internalType": "uint256",
          "name": "required",
          "type": "uint256"
        },
        {
          "internalType": "uint256",
          "name": "provided",
          "type": "uint256"
        }
      ],
      "name": "InsufficientDeposit",
      "type": "error"
    },
    {
      "inputs": [
        {
          "internalType": "uint256",
          "name": "provided",
          "type": "uint256"
        },
        {
          "internalType": "uint256",
          "name": "minimum",
          "type": "uint256"
        }
      ],
      "name": "InvalidDuration",
      "type": "error"
    },
    {
      "inputs": [],
      "name": "InvalidRecipient",
      "type": "error"
    },
    {
      "inputs": [],
      "name": "NothingToWithdraw",
      "type": "error"
    },
    {
      "inputs": [],
      "name": "StreamAlreadyPaused",
      "type": "error"
    },
    {
      "inputs": [],
      "name": "StreamNotActive",
      "type": "error"
    },
    {
      "inputs": [],
      "name": "StreamNotFound",
      "type": "error"
    },
    {
      "inputs": [],
      "name": "StreamNotPaused",
      "type": "error"
    },
    {
      "inputs": [],
      "name": "Unauthorized",
      "type": "error"
    },
    {
      "inputs": [],
      "name": "ZeroAddress",
      "type": "error"
    },
    {
      "inputs": [],
      "name": "ZeroAmount",
      "type": "error"
    },
    {
      "anonymous": false,
      "inputs": [
        {
          "indexed": true,
          "internalType": "address",
          "name": "sender",
          "type": "address"
        },
        {
          "indexed": false,
          "internalType": "uint256",
          "name": "streamCount",
          "type": "uint256"
        },
        {
          "indexed": false,
          "internalType": "uint256",
          "name": "totalAmount",
          "type": "uint256"
        }
      ],
      "name": "BatchStreamsCreated",
      "type": "event"
    },
    {
      "anonymous": false,
      "inputs": [
        {
          "indexed": false,
          "internalType": "address",
          "name": "account",
          "type": "address"
        }
      ],
      "name": "Paused",
      "type": "event"
    },
    {
      "anonymous": false,
      "inputs": [
        {
          "indexed": true,
          "internalType": "bytes32",
          "name": "role",
          "type": "bytes32"
        },
        {
          "indexed": true,
          "internalType": "bytes32",
          "name": "previousAdminRole",
          "type": "bytes32"
        },
        {
          "indexed": true,
          "internalType": "bytes32",
          "name": "newAdminRole",
          "type": "bytes32"
        }
      ],
      "name": "RoleAdminChanged",
      "type": "event"
    },
    {
      "anonymous": false,
      "inputs": [
        {
          "indexed": true,
          "internalType": "bytes32",
          "name": "role",
          "type": "bytes32"
        },
        {
          "indexed": true,
          "internalType": "address",
          "name": "account",
          "type": "address"
        },
        {
          "indexed": true,
          "internalType": "address",
          "name": "sender",
          "type": "address"
        }
      ],
      "name": "RoleGranted",
      "type": "event"
    },
    {
      "anonymous": false,
      "inputs": [
        {
          "indexed": true,
          "internalType": "bytes32",
          "name": "role",
          "type": "bytes32"
        },
        {
          "indexed": true,
          "internalType": "address",
          "name": "account",
          "type": "address"
        },
        {
          "indexed": true,
          "internalType": "address",
          "name": "sender",
          "type": "address"
        }
      ],
      "name": "RoleRevoked",
      "type": "event"
    },
    {
      "anonymous": false,
      "inputs": [
        {
          "indexed": true,
          "internalType": "bytes32",
          "name": "streamId",
          "type": "bytes32"
        },
        {
          "indexed": false,
          "internalType": "uint256",
          "name": "recipientAmount",
          "type": "uint256"
        },
        {
          "indexed": false,
          "internalType": "uint256",
          "name": "senderRefund",
          "type": "uint256"
        },
        {
          "indexed": false,
          "internalType": "uint256",
          "name": "cancelledAt",
          "type": "uint256"
        }
      ],
      "name": "StreamCancelled",
      "type": "event"
    },
    {
      "anonymous": false,
      "inputs": [
        {
          "indexed": true,
          "internalType": "bytes32",
          "name": "streamId",
          "type": "bytes32"
        },
        {
          "indexed": false,
          "internalType": "uint256",
          "name": "completedAt",
          "type": "uint256"
        }
      ],
      "name": "StreamCompleted",
      "type": "event"
    },
    {
      "anonymous": false,
      "inputs": [
        {
          "indexed": true,
          "internalType": "bytes32",
          "name": "streamId",
          "type": "bytes32"
        },
        {
          "indexed": true,
          "internalType": "address",
          "name": "sender",
          "type": "address"
        },
        {
          "indexed": true,
          "internalType": "address",
          "name": "recipient",
          "type": "address"
        },
        {
          "indexed": false,
          "internalType": "address",
          "name": "token",
          "type": "address"
        },
        {
          "indexed": false,
          "internalType": "uint256",
          "name": "totalAmount",
          "type": "uint256"
        },
        {
          "indexed": false,
          "internalType": "uint256",
          "name": "ratePerSecond",
          "type": "uint256"
        },
        {
          "indexed": false,
          "internalType": "uint256",
          "name": "startTime",
          "type": "uint256"
        },
        {
          "indexed": false,
          "internalType": "uint256",
          "name": "endTime",
          "type": "uint256"
        },
        {
          "indexed": false,
          "internalType": "uint256",
          "name": "cliffEndTime",
          "type": "uint256"
        }
      ],
      "name": "StreamCreated",
      "type": "event"
    },
    {
      "anonymous": false,
      "inputs": [
        {
          "indexed": true,
          "internalType": "bytes32",
          "name": "streamId",
          "type": "bytes32"
        },
        {
          "indexed": false,
          "internalType": "uint256",
          "name": "pausedAt",
          "type": "uint256"
        }
      ],
      "name": "StreamPaused",
      "type": "event"
    },
    {
      "anonymous": false,
      "inputs": [
        {
          "indexed": true,
          "internalType": "bytes32",
          "name": "streamId",
          "type": "bytes32"
        },
        {
          "indexed": false,
          "internalType": "uint256",
          "name": "resumedAt",
          "type": "uint256"
        },
        {
          "indexed": false,
          "internalType": "uint256",
          "name": "pausedDuration",
          "type": "uint256"
        }
      ],
      "name": "StreamResumed",
      "type": "event"
    },
    {
      "anonymous": false,
      "inputs": [
        {
          "indexed": false,
          "internalType": "address",
          "name": "account",
          "type": "address"
        }
      ],
      "name": "Unpaused",
      "type": "event"
    },
    {
      "anonymous": false,
      "inputs": [
        {
          "indexed": true,
          "internalType": "bytes32",
          "name": "streamId",
          "type": "bytes32"
        },
        {
          "indexed": true,
          "internalType": "address",
          "name": "recipient",
          "type": "address"
        },
        {
          "indexed": false,
          "internalType": "uint256",
          "name": "amount",
          "type": "uint256"
        },
        {
          "indexed": false,
          "internalType": "uint256",
          "name": "timestamp",
          "type": "uint256"
        }
      ],
      "name": "Withdrawal",
      "type": "event"
    },
    {
      "inputs": [],
      "name": "DEFAULT_ADMIN_ROLE",
      "outputs": [
        {
          "internalType": "bytes32",
          "name": "",
          "type": "bytes32"
        }
      ],
      "stateMutability": "view",
      "type": "function"
    },
    {
      "inputs": [],
      "name": "MAX_BATCH_SIZE",
      "outputs": [
        {
          "internalType": "uint256",
          "name": "",
          "type": "uint256"
        }
      ],
      "stateMutability": "view",
      "type": "function"
    },
    {
      "inputs": [],
      "name": "MAX_CLIFF_PERIOD",
      "outputs": [
        {
          "internalType": "uint256",
          "name": "",
          "type": "uint256"
        }
      ],
      "stateMutability": "view",
      "type": "function"
    },
    {
      "inputs": [],
      "name": "MIN_STREAM_DURATION",
      "outputs": [
        {
          "internalType": "uint256",
          "name": "",
          "type": "uint256"
        }
      ],
      "stateMutability": "view",
      "type": "function"
    },
    {
      "inputs": [],
      "name": "STREAM_ADMIN_ROLE",
      "outputs": [
        {
          "internalType": "bytes32",
          "name": "",
          "type": "bytes32"
        }
      ],
      "stateMutability": "view",
      "type": "function"
    },
    {
      "inputs": [
        {
          "internalType": "bytes32",
          "name": "_streamId",
          "type": "bytes32"
        }
      ],
      "name": "cancelStream",
      "outputs": [],
      "stateMutability": "nonpayable",
      "type": "function"
    },
    {
      "inputs": [
        {
          "internalType": "address[]",
          "name": "_recipients",
          "type": "address[]"
        },
        {
          "internalType": "address",
          "name": "_token",
          "type": "address"
        },
        {
          "internalType": "uint256[]",
          "name": "_amounts",
          "type": "uint256[]"
        },
        {
          "internalType": "uint256",
          "name": "_duration",
          "type": "uint256"
        },
        {
          "internalType": "uint256",
          "name": "_cliffPeriod",
          "type": "uint256"
        }
      ],
      "name": "createBatchStreams",
      "outputs": [
        {
          "internalType": "bytes32[]",
          "name": "streamIds",
          "type": "bytes32[]"
        }
      ],
      "stateMutability": "nonpayable",
      "type": "function"
    },
    {
      "inputs": [
        {
          "internalType": "address",
          "name": "_recipient",
          "type": "address"
        },
        {
          "internalType": "address",
          "name": "_token",
          "type": "address"
        },
        {
          "internalType": "uint256",
          "name": "_totalAmount",
          "type": "uint256"
        },
        {
          "internalType": "uint256",
          "name": "_duration",
          "type": "uint256"
        },
        {
          "internalType": "uint256",
          "name": "_cliffPeriod",
          "type": "uint256"
        }
      ],
      "name": "createStream",
      "outputs": [
        {
          "internalType": "bytes32",
          "name": "streamId",
          "type": "bytes32"
        }
      ],
      "stateMutability": "nonpayable",
      "type": "function"
    },
    {
      "inputs": [
        {
          "internalType": "bytes32",
          "name": "_streamId",
          "type": "bytes32"
        }
      ],
      "name": "getEffectiveElapsed",
      "outputs": [
        {
          "internalType": "uint256",
          "name": "",
          "type": "uint256"
        }
      ],
      "stateMutability": "view",
      "type": "function"
    },
    {
      "inputs": [
        {
          "internalType": "address",
          "name": "_recipient",
          "type": "address"
        }
      ],
      "name": "getRecipientStreamCount",
      "outputs": [
        {
          "internalType": "uint256",
          "name": "",
          "type": "uint256"
        }
      ],
      "stateMutability": "view",
      "type": "function"
    },
    {
      "inputs": [
        {
          "internalType": "bytes32",
          "name": "role",
          "type": "bytes32"
        }
      ],
      "name": "getRoleAdmin",
      "outputs": [
        {
          "internalType": "bytes32",
          "name": "",
          "type": "bytes32"
        }
      ],
      "stateMutability": "view",
      "type": "function"
    },
    {
      "inputs": [
        {
          "internalType": "address",
          "name": "_sender",
          "type": "address"
        }
      ],
      "name": "getSenderStreamCount",
      "outputs": [
        {
          "internalType": "uint256",
          "name": "",
          "type": "uint256"
        }
      ],
      "stateMutability": "view",
      "type": "function"
    },
    {
      "inputs": [
        {
          "internalType": "bytes32",
          "name": "_streamId",
          "type": "bytes32"
        }
      ],
      "name": "getStream",
      "outputs": [
        {
          "components": [
            {
              "internalType": "address",
              "name": "sender",
              "type": "address"
            },
            {
              "internalType": "address",
              "name": "recipient",
              "type": "address"
            },
            {
              "internalType": "address",
              "name": "token",
              "type": "address"
            },
            {
              "internalType": "uint256",
              "name": "totalAmount",
              "type": "uint256"
            },
            {
              "internalType": "uint256",
              "name": "withdrawnAmount",
              "type": "uint256"
            },
            {
              "internalType": "uint256",
              "name": "ratePerSecond",
              "type": "uint256"
            },
            {
              "internalType": "uint256",
              "name": "startTime",
              "type": "uint256"
            },
            {
              "internalType": "uint256",
              "name": "endTime",
              "type": "uint256"
            },
            {
              "internalType": "uint256",
              "name": "cliffEndTime",
              "type": "uint256"
            },
            {
              "internalType": "uint256",
              "name": "lastWithdrawTime",
              "type": "uint256"
            },
            {
              "internalType": "uint256",
              "name": "pausedAt",
              "type": "uint256"
            },
            {
              "internalType": "uint256",
              "name": "totalPausedDuration",
              "type": "uint256"
            },
            {
              "internalType": "enum StreamingPayments.StreamStatus",
              "name": "status",
              "type": "uint8"
            }
          ],
          "internalType": "struct StreamingPayments.Stream",
          "name": "",
          "type": "tuple"
        }
      ],
      "stateMutability": "view",
      "type": "function"
    },
    {
      "inputs": [
        {
          "internalType": "bytes32",
          "name": "role",
          "type": "bytes32"
        },
        {
          "internalType": "address",
          "name": "account",
          "type": "address"
        }
      ],
      "name": "grantRole",
      "outputs": [],
      "stateMutability": "nonpayable",
      "type": "function"
    },
    {
      "inputs": [
        {
          "internalType": "bytes32",
          "name": "role",
          "type": "bytes32"
        },
        {
          "internalType": "address",
          "name": "account",
          "type": "address"
        }
      ],
      "name": "hasRole",
      "outputs": [
        {
          "internalType": "bool",
          "name": "",
          "type": "bool"
        }
      ],
      "stateMutability": "view",
      "type": "function"
    },
    {
      "inputs": [],
      "name": "pause",
      "outputs": [],
      "stateMutability": "nonpayable",
      "type": "function"
    },
    {
      "inputs": [
        {
          "internalType": "bytes32",
          "name": "_streamId",
          "type": "bytes32"
        }
      ],
      "name": "pauseStream",
      "outputs": [],
      "stateMutability": "nonpayable",
      "type": "function"
    },
    {
      "inputs": [],
      "name": "paused",
      "outputs": [
        {
          "internalType": "bool",
          "name": "",
          "type": "bool"
        }
      ],
      "stateMutability": "view",
      "type": "function"
    },
    {
      "inputs": [
        {
          "internalType": "address",
          "name": "",
          "type": "address"
        },
        {
          "internalType": "uint256",
          "name": "",
          "type": "uint256"
        }
      ],
      "name": "recipientStreams",
      "outputs": [
        {
          "internalType": "bytes32",
          "name": "",
          "type": "bytes32"
        }
      ],
      "stateMutability": "view",
      "type": "function"
    },
    {
      "inputs": [
        {
          "internalType": "bytes32",
          "name": "_streamId",
          "type": "bytes32"
        }
      ],
      "name": "remainingBalance",
      "outputs": [
        {
          "internalType": "uint256",
          "name": "",
          "type": "uint256"
        }
      ],
      "stateMutability": "view",
      "type": "function"
    },
    {
      "inputs": [
        {
          "internalType": "bytes32",
          "name": "role",
          "type": "bytes32"
        },
        {
          "internalType": "address",
          "name": "account",
          "type": "address"
        }
      ],
      "name": "renounceRole",
      "outputs": [],
      "stateMutability": "nonpayable",
      "type": "function"
    },
    {
      "inputs": [
        {
          "internalType": "bytes32",
          "name": "_streamId",
          "type": "bytes32"
        }
      ],
      "name": "resumeStream",
      "outputs": [],
      "stateMutability": "nonpayable",
      "type": "function"
    },
    {
      "inputs": [
        {
          "internalType": "bytes32",
          "name": "role",
          "type": "bytes32"
        },
        {
          "internalType": "address",
          "name": "account",
          "type": "address"
        }
      ],
      "name": "revokeRole",
      "outputs": [],
      "stateMutability": "nonpayable",
      "type": "function"
    },
    {
      "inputs": [
        {
          "internalType": "address",
          "name": "",
          "type": "address"
        },
        {
          "internalType": "uint256",
          "name": "",
          "type": "uint256"
        }
      ],
      "name": "senderStreams",
      "outputs": [
        {
          "internalType": "bytes32",
          "name": "",
          "type": "bytes32"
        }
      ],
      "stateMutability": "view",
      "type": "function"
    },
    {
      "inputs": [],
      "name": "streamNonce",
      "outputs": [
        {
          "internalType": "uint256",
          "name": "",
          "type": "uint256"
        }
      ],
      "stateMutability": "view",
      "type": "function"
    },
    {
      "inputs": [
        {
          "internalType": "bytes32",
          "name": "",
          "type": "bytes32"
        }
      ],
      "name": "streams",
      "outputs": [
        {
          "internalType": "address",
          "name": "sender",
          "type": "address"
        },
        {
          "internalType": "address",
          "name": "recipient",
          "type": "address"
        },
        {
          "internalType": "address",
          "name": "token",
          "type": "address"
        },
        {
          "internalType": "uint256",
          "name": "totalAmount",
          "type": "uint256"
        },
        {
          "internalType": "uint256",
          "name": "withdrawnAmount",
          "type": "uint256"
        },
        {
          "internalType": "uint256",
          "name": "ratePerSecond",
          "type": "uint256"
        },
        {
          "internalType": "uint256",
          "name": "startTime",
          "type": "uint256"
        },
        {
          "internalType": "uint256",
          "name": "endTime",
          "type": "uint256"
        },
        {
          "internalType": "uint256",
          "name": "cliffEndTime",
          "type": "uint256"
        },
        {
          "internalType": "uint256",
          "name": "lastWithdrawTime",
          "type": "uint256"
        },
        {
          "internalType": "uint256",
          "name": "pausedAt",
          "type": "uint256"
        },
        {
          "internalType": "uint256",
          "name": "totalPausedDuration",
          "type": "uint256"
        },
        {
          "internalType": "enum StreamingPayments.StreamStatus",
          "name": "status",
          "type": "uint8"
        }
      ],
      "stateMutability": "view",
      "type": "function"
    },
    {
      "inputs": [
        {
          "internalType": "bytes4",
          "name": "interfaceId",
          "type": "bytes4"
        }
      ],
      "name": "supportsInterface",
      "outputs": [
        {
          "internalType": "bool",
          "name": "",
          "type": "bool"
        }
      ],
      "stateMutability": "view",
      "type": "function"
    },
    {
      "inputs": [
        {
          "internalType": "address",
          "name": "",
          "type": "address"
        }
      ],
      "name": "totalValueLocked",
      "outputs": [
        {
          "internalType": "uint256",
          "name": "",
          "type": "uint256"
        }
      ],
      "stateMutability": "view",
      "type": "function"
    },
    {
      "inputs": [],
      "name": "unpause",
      "outputs": [],
      "stateMutability": "nonpayable",
      "type": "function"
    },
    {
      "inputs": [
        {
          "internalType": "bytes32",
          "name": "_streamId",
          "type": "bytes32"
        }
      ],
      "name": "withdraw",
      "outputs": [],
      "stateMutability": "nonpayable",
      "type": "function"
    },
    {
      "inputs": [
        {
          "internalType": "bytes32",
          "name": "_streamId",
          "type": "bytes32"
        }
      ],
      "name": "withdrawableBalance",
      "outputs": [
        {
          "internalType": "uint256",
          "name": "",
          "type": "uint256"
        }
      ],
      "stateMutability": "view",
      "type": "function"
    }
  ],
  "bytecode": "0x6080346200015f57601f6200269938819003918201601f1916830192916001600160401b038411838510176200016457808392604095865283396020928391810103126200015f57516001600160a01b038116908190036200015f5760ff19918260015416600155600160025581156200014e57600092838052838252848420838552825260ff85852054161562000118575b7f11443b23617db34b01244d11705d34607a299c5a51f7a0bcb6a86e98bf8e1da991828552848152858520848652815260ff868620541615620000df575b85516124fe90816200017b8239f35b828552848152858520908486525260018585209182541617905560008051602062002679833981519152339380a43880808080620000d0565b8380528382528484208385528252848420600182825416179055338385600080516020620026798339815191528180a462000092565b835163d92e233d60e01b8152600490fd5b600080fd5b634e487b7160e01b600052604160045260246000fdfe608080604052600436101561001357600080fd5b60003560e01c90816301ffc9a7146118ac5750806306eb2dd31461154e5780631290abe8146113785780632019de281461132e578063207c80b914611310578063248a9ca3146112e15780632f2ff15d1461122e57806336568abe1461119c5780633f4ba83a1461110857806341966664146110e95780634aff33c8146110af57806350be339414610fd95780635c975abb14610fb65780637130fda714610f99578063716b4d7814610f5f5780637f7bd2df14610e955780638456cb5914610e3c57806388b8947c14610e115780638e19899e14610c8957806391d1485414610c3c578063925286ea14610c0257806395dfb95114610ad5578063a217fddf14610ab9578063affcd5d2146104b8578063cb3d97d9146102c5578063cbde7546146102a7578063cfdbf2541461028b578063d547741f1461024a578063d71ba7c41461020c578063dbf13122146101b45763e713c3761461017457600080fd5b346101af5760003660031901126101af5760206040517f11443b23617db34b01244d11705d34607a299c5a51f7a0bcb6a86e98bf8e1da98152f35b600080fd5b346101af5760403660031901126101af576101cd6118ff565b6001600160a01b03166000908152600660205260409020805460243591908210156101af576020916101fe91611938565b90546040519160031b1c8152f35b346101af5760203660031901126101af5760043560005260046020526020610242604060002060046003820154910154906122fb565b604051908152f35b346101af5760403660031901126101af57610289600435610269611915565b90806000526000602052610284600160406000200154611b97565b611d60565b005b346101af5760003660031901126101af57602060405160328152f35b346101af5760003660031901126101af576020600354604051908152f35b346101af576020806003193601126101af57600435906102e3611fe4565b6102eb612028565b6000828152600482526040902080546001600160a01b03929083169182156104a657600c81019182549360ff851660048110156104905760028114908115610485575b506104735733141580610430575b61041f577fbb32c895f812fde8edd98f57f69d366b523483a3244ecb2148ba0bdc608db405946060946002936103a26103748a612358565b9660038301546004840154916103938a61038e85856122fb565b6122fb565b98899660ff19161790556122fb565b92600282019381855416600052600786526103c360406000209182546122fb565b905586610405575b826103ec575b50505050604051928352820152426040820152a26001600255005b806103fc94541691541690612308565b868281806103d1565b61041a87828654168360018601541690612308565b6103cb565b6040516282b42960e81b8152600490fd5b507f11443b23617db34b01244d11705d34607a299c5a51f7a0bcb6a86e98bf8e1da960005260008152604060002033600052815260ff604060002054161561033c565b6040516393813ce160e01b8152600490fd5b60039150148861032e565b634e487b7160e01b600052602160045260246000fd5b6040516309e4397760e11b8152600490fd5b346101af5760a03660031901126101af5767ffffffffffffffff6004358181116101af576104ea903690600401611950565b90916104f4611915565b906044359081116101af5761050d903690600401611950565b90610516611fe4565b61051e612028565b83156109df5760328411610a9957818403610a87576001600160a01b03831615610a0357610e108060643510610a6757506301e133808060843511610a4757506064356084351015610a355760009260005b858110610a15575061058d8430336001600160a01b03851661207c565b60018060a01b038116600052600760205260406000206105ae858254611dd4565b90556105b9856122cf565b956105c76040519788611d12565b858752601f196105d6876122cf565b013660208901376105e960643542611dd4565b906105f660843542611dd4565b9260005b88811061067a5789898960405191825260208201527f053f783d389e5090ee396df45dd9d77eb3c57eca236301da6e8a75ab26c02d0660403392a2600180600255604051906020820160208352835180915260206040840194019060005b8181106106655784860385f35b82518652602095860195909201918301610658565b6001600160a01b03610695610690838c876122bf565b6122e7565b1615610a0357336001600160a01b036106b2610690848d886122bf565b16146109f1576106c38188886122bf565b35156109df576106e06064356106da838a8a6122bf565b35611f17565b906106ec821515611f37565b6106fa610690828c876122bf565b610705828a8a6122bf565b356107706003549161071683611f83565b6003556040516bffffffffffffffffffffffff1933606090811b82166020840190815296811b8216603484015289901b166048820152605c810191909152607c81019290925281609c81015b03601f198101835282611d12565b519020918b518210156109c9578260208d8460051b010152610796610690838d886122bf565b926107a2838b8b6122bf565b35604051946107b086611cc3565b33865260018060a01b0316602086015260018060a01b03861660408601526060850152600060808501528160a08501524260c08501528660e0850152876101008501524261012085015260006101408501526000610160850152600061018085015280600052600460205261018060406000209460018060a01b038151166001600160601b0360a01b8754161786556001860160018060a01b036020830151166001600160601b0360a01b8254161790556002860160018060a01b036040830151166001600160601b0360a01b825416179055606081015160038701556080810151600487015560a0810151600587015560c0810151600687015560e0810151600787015561010081015160088701556101208101516009870155610140810151600a870155610160810151600b8701550151906004821015610490577f717fb144a4b66b6cb89c7d7836754af84e1d163fea9d4536cc74702e5bf189088661097d8f8e6109778f978a80948f61093060019f94600c6106909601611f92565b3360005260056020526109478b6040600020611faa565b8e8060a01b0361095b6106908585856122bf565b1660005260066020526109728b6040600020611faa565b6122bf565b966122bf565b604080516001600160a01b03939093168352903560208301528101949094524260608501526080840189905260a08085018b905286901b869003929092169233929060c090a4016105fa565b634e487b7160e01b600052603260045260246000fd5b604051631f2a200560e01b8152600490fd5b604051634e46966960e11b8152600490fd5b60405163d92e233d60e01b8152600490fd5b93610a2e600191610a278787876122bf565b3590611dd4565b9401610570565b6040516371e69f9360e11b8152600490fd5b60449060405190633141415160e01b825260843560048301526024820152fd5b6044906040519063387a058b60e01b825260643560048301526024820152fd5b60405163512509d360e11b8152600490fd5b60405163bb1cb70b60e01b81526004810185905260326024820152604490fd5b346101af5760003660031901126101af57602060405160008152f35b346101af5760203660031901126101af57600435610af1611fe4565b600081815260046020526040902080546001600160a01b031680156104a657600c82019182549160ff8316600481101561049057600103610bf05733141580610bb7575b61041f577f67378ce188b792c571058050f012103bfbb4b4c5d66b4341ce417d3f222901fd926040926000600a84016008610b718254426122fb565b95600b8101610b81888254611dd4565b905560078101610b92888254611dd4565b905501610ba0868254611dd4565b90555560ff191690558151904282526020820152a2005b503360009081527f24542f580711c0f0826877521f752bd488871c99c01e157cbb6f2e8a8759dacb602052604090205460ff1615610b35565b60405163077fa5f360e31b8152600490fd5b346101af5760203660031901126101af576001600160a01b03610c236118ff565b1660005260066020526020604060002054604051908152f35b346101af5760403660031901126101af57610c55611915565b600435600052600060205260406000209060018060a01b0316600052602052602060ff604060002054166040519015158152f35b346101af5760203660031901126101af57600435610ca5611fe4565b610cad612028565b600081815260046020526040902080546001600160a01b039291908316156104a657600c81019060ff82541660048110156104905761047357600181019380855416330361041f576008820154804210610df35750610d0b84612358565b948515610de157610d908683857f2865d567636cfb8b64e349af19627e3ef92dc0c2cabfe3b1fd3e659425938e8f9760046040980191610d4c858454611dd4565b8355426009820155600360028201938585541660005260076020528a600020610d768882546122fb565b9055549101541115610da6575b5054168484541690612308565b5416938151908152426020820152a36001600255005b600360ff19825416179055887ff36c430bc940c04132212a8fe964af1705d6f28a641cf90b21c840a750933eb860208951428152a28a610d83565b604051630686827b60e51b8152600490fd5b60449060405190632f4b66b560e11b82526004820152426024820152fd5b346101af5760203660031901126101af57600435600052600460205260206102426040600020612456565b346101af5760003660031901126101af57610e55611981565b610e5d611fe4565b600160ff19815416176001557f62e78cea01bee320cd4e420270b5ea74000d11b0c9f74754ebdbfc544b05a2586020604051338152a1005b346101af5760203660031901126101af5760043560005260046020526101a06040600020610f5d60018060a01b03808354169281600182015416916002820154166003820154600483015460058401546006850154600786015491600887015493600988015495600a8901549760ff600c600b8c01549b0154169a60206040519e8f908152015260408d015260608c015260808b015260a08a015260c089015260e088015261010087015261012086015261014085015261016084015261018083019061192b565bf35b346101af5760203660031901126101af576001600160a01b03610f806118ff565b1660005260056020526020604060002054604051908152f35b346101af5760003660031901126101af576020604051610e108152f35b346101af5760003660031901126101af57602060ff600154166040519015158152f35b346101af5760203660031901126101af57600435610ff5611fe4565b600081815260046020526040902080546001600160a01b031680156104a657600c82019081549060ff82166004811015610490576104735733141580611076575b61041f5760019060ff1916179055600a429101557ffacec5cbc0fc96fa82af9be34ee99eb885a40c2f2ea1bff73704ea4e209950496020604051428152a2005b503360009081527f24542f580711c0f0826877521f752bd488871c99c01e157cbb6f2e8a8759dacb602052604090205460ff1615611036565b346101af5760203660031901126101af576001600160a01b036110d06118ff565b1660005260076020526020604060002054604051908152f35b346101af5760003660031901126101af5760206040516301e133808152f35b346101af5760003660031901126101af57611121611981565b60015460ff8116156111605760ff19166001557f5db9ee0a495bf2e6ff9c91a7834c1ba4fdd244a5e8aa4e537bd38aeae4b073aa6020604051338152a1005b60405162461bcd60e51b815260206004820152601460248201527314185d5cd8589b194e881b9bdd081c185d5cd95960621b6044820152606490fd5b346101af5760403660031901126101af576111b5611915565b336001600160a01b038216036111d15761028990600435611d60565b60405162461bcd60e51b815260206004820152602f60248201527f416363657373436f6e74726f6c3a2063616e206f6e6c792072656e6f756e636560448201526e103937b632b9903337b91039b2b63360891b6064820152608490fd5b346101af5760403660031901126101af5760043561124a611915565b816000526000602052611264600160406000200154611b97565b81600052600060205260406000209060018060a01b0316908160005260205260ff604060002054161561129357005b8160005260006020526040600020816000526020526040600020600160ff1982541617905533917f2f8788117e7eff1d82e926ec794901d17c78024a50270940304540a733656f0d600080a4005b346101af5760203660031901126101af5760043560005260006020526020600160406000200154604051908152f35b346101af5760203660031901126101af576020610242600435612358565b346101af5760403660031901126101af576113476118ff565b6001600160a01b03166000908152600560205260409020805460243591908210156101af576020916101fe91611938565b346101af5760203660031901126101af57600061018060405161139a81611cc3565b8281528260208201528260408201528260608201528260808201528260a08201528260c08201528260e08201528261010082015282610120820152826101408201528261016082015201526004356000526004602052604060002060ff600c6040519261140684611cc3565b80546001600160a01b0390811685526001820154811660208601526002820154166040850152600381015460608501526004808201546080860152600582015460a0860152600682015460c0860152600782015460e086015260088201546101008601526009820154610120860152600a820154610140860152600b820154610160860152910154919091169190821015610490576101a091610180820152610f5d6101806040519260018060a01b03815116845260018060a01b03602082015116602085015260018060a01b036040820151166040850152606081015160608501526080810151608085015260a081015160a085015260c081015160c085015260e081015160e0850152610100810151610100850152610120810151610120850152610140810151610140850152610160810151610160850152015161018083019061192b565b346101af5760a03660031901126101af576115676118ff565b61156f611915565b611577611fe4565b61157f612028565b6001600160a01b03821615610a03576001600160a01b03821633146109f1576001600160a01b03811615610a0357604435156109df57610e108060643510610a6757506301e133808060843511610a4757506064356084351015610a35576115eb606435604435611f17565b906115f7821515611f37565b61160e60443530336001600160a01b03851661207c565b61161a60643542611dd4565b9161162760843542611dd4565b60035461163381611f83565b60035560405133606090811b6bffffffffffffffffffffffff199081166020840190815289831b821660348501529187901b166048830152604435605c830152607c82019290925261168881609c8101610762565b519020936040519061169982611cc3565b33825260018060a01b038716602083015260018060a01b03851660408301526044356060830152600060808301528360a08301524260c08301528060e0830152826101008301524261012083015260006101408301526000610160830152600061018083015285600052600460205261018060406000209260018060a01b038151166001600160601b0360a01b90818654161785556001850160018060a01b0360208401511682825416179055600285019060018060a01b0360408401511690825416179055606081015160038501556080810151600485015560a0810151600585015560c0810151600685015560e0810151600785015561010081015160088501556101208101516009850155610140810151600a850155610160810151600b85015501519660048810156104905761189c87946117fe60209a600c7f717fb144a4b66b6cb89c7d7836754af84e1d163fea9d4536cc74702e5bf189089701611f92565b3360005260058a52611814866040600020611faa565b60018060a01b03831660005260068a52611832866040600020611faa565b60018060a01b03881660005260078a5260406000206118546044358254611dd4565b9055604080516001600160a01b03998a168152604435602082015290810197909752426060880152608087019390935260a086019290925290941693339390819060c0820190565b0390a46001600255604051908152f35b346101af5760203660031901126101af576004359063ffffffff60e01b82168092036101af57602091637965db0b60e01b81149081156118ee575b5015158152f35b6301ffc9a760e01b149050836118e7565b600435906001600160a01b03821682036101af57565b602435906001600160a01b03821682036101af57565b9060048210156104905752565b80548210156109c95760005260206000200190600090565b9181601f840112156101af5782359167ffffffffffffffff83116101af576020808501948460051b0101116101af57565b3360009081527f24542f580711c0f0826877521f752bd488871c99c01e157cbb6f2e8a8759dacb60209081526040808320549092907f11443b23617db34b01244d11705d34607a299c5a51f7a0bcb6a86e98bf8e1da99060ff16156119e65750505050565b6119ef33611e08565b8451916119fb83611cf6565b60428352848301936060368637835115611b835760308553835190600191821015611b835790607860218601536041915b818311611b1557505050611ad357611a81938593611ab993611aaa604894611acf9951988576020b1b1b2b9b9a1b7b73a3937b61d1030b1b1b7bab73a1604d1b8b978801528251928391603789019101611ca0565b8401917001034b99036b4b9b9b4b733903937b6329607d1b603784015251809386840190611ca0565b01036028810185520183611d12565b5162461bcd60e51b815291829160048301611d34565b0390fd5b60648486519062461bcd60e51b825280600483015260248201527f537472696e67733a20686578206c656e67746820696e73756666696369656e746044820152fd5b909192600f81166010811015611b6f576f181899199a1a9b1b9c1cb0b131b232b360811b901a611b458588611df7565b5360041c928015611b5b57600019019190611a2c565b634e487b7160e01b82526011600452602482fd5b634e487b7160e01b83526032600452602483fd5b634e487b7160e01b81526032600452602490fd5b6000818152602090808252604092838220338352835260ff848320541615611bbf5750505050565b611bc833611e08565b845191611bd483611cf6565b60428352848301936060368637835115611b835760308553835190600191821015611b835790607860218601536041915b818311611c5a57505050611ad357611a81938593611ab993611aaa604894611acf9951988576020b1b1b2b9b9a1b7b73a3937b61d1030b1b1b7bab73a1604d1b8b978801528251928391603789019101611ca0565b909192600f81166010811015611b6f576f181899199a1a9b1b9c1cb0b131b232b360811b901a611c8a8588611df7565b5360041c928015611b5b57600019019190611c05565b60005b838110611cb35750506000910152565b8181015183820152602001611ca3565b6101a0810190811067ffffffffffffffff821117611ce057604052565b634e487b7160e01b600052604160045260246000fd5b6080810190811067ffffffffffffffff821117611ce057604052565b90601f8019910116810190811067ffffffffffffffff821117611ce057604052565b60409160208252611d548151809281602086015260208686019101611ca0565b601f01601f1916010190565b9060009180835282602052604083209160018060a01b03169182845260205260ff604084205416611d9057505050565b80835282602052604083208284526020526040832060ff1981541690557ff6391f5c32d9c69d2a47ea670b442974b53935d1edc7fd64eb21e047a839171b339380a4565b91908201809211611de157565b634e487b7160e01b600052601160045260246000fd5b9081518110156109c9570160200190565b604051906060820182811067ffffffffffffffff821117611ce057604052602a82526020820160403682378251156109c9576030905381516001908110156109c957607860218401536029905b808211611ea9575050611e655790565b606460405162461bcd60e51b815260206004820152602060248201527f537472696e67733a20686578206c656e67746820696e73756666696369656e746044820152fd5b9091600f81166010811015611f02576f181899199a1a9b1b9c1cb0b131b232b360811b901a611ed88486611df7565b5360041c918015611eed576000190190611e55565b60246000634e487b7160e01b81526011600452fd5b60246000634e487b7160e01b81526032600452fd5b8115611f21570490565b634e487b7160e01b600052601260045260246000fd5b15611f3e57565b60405162461bcd60e51b815260206004820152601f60248201527f53747265616d696e675061796d656e74733a207261746520746f6f206c6f77006044820152606490fd5b6000198114611de15760010190565b9060048110156104905760ff80198354169116179055565b805468010000000000000000811015611ce057611fcc91600182018155611938565b819291549060031b91821b91600019901b1916179055565b60ff60015416611ff057565b60405162461bcd60e51b815260206004820152601060248201526f14185d5cd8589b194e881c185d5cd95960821b6044820152606490fd5b60028054146120375760028055565b60405162461bcd60e51b815260206004820152601f60248201527f5265656e7472616e637947756172643a207265656e7472616e742063616c6c006044820152606490fd5b6040516323b872dd60e01b60208201526001600160a01b03928316602482015292909116604483015260648083019390935291815260a081019181831067ffffffffffffffff841117611ce0576120d5926040526120d7565b565b60018060a01b0316906040516040810167ffffffffffffffff9082811082821117611ce0576040526020938483527f5361666545524332303a206c6f772d6c6576656c2063616c6c206661696c6564858401526000808587829751910182855af1903d15612223573d92831161220f57906121729392916040519261216588601f19601f8401160185611d12565b83523d868885013e61222e565b8051918215918483156121e4575b50505090501561218d5750565b6084906040519062461bcd60e51b82526004820152602a60248201527f5361666545524332303a204552433230206f7065726174696f6e20646964206e6044820152691bdd081cdd58d8d9595960b21b6064820152fd5b91938180945001031261220b57820151908115158203612208575080388084612180565b80fd5b5080fd5b634e487b7160e01b85526041600452602485fd5b906121729392506060915b919290156122905750815115612242575090565b3b1561224b5790565b60405162461bcd60e51b815260206004820152601d60248201527f416464726573733a2063616c6c20746f206e6f6e2d636f6e74726163740000006044820152606490fd5b8251909150156122a35750805190602001fd5b60405162461bcd60e51b8152908190611acf9060048301611d34565b91908110156109c95760051b0190565b67ffffffffffffffff8111611ce05760051b60200190565b356001600160a01b03811681036101af5790565b91908203918211611de157565b60405163a9059cbb60e01b60208201526001600160a01b039092166024830152604480830193909352918152608081019167ffffffffffffffff831182841017611ce0576120d5926040526120d7565b600090815260046020526040812060ff600c8201541660048110156124425760028114908115612437575b5061243357600881015442106124335761239c81612456565b6123bd6123b260078401546006850154906122fb565b600b840154906122fb565b81106123ea575060046003820154915b015490818111156123e5576123e292506122fb565b90565b505090565b90600581015482810292818404149015171561241f576003810154808311612416575b506004906123cd565b9150600461240d565b634e487b7160e01b83526011600452602483fd5b5090565b600391501438612383565b634e487b7160e01b83526021600452602483fd5b4260ff600c83015416600481101561049057600114806124bb575b6124b0575b600682015490818111156124a857600b91612490916122fb565b910154600091818111156123e5576123e292506122fb565b505050600090565b50600a810154612476565b50600a820154151561247156fea2646970667358221220d9d028c3db63e1fdf84814e20b0d38a286ca9cd1504fd811cfff00c2b35812c864736f6c634300081300332f8788117e7eff1d82e926ec794901d17c78024a50270940304540a733656f0d",
  "linkReferences": {},
  "deployedLinkReferences": {}
}