{
  "_format": "hh-sol-artifact-1",
  "contractName": "NoblePay",
  "sourceName": "src/NoblePay.sol",
  "abi": [
    {
      "inputs": [
        {
          "internalType": "address",
          "name": "_admin",
          "type": "address"
        },
        {
          "internalType": "address",
          "name": "_treasury",
          "type": "address"
        },
        {
          "internalType": "uint256",
          "name": "_baseFee",
          "type": "uint256"
        },
        {
          "internalType": "uint256",
          "name": "_percentageFee",
          "type": "uint256"
        }
      ],
      "stateMutability": "nonpayable",
      "type": "constructor"
    },
    {
      "inputs": [],
      "name": "BatchAlreadyProcessed",
      "type": "error"
    },
    {
      "inputs": [],
      "name": "BatchEmpty",
      "type": "error"
    },
    {
      "inputs": [
        {
          "internalType": "uint256",
          "name": "requested",
          "type": "uint256"
        },
        {
          "internalType": "uint256",
          "name": "remaining",
          "type": "uint256"
        }
      ],
      "name": "DailyLimitExceeded",
      "type": "error"
    },
    {
      "inputs": [],
      "name": "InsufficientPayment",
      "type": "error"
    },
    {
      "inputs": [],
      "name": "InvalidFee",
      "type": "error"
    },
    {
      "inputs": [
        {
          "internalType": "enum NoblePay.ComplianceStatus",
          "name": "current",
          "type": "uint8"
        },
        {
          "internalType": "enum NoblePay.ComplianceStatus",
          "name": "expected",
          "type": "uint8"
        }
      ],
      "name": "InvalidPaymentStatus",
      "type": "error"
    },
    {
      "inputs": [],
      "name": "InvalidRecipient",
      "type": "error"
    },
    {
      "inputs": [],
      "name": "InvalidRiskScore",
      "type": "error"
    },
    {
      "inputs": [
        {
          "internalType": "uint256",
          "name": "requested",
          "type": "uint256"
        },
        {
          "internalType": "uint256",
          "name": "remaining",
          "type": "uint256"
        }
      ],
      "name": "MonthlyLimitExceeded",
      "type": "error"
    },
    {
      "inputs": [],
      "name": "NotRegisteredBusiness",
      "type": "error"
    },
    {
      "inputs": [],
      "name": "PaymentNotFound",
      "type": "error"
    },
    {
      "inputs": [],
      "name": "UnsupportedToken",
      "type": "error"
    },
    {
      "inputs": [],
      "name": "ZeroAddress",
      "type": "error"
    },
    {
      "inputs": [],
      "name": "ZeroAmount",
      "type": "error"
    },
    {
      "anonymous": false,
      "inputs": [
        {
          "indexed": true,
          "internalType": "bytes32",
          "name": "batchId",
          "type": "bytes32"
        },
        {
          "indexed": false,
          "internalType": "uint256",
          "name": "paymentCount",
          "type": "uint256"
        },
        {
          "indexed": false,
          "internalType": "uint256",
          "name": "totalAmount",
          "type": "uint256"
        }
      ],
      "name": "BatchProcessed",
      "type": "event"
    },
    {
      "anonymous": false,
      "inputs": [
        {
          "indexed": true,
          "internalType": "address",
          "name": "business",
          "type": "address"
        },
        {
          "indexed": false,
          "internalType": "enum NoblePay.BusinessTier",
          "name": "tier",
          "type": "uint8"
        },
        {
          "indexed": false,
          "internalType": "bool",
          "name": "registered",
          "type": "bool"
        }
      ],
      "name": "BusinessSynced",
      "type": "event"
    },
    {
      "anonymous": false,
      "inputs": [
        {
          "indexed": false,
          "internalType": "uint256",
          "name": "baseFee",
          "type": "uint256"
        },
        {
          "indexed": false,
          "internalType": "uint256",
          "name": "percentageFee",
          "type": "uint256"
        }
      ],
      "name": "FeeUpdated",
      "type": "event"
    },
    {
      "anonymous": false,
      "inputs": [
        {
          "indexed": false,
          "internalType": "address",
          "name": "account",
          "type": "address"
        }
      ],
      "name": "Paused",
      "type": "event"
    },
    {
      "anonymous": false,
      "inputs": [
        {
          "indexed": true,
          "internalType": "bytes32",
          "name": "paymentId",
          "type": "bytes32"
        },
        {
          "indexed": false,
          "internalType": "bytes32",
          "name": "investigationHash",
          "type": "bytes32"
        }
      ],
      "name": "PaymentBlocked",
      "type": "event"
    },
    {
      "anonymous": false,
      "inputs": [
        {
          "indexed": true,
          "internalType": "bytes32",
          "name": "paymentId",
          "type": "bytes32"
        },
        {
          "indexed": false,
          "internalType": "uint8",
          "name": "amlRiskScore",
          "type": "uint8"
        }
      ],
      "name": "PaymentCleared",
      "type": "event"
    },
    {
      "anonymous": false,
      "inputs": [
        {
          "indexed": true,
          "internalType": "bytes32",
          "name": "paymentId",
          "type": "bytes32"
        },
        {
          "indexed": false,
          "internalType": "uint8",
          "name": "amlRiskScore",
          "type": "uint8"
        },
        {
          "indexed": false,
          "internalType": "bytes32",
          "name": "investigationHash",
          "type": "bytes32"
        }
      ],
      "name": "PaymentFlagged",
      "type": "event"
    },
    {
      "anonymous": false,
      "inputs": [
        {
          "indexed": true,
          "internalType": "bytes32",
          "name": "paymentId",
          "type": "bytes32"
        },
        {
          "indexed": true,
          "internalType": "address",
          "name": "sender",
          "type": "address"
        },
        {
          "indexed": true,
          "internalType": "address",
          "name": "recipient",
          "type": "address"
        },
        {
          "indexed": false,
          "internalType": "uint256",
          "name": "amount",
          "type": "uint256"
        },
        {
          "indexed": false,
          "internalType": "address",
          "name": "token",
          "type": "address"
        },
        {
          "indexed": false,
          "internalType": "bytes3",
          "name": "currencyCode",
          "type": "bytes3"
        }
      ],
      "name": "PaymentInitiated",
      "type": "event"
    },
    {
      "anonymous": false,
      "inputs": [
        {
          "indexed": true,
          "internalType": "bytes32",
          "name": "paymentId",
          "type": "bytes32"
        },
        {
          "indexed": false,
          "internalType": "uint256",
          "name": "refundedAt",
          "type": "uint256"
        }
      ],
      "name": "PaymentRefunded",
      "type": "event"
    },
    {
      "anonymous": false,
      "inputs": [
        {
          "indexed": true,
          "internalType": "bytes32",
          "name": "paymentId",
          "type": "bytes32"
        },
        {
          "indexed": false,
          "internalType": "uint256",
          "name": "settledAt",
          "type": "uint256"
        },
        {
          "indexed": false,
          "internalType": "uint256",
          "name": "feeCollected",
          "type": "uint256"
        }
      ],
      "name": "PaymentSettled",
      "type": "event"
    },
    {
      "anonymous": false,
      "inputs": [
        {
          "indexed": true,
          "internalType": "bytes32",
          "name": "role",
          "type": "bytes32"
        },
        {
          "indexed": true,
          "internalType": "bytes32",
          "name": "previousAdminRole",
          "type": "bytes32"
        },
        {
          "indexed": true,
          "internalType": "bytes32",
          "name": "newAdminRole",
          "type": "bytes32"
        }
      ],
      "name": "RoleAdminChanged",
      "type": "event"
    },
    {
      "anonymous": false,
      "inputs": [
        {
          "indexed": true,
          "internalType": "bytes32",
          "name": "role",
          "type": "bytes32"
        },
        {
          "indexed": true,
          "internalType": "address",
          "name": "account",
          "type": "address"
        },
        {
          "indexed": true,
          "internalType": "address",
          "name": "sender",
          "type": "address"
        }
      ],
      "name": "RoleGranted",
      "type": "event"
    },
    {
      "anonymous": false,
      "inputs": [
        {
          "indexed": true,
          "internalType": "bytes32",
          "name": "role",
          "type": "bytes32"
        },
        {
          "indexed": true,
          "internalType": "address",
          "name": "account",
          "type": "address"
        },
        {
          "indexed": true,
          "internalType": "address",
          "name": "sender",
          "type": "address"
        }
      ],
      "name": "RoleRevoked",
      "type": "event"
    },
    {
      "anonymous": false,
      "inputs": [
        {
          "indexed": true,
          "internalType": "address",
          "name": "token",
          "type": "address"
        },
        {
          "indexed": false,
          "internalType": "bool",
          "name": "supported",
          "type": "bool"
        }
      ],
      "name": "TokenSupported",
      "type": "event"
    },
    {
      "anonymous": false,
      "inputs": [
        {
          "indexed": true,
          "internalType": "address",
          "name": "oldTreasury",
          "type": "address"
        },
        {
          "indexed": true,
          "internalType": "address",
          "name": "newTreasury",
          "type": "address"
        }
      ],
      "name": "TreasuryUpdated",
      "type": "event"
    },
    {
      "anonymous": false,
      "inputs": [
        {
          "indexed": false,
          "internalType": "address",
          "name": "account",
          "type": "address"
        }
      ],
      "name": "Unpaused",
      "type": "event"
    },
    {
      "inputs": [],
      "name": "ADMIN_ROLE",
      "outputs": [
        {
          "internalType": "bytes32",
          "name": "",
          "type": "bytes32"
        }
      ],
      "stateMutability": "view",
      "type": "function"
    },
    {
      "inputs": [],
      "name": "COMPLIANCE_OFFICER_ROLE",
      "outputs": [
        {
          "internalType": "bytes32",
          "name": "",
          "type": "bytes32"
        }
      ],
      "stateMutability": "view",
      "type": "function"
    },
    {
      "inputs": [],
      "name": "DEFAULT_ADMIN_ROLE",
      "outputs": [
        {
          "internalType": "bytes32",
          "name": "",
          "type": "bytes32"
        }
      ],
      "stateMutability": "view",
      "type": "function"
    },
    {
      "inputs": [],
      "name": "ENTERPRISE_DAILY_LIMIT",
      "outputs": [
        {
          "internalType": "uint256",
          "name": "",
          "type": "uint256"
        }
      ],
      "stateMutability": "view",
      "type": "function"
    },
    {
      "inputs": [],
      "name": "ENTERPRISE_MONTHLY_LIMIT",
      "outputs": [
        {
          "internalType": "uint256",
          "name": "",
          "type": "uint256"
        }
      ],
      "stateMutability": "view",
      "type": "function"
    },
    {
      "inputs": [],
      "name": "MAX_PERCENTAGE_FEE",
      "outputs": [
        {
          "internalType": "uint256",
          "name": "",
          "type": "uint256"
        }
      ],
      "stateMutability": "view",
      "type": "function"
    },
    {
      "inputs": [],
      "name": "PREMIUM_DAILY_LIMIT",
      "outputs": [
        {
          "internalType": "uint256",
          "name": "",
          "type": "uint256"
        }
      ],
      "stateMutability": "view",
      "type": "function"
    },
    {
      "inputs": [],
      "name": "PREMIUM_MONTHLY_LIMIT",
      "outputs": [
        {
          "internalType": "uint256",
          "name": "",
          "type": "uint256"
        }
      ],
      "stateMutability": "view",
      "type": "function"
    },
    {
      "inputs": [],
      "name": "STANDARD_DAILY_LIMIT",
      "outputs": [
        {
          "internalType": "uint256",
          "name": "",
          "type": "uint256"
        }
      ],
      "stateMutability": "view",
      "type": "function"
    },
    {
      "inputs": [],
      "name": "STANDARD_MONTHLY_LIMIT",
      "outputs": [
        {
          "internalType": "uint256",
          "name": "",
          "type": "uint256"
        }
      ],
      "stateMutability": "view",
      "type": "function"
    },
    {
      "inputs": [],
      "name": "TEE_NODE_ROLE",
      "outputs": [
        {
          "internalType": "bytes32",
          "name": "",
          "type": "bytes32"
        }
      ],
      "stateMutability": "view",
      "type": "function"
    },
    {
      "inputs": [],
      "name": "TREASURY_ROLE",
      "outputs": [
        {
          "internalType": "bytes32",
          "name": "",
          "type": "bytes32"
        }
      ],
      "stateMutability": "view",
      "type": "function"
    },
    {
      "inputs": [],
      "name": "baseFee",
      "outputs": [
        {
          "internalType": "uint256",
          "name": "",
          "type": "uint256"
        }
      ],
      "stateMutability": "view",
      "type": "function"
    },
    {
      "inputs": [],
      "name": "batchNonce",
      "outputs": [
        {
          "internalType": "uint256",
          "name": "",
          "type": "uint256"
        }
      ],
      "stateMutability": "view",
      "type": "function"
    },
    {
      "inputs": [
        {
          "internalType": "bytes32",
          "name": "",
          "type": "bytes32"
        }
      ],
      "name": "batches",
      "outputs": [
        {
          "internalType": "bytes32",
          "name": "batchId",
          "type": "bytes32"
        },
        {
          "internalType": "address",
          "name": "initiator",
          "type": "address"
        },
        {
          "internalType": "uint256",
          "name": "totalAmount",
          "type": "uint256"
        },
        {
          "internalType": "uint256",
          "name": "createdAt",
          "type": "uint256"
        },
        {
          "internalType": "bool",
          "name": "processed",
          "type": "bool"
        }
      ],
      "stateMutability": "view",
      "type": "function"
    },
    {
      "inputs": [],
      "name": "businessRegistry",
      "outputs": [
        {
          "internalType": "address",
          "name": "",
          "type": "address"
        }
      ],
      "stateMutability": "view",
      "type": "function"
    },
    {
      "inputs": [
        {
          "internalType": "address",
          "name": "",
          "type": "address"
        }
      ],
      "name": "businessTiers",
      "outputs": [
        {
          "internalType": "enum NoblePay.BusinessTier",
          "name": "",
          "type": "uint8"
        }
      ],
      "stateMutability": "view",
      "type": "function"
    },
    {
      "inputs": [
        {
          "internalType": "bytes32",
          "name": "_paymentId",
          "type": "bytes32"
        }
      ],
      "name": "cancelPayment",
      "outputs": [],
      "stateMutability": "nonpayable",
      "type": "function"
    },
    {
      "inputs": [
        {
          "internalType": "bytes32",
          "name": "",
          "type": "bytes32"
        }
      ],
      "name": "complianceResults",
      "outputs": [
        {
          "internalType": "bool",
          "name": "sanctionsClear",
          "type": "bool"
        },
        {
          "internalType": "uint8",
          "name": "amlRiskScore",
          "type": "uint8"
        },
        {
          "internalType": "bool",
          "name": "travelRuleCompliant",
          "type": "bool"
        },
        {
          "internalType": "bytes32",
          "name": "investigationHash",
          "type": "bytes32"
        }
      ],
      "stateMutability": "view",
      "type": "function"
    },
    {
      "inputs": [
        {
          "internalType": "address",
          "name": "",
          "type": "address"
        },
        {
          "internalType": "uint256",
          "name": "",
          "type": "uint256"
        }
      ],
      "name": "dailyVolume",
      "outputs": [
        {
          "internalType": "uint256",
          "name": "",
          "type": "uint256"
        }
      ],
      "stateMutability": "view",
      "type": "function"
    },
    {
      "inputs": [
        {
          "internalType": "bytes32",
          "name": "_paymentId",
          "type": "bytes32"
        }
      ],
      "name": "getComplianceResult",
      "outputs": [
        {
          "components": [
            {
              "internalType": "bool",
              "name": "sanctionsClear",
              "type": "bool"
            },
            {
              "internalType": "uint8",
              "name": "amlRiskScore",
              "type": "uint8"
            },
            {
              "internalType": "bool",
              "name": "travelRuleCompliant",
              "type": "bool"
            },
            {
              "internalType": "bytes32",
              "name": "investigationHash",
              "type": "bytes32"
            }
          ],
          "internalType": "struct NoblePay.ComplianceResult",
          "name": "",
          "type": "tuple"
        }
      ],
      "stateMutability": "view",
      "type": "function"
    },
    {
      "inputs": [
        {
          "internalType": "enum NoblePay.BusinessTier",
          "name": "_tier",
          "type": "uint8"
        }
      ],
      "name": "getDailyLimit",
      "outputs": [
        {
          "internalType": "uint256",
          "name": "",
          "type": "uint256"
        }
      ],
      "stateMutability": "pure",
      "type": "function"
    },
    {
      "inputs": [
        {
          "internalType": "enum NoblePay.BusinessTier",
          "name": "_tier",
          "type": "uint8"
        }
      ],
      "name": "getMonthlyLimit",
      "outputs": [
        {
          "internalType": "uint256",
          "name": "",
          "type": "uint256"
        }
      ],
      "stateMutability": "pure",
      "type": "function"
    },
    {
      "inputs": [
        {
          "internalType": "bytes32",
          "name": "_paymentId",
          "type": "bytes32"
        }
      ],
      "name": "getPayment",
      "outputs": [
        {
          "components": [
            {
              "internalType": "address",
              "name": "sender",
              "type": "address"
            },
            {
              "internalType": "address",
              "name": "recipient",
              "type": "address"
            },
            {
              "internalType": "uint256",
              "name": "amount",
              "type": "uint256"
            },
            {
              "internalType": "address",
              "name": "token",
              "type": "address"
            },
            {
              "internalType": "bytes32",
              "name": "purposeHash",
              "type": "bytes32"
            },
            {
              "internalType": "enum NoblePay.ComplianceStatus",
              "name": "status",
              "type": "uint8"
            },
            {
              "internalType": "bytes",
              "name": "teeAttestation",
              "type": "bytes"
            },
            {
              "internalType": "uint256",
              "name": "createdAt",
              "type": "uint256"
            },
            {
              "internalType": "uint256",
              "name": "settledAt",
              "type": "uint256"
            },
            {
              "internalType": "bytes3",
              "name": "currencyCode",
              "type": "bytes3"
            }
          ],
          "internalType": "struct NoblePay.Payment",
          "name": "",
          "type": "tuple"
        }
      ],
      "stateMutability": "view",
      "type": "function"
    },
    {
      "inputs": [
        {
          "internalType": "bytes32",
          "name": "role",
          "type": "bytes32"
        }
      ],
      "name": "getRoleAdmin",
      "outputs": [
        {
          "internalType": "bytes32",
          "name": "",
          "type": "bytes32"
        }
      ],
      "stateMutability": "view",
      "type": "function"
    },
    {
      "inputs": [
        {
          "internalType": "bytes32",
          "name": "role",
          "type": "bytes32"
        },
        {
          "internalType": "address",
          "name": "account",
          "type": "address"
        }
      ],
      "name": "grantRole",
      "outputs": [],
      "stateMutability": "nonpayable",
      "type": "function"
    },
    {
      "inputs": [
        {
          "internalType": "bytes32",
          "name": "role",
          "type": "bytes32"
        },
        {
          "internalType": "address",
          "name": "account",
          "type": "address"
        }
      ],
      "name": "hasRole",
      "outputs": [
        {
          "internalType": "bool",
          "name": "",
          "type": "bool"
        }
      ],
      "stateMutability": "view",
      "type": "function"
    },
    {
      "inputs": [
        {
          "internalType": "address",
          "name": "_recipient",
          "type": "address"
        },
        {
          "internalType": "uint256",
          "name": "_amount",
          "type": "uint256"
        },
        {
          "internalType": "address",
          "name": "_token",
          "type": "address"
        },
        {
          "internalType": "bytes32",
          "name": "_purposeHash",
          "type": "bytes32"
        },
        {
          "internalType": "bytes3",
          "name": "_currencyCode",
          "type": "bytes3"
        }
      ],
      "name": "initiatePayment",
      "outputs": [
        {
          "internalType": "bytes32",
          "name": "paymentId",
          "type": "bytes32"
        }
      ],
      "stateMutability": "payable",
      "type": "function"
    },
    {
      "inputs": [
        {
          "internalType": "address[]",
          "name": "_recipients",
          "type": "address[]"
        },
        {
          "internalType": "uint256[]",
          "name": "_amounts",
          "type": "uint256[]"
        },
        {
          "internalType": "address[]",
          "name": "_tokens",
          "type": "address[]"
        },
        {
          "internalType": "bytes32[]",
          "name": "_purposeHashes",
          "type": "bytes32[]"
        },
        {
          "internalType": "bytes3[]",
          "name": "_currencyCodes",
          "type": "bytes3[]"
        }
      ],
      "name": "initiatePaymentBatch",
      "outputs": [
        {
          "internalType": "bytes32",
          "name": "batchId",
          "type": "bytes32"
        }
      ],
      "stateMutability": "payable",
      "type": "function"
    },
    {
      "inputs": [
        {
          "internalType": "address",
          "name": "",
          "type": "address"
        },
        {
          "internalType": "uint256",
          "name": "",
          "type": "uint256"
        }
      ],
      "name": "monthlyVolume",
      "outputs": [
        {
          "internalType": "uint256",
          "name": "",
          "type": "uint256"
        }
      ],
      "stateMutability": "view",
      "type": "function"
    },
    {
      "inputs": [],
      "name": "pause",
      "outputs": [],
      "stateMutability": "nonpayable",
      "type": "function"
    },
    {
      "inputs": [],
      "name": "paused",
      "outputs": [
        {
          "internalType": "bool",
          "name": "",
          "type": "bool"
        }
      ],
      "stateMutability": "view",
      "type": "function"
    },
    {
      "inputs": [],
      "name": "paymentNonce",
      "outputs": [
        {
          "internalType": "uint256",
          "name": "",
          "type": "uint256"
        }
      ],
      "stateMutability": "view",
      "type": "function"
    },
    {
      "inputs": [
        {
          "internalType": "bytes32",
          "name": "",
          "type": "bytes32"
        }
      ],
      "name": "payments",
      "outputs": [
        {
          "internalType": "address",
          "name": "sender",
          "type": "address"
        },
        {
          "internalType": "address",
          "name": "recipient",
          "type": "address"
        },
        {
          "internalType": "uint256",
          "name": "amount",
          "type": "uint256"
        },
        {
          "internalType": "address",
          "name": "token",
          "type": "address"
        },
        {
          "internalType": "bytes32",
          "name": "purposeHash",
          "type": "bytes32"
        },
        {
          "internalType": "enum NoblePay.ComplianceStatus",
          "name": "status",
          "type": "uint8"
        },
        {
          "internalType": "bytes",
          "name": "teeAttestation",
          "type": "bytes"
        },
        {
          "internalType": "uint256",
          "name": "createdAt",
          "type": "uint256"
        },
        {
          "internalType": "uint256",
          "name": "settledAt",
          "type": "uint256"
        },
        {
          "internalType": "bytes3",
          "name": "currencyCode",
          "type": "bytes3"
        }
      ],
      "stateMutability": "view",
      "type": "function"
    },
    {
      "inputs": [],
      "name": "percentageFee",
      "outputs": [
        {
          "internalType": "uint256",
          "name": "",
          "type": "uint256"
        }
      ],
      "stateMutability": "view",
      "type": "function"
    },
    {
      "inputs": [
        {
          "internalType": "bytes32",
          "name": "_paymentId",
          "type": "bytes32"
        }
      ],
      "name": "refundPayment",
      "outputs": [],
      "stateMutability": "nonpayable",
      "type": "function"
    },
    {
      "inputs": [
        {
          "internalType": "address",
          "name": "",
          "type": "address"
        }
      ],
      "name": "registeredBusinesses",
      "outputs": [
        {
          "internalType": "bool",
          "name": "",
          "type": "bool"
        }
      ],
      "stateMutability": "view",
      "type": "function"
    },
    {
      "inputs": [
        {
          "internalType": "bytes32",
          "name": "role",
          "type": "bytes32"
        },
        {
          "internalType": "address",
          "name": "account",
          "type": "address"
        }
      ],
      "name": "renounceRole",
      "outputs": [],
      "stateMutability": "nonpayable",
      "type": "function"
    },
    {
      "inputs": [
        {
          "internalType": "bytes32",
          "name": "role",
          "type": "bytes32"
        },
        {
          "internalType": "address",
          "name": "account",
          "type": "address"
        }
      ],
      "name": "revokeRole",
      "outputs": [],
      "stateMutability": "nonpayable",
      "type": "function"
    },
    {
      "inputs": [
        {
          "internalType": "uint256",
          "name": "_baseFee",
          "type": "uint256"
        },
        {
          "internalType": "uint256",
          "name": "_percentageFee",
          "type": "uint256"
        }
      ],
      "name": "setFees",
      "outputs": [],
      "stateMutability": "nonpayable",
      "type": "function"
    },
    {
      "inputs": [
        {
          "internalType": "address",
          "name": "_token",
          "type": "address"
        },
        {
          "internalType": "bool",
          "name": "_supported",
          "type": "bool"
        }
      ],
      "name": "setSupportedToken",
      "outputs": [],
      "stateMutability": "nonpayable",
      "type": "function"
    },
    {
      "inputs": [
        {
          "internalType": "address",
          "name": "_newTreasury",
          "type": "address"
        }
      ],
      "name": "setTreasury",
      "outputs": [],
      "stateMutability": "nonpayable",
      "type": "function"
    },
    {
      "inputs": [
        {
          "internalType": "bytes32",
          "name": "_paymentId",
          "type": "bytes32"
        }
      ],
      "name": "settlePayment",
      "outputs": [],
      "stateMutability": "nonpayable",
      "type": "function"
    },
    {
      "inputs": [
        {
          "internalType": "bytes32",
          "name": "_paymentId",
          "type": "bytes32"
        },
        {
          "internalType": "bool",
          "name": "_sanctionsClear",
          "type": "bool"
        },
        {
          "internalType": "uint8",
          "name": "_amlRiskScore",
          "type": "uint8"
        },
        {
          "internalType": "bool",
          "name": "_travelRuleOk",
          "type": "bool"
        },
        {
          "internalType": "bytes32",
          "name": "_investigationHash",
          "type": "bytes32"
        },
        {
          "internalType": "bytes",
          "name": "_attestation",
          "type": "bytes"
        }
      ],
      "name": "submitComplianceResult",
      "outputs": [],
      "stateMutability": "nonpayable",
      "type": "function"
    },
    {
      "inputs": [
        {
          "internalType": "address",
          "name": "",
          "type": "address"
        }
      ],
      "name": "supportedTokens",
      "outputs": [
        {
          "internalType": "bool",
          "name": "",
          "type": "bool"
        }
      ],
      "stateMutability": "view",
      "type": "function"
    },
    {
      "inputs": [
        {
          "internalType": "bytes4",
          "name": "interfaceId",
          "type": "bytes4"
        }
      ],
      "name": "supportsInterface",
      "outputs": [
        {
          "internalType": "bool",
          "name": "",
          "type": "bool"
        }
      ],
      "stateMutability": "view",
      "type": "function"
    },
    {
      "inputs": [
        {
          "internalType": "address",
          "name": "_business",
          "type": "address"
        },
        {
          "internalType": "enum NoblePay.BusinessTier",
          "name": "_tier",
          "type": "uint8"
        },
        {
          "internalType": "bool",
          "name": "_registered",
          "type": "bool"
        }
      ],
      "name": "syncBusiness",
      "outputs": [],
      "stateMutability": "nonpayable",
      "type": "function"
    },
    {
      "inputs": [],
      "name": "treasury",
      "outputs": [
        {
          "internalType": "address",
          "name": "",
          "type": "address"
        }
      ],
      "stateMutability": "view",
      "type": "function"
    },
    {
      "inputs": [],
      "name": "unpause",
      "outputs": [],
      "stateMutability": "nonpayable",
      "type": "function"
    },
    {
      "stateMutability": "payable",
      "type": "receive"
    }
  ],
  "bytecode": "0x6080346200023d57601f620038db38819003918201601f191683019291906001600160401b03841183851017620002425781608092849260409687528339810103126200023d57620000518162000258565b9060206200006181830162000258565b926060858401519301519360ff19926001928484541684558360025560018060a01b038091169283156200022c57169384156200021b576101f487116200020a57600093848052848352888520848652835260ff898620541615620001d5575b7fa49807205ce4d355092ef5a8a18f56e8913cf4a201fbe287825b095693c21775808652858452898620858752845260ff8a87205416156200019f575b507fe1dcbdb91df27212a29bc27177c840cf2f819ecf2187432e1fac86c2dd5dfca992838652858152898620858752815260ff8a872054161562000167575b50505050505060018060a01b031960055416176005556003556004555161364d90816200026e8239f35b838652858152898620908587525288852091825416179055600080516020620038bb833981519152339380a43880808080806200013d565b80865285845289862085875284528986208284825416179055843391600080516020620038bb8339815191528880a438620000fe565b84805284835288852084865283528885208183825416179055338486600080516020620038bb8339815191528180a4620000c1565b87516358d620b360e01b8152600490fd5b875163d92e233d60e01b8152600490fd5b885163d92e233d60e01b8152600490fd5b600080fd5b634e487b7160e01b600052604160045260246000fd5b51906001600160a01b03821682036200023d5756fe6102a080604052600436101561001e575b50361561001c57600080fd5b005b60003560e01c90816301ffc9a71461295d575080630716326d146128915780630b78f9c01461281d5780630e98d4d9146127f5578063198596b5146127ba578063248a9ca31461278b5780632778d4d41461276a5780632f2ff15d146126b7578063325fda8a1461247057806336568abe146123de5780633dfc32f6146123b55780633f4ba83a146123215780634a6c1fea14611e1c5780634c15aa7314611de157806355edfb3c14611d9d57806355f08d9514611d5e5780635c975abb14611d3b57806361d027b314611d12578063670de24e14611716578063672658a514611c5d57806368c4ac2614611c1e5780636c2fa3a21461180a5780636ef25c3a146117ec57806374c95081146117a457806375b238fc14611769578063780a7ff01461174b5780637da78e601461171b5780637f87b1791461171657806382179f19146116c25780638456cb59146116695780638a59078c146115c957806391d148541461157c578063a217fddf14611560578063b2d9a84214611543578063b4c36e4014611523578063c46e9678146113a5578063c529cb841461129b578063c67529051461135d578063c75f3cb61461133f578063c81e25ab146112db578063d11a57ec146112a0578063d49936001461129b578063d547741f1461125c578063de8f8b3f14611057578063e66eefc814610ea8578063e798646614610e1d578063f0f4426014610bf3578063fbeec81f14610bd55763fe392b4f146102465738610010565b60a0366003190112610bd0576004356001600160401b038111610bd057610271903690600401612be1565b61012052610280526024356001600160401b038111610bd057610298903690600401612be1565b60e052610260526044356001600160401b038111610bd0576102be903690600401612be1565b60c052610240526064356001600160401b038111610bd0576102e4903690600401612be1565b610160526101e0526084356001600160401b038111610bd05761030b903690600401612be1565b60a0526102005261031a613100565b33600052600f60205260ff6040600020541615610bbe57610339613144565b6101205115610bac5760e051610120519081149081610ba0575b81610b93575b81610b87575b5015610b425760075461037181613085565b60075560405160208101913360601b835242603483015260548201526054815261039a816129ea565b519020610100526103bd6103b0610120516133d2565b6040518061018052612a3c565b610120516101805152601f196103d5610120516133d2565b0136602061018051013760008060805260005b610120518082101561099557610280516001600160a01b0391610415916104109185916133e9565b6133f9565b16156109835761042b8160e051610260516133e9565b3515610971576104456104108261012051610280516133e9565b6104558260e051610260516133e9565b35906104bf6006549161046783613085565b6006556104b160405193849260208401964291338993919060889593916001600160601b0319809260601b16865260601b1660148501526028840152604883015260688201520190565b03601f198101835282612a3c565b5190209061018051805182101561095b57602083918360051b01015260018060a01b036104f56104108360c051610240516133e9565b166108da5761051661050d8260e051610260516133e9565b35608051612f6b565b6080525b61052e6104108261012051610280516133e9565b61053e8260e051610260516133e9565b35610140526105566104108360c051610240516133e9565b61056783610160516101e0516133e9565b359061058161057c8560a051610200516133e9565b61340d565b92610592604051806101c052612a05565b336101c0515260018060a01b031660206101c05101526101405160406101c051015260018060a01b031660606101c051015260806101c0510152600060a06101c05101526040516105e281612a21565b6000815260c06101c05101524260e06101c051015260006101006101c051015262ffffff60e81b166101206101c051015281600052600a6020526040600020806102205260a06101c051600180831b038151166001600160601b03831b84541617835560018301600180841b036020830151166001600160601b03841b8254161790556040810151600284015560038301600180841b036060830151166001600160601b03841b82541617905560808101516004840155015160068110156108c45760056106b09201613094565b60c06101c0510151806101a05251926001600160401b0384116108ae576106ed846106e160066102205101546129b0565b600661022051016130ac565b602093601f81116001146108315790816107729260019596600091610823575b5081861b916000199060031b1c19161760066102205101555b6101c051610120600960e08301516102205190600782015561010084015160088201550191015160e81c62ffffff1982541617905561076b8360e051610260516133e9565b3590612f6b565b926107876104108361012051610280516133e9565b906107988360e051610260516133e9565b35907f6da8f0a08bde2e903c0475ac9f32040171d897b9811f2e9efad54cea074278186107ce6104108660c051610240516133e9565b936107e261057c8760a051610200516133e9565b604080519586526001600160a01b039690961660208601526001600160e81b0319169484019490945260a086901b869003909316923392606090a4016103e8565b90506101a05101513861070d565b60066102205101948560005260206000209060006101a051905b601f198516811061089657509260019697928792610772969583601f1981161061087d575b505050811b019055610726565b015160001960f88460031b161c19169055388080610870565b8183015184556001909301926020928301920161084b565b634e487b7160e01b600052604160045260246000fd5b634e487b7160e01b600052602160045260246000fd5b60018060a01b036108f46104108360c051610240516133e9565b16600052600960205260ff60406000205416156109495761094460018060a01b036109286104108460c051610240516133e9565b166109398360e051610260516133e9565b359030903390613198565b61051a565b60405163350b944160e11b8152600490fd5b634e487b7160e01b600052603260045260246000fd5b604051631f2a200560e01b8152600490fd5b60405163d92e233d60e01b8152600490fd5b826080513410610b30576109a981336134d8565b60405160c081018181106001600160401b038211176108ae576040526101005181526020810190610180518252336040820152826060820152426080820152600060a082015261010051600052600c60205260406000209181518355518051906001600160401b0382116108ae576801000000000000000082116108ae576001840154826001860155808310610b03575b5060200160018401600052602060002060005b838110610aef576020604088610aac89600560a08b60028401600180841b0388830151166001600160601b03841b82541617905560608101516003850155608081015160048501550151151591019060ff801983541691151516179055565b815190610120518252838201527f8b4d7ddfce7546443f7e4e75b4192ad2451ca163b12085cd078113d6a2576be961010051928392a26001600255604051908152f35b600190602084519401938184015501610a4d565b600185016000526020600020908382015b8183018110610b24575050610a3a565b60008155600101610b14565b60405163cd1c886760e01b8152600490fd5b60405162461bcd60e51b815260206004820152601f60248201527f4e6f626c655061793a206172726179206c656e677468206d69736d61746368006044820152606490fd5b905060a051143861035f565b6101605181149150610359565b60c05181149150610353565b60405163143a603360e21b8152600490fd5b60405163dd89c80f60e01b8152600490fd5b600080fd5b34610bd0576000366003190112610bd0576020600654604051908152f35b34610bd057602080600319360112610bd057610c0d612b6e565b907fe1dcbdb91df27212a29bc27177c840cf2f819ecf2187432e1fac86c2dd5dfca9908160005260008152604060002033600052815260ff6040600020541615610ca0576001600160a01b0380841690811561098357600554826001600160601b0360a01b821617600555167f4ab5be82436d353e61ca18726e984e561f5c1cc7c6d38b29d2553c790434705a600080a3005b610ca933612f89565b91604051610cb6816129ea565b6042815282810191606036843781511561095b5760308353815160019081101561095b57607860218401536041905b808211610dc3575050610d9257610d5e93610d6d9260489260405196879376020b1b1b2b9b9a1b7b73a3937b61d1030b1b1b7bab73a1604d1b88860152610d35815180928a603789019101612b10565b8401917001034b99036b4b9b9b4b733903937b6329607d1b603784015251809386840190612b10565b01036028810185520183612a3c565b610d8e60405192839262461bcd60e51b845260048401526024830190612b33565b0390fd5b6064836040519062461bcd60e51b825280600483015260248201526000805160206135f88339815191526044820152fd5b9091600f8116601081101561095b576f181899199a1a9b1b9c1cb0b131b232b360811b901a610df28486612f78565b5360041c918015610e07576000190190610ce5565b634e487b7160e01b600052601160045260246000fd5b34610bd0576040366003190112610bd057610e36612b6e565b610e3e612b84565b90610e47612c11565b6001600160a01b03169081156109835760207fd86c88b4a367d9b81a6e00c9d3f7d01657bffef358fa8968c91c045ae99f0d52918360005260098252610e9d8160406000209060ff801983541691151516179055565b6040519015158152a2005b34610bd0576020366003190112610bd0576000610120604051610eca81612a05565b8281528260208201528260408201528260608201528260808201528260a0820152606060c08201528260e0820152826101008201520152600435600052600a602052604060002060405190610f1e82612a05565b80546001600160a01b03908116835260018201548116602084015260028201546040840152600382015416606083015260048101546080830152600581015460ff1660068110156108c45760a0830152610f7a60068201612a5d565b60c0830152600781015460e08301526008810154610100830152600962ffffff60e81b91015460e81b1661012082015260405180916020825260018060a01b03815116602083015260018060a01b0360208201511660408301526040810151606083015260018060a01b036060820151166080830152608081015160a083015261100c60a082015160c0840190612b03565b60c0810151611029610140918260e0860152610160850190612b33565b9160e081015161010085015261010081015161012085015261012062ffffff60e81b91015116908301520390f35b34610bd057602080600319360112610bd05760043590611075613144565b61107d613100565b6000828152600a82526040902080546001600160a01b03908116801561124a5760058301805460ff811660068110156108c457600381149081156111f7575b50156111a65760ff1916600517905560038301548216908161116f57505060008083600282959483955416910154905af16110f56132fa565b501561112c577f7a1dd09597e0454bccf83a57e47d6ce29d4f89f3dd01f54d4bcf1768b1728654905b604051428152a26001600255005b6064906040519062461bcd60e51b825280600483015260248201527f4e6f626c655061793a20726566756e64207472616e73666572206661696c65646044820152fd5b6111a1925060027f7a1dd09597e0454bccf83a57e47d6ce29d4f89f3dd01f54d4bcf1768b1728654959401549161342f565b61111e565b60405162461bcd60e51b8152600481018790526024808201527f4e6f626c655061793a2063616e6e6f7420726566756e642074686973207061796044820152631b595b9d60e21b6064820152608490fd5b600291501480611208575b886110bc565b507fb6f0283bd1ed00c6aa7e988a7516070240f3610a34d167391359b648eb37cefc60005260008652604060002033600052865260ff60406000205416611202565b60405163befcc57b60e01b8152600490fd5b34610bd0576040366003190112610bd05761001c60043561127b612b58565b90806000526000602052611296600160406000200154612ded565b612ef7565b612bc0565b34610bd0576000366003190112610bd05760206040517fe1dcbdb91df27212a29bc27177c840cf2f819ecf2187432e1fac86c2dd5dfca98152f35b34610bd0576020366003190112610bd057600435600052600c60205260a06040600020805490600180841b0360028201541690600381015460ff60056004840154930154169260405194855260208501526040840152606083015215156080820152f35b34610bd0576000366003190112610bd0576020600754604051908152f35b34610bd0576040366003190112610bd0576001600160a01b0361137e612b6e565b16600052600e60205260406000206024356000526020526020604060002054604051908152f35b34610bd057602080600319360112610bd057600435906113c3613144565b6113cb613100565b6000828152600a82526040902080546001600160a01b03908116801561124a573381036114de5760058301805460ff811660068110156108c457806114b7575060ff1916600517905560038301548216908161116f57505060008083600282959483955416910154905af161143e6132fa565b5015611474577f7a1dd09597e0454bccf83a57e47d6ce29d4f89f3dd01f54d4bcf1768b172865490604051428152a26001600255005b6064906040519062461bcd60e51b825280600483015260248201527f4e6f626c655061793a2063616e63656c207472616e73666572206661696c65646044820152fd5b604051630c8c921760e41b81526044916114d5906004830190612b03565b60006024820152fd5b60405162461bcd60e51b815260048101859052601c60248201527f4e6f626c655061793a206e6f74207061796d656e742073656e646572000000006044820152606490fd5b34610bd0576000366003190112610bd0576020604051640ba43b74008152f35b34610bd0576000366003190112610bd05760206040516101f48152f35b34610bd0576000366003190112610bd057602060405160008152f35b34610bd0576040366003190112610bd057611595612b58565b600435600052600060205260406000209060018060a01b0316600052602052602060ff604060002054166040519015158152f35b34610bd0576020366003190112610bd057600060606040516115ea816129ea565b8281528260208201528260408201520152600435600052600b60205260806040600020604051611619816129ea565b815460ff808216151593848452606060016020860192848660081c16845284604088019660101c161515865201549401938452604051948552511660208401525115156040830152516060820152f35b34610bd0576000366003190112610bd057611682612c11565b61168a613100565b600160ff19815416176001557f62e78cea01bee320cd4e420270b5ea74000d11b0c9f74754ebdbfc544b05a2586020604051338152a1005b34610bd0576020366003190112610bd057600435600052600b602052608060406000206001815491015460ff6040519281811615158452818160081c16602085015260101c16151560408301526060820152f35b612ba0565b34610bd0576020366003190112610bd0576004356003811015610bd0576117436020916134a2565b604051908152f35b34610bd0576000366003190112610bd0576020600454604051908152f35b34610bd0576000366003190112610bd05760206040517fa49807205ce4d355092ef5a8a18f56e8913cf4a201fbe287825b095693c217758152f35b34610bd0576040366003190112610bd0576001600160a01b036117c5612b6e565b16600052600d60205260406000206024356000526020526020604060002054604051908152f35b34610bd0576000366003190112610bd0576020600354604051908152f35b60a0366003190112610bd05761181e612b6e565b6044356001600160a01b0381169003610bd0576084356001600160e81b031981169003610bd05761184d613100565b33600052600f60205260ff6040600020541615610bbe5761186c613144565b6001600160a01b03811615610983576001600160a01b0381163314611c0c5760243515610971576044356001600160a01b0316151580611be7575b610949576118b7602435336134d8565b6006546118c381613085565b60065560405133606090811b6bffffffffffffffffffffffff19908116602084019081529185901b166034830152602435604883015242606883015260888201929092526119148160a881016104b1565b5190206044356001600160a01b0316611bc9576024353410610b30575b6040519161193e83612a05565b3383526001600160a01b03818116602085015260243560408086019190915260443590911660608501526064356080850152600060a08501525161198181612a21565b6000815260c08401524260e0840152600061010084015262ffffff60e81b6084351661012084015281600052600a60205260406000209260018060a01b038151166001600160601b0360a01b8554161784556001840160018060a01b036020830151166001600160601b0360a01b825416179055604081015160028501556003840160018060a01b036060830151166001600160601b0360a01b8254161790556080810151600485015560a081015160068110156108c457611a469060058601613094565b60c08101519384516001600160401b0381116108ae57602095611a7982611a7060068601546129b0565b600686016130ac565b8690601f8311600114611b555791806101209492600994600092611b4a575b50508160011b916000199060031b1c19161760068201555b60e08401516007820155610100840151600882015591909201519101805462ffffff191660e89290921c9190911790556040805160243581526044356001600160a01b0390811660208301526001600160e81b03196084351692820192909252911690339083907f6da8f0a08bde2e903c0475ac9f32040171d897b9811f2e9efad54cea0742781890606090a46001600255604051908152f35b015190508980611a98565b9060068401600052876000209160005b601f1985168110611bb2575092610120949260019260099583601f19811610611b99575b505050811b016006820155611ab0565b015160001960f88460031b161c19169055898080611b89565b919289600181928685015181550194019201611b65565b611be260243530336044356001600160a01b0316613198565b611931565b506044356001600160a01b031660009081526009602052604090205460ff16156118a7565b604051634e46966960e11b8152600490fd5b34610bd0576020366003190112610bd0576001600160a01b03611c3f612b6e565b166000526009602052602060ff604060002054166040519015158152f35b34610bd0576060366003190112610bd057611c76612b6e565b6024356003811015610bd0576044359182151591828403610bd0577fd94679afa6e9f725bd0afeecf7a623b01f9d4acd2e08f6f585b4d3e5be68cd0d92611ce8604093611cc1612c11565b60018060a01b03169586600052600f602052846000209060ff801983541691151516179055565b60106020528260002060ff1981541660ff8416179055611d0a83518093612b93565b6020820152a2005b34610bd0576000366003190112610bd0576005546040516001600160a01b039091168152602090f35b34610bd0576000366003190112610bd057602060ff600154166040519015158152f35b34610bd0576020366003190112610bd0576001600160a01b03611d7f612b6e565b16600052600f602052602060ff604060002054166040519015158152f35b34610bd0576020366003190112610bd0576001600160a01b03611dbe612b6e565b166000526010602052602060ff60406000205416611ddf6040518092612b93565bf35b34610bd0576000366003190112610bd05760206040517f8afe619008caa94d998158991ee54511e5059bcccca3d3b478569410d3f4f9db8152f35b34610bd05760c0366003190112610bd057600435611e38612b84565b6044359060ff8216809203610bd0576064359081158015809303610bd0576084359160a435916001600160401b0394858411610bd05736602385011215610bd0578360040135958611610bd05760249336858883010111610bd0573360009081527f5c5aa4ce47aa0197f4a818693e66d92fb17e0e378c20258546593d7163a269bf60209081526040909120549097907f8afe619008caa94d998158991ee54511e5059bcccca3d3b478569410d3f4f9db9060ff16156121935750611efb613100565b60008a8152600a89526040902080549093906001600160a01b03161561124a57600584019660ff885416600681101561217e5780612159575060648b11612147578b948984938d8d6040519b611f508d6129ea565b15998a158d52818d0192835260408d0193845260608d01948552600052600b905260406000209a511515611f90908c9060ff801983541691151516179055565b51908a549051151560101b62ff0000169160081b61ff00169062ffff001916171789555160018099015560060193828554611fca906129b0565b90611fd591876130ac565b600090601f84116001146120dd576000936120d0575b505050600019600383901b1c191690851b1790555b1561203e575050805460ff191660031790556040519081527f767e527f44920dd8bf94181412f0c6d4e95298c285b051d046930d1d41cf1d589250a2005b604686959495119081156120c8575b50156120915750917fb5dd5e69213b23092750ca8dcede2bd4f29c49198055f6b243ad12ced44e75269391604093600260ff198254161790558351928352820152a2005b815460ff19161790556040519283527f39f1d8a84b0961dd884711c7a32b66e6c8755baa37a8002b26dd576b53a9cc2d92909150a2005b90508761204d565b01013590508b8080611feb565b60008681528c81208a965093919290601f198616908e5b82821061212e5750508511612112575b50505050811b019055612000565b60001960f88660031b161c19920101351690558b808080612104565b83860185013587558c989096019592830192018e6120f4565b6040516330cdce3160e21b8152600490fd5b600060449261217960405193630c8c921760e41b85526004850190612b03565b820152fd5b50634e487b7160e01b60009081526021600452fd5b88879161219f33612f89565b906040516121ac816129ea565b6042815283810191606036843781511561230c576030835381516001908110156122f757607860218401536041905b808211612289575050612259576048610d8e9361222e9361223d9360405195869376020b1b1b2b9b9a1b7b73a3937b61d1030b1b1b7bab73a1604d1b8a860152610d35815180928c603789019101612b10565b01036028810184520182612a3c565b60405193849362461bcd60e51b85526004850152830190612b33565b606485856040519162461bcd60e51b83528160048401528201526000805160206135f88339815191526044820152fd5b9091600f811660108110156122e2576f181899199a1a9b1b9c1cb0b131b232b360811b901a6122b88486612f78565b5360041c9180156122cd5760001901906121db565b87634e487b7160e01b60005260116004526000fd5b88634e487b7160e01b60005260326004526000fd5b86634e487b7160e01b60005260326004526000fd5b85634e487b7160e01b60005260326004526000fd5b34610bd0576000366003190112610bd05761233a612c11565b60015460ff8116156123795760ff19166001557f5db9ee0a495bf2e6ff9c91a7834c1ba4fdd244a5e8aa4e537bd38aeae4b073aa6020604051338152a1005b60405162461bcd60e51b815260206004820152601460248201527314185d5cd8589b194e881b9bdd081c185d5cd95960621b6044820152606490fd5b34610bd0576000366003190112610bd0576008546040516001600160a01b039091168152602090f35b34610bd0576040366003190112610bd0576123f7612b58565b336001600160a01b038216036124135761001c90600435612ef7565b60405162461bcd60e51b815260206004820152602f60248201527f416363657373436f6e74726f6c3a2063616e206f6e6c792072656e6f756e636560448201526e103937b632b9903337b91039b2b63360891b6064820152608490fd5b34610bd057602080600319360112610bd0576004359061248e613144565b612496613100565b6000828152600a82526040902080546001600160a01b039081161561124a5760058201805460ff811660068110156108c45760018103612690575060049060ff1916179055426008830155600282015491600354600454808502908582041485151715610e07576125169161271061250f920490612f6b565b8094613422565b906003810183815416801560001461262e575050600080809385600183950154165af16125416132fa565b50156125eb5781612585575b507fd235661899dbd3c2a99f69cdafb4e46f407f4d84a18f70dbfb11cfbdf3dc2d21916040915b825191428352820152a26001600255005b60008080848194600554165af161259a6132fa565b50156125a6578361254d565b60405162461bcd60e51b815260048101839052601d60248201527f4e6f626c655061793a20666565207472616e73666572206661696c65640000006044820152606490fd5b6064836040519062461bcd60e51b825280600483015260248201527f4e6f626c655061793a206e6174697665207472616e73666572206661696c65646044820152fd5b9361266886947fd235661899dbd3c2a99f69cdafb4e46f407f4d84a18f70dbfb11cfbdf3dc2d21989683600160409a96970154169061342f565b81612676575b505050612574565b8061268893541690600554169061342f565b85818161266e565b604051630c8c921760e41b81526044916126ae906004830190612b03565b60016024820152fd5b34610bd0576040366003190112610bd0576004356126d3612b58565b8160005260006020526126ed600160406000200154612ded565b81600052600060205260406000209060018060a01b0316908160005260205260ff604060002054161561271c57005b8160005260006020526040600020816000526020526040600020600160ff1982541617905533917f2f8788117e7eff1d82e926ec794901d17c78024a50270940304540a733656f0d600080a4005b34610bd0576000366003190112610bd0576020604051652d79883d20008152f35b34610bd0576020366003190112610bd05760043560005260006020526020600160406000200154604051908152f35b34610bd0576000366003190112610bd05760206040517fb6f0283bd1ed00c6aa7e988a7516070240f3610a34d167391359b648eb37cefc8152f35b34610bd0576020366003190112610bd0576004356003811015610bd05761174360209161346d565b34610bd0576040366003190112610bd05760043560243561283c612c11565b6101f4811161287f57816040917f528d9479e9f9889a87a3c30c7f7ba537e5e59c4c85a37733b16e57c62df61302936003558060045582519182526020820152a1005b6040516358d620b360e01b8152600490fd5b34610bd0576020366003190112610bd057600435600052600a602052604060002060018060a01b0390818154169082600182015416926002820154906003830154169161293f600482015461292e60ff6005850154166128f360068601612a5d565b926007860154976009600888015497015460e81b976040519b8c9b8c5260208c015260408b015260608a0152608089015260a0880190612b03565b6101408060c0880152860190612b33565b9260e085015261010084015262ffffff60e81b166101208301520390f35b34610bd0576020366003190112610bd0576004359063ffffffff60e01b8216809203610bd057602091637965db0b60e01b811490811561299f575b5015158152f35b6301ffc9a760e01b14905083612998565b90600182811c921680156129e0575b60208310146129ca57565b634e487b7160e01b600052602260045260246000fd5b91607f16916129bf565b608081019081106001600160401b038211176108ae57604052565b61014081019081106001600160401b038211176108ae57604052565b602081019081106001600160401b038211176108ae57604052565b90601f801991011681019081106001600160401b038211176108ae57604052565b9060405191826000825492612a71846129b0565b908184526001948581169081600014612ae05750600114612a9d575b5050612a9b92500383612a3c565b565b9093915060005260209081600020936000915b818310612ac8575050612a9b93508201013880612a8d565b85548884018501529485019487945091830191612ab0565b915050612a9b94506020925060ff191682840152151560051b8201013880612a8d565b9060068210156108c45752565b60005b838110612b235750506000910152565b8181015183820152602001612b13565b90602091612b4c81518092818552858086019101612b10565b601f01601f1916010190565b602435906001600160a01b0382168203610bd057565b600435906001600160a01b0382168203610bd057565b602435908115158203610bd057565b9060038210156108c45752565b34610bd0576000366003190112610bd057602060405164746a5288008152f35b34610bd0576000366003190112610bd057602060405165048c273950008152f35b9181601f84011215610bd0578235916001600160401b038311610bd0576020808501948460051b010111610bd057565b3360009081527f7d7ffb7a348e1c6a02869081a26547b49160dd3df72d1d75a570eb9b698292ec602090815260408083205490927fa49807205ce4d355092ef5a8a18f56e8913cf4a201fbe287825b095693c217759160ff1615612c755750505050565b612c7e33612f89565b91845190612c8b826129ea565b60428252848201926060368537825115612dd95760308453825190600191821015612dd95790607860218501536041915b818311612d6b57505050612d3b576048610d8e938693612d1f93612d10985198899376020b1b1b2b9b9a1b7b73a3937b61d1030b1b1b7bab73a1604d1b8a860152610d35815180928c603789019101612b10565b01036028810187520185612a3c565b5192839262461bcd60e51b845260048401526024830190612b33565b60648486519062461bcd60e51b825280600483015260248201526000805160206135f88339815191526044820152fd5b909192600f81166010811015612dc5576f181899199a1a9b1b9c1cb0b131b232b360811b901a612d9b8587612f78565b5360041c928015612db157600019019190612cbc565b634e487b7160e01b82526011600452602482fd5b634e487b7160e01b83526032600452602483fd5b634e487b7160e01b81526032600452602490fd5b600090808252602090828252604092838120338252835260ff848220541615612e165750505050565b612e1f33612f89565b91845190612e2c826129ea565b60428252848201926060368537825115612dd95760308453825190600191821015612dd95790607860218501536041915b818311612eb157505050612d3b576048610d8e938693612d1f93612d10985198899376020b1b1b2b9b9a1b7b73a3937b61d1030b1b1b7bab73a1604d1b8a860152610d35815180928c603789019101612b10565b909192600f81166010811015612dc5576f181899199a1a9b1b9c1cb0b131b232b360811b901a612ee18587612f78565b5360041c928015612db157600019019190612e5d565b9060009180835282602052604083209160018060a01b03169182845260205260ff604084205416612f2757505050565b80835282602052604083208284526020526040832060ff1981541690557ff6391f5c32d9c69d2a47ea670b442974b53935d1edc7fd64eb21e047a839171b339380a4565b91908201809211610e0757565b90815181101561095b570160200190565b60405190606082018281106001600160401b038211176108ae57604052602a825260208201604036823782511561095b5760309053815160019081101561095b57607860218401536029905b808211613017575050612fe55790565b606460405162461bcd60e51b815260206004820152602060248201526000805160206135f88339815191526044820152fd5b9091600f81166010811015613070576f181899199a1a9b1b9c1cb0b131b232b360811b901a6130468486612f78565b5360041c91801561305b576000190190612fd5565b60246000634e487b7160e01b81526011600452fd5b60246000634e487b7160e01b81526032600452fd5b6000198114610e075760010190565b9060068110156108c45760ff80198354169116179055565b90601f81116130ba57505050565b600091825260208220906020601f850160051c830194106130f6575b601f0160051c01915b8281106130eb57505050565b8181556001016130df565b90925082906130d6565b60ff6001541661310c57565b60405162461bcd60e51b815260206004820152601060248201526f14185d5cd8589b194e881c185d5cd95960821b6044820152606490fd5b60028054146131535760028055565b60405162461bcd60e51b815260206004820152601f60248201527f5265656e7472616e637947756172643a207265656e7472616e742063616c6c006044820152606490fd5b6040516323b872dd60e01b60208201526001600160a01b03928316602482015292909116604483015260648083019390935291815260a08101918183106001600160401b038411176108ae57612a9b926040525b60018060a01b03169060405160408101908082106001600160401b038311176108ae5761325d916040526020938482527f5361666545524332303a206c6f772d6c6576656c2063616c6c206661696c6564858301526000808587829751910182855af16132576132fa565b91613339565b8051918215918483156132cf575b5050509050156132785750565b6084906040519062461bcd60e51b82526004820152602a60248201527f5361666545524332303a204552433230206f7065726174696f6e20646964206e6044820152691bdd081cdd58d8d9595960b21b6064820152fd5b9193818094500103126132f6578201519081151582036132f357508038808461326b565b80fd5b5080fd5b3d15613334573d906001600160401b0382116108ae5760405191613328601f8201601f191660200184612a3c565b82523d6000602084013e565b606090565b9192901561339b575081511561334d575090565b3b156133565790565b60405162461bcd60e51b815260206004820152601d60248201527f416464726573733a2063616c6c20746f206e6f6e2d636f6e74726163740000006044820152606490fd5b8251909150156133ae5750805190602001fd5b60405162461bcd60e51b815260206004820152908190610d8e906024830190612b33565b6001600160401b0381116108ae5760051b60200190565b919081101561095b5760051b0190565b356001600160a01b0381168103610bd05790565b356001600160e81b031981168103610bd05790565b91908203918211610e0757565b60405163a9059cbb60e01b60208201526001600160a01b039092166024830152604480830193909352918152612a9b91613468826129ea565b6131ec565b60038110156108c457600281146134975760011461348e57640ba43b740090565b64746a52880090565b5065048c2739500090565b60038110156108c457600281146134cd576001146134c35764746a52880090565b65048c2739500090565b50652d79883d200090565b60018060a01b03169060008281526020916010835260409260ff848420541694620151804204600d835285852081865283526135178487872054612f6b565b906135218861346d565b8083116135bc5750828652600d845286862090865283528585205562278d00420492818552600e835285852084865283526135686135628288882054612f6b565b976134a2565b8088116135825750508352600e8152838320918352522055565b86866044966135a3949683968352600e815283832091835252205490613422565b90519163dbaa733b60e01b835260048301526024820152fd5b876135de8792828a6044968a8a8352600d815283832091835252205490613422565b9051916377b326b560e11b835260048301526024820152fdfe537472696e67733a20686578206c656e67746820696e73756666696369656e74a264697066735822122050725af868dc8943b5a4b779f4e4f654856a2d18f296a4ab96ce9a2bfc0b825e64736f6c634300081300332f8788117e7eff1d82e926ec794901d17c78024a50270940304540a733656f0d",
  "linkReferences": {},
  "deployedLinkReferences": {}
}