{
  "_format": "hh-sol-artifact-1",
  "contractName": "InvoiceFinancing",
  "sourceName": "src/InvoiceFinancing.sol",
  "abi": [
    {
      "inputs": [
        {
          "internalType": "address",
          "name": "_admin",
          "type": "address"
        },
        {
          "internalType": "address",
          "name": "_protocolTreasury",
          "type": "address"
        },
        {
          "internalType": "uint256",
          "name": "_protocolFeeBps",
          "type": "uint256"
        }
      ],
      "stateMutability": "nonpayable",
      "type": "constructor"
    },
    {
      "inputs": [],
      "name": "AlreadySettled",
      "type": "error"
    },
    {
      "inputs": [],
      "name": "ArrayLengthMismatch",
      "type": "error"
    },
    {
      "inputs": [
        {
          "internalType": "uint256",
          "name": "size",
          "type": "uint256"
        },
        {
          "internalType": "uint256",
          "name": "maxSize",
          "type": "uint256"
        }
      ],
      "name": "BatchTooLarge",
      "type": "error"
    },
    {
      "inputs": [],
      "name": "CollateralAlreadyReleased",
      "type": "error"
    },
    {
      "inputs": [],
      "name": "DisputeAlreadyActive",
      "type": "error"
    },
    {
      "inputs": [],
      "name": "DisputeNotFound",
      "type": "error"
    },
    {
      "inputs": [],
      "name": "DisputeNotPending",
      "type": "error"
    },
    {
      "inputs": [
        {
          "internalType": "uint256",
          "name": "requested",
          "type": "uint256"
        },
        {
          "internalType": "uint256",
          "name": "remaining",
          "type": "uint256"
        }
      ],
      "name": "ExceedsFaceValue",
      "type": "error"
    },
    {
      "inputs": [],
      "name": "InsufficientCollateral",
      "type": "error"
    },
    {
      "inputs": [],
      "name": "InvalidCreditScore",
      "type": "error"
    },
    {
      "inputs": [],
      "name": "InvalidDiscountRate",
      "type": "error"
    },
    {
      "inputs": [],
      "name": "InvalidFee",
      "type": "error"
    },
    {
      "inputs": [],
      "name": "InvalidGracePeriod",
      "type": "error"
    },
    {
      "inputs": [
        {
          "internalType": "enum InvoiceFinancing.InvoiceStatus",
          "name": "current",
          "type": "uint8"
        },
        {
          "internalType": "enum InvoiceFinancing.InvoiceStatus",
          "name": "expected",
          "type": "uint8"
        }
      ],
      "name": "InvalidInvoiceStatus",
      "type": "error"
    },
    {
      "inputs": [],
      "name": "InvalidPenaltyRate",
      "type": "error"
    },
    {
      "inputs": [],
      "name": "InvoiceNotFound",
      "type": "error"
    },
    {
      "inputs": [],
      "name": "InvoiceNotOverdue",
      "type": "error"
    },
    {
      "inputs": [],
      "name": "MaturityInPast",
      "type": "error"
    },
    {
      "inputs": [],
      "name": "MaturityTooFar",
      "type": "error"
    },
    {
      "inputs": [],
      "name": "NotCreditor",
      "type": "error"
    },
    {
      "inputs": [],
      "name": "NotDebtor",
      "type": "error"
    },
    {
      "inputs": [],
      "name": "NotInvoiceParty",
      "type": "error"
    },
    {
      "inputs": [],
      "name": "UnsupportedToken",
      "type": "error"
    },
    {
      "inputs": [],
      "name": "ZeroAddress",
      "type": "error"
    },
    {
      "inputs": [],
      "name": "ZeroAmount",
      "type": "error"
    },
    {
      "anonymous": false,
      "inputs": [
        {
          "indexed": true,
          "internalType": "address",
          "name": "oldRegistry",
          "type": "address"
        },
        {
          "indexed": true,
          "internalType": "address",
          "name": "newRegistry",
          "type": "address"
        }
      ],
      "name": "BusinessRegistryUpdated",
      "type": "event"
    },
    {
      "anonymous": false,
      "inputs": [
        {
          "indexed": true,
          "internalType": "bytes32",
          "name": "invoiceId",
          "type": "bytes32"
        },
        {
          "indexed": true,
          "internalType": "address",
          "name": "depositor",
          "type": "address"
        },
        {
          "indexed": false,
          "internalType": "address",
          "name": "token",
          "type": "address"
        },
        {
          "indexed": false,
          "internalType": "uint256",
          "name": "amount",
          "type": "uint256"
        }
      ],
      "name": "CollateralDeposited",
      "type": "event"
    },
    {
      "anonymous": false,
      "inputs": [
        {
          "indexed": true,
          "internalType": "bytes32",
          "name": "invoiceId",
          "type": "bytes32"
        },
        {
          "indexed": true,
          "internalType": "address",
          "name": "depositor",
          "type": "address"
        },
        {
          "indexed": false,
          "internalType": "uint256",
          "name": "amount",
          "type": "uint256"
        }
      ],
      "name": "CollateralReleased",
      "type": "event"
    },
    {
      "anonymous": false,
      "inputs": [
        {
          "indexed": true,
          "internalType": "address",
          "name": "business",
          "type": "address"
        },
        {
          "indexed": false,
          "internalType": "uint16",
          "name": "oldScore",
          "type": "uint16"
        },
        {
          "indexed": false,
          "internalType": "uint16",
          "name": "newScore",
          "type": "uint16"
        }
      ],
      "name": "CreditScoreUpdated",
      "type": "event"
    },
    {
      "anonymous": false,
      "inputs": [
        {
          "indexed": true,
          "internalType": "bytes32",
          "name": "disputeId",
          "type": "bytes32"
        },
        {
          "indexed": true,
          "internalType": "bytes32",
          "name": "invoiceId",
          "type": "bytes32"
        },
        {
          "indexed": true,
          "internalType": "address",
          "name": "initiator",
          "type": "address"
        },
        {
          "indexed": false,
          "internalType": "uint256",
          "name": "escrowAmount",
          "type": "uint256"
        }
      ],
      "name": "DisputeInitiated",
      "type": "event"
    },
    {
      "anonymous": false,
      "inputs": [
        {
          "indexed": true,
          "internalType": "bytes32",
          "name": "disputeId",
          "type": "bytes32"
        },
        {
          "indexed": true,
          "internalType": "bytes32",
          "name": "invoiceId",
          "type": "bytes32"
        },
        {
          "indexed": false,
          "internalType": "enum InvoiceFinancing.DisputeOutcome",
          "name": "outcome",
          "type": "uint8"
        },
        {
          "indexed": false,
          "internalType": "uint256",
          "name": "creditorAward",
          "type": "uint256"
        },
        {
          "indexed": false,
          "internalType": "uint256",
          "name": "debtorRefund",
          "type": "uint256"
        }
      ],
      "name": "DisputeResolved",
      "type": "event"
    },
    {
      "anonymous": false,
      "inputs": [
        {
          "indexed": true,
          "internalType": "bytes32",
          "name": "positionId",
          "type": "bytes32"
        },
        {
          "indexed": true,
          "internalType": "bytes32",
          "name": "invoiceId",
          "type": "bytes32"
        },
        {
          "indexed": false,
          "internalType": "uint256",
          "name": "settledAmount",
          "type": "uint256"
        }
      ],
      "name": "FactoringPositionSettled",
      "type": "event"
    },
    {
      "anonymous": false,
      "inputs": [
        {
          "indexed": true,
          "internalType": "address",
          "name": "creditor",
          "type": "address"
        },
        {
          "indexed": false,
          "internalType": "uint256",
          "name": "count",
          "type": "uint256"
        },
        {
          "indexed": false,
          "internalType": "uint256",
          "name": "totalFaceValue",
          "type": "uint256"
        }
      ],
      "name": "InvoiceBatchCreated",
      "type": "event"
    },
    {
      "anonymous": false,
      "inputs": [
        {
          "indexed": true,
          "internalType": "bytes32",
          "name": "invoiceId",
          "type": "bytes32"
        }
      ],
      "name": "InvoiceCancelled",
      "type": "event"
    },
    {
      "anonymous": false,
      "inputs": [
        {
          "indexed": true,
          "internalType": "bytes32",
          "name": "childInvoiceId",
          "type": "bytes32"
        },
        {
          "indexed": true,
          "internalType": "bytes32",
          "name": "parentInvoiceId",
          "type": "bytes32"
        },
        {
          "indexed": true,
          "internalType": "address",
          "name": "creditor",
          "type": "address"
        }
      ],
      "name": "InvoiceChainLinked",
      "type": "event"
    },
    {
      "anonymous": false,
      "inputs": [
        {
          "indexed": true,
          "internalType": "bytes32",
          "name": "invoiceId",
          "type": "bytes32"
        },
        {
          "indexed": true,
          "internalType": "address",
          "name": "creditor",
          "type": "address"
        },
        {
          "indexed": true,
          "internalType": "address",
          "name": "debtor",
          "type": "address"
        },
        {
          "indexed": false,
          "internalType": "uint256",
          "name": "faceValue",
          "type": "uint256"
        },
        {
          "indexed": false,
          "internalType": "uint256",
          "name": "maturityDate",
          "type": "uint256"
        },
        {
          "indexed": false,
          "internalType": "address",
          "name": "settlementToken",
          "type": "address"
        }
      ],
      "name": "InvoiceCreated",
      "type": "event"
    },
    {
      "anonymous": false,
      "inputs": [
        {
          "indexed": true,
          "internalType": "bytes32",
          "name": "invoiceId",
          "type": "bytes32"
        },
        {
          "indexed": true,
          "internalType": "bytes32",
          "name": "positionId",
          "type": "bytes32"
        },
        {
          "indexed": true,
          "internalType": "address",
          "name": "factor",
          "type": "address"
        },
        {
          "indexed": false,
          "internalType": "uint256",
          "name": "advanceAmount",
          "type": "uint256"
        },
        {
          "indexed": false,
          "internalType": "uint256",
          "name": "discountBps",
          "type": "uint256"
        }
      ],
      "name": "InvoiceFinanced",
      "type": "event"
    },
    {
      "anonymous": false,
      "inputs": [
        {
          "indexed": true,
          "internalType": "bytes32",
          "name": "invoiceId",
          "type": "bytes32"
        },
        {
          "indexed": false,
          "internalType": "uint256",
          "name": "daysOverdue",
          "type": "uint256"
        },
        {
          "indexed": false,
          "internalType": "uint256",
          "name": "penaltyAmount",
          "type": "uint256"
        }
      ],
      "name": "InvoiceMarkedOverdue",
      "type": "event"
    },
    {
      "anonymous": false,
      "inputs": [
        {
          "indexed": true,
          "internalType": "bytes32",
          "name": "invoiceId",
          "type": "bytes32"
        },
        {
          "indexed": false,
          "internalType": "uint256",
          "name": "totalRepaid",
          "type": "uint256"
        },
        {
          "indexed": false,
          "internalType": "uint256",
          "name": "settledAt",
          "type": "uint256"
        }
      ],
      "name": "InvoiceSettled",
      "type": "event"
    },
    {
      "anonymous": false,
      "inputs": [
        {
          "indexed": false,
          "internalType": "address",
          "name": "account",
          "type": "address"
        }
      ],
      "name": "Paused",
      "type": "event"
    },
    {
      "anonymous": false,
      "inputs": [
        {
          "indexed": false,
          "internalType": "uint256",
          "name": "oldFee",
          "type": "uint256"
        },
        {
          "indexed": false,
          "internalType": "uint256",
          "name": "newFee",
          "type": "uint256"
        }
      ],
      "name": "ProtocolFeeUpdated",
      "type": "event"
    },
    {
      "anonymous": false,
      "inputs": [
        {
          "indexed": true,
          "internalType": "bytes32",
          "name": "role",
          "type": "bytes32"
        },
        {
          "indexed": true,
          "internalType": "bytes32",
          "name": "previousAdminRole",
          "type": "bytes32"
        },
        {
          "indexed": true,
          "internalType": "bytes32",
          "name": "newAdminRole",
          "type": "bytes32"
        }
      ],
      "name": "RoleAdminChanged",
      "type": "event"
    },
    {
      "anonymous": false,
      "inputs": [
        {
          "indexed": true,
          "internalType": "bytes32",
          "name": "role",
          "type": "bytes32"
        },
        {
          "indexed": true,
          "internalType": "address",
          "name": "account",
          "type": "address"
        },
        {
          "indexed": true,
          "internalType": "address",
          "name": "sender",
          "type": "address"
        }
      ],
      "name": "RoleGranted",
      "type": "event"
    },
    {
      "anonymous": false,
      "inputs": [
        {
          "indexed": true,
          "internalType": "bytes32",
          "name": "role",
          "type": "bytes32"
        },
        {
          "indexed": true,
          "internalType": "address",
          "name": "account",
          "type": "address"
        },
        {
          "indexed": true,
          "internalType": "address",
          "name": "sender",
          "type": "address"
        }
      ],
      "name": "RoleRevoked",
      "type": "event"
    },
    {
      "anonymous": false,
      "inputs": [
        {
          "indexed": true,
          "internalType": "address",
          "name": "token",
          "type": "address"
        },
        {
          "indexed": false,
          "internalType": "bool",
          "name": "supported",
          "type": "bool"
        }
      ],
      "name": "TokenSupported",
      "type": "event"
    },
    {
      "anonymous": false,
      "inputs": [
        {
          "indexed": false,
          "internalType": "address",
          "name": "account",
          "type": "address"
        }
      ],
      "name": "Unpaused",
      "type": "event"
    },
    {
      "inputs": [],
      "name": "ADMIN_ROLE",
      "outputs": [
        {
          "internalType": "bytes32",
          "name": "",
          "type": "bytes32"
        }
      ],
      "stateMutability": "view",
      "type": "function"
    },
    {
      "inputs": [],
      "name": "ARBITER_ROLE",
      "outputs": [
        {
          "internalType": "bytes32",
          "name": "",
          "type": "bytes32"
        }
      ],
      "stateMutability": "view",
      "type": "function"
    },
    {
      "inputs": [],
      "name": "CREDIT_ANALYST_ROLE",
      "outputs": [
        {
          "internalType": "bytes32",
          "name": "",
          "type": "bytes32"
        }
      ],
      "stateMutability": "view",
      "type": "function"
    },
    {
      "inputs": [],
      "name": "DEFAULT_ADMIN_ROLE",
      "outputs": [
        {
          "internalType": "bytes32",
          "name": "",
          "type": "bytes32"
        }
      ],
      "stateMutability": "view",
      "type": "function"
    },
    {
      "inputs": [],
      "name": "DEFAULT_CREDIT_SCORE",
      "outputs": [
        {
          "internalType": "uint16",
          "name": "",
          "type": "uint16"
        }
      ],
      "stateMutability": "view",
      "type": "function"
    },
    {
      "inputs": [],
      "name": "FACTOR_ROLE",
      "outputs": [
        {
          "internalType": "bytes32",
          "name": "",
          "type": "bytes32"
        }
      ],
      "stateMutability": "view",
      "type": "function"
    },
    {
      "inputs": [],
      "name": "MAX_BATCH_SIZE",
      "outputs": [
        {
          "internalType": "uint256",
          "name": "",
          "type": "uint256"
        }
      ],
      "stateMutability": "view",
      "type": "function"
    },
    {
      "inputs": [],
      "name": "MAX_CREDIT_SCORE",
      "outputs": [
        {
          "internalType": "uint16",
          "name": "",
          "type": "uint16"
        }
      ],
      "stateMutability": "view",
      "type": "function"
    },
    {
      "inputs": [],
      "name": "MAX_DISCOUNT_BPS",
      "outputs": [
        {
          "internalType": "uint256",
          "name": "",
          "type": "uint256"
        }
      ],
      "stateMutability": "view",
      "type": "function"
    },
    {
      "inputs": [],
      "name": "MAX_GRACE_PERIOD",
      "outputs": [
        {
          "internalType": "uint256",
          "name": "",
          "type": "uint256"
        }
      ],
      "stateMutability": "view",
      "type": "function"
    },
    {
      "inputs": [],
      "name": "MAX_LATE_PENALTY_BPS",
      "outputs": [
        {
          "internalType": "uint256",
          "name": "",
          "type": "uint256"
        }
      ],
      "stateMutability": "view",
      "type": "function"
    },
    {
      "inputs": [],
      "name": "MIN_CREDIT_SCORE",
      "outputs": [
        {
          "internalType": "uint16",
          "name": "",
          "type": "uint16"
        }
      ],
      "stateMutability": "view",
      "type": "function"
    },
    {
      "inputs": [
        {
          "internalType": "bytes32",
          "name": "",
          "type": "bytes32"
        }
      ],
      "name": "activeDisputes",
      "outputs": [
        {
          "internalType": "bytes32",
          "name": "",
          "type": "bytes32"
        }
      ],
      "stateMutability": "view",
      "type": "function"
    },
    {
      "inputs": [
        {
          "internalType": "address",
          "name": "_business",
          "type": "address"
        },
        {
          "internalType": "uint16",
          "name": "_newScore",
          "type": "uint16"
        }
      ],
      "name": "adjustCreditScore",
      "outputs": [],
      "stateMutability": "nonpayable",
      "type": "function"
    },
    {
      "inputs": [
        {
          "internalType": "address[]",
          "name": "_debtors",
          "type": "address[]"
        },
        {
          "internalType": "uint256[]",
          "name": "_faceValues",
          "type": "uint256[]"
        },
        {
          "internalType": "address",
          "name": "_settlementToken",
          "type": "address"
        },
        {
          "internalType": "uint256[]",
          "name": "_maturityDates",
          "type": "uint256[]"
        },
        {
          "internalType": "bytes32[]",
          "name": "_documentHashes",
          "type": "bytes32[]"
        },
        {
          "internalType": "uint256",
          "name": "_gracePeriod",
          "type": "uint256"
        },
        {
          "internalType": "uint256",
          "name": "_latePenaltyBps",
          "type": "uint256"
        }
      ],
      "name": "batchCreateInvoices",
      "outputs": [
        {
          "internalType": "bytes32[]",
          "name": "invoiceIds",
          "type": "bytes32[]"
        }
      ],
      "stateMutability": "nonpayable",
      "type": "function"
    },
    {
      "inputs": [],
      "name": "businessRegistry",
      "outputs": [
        {
          "internalType": "address",
          "name": "",
          "type": "address"
        }
      ],
      "stateMutability": "view",
      "type": "function"
    },
    {
      "inputs": [
        {
          "internalType": "bytes32",
          "name": "_invoiceId",
          "type": "bytes32"
        }
      ],
      "name": "cancelInvoice",
      "outputs": [],
      "stateMutability": "nonpayable",
      "type": "function"
    },
    {
      "inputs": [
        {
          "internalType": "bytes32",
          "name": "",
          "type": "bytes32"
        }
      ],
      "name": "collaterals",
      "outputs": [
        {
          "internalType": "address",
          "name": "depositor",
          "type": "address"
        },
        {
          "internalType": "address",
          "name": "token",
          "type": "address"
        },
        {
          "internalType": "uint256",
          "name": "amount",
          "type": "uint256"
        },
        {
          "internalType": "bytes32",
          "name": "invoiceId",
          "type": "bytes32"
        },
        {
          "internalType": "bool",
          "name": "released",
          "type": "bool"
        }
      ],
      "stateMutability": "view",
      "type": "function"
    },
    {
      "inputs": [
        {
          "internalType": "bytes32",
          "name": "_parentInvoiceId",
          "type": "bytes32"
        },
        {
          "internalType": "address",
          "name": "_debtor",
          "type": "address"
        },
        {
          "internalType": "uint256",
          "name": "_faceValue",
          "type": "uint256"
        },
        {
          "internalType": "uint256",
          "name": "_maturityDate",
          "type": "uint256"
        },
        {
          "internalType": "bytes32",
          "name": "_documentHash",
          "type": "bytes32"
        },
        {
          "internalType": "uint256",
          "name": "_gracePeriod",
          "type": "uint256"
        },
        {
          "internalType": "uint256",
          "name": "_latePenaltyBps",
          "type": "uint256"
        }
      ],
      "name": "createChainedInvoice",
      "outputs": [
        {
          "internalType": "bytes32",
          "name": "invoiceId",
          "type": "bytes32"
        }
      ],
      "stateMutability": "nonpayable",
      "type": "function"
    },
    {
      "inputs": [
        {
          "internalType": "address",
          "name": "_debtor",
          "type": "address"
        },
        {
          "internalType": "uint256",
          "name": "_faceValue",
          "type": "uint256"
        },
        {
          "internalType": "address",
          "name": "_settlementToken",
          "type": "address"
        },
        {
          "internalType": "uint256",
          "name": "_maturityDate",
          "type": "uint256"
        },
        {
          "internalType": "bytes32",
          "name": "_documentHash",
          "type": "bytes32"
        },
        {
          "internalType": "uint256",
          "name": "_gracePeriod",
          "type": "uint256"
        },
        {
          "internalType": "uint256",
          "name": "_latePenaltyBps",
          "type": "uint256"
        }
      ],
      "name": "createInvoice",
      "outputs": [
        {
          "internalType": "bytes32",
          "name": "invoiceId",
          "type": "bytes32"
        }
      ],
      "stateMutability": "nonpayable",
      "type": "function"
    },
    {
      "inputs": [
        {
          "internalType": "address",
          "name": "",
          "type": "address"
        }
      ],
      "name": "creditProfiles",
      "outputs": [
        {
          "internalType": "uint16",
          "name": "creditScore",
          "type": "uint16"
        },
        {
          "internalType": "uint256",
          "name": "totalInvoicesIssued",
          "type": "uint256"
        },
        {
          "internalType": "uint256",
          "name": "totalInvoicesPaid",
          "type": "uint256"
        },
        {
          "internalType": "uint256",
          "name": "totalInvoicesDefaulted",
          "type": "uint256"
        },
        {
          "internalType": "uint256",
          "name": "totalValueFinanced",
          "type": "uint256"
        },
        {
          "internalType": "uint256",
          "name": "totalValueRepaid",
          "type": "uint256"
        },
        {
          "internalType": "uint256",
          "name": "averageDaysLate",
          "type": "uint256"
        },
        {
          "internalType": "uint256",
          "name": "lastUpdated",
          "type": "uint256"
        }
      ],
      "stateMutability": "view",
      "type": "function"
    },
    {
      "inputs": [
        {
          "internalType": "address",
          "name": "",
          "type": "address"
        },
        {
          "internalType": "uint256",
          "name": "",
          "type": "uint256"
        }
      ],
      "name": "creditorInvoices",
      "outputs": [
        {
          "internalType": "bytes32",
          "name": "",
          "type": "bytes32"
        }
      ],
      "stateMutability": "view",
      "type": "function"
    },
    {
      "inputs": [
        {
          "internalType": "address",
          "name": "",
          "type": "address"
        },
        {
          "internalType": "uint256",
          "name": "",
          "type": "uint256"
        }
      ],
      "name": "debtorInvoices",
      "outputs": [
        {
          "internalType": "bytes32",
          "name": "",
          "type": "bytes32"
        }
      ],
      "stateMutability": "view",
      "type": "function"
    },
    {
      "inputs": [
        {
          "internalType": "bytes32",
          "name": "_invoiceId",
          "type": "bytes32"
        },
        {
          "internalType": "address",
          "name": "_token",
          "type": "address"
        },
        {
          "internalType": "uint256",
          "name": "_amount",
          "type": "uint256"
        }
      ],
      "name": "depositCollateral",
      "outputs": [],
      "stateMutability": "nonpayable",
      "type": "function"
    },
    {
      "inputs": [],
      "name": "disputeNonce",
      "outputs": [
        {
          "internalType": "uint256",
          "name": "",
          "type": "uint256"
        }
      ],
      "stateMutability": "view",
      "type": "function"
    },
    {
      "inputs": [
        {
          "internalType": "bytes32",
          "name": "",
          "type": "bytes32"
        }
      ],
      "name": "disputes",
      "outputs": [
        {
          "internalType": "bytes32",
          "name": "disputeId",
          "type": "bytes32"
        },
        {
          "internalType": "bytes32",
          "name": "invoiceId",
          "type": "bytes32"
        },
        {
          "internalType": "address",
          "name": "initiator",
          "type": "address"
        },
        {
          "internalType": "address",
          "name": "respondent",
          "type": "address"
        },
        {
          "internalType": "string",
          "name": "reason",
          "type": "string"
        },
        {
          "internalType": "uint256",
          "name": "escrowAmount",
          "type": "uint256"
        },
        {
          "internalType": "enum InvoiceFinancing.DisputeOutcome",
          "name": "outcome",
          "type": "uint8"
        },
        {
          "internalType": "uint256",
          "name": "initiatedAt",
          "type": "uint256"
        },
        {
          "internalType": "uint256",
          "name": "resolvedAt",
          "type": "uint256"
        },
        {
          "internalType": "address",
          "name": "arbiter",
          "type": "address"
        },
        {
          "internalType": "uint256",
          "name": "creditorAward",
          "type": "uint256"
        },
        {
          "internalType": "uint256",
          "name": "debtorRefund",
          "type": "uint256"
        }
      ],
      "stateMutability": "view",
      "type": "function"
    },
    {
      "inputs": [
        {
          "internalType": "bytes32",
          "name": "",
          "type": "bytes32"
        }
      ],
      "name": "factoringPositions",
      "outputs": [
        {
          "internalType": "bytes32",
          "name": "positionId",
          "type": "bytes32"
        },
        {
          "internalType": "bytes32",
          "name": "invoiceId",
          "type": "bytes32"
        },
        {
          "internalType": "address",
          "name": "factor",
          "type": "address"
        },
        {
          "internalType": "uint256",
          "name": "advanceAmount",
          "type": "uint256"
        },
        {
          "internalType": "uint256",
          "name": "discountBps",
          "type": "uint256"
        },
        {
          "internalType": "uint256",
          "name": "expectedReturn",
          "type": "uint256"
        },
        {
          "internalType": "uint256",
          "name": "financedAt",
          "type": "uint256"
        },
        {
          "internalType": "bool",
          "name": "settled",
          "type": "bool"
        },
        {
          "internalType": "uint256",
          "name": "settledAmount",
          "type": "uint256"
        }
      ],
      "stateMutability": "view",
      "type": "function"
    },
    {
      "inputs": [
        {
          "internalType": "bytes32",
          "name": "_invoiceId",
          "type": "bytes32"
        },
        {
          "internalType": "uint256",
          "name": "_advanceAmount",
          "type": "uint256"
        },
        {
          "internalType": "uint256",
          "name": "_discountBps",
          "type": "uint256"
        }
      ],
      "name": "financeInvoice",
      "outputs": [
        {
          "internalType": "bytes32",
          "name": "positionId",
          "type": "bytes32"
        }
      ],
      "stateMutability": "nonpayable",
      "type": "function"
    },
    {
      "inputs": [
        {
          "internalType": "address",
          "name": "_business",
          "type": "address"
        }
      ],
      "name": "getCreditProfile",
      "outputs": [
        {
          "components": [
            {
              "internalType": "uint16",
              "name": "creditScore",
              "type": "uint16"
            },
            {
              "internalType": "uint256",
              "name": "totalInvoicesIssued",
              "type": "uint256"
            },
            {
              "internalType": "uint256",
              "name": "totalInvoicesPaid",
              "type": "uint256"
            },
            {
              "internalType": "uint256",
              "name": "totalInvoicesDefaulted",
              "type": "uint256"
            },
            {
              "internalType": "uint256",
              "name": "totalValueFinanced",
              "type": "uint256"
            },
            {
              "internalType": "uint256",
              "name": "totalValueRepaid",
              "type": "uint256"
            },
            {
              "internalType": "uint256",
              "name": "averageDaysLate",
              "type": "uint256"
            },
            {
              "internalType": "uint256",
              "name": "lastUpdated",
              "type": "uint256"
            }
          ],
          "internalType": "struct InvoiceFinancing.CreditProfile",
          "name": "",
          "type": "tuple"
        }
      ],
      "stateMutability": "view",
      "type": "function"
    },
    {
      "inputs": [
        {
          "internalType": "address",
          "name": "_creditor",
          "type": "address"
        }
      ],
      "name": "getCreditorInvoices",
      "outputs": [
        {
          "internalType": "bytes32[]",
          "name": "",
          "type": "bytes32[]"
        }
      ],
      "stateMutability": "view",
      "type": "function"
    },
    {
      "inputs": [
        {
          "internalType": "address",
          "name": "_debtor",
          "type": "address"
        }
      ],
      "name": "getDebtorInvoices",
      "outputs": [
        {
          "internalType": "bytes32[]",
          "name": "",
          "type": "bytes32[]"
        }
      ],
      "stateMutability": "view",
      "type": "function"
    },
    {
      "inputs": [
        {
          "internalType": "bytes32",
          "name": "_disputeId",
          "type": "bytes32"
        }
      ],
      "name": "getDispute",
      "outputs": [
        {
          "components": [
            {
              "internalType": "bytes32",
              "name": "disputeId",
              "type": "bytes32"
            },
            {
              "internalType": "bytes32",
              "name": "invoiceId",
              "type": "bytes32"
            },
            {
              "internalType": "address",
              "name": "initiator",
              "type": "address"
            },
            {
              "internalType": "address",
              "name": "respondent",
              "type": "address"
            },
            {
              "internalType": "string",
              "name": "reason",
              "type": "string"
            },
            {
              "internalType": "uint256",
              "name": "escrowAmount",
              "type": "uint256"
            },
            {
              "internalType": "enum InvoiceFinancing.DisputeOutcome",
              "name": "outcome",
              "type": "uint8"
            },
            {
              "internalType": "uint256",
              "name": "initiatedAt",
              "type": "uint256"
            },
            {
              "internalType": "uint256",
              "name": "resolvedAt",
              "type": "uint256"
            },
            {
              "internalType": "address",
              "name": "arbiter",
              "type": "address"
            },
            {
              "internalType": "uint256",
              "name": "creditorAward",
              "type": "uint256"
            },
            {
              "internalType": "uint256",
              "name": "debtorRefund",
              "type": "uint256"
            }
          ],
          "internalType": "struct InvoiceFinancing.Dispute",
          "name": "",
          "type": "tuple"
        }
      ],
      "stateMutability": "view",
      "type": "function"
    },
    {
      "inputs": [
        {
          "internalType": "bytes32",
          "name": "_positionId",
          "type": "bytes32"
        }
      ],
      "name": "getFactoringPosition",
      "outputs": [
        {
          "components": [
            {
              "internalType": "bytes32",
              "name": "positionId",
              "type": "bytes32"
            },
            {
              "internalType": "bytes32",
              "name": "invoiceId",
              "type": "bytes32"
            },
            {
              "internalType": "address",
              "name": "factor",
              "type": "address"
            },
            {
              "internalType": "uint256",
              "name": "advanceAmount",
              "type": "uint256"
            },
            {
              "internalType": "uint256",
              "name": "discountBps",
              "type": "uint256"
            },
            {
              "internalType": "uint256",
              "name": "expectedReturn",
              "type": "uint256"
            },
            {
              "internalType": "uint256",
              "name": "financedAt",
              "type": "uint256"
            },
            {
              "internalType": "bool",
              "name": "settled",
              "type": "bool"
            },
            {
              "internalType": "uint256",
              "name": "settledAmount",
              "type": "uint256"
            }
          ],
          "internalType": "struct InvoiceFinancing.FactoringPosition",
          "name": "",
          "type": "tuple"
        }
      ],
      "stateMutability": "view",
      "type": "function"
    },
    {
      "inputs": [
        {
          "internalType": "bytes32",
          "name": "_invoiceId",
          "type": "bytes32"
        }
      ],
      "name": "getInvoice",
      "outputs": [
        {
          "components": [
            {
              "internalType": "bytes32",
              "name": "invoiceId",
              "type": "bytes32"
            },
            {
              "internalType": "address",
              "name": "creditor",
              "type": "address"
            },
            {
              "internalType": "address",
              "name": "debtor",
              "type": "address"
            },
            {
              "internalType": "uint256",
              "name": "faceValue",
              "type": "uint256"
            },
            {
              "internalType": "uint256",
              "name": "amountFinanced",
              "type": "uint256"
            },
            {
              "internalType": "uint256",
              "name": "amountRepaid",
              "type": "uint256"
            },
            {
              "internalType": "address",
              "name": "settlementToken",
              "type": "address"
            },
            {
              "internalType": "uint256",
              "name": "issuedAt",
              "type": "uint256"
            },
            {
              "internalType": "uint256",
              "name": "maturityDate",
              "type": "uint256"
            },
            {
              "internalType": "uint256",
              "name": "settledAt",
              "type": "uint256"
            },
            {
              "internalType": "enum InvoiceFinancing.InvoiceStatus",
              "name": "status",
              "type": "uint8"
            },
            {
              "internalType": "bytes32",
              "name": "documentHash",
              "type": "bytes32"
            },
            {
              "internalType": "bytes32",
              "name": "parentInvoiceId",
              "type": "bytes32"
            },
            {
              "internalType": "uint256",
              "name": "gracePeriod",
              "type": "uint256"
            },
            {
              "internalType": "uint256",
              "name": "latePenaltyBps",
              "type": "uint256"
            }
          ],
          "internalType": "struct InvoiceFinancing.Invoice",
          "name": "",
          "type": "tuple"
        }
      ],
      "stateMutability": "view",
      "type": "function"
    },
    {
      "inputs": [
        {
          "internalType": "bytes32",
          "name": "_invoiceId",
          "type": "bytes32"
        }
      ],
      "name": "getInvoicePositions",
      "outputs": [
        {
          "internalType": "bytes32[]",
          "name": "",
          "type": "bytes32[]"
        }
      ],
      "stateMutability": "view",
      "type": "function"
    },
    {
      "inputs": [
        {
          "internalType": "bytes32",
          "name": "role",
          "type": "bytes32"
        }
      ],
      "name": "getRoleAdmin",
      "outputs": [
        {
          "internalType": "bytes32",
          "name": "",
          "type": "bytes32"
        }
      ],
      "stateMutability": "view",
      "type": "function"
    },
    {
      "inputs": [
        {
          "internalType": "address",
          "name": "_debtor",
          "type": "address"
        }
      ],
      "name": "getSuggestedDiscountRate",
      "outputs": [
        {
          "internalType": "uint256",
          "name": "",
          "type": "uint256"
        }
      ],
      "stateMutability": "view",
      "type": "function"
    },
    {
      "inputs": [
        {
          "internalType": "bytes32",
          "name": "_invoiceId",
          "type": "bytes32"
        }
      ],
      "name": "getTotalOwed",
      "outputs": [
        {
          "internalType": "uint256",
          "name": "",
          "type": "uint256"
        }
      ],
      "stateMutability": "view",
      "type": "function"
    },
    {
      "inputs": [
        {
          "internalType": "bytes32",
          "name": "role",
          "type": "bytes32"
        },
        {
          "internalType": "address",
          "name": "account",
          "type": "address"
        }
      ],
      "name": "grantRole",
      "outputs": [],
      "stateMutability": "nonpayable",
      "type": "function"
    },
    {
      "inputs": [
        {
          "internalType": "bytes32",
          "name": "role",
          "type": "bytes32"
        },
        {
          "internalType": "address",
          "name": "account",
          "type": "address"
        }
      ],
      "name": "hasRole",
      "outputs": [
        {
          "internalType": "bool",
          "name": "",
          "type": "bool"
        }
      ],
      "stateMutability": "view",
      "type": "function"
    },
    {
      "inputs": [
        {
          "internalType": "bytes32",
          "name": "_invoiceId",
          "type": "bytes32"
        },
        {
          "internalType": "string",
          "name": "_reason",
          "type": "string"
        }
      ],
      "name": "initiateDispute",
      "outputs": [
        {
          "internalType": "bytes32",
          "name": "disputeId",
          "type": "bytes32"
        }
      ],
      "stateMutability": "nonpayable",
      "type": "function"
    },
    {
      "inputs": [],
      "name": "invoiceNonce",
      "outputs": [
        {
          "internalType": "uint256",
          "name": "",
          "type": "uint256"
        }
      ],
      "stateMutability": "view",
      "type": "function"
    },
    {
      "inputs": [
        {
          "internalType": "bytes32",
          "name": "",
          "type": "bytes32"
        },
        {
          "internalType": "uint256",
          "name": "",
          "type": "uint256"
        }
      ],
      "name": "invoicePositions",
      "outputs": [
        {
          "internalType": "bytes32",
          "name": "",
          "type": "bytes32"
        }
      ],
      "stateMutability": "view",
      "type": "function"
    },
    {
      "inputs": [
        {
          "internalType": "bytes32",
          "name": "",
          "type": "bytes32"
        }
      ],
      "name": "invoices",
      "outputs": [
        {
          "internalType": "bytes32",
          "name": "invoiceId",
          "type": "bytes32"
        },
        {
          "internalType": "address",
          "name": "creditor",
          "type": "address"
        },
        {
          "internalType": "address",
          "name": "debtor",
          "type": "address"
        },
        {
          "internalType": "uint256",
          "name": "faceValue",
          "type": "uint256"
        },
        {
          "internalType": "uint256",
          "name": "amountFinanced",
          "type": "uint256"
        },
        {
          "internalType": "uint256",
          "name": "amountRepaid",
          "type": "uint256"
        },
        {
          "internalType": "address",
          "name": "settlementToken",
          "type": "address"
        },
        {
          "internalType": "uint256",
          "name": "issuedAt",
          "type": "uint256"
        },
        {
          "internalType": "uint256",
          "name": "maturityDate",
          "type": "uint256"
        },
        {
          "internalType": "uint256",
          "name": "settledAt",
          "type": "uint256"
        },
        {
          "internalType": "enum InvoiceFinancing.InvoiceStatus",
          "name": "status",
          "type": "uint8"
        },
        {
          "internalType": "bytes32",
          "name": "documentHash",
          "type": "bytes32"
        },
        {
          "internalType": "bytes32",
          "name": "parentInvoiceId",
          "type": "bytes32"
        },
        {
          "internalType": "uint256",
          "name": "gracePeriod",
          "type": "uint256"
        },
        {
          "internalType": "uint256",
          "name": "latePenaltyBps",
          "type": "uint256"
        }
      ],
      "stateMutability": "view",
      "type": "function"
    },
    {
      "inputs": [
        {
          "internalType": "bytes32",
          "name": "_invoiceId",
          "type": "bytes32"
        }
      ],
      "name": "markOverdue",
      "outputs": [],
      "stateMutability": "nonpayable",
      "type": "function"
    },
    {
      "inputs": [],
      "name": "pause",
      "outputs": [],
      "stateMutability": "nonpayable",
      "type": "function"
    },
    {
      "inputs": [],
      "name": "paused",
      "outputs": [
        {
          "internalType": "bool",
          "name": "",
          "type": "bool"
        }
      ],
      "stateMutability": "view",
      "type": "function"
    },
    {
      "inputs": [],
      "name": "positionNonce",
      "outputs": [
        {
          "internalType": "uint256",
          "name": "",
          "type": "uint256"
        }
      ],
      "stateMutability": "view",
      "type": "function"
    },
    {
      "inputs": [],
      "name": "protocolFeeBps",
      "outputs": [
        {
          "internalType": "uint256",
          "name": "",
          "type": "uint256"
        }
      ],
      "stateMutability": "view",
      "type": "function"
    },
    {
      "inputs": [],
      "name": "protocolTreasury",
      "outputs": [
        {
          "internalType": "address",
          "name": "",
          "type": "address"
        }
      ],
      "stateMutability": "view",
      "type": "function"
    },
    {
      "inputs": [
        {
          "internalType": "bytes32",
          "name": "_invoiceId",
          "type": "bytes32"
        },
        {
          "internalType": "address",
          "name": "_depositor",
          "type": "address"
        }
      ],
      "name": "releaseCollateral",
      "outputs": [],
      "stateMutability": "nonpayable",
      "type": "function"
    },
    {
      "inputs": [
        {
          "internalType": "bytes32",
          "name": "role",
          "type": "bytes32"
        },
        {
          "internalType": "address",
          "name": "account",
          "type": "address"
        }
      ],
      "name": "renounceRole",
      "outputs": [],
      "stateMutability": "nonpayable",
      "type": "function"
    },
    {
      "inputs": [
        {
          "internalType": "bytes32",
          "name": "_invoiceId",
          "type": "bytes32"
        },
        {
          "internalType": "uint256",
          "name": "_amount",
          "type": "uint256"
        }
      ],
      "name": "repayInvoice",
      "outputs": [],
      "stateMutability": "nonpayable",
      "type": "function"
    },
    {
      "inputs": [
        {
          "internalType": "bytes32",
          "name": "_disputeId",
          "type": "bytes32"
        },
        {
          "internalType": "enum InvoiceFinancing.DisputeOutcome",
          "name": "_outcome",
          "type": "uint8"
        },
        {
          "internalType": "uint256",
          "name": "_creditorAward",
          "type": "uint256"
        },
        {
          "internalType": "uint256",
          "name": "_debtorRefund",
          "type": "uint256"
        }
      ],
      "name": "resolveDispute",
      "outputs": [],
      "stateMutability": "nonpayable",
      "type": "function"
    },
    {
      "inputs": [
        {
          "internalType": "bytes32",
          "name": "role",
          "type": "bytes32"
        },
        {
          "internalType": "address",
          "name": "account",
          "type": "address"
        }
      ],
      "name": "revokeRole",
      "outputs": [],
      "stateMutability": "nonpayable",
      "type": "function"
    },
    {
      "inputs": [
        {
          "internalType": "address",
          "name": "_registry",
          "type": "address"
        }
      ],
      "name": "setBusinessRegistry",
      "outputs": [],
      "stateMutability": "nonpayable",
      "type": "function"
    },
    {
      "inputs": [
        {
          "internalType": "uint256",
          "name": "_newFeeBps",
          "type": "uint256"
        }
      ],
      "name": "setProtocolFee",
      "outputs": [],
      "stateMutability": "nonpayable",
      "type": "function"
    },
    {
      "inputs": [
        {
          "internalType": "address",
          "name": "_token",
          "type": "address"
        },
        {
          "internalType": "bool",
          "name": "_supported",
          "type": "bool"
        }
      ],
      "name": "setSupportedToken",
      "outputs": [],
      "stateMutability": "nonpayable",
      "type": "function"
    },
    {
      "inputs": [
        {
          "internalType": "address",
          "name": "",
          "type": "address"
        }
      ],
      "name": "supportedTokens",
      "outputs": [
        {
          "internalType": "bool",
          "name": "",
          "type": "bool"
        }
      ],
      "stateMutability": "view",
      "type": "function"
    },
    {
      "inputs": [
        {
          "internalType": "bytes4",
          "name": "interfaceId",
          "type": "bytes4"
        }
      ],
      "name": "supportsInterface",
      "outputs": [
        {
          "internalType": "bool",
          "name": "",
          "type": "bool"
        }
      ],
      "stateMutability": "view",
      "type": "function"
    },
    {
      "inputs": [],
      "name": "unpause",
      "outputs": [],
      "stateMutability": "nonpayable",
      "type": "function"
    }
  ],
  "bytecode": "0x608034620001c157601f62004cdf38819003918201601f191683019291906001600160401b03841183851017620001c6578160609284926040968752833981010312620001c1576200005181620001dc565b6020908362000062838501620001dc565b9301519260ff19918260015416600155600160025560018060a01b03809116918215620001b057169283156200019f576103e885116200018e57600092838052838252868420838552825260ff87852054161562000158575b7fa49807205ce4d355092ef5a8a18f56e8913cf4a201fbe287825b095693c2177591828552848152878520848652815260ff8886205416156200011f575b601280546001600160a01b0319168717905560118790558751614acd9081620001f28239f35b828552848152878520908486525260018785209182541617905560008051602062004cbf833981519152339380a43880808080620000f9565b838052838252868420838552825286842060018282541617905533838560008051602062004cbf8339815191528180a4620000bb565b85516358d620b360e01b8152600490fd5b855163d92e233d60e01b8152600490fd5b865163d92e233d60e01b8152600490fd5b600080fd5b634e487b7160e01b600052604160045260246000fd5b51906001600160a01b0382168203620001c15756fe608080604052600436101561001357600080fd5b60003560e01c90816301ffc9a714613a055750806304c82457146138d5578063079bafe3146137cd57806308500cdc146137835780630a49cf4d146137665780630b9a021b146136f657806311be19971461361c578063136ba6aa146134405780631c2f2de2146131065780631caf4f7614612f0a578063248a9ca314612edb5780632f2ff15d14612e285780633048800a14612e0b57806335659fb814612ded57806336568abe14612d5b578063390947cf14612d3e5780633dfc32f614612d155780633f4ba83a14612c815780633f80c7891461291857806345171f261461288d578063466196491461286f5780634d104adf1461283457806352cccdb3146126f157806354203e09146126d45780635c975abb146126b157806361c2ef2c146123e857806367420d041461222b57806368c4ac26146121ec57806375b238fc146121b157806375c4637014612193578063787dce3d146121235780637dc0ff7e14611e05578063803db96d14611ddc5780638113293e14611d6457806383c5cc0614611cfd5780638456cb5914611ca457806389daf5ec1461181e57806391d14854146117d157806397bd1017146117b35780639df643e2146116875780639ea6844e1461160f578063a217fddf146115f3578063b332efbc146115d6578063c0aa7e2e14611534578063c7536249146114fe578063c87a52d4146114d2578063c906093f1461145c578063cb802c8b1461124d578063cfdbf25414611231578063d1a13973146111f6578063d547741f146111b5578063da5278821461116b578063e126dd131461114d578063e30a983214611112578063e798646614611071578063ee372f1714610fe0578063f0b5030014610a2a578063f0f216d8146109eb578063f6a0d619146109c0578063f8a8a076146108d85763fd783b87146102be57600080fd5b346108d35760e03660031901126108d3576001600160401b036004358181116108d3576102ef903690600401613d0c565b6024358381116108d357610307903690600401613d0c565b939092610312613a84565b936064358381116108d35761032b903690600401613d0c565b936084359081116108d357610344903690600401613d0c565b9061034d614254565b861561081457603287116108b3578887148015906108a9575b801561089f575b61088d576001600160a01b0388166000908152600c602052604090205460ff161561087b576276a70060a43511610869576107d060c43511610857579694939291906103b887614298565b976103c6604051998a613b92565b878952601f196103d589614298565b013660208b01376000966103e833614627565b6000965b89881061043a576104368b8b8b60405191825260208201527f68ec7b1f385062e49f120388d9dbf49b98c5806f40794013dc8da8707f3b3e3860403392a260405191829182613cc4565b0390f35b909192939495969760018060a01b0361045c6104578b8d8c6142af565b6142bf565b16158015610838575b61082657610474898d896142af565b351561081457426104868a84896142af565b351115610802578b6104a78a6104a0610457828f8e6142af565b928a6142af565b35906104e1600e54916104b9836141be565b600e556104d36040519384926020840196429133896141cd565b03601f198101835282613b92565b5190208b518a10156107ec578c6105148b61050d8f8f83908f886020610457958560051b0101526142af565b928b6142af565b356105208c868b6142af565b3561052c8d8a8a6142af565b35916040519361053b85613b24565b85855233602086015260018060a01b03166040850152606084015260006080840152600060a084015260018060a01b03871660c08401524260e084015261010083015260006101208301526000610140830152610160820152600061018082015260a4356101a082015260c4356101c0820152816000526003602052604060002090805182556001820160018060a01b03602083015116906001600160601b0360a01b91828254161790556002830160018060a01b0360408401511682825416179055606082015160038401556080820151600484015560a08201516005840155600683019060018060a01b0360c0840151169082541617905560e0810151600783015561010081015191600892838201556101208201516009820155610140820151928310156107d6578f91948d958f8e88968295600a918282019061068191614202565b61016085015194600b9586830155610180810151600c8301556101a0810151600d8301556101c0015190600e015533600052602052876040600020906106c69161421a565b6001600160a01b03916106db918891906142af565b6106e4906142bf565b166000526020528c8483876040600020906106fe9161421a565b610707926142af565b610710906142bf565b61071990614627565b3360005260066020528b848460406000206001018054610738906141be565b9055610743926142af565b3561074d916140bb565b9c610758918d6142af565b610761906142bf565b9161076c918b6142af565b359161077984868b6142af565b60408051948552903560208501526001600160a01b038781169185019190915291909116913391907fe8f4c51b670d59efad68872607300fd71a2fe67155fda4afc725c0b01bcc7e3a90606090a4600101969594939291906103ec565b634e487b7160e01b600052602160045260246000fd5b634e487b7160e01b600052603260045260246000fd5b604051631c38546760e01b8152600490fd5b604051631f2a200560e01b8152600490fd5b604051633708df7160e11b8152600490fd5b50336001600160a01b036108506104578c8e8d6142af565b1614610465565b60405163131b2aeb60e31b8152600490fd5b60405163d7c43e0f60e01b8152600490fd5b60405163350b944160e11b8152600490fd5b60405163512509d360e11b8152600490fd5b508187141561036d565b5085871415610366565b60405163bb1cb70b60e01b81526004810188905260326024820152604490fd5b600080fd5b346108d35760203660031901126108d357600435600052600360205260406000208054600160a01b6001900391826001820154169280600283015416906003830154906004840154906005850154906006860154166007860154600887015491600988015493600a89015460ff1695600b8a015497600c8b015499600d8c01549b600e01549c6040519e8f91825260208201526040015260608d015260808c015260a08b015260c08a015260e089015261010088015261012087015261014086016109a291613cff565b6101608501526101808401526101a08301526101c08201526101e090f35b346108d35760203660031901126108d35760206109e36109de613a58565b6145b3565b604051908152f35b346108d3576109f936613cae565b906000526005602052604060002080548210156108d357602091610a1c91613a9a565b90546040519160031b1c8152f35b346108d35760603660031901126108d357610a43614254565b610a4b614300565b3360009081527f8e129e407d3d7604b9bd4617b27d4a1f0b842dc84d7aae416c5d1dde27b866d160205260409020547ff1d5bec438ccc272b2ebd709f0ba7ed38a20b67d0d00f48fabe435242c78976d9060ff1615610e4b5760043560005260036020526040600020600781015415610e395760ff600a8201541660088110156107d65780151580610e2e575b610e075750602435156108145761138860443511610df5576003810154600482015490610b0582826142d3565b8060243511610dd55750610b4c90610b46610b33612710610b2a6044356024356140a8565b046024356140bb565b93610b40602435846140a8565b926142d3565b906142e0565b808211610dcd575b50600f54610b61816141be565b600f55604051903360601b6020830152600435603483015260243560548301524260748301526094820152609481528060c08101106001600160401b0360c083011117610db7576020928160c06101009301604052600881518683012094610bcb60c08401613b40565b8560c084015260043560e08401523385840152610c8e6101208401916024358352610140850190604435825261016086019081526101808601904282526101a0870192600084526101c0880195600087528b60005260048d5260406000209860c08101518a5560e081015160018b015560018060a01b039b8c9101511660028a01906001600160601b0360a01b825416179055516003890155516004880155516005870155516006860155511515600785019060ff801983541691151516179055565b5191015560043560005260058452610caa83604060002061421a565b610cba60243560048301546140bb565b60048201819055600382015411610da357600a8101805460ff191660021790555b612710610cec6011546024356140a8565b04610cf9816024356142d3565b90610d17600684019260018685541695019486865416903390614354565b8381610d88575b5050505416600052600682526004604060002001610d3f60243582546140bb565b90556040516024358152604435838201528133917f1cbacb66b80646fd91e17d4b49df3afbe10436f0aa3f595fc56ac75540cb3153604060043592a46001600255604051908152f35b610d9b9254168460125416903390614354565b848083610d1e565b600a8101805460ff19166001179055610cdb565b634e487b7160e01b600052604160045260246000fd5b905082610b54565b60449060405190637da0aefb60e01b825260243560048301526024820152fd5b6040516314bba91760e11b8152600490fd5b6040516303c5580960e61b8152604491610e25906004830190613cff565b60006024820152fd5b506001811415610ad8565b604051634d5c803960e11b8152600490fd5b610e54336140f4565b60405191610e6183613b77565b60428352602083019060603683378351156107ec576030825383516001908110156107ec57607860218601536041905b808211610f86575050610f42576048610f0f92610f1e92610f3e9560405195869376020b1b1b2b9b9a1b7b73a3937b61d1030b1b1b7bab73a1604d1b6020860152610ee6815180926020603789019101613c59565b8401917001034b99036b4b9b9b4b733903937b6329607d1b603784015251809386840190613c59565b01036028810184520182613b92565b60405162461bcd60e51b8152602060048201529182916024830190613c7c565b0390fd5b606460405162461bcd60e51b815260206004820152602060248201527f537472696e67733a20686578206c656e67746820696e73756666696369656e746044820152fd5b9091600f811660108110156107ec576f181899199a1a9b1b9c1cb0b131b232b360811b901a610fb584886140e3565b5360041c918015610fca576000190190610e91565b634e487b7160e01b600052601160045260246000fd5b346108d35760203660031901126108d3576004356000526004602052610120604060002080549060018101549060018060a01b0360028201541660038201546004830154600584015491600685015493600860ff60078801541696015496604051988952602089015260408801526060870152608086015260a085015260c0840152151560e0830152610100820152f35b346108d35760403660031901126108d35761108a613a58565b60243590811515908183036108d3576110a1613d3c565b6001600160a01b0316918215611100577fd86c88b4a367d9b81a6e00c9d3f7d01657bffef358fa8968c91c045ae99f0d52916110f760209285600052600c845260406000209060ff801983541691151516179055565b604051908152a2005b60405163d92e233d60e01b8152600490fd5b346108d35760003660031901126108d35760206040517f8d4fdc55ea5b63bf2f21f864efad262179546013380e17db7f77b611d2607a1e8152f35b346108d35760003660031901126108d3576020601054604051908152f35b346108d35760403660031901126108d357611184613a58565b6001600160a01b03166000908152600b60205260409020805460243591908210156108d357602091610a1c91613a9a565b346108d35760403660031901126108d3576111f46004356111d4613a6e565b908060005260006020526111ef600160406000200154613f2a565b614034565b005b346108d35760003660031901126108d35760206040517ff1d5bec438ccc272b2ebd709f0ba7ed38a20b67d0d00f48fabe435242c78976d8152f35b346108d35760003660031901126108d357602060405160328152f35b346108d35760203660031901126108d35760006101c060405161126f81613b24565b8281528260208201528260408201528260608201528260808201528260a08201528260c08201528260e08201528261010082015282610120820152826101408201528261016082015282610180820152826101a08201520152600435600052600360205260406000206040516112e481613b24565b8154815260018201546001600160a01b0390811660208301526002830154811660408301526003830154606083015260048301546080830152600583015460a083015260068301541660c0820152600782015460e08201526008808301546101008301526009830154610120830152600a83015460ff16908110156107d6576101e092600e91610140840152600b810154610160840152600c810154610180840152600d8101546101a084015201546101c08201526101c0604051918051835260018060a01b03602082015116602084015260018060a01b036040820151166040840152606081015160608401526080810151608084015260a081015160a084015260018060a01b0360c08201511660c084015260e081015160e084015261010081015161010084015261012081015161012084015261142e610140820151610140850190613cff565b6101608101516101608401526101808101516101808401526101a08101516101a084015201516101c0820152f35b346108d3576020806003193601126108d35760043560005260058152604060002090604051908181845491828152019360005281600020916000905b8282106114bb57610436856114af81890382613b92565b60405191829182613cc4565b835486529485019460019384019390910190611498565b346108d35760203660031901126108d35760043560005260086020526020604060002054604051908152f35b346108d35760203660031901126108d35760043560005260036020526040600020600781015415610e39576109e36020916148a0565b346108d35760203660031901126108d357600435611550614254565b8060005260036020526040600020600781015415610e395760018101546001600160a01b031633036115c457600a01805460ff811660088110156107d65780610e07575060ff191660071790557ff556b32314a99a5d2f9679d0a5e5d7bf7140dc015e19fc34bcaef393625a200f600080a2005b6040516370b72a5f60e11b8152600490fd5b346108d35760003660031901126108d35760206040516102268152f35b346108d35760003660031901126108d357602060405160008152f35b346108d3576020806003193601126108d3576001600160a01b03611631613a58565b16600052600a8152604060002090604051908181845491828152019360005281600020916000905b82821061167057610436856114af81890382613b92565b835486529485019460019384019390910190611659565b346108d35760203660031901126108d3576101206040516116a781613b40565b6000815260006020820152600060408201526000606082015260006080820152600060a0820152600060c0820152600060e0820152600061010080920152600435600052600460205260406000209060405161170281613b40565b82549283825260018101546020830190815260018060a01b038060028401541690604085019182526003840154606086019081526004850154916080870192835260058601549360a0880194855260068701549560c0890196875289600860ff60078b0154169960e08c019a15158b52015499019889526040519a8b525160208b0152511660408901525160608801525160808701525160a08601525160c085015251151560e08401525190820152f35b346108d35760003660031901126108d3576020600f54604051908152f35b346108d35760403660031901126108d3576117ea613a6e565b600435600052600060205260406000209060018060a01b0316600052602052602060ff604060002054166040519015158152f35b346108d35760403660031901126108d3576001600160401b03602435116108d3573660236024350112156108d3576001600160401b0360243560040135116108d35736602480356004013581350101116108d35761187a614254565b611882614300565b60043560005260036020526040600020600781015415610e395760018101546001600160a01b031633141580611c8d575b610826576004356000526008602052604060002054611c7b5760ff600a8201541660088110156107d657600381148015611c71575b610e0757506010546118f9816141be565b601055604051602081019160043583523360601b604083015242605483015260748201526074815261192a81613b5c565b51902060018201546001600160a01b0316338103611c6b575060028201546001600160a01b0316915b61196660038201546005830154906142d3565b906040519361197485613b08565b838552600435602086015233604086015260018060a01b031660608501526119a1602435600401356140c8565b6119ae6040519182613b92565b6024803560048101358084529101602083013760006020602435600401358301015260808501528160a0850152600060c08501524260e085015260006101008501526000610120850152600061014085015260006101608501528260005260076020526040600020845181556020850151600182015560018060a01b036040860151166001600160601b0360a01b6002830154161760028201556003810160018060a01b036060870151166001600160601b0360a01b82541617905560808501518051906001600160401b038211610db7578190611a8f6004850154613ab2565b601f8111611c18575b50602090601f8311600114611ba657600092611b9b575b50508160011b916000199060031b1c19161760048201555b60a0850151600582015560c08501519460048610156107d657610160600b91611af56020986006860161455f565b60e0810151600785015561010081015160088501556009840160018060a01b03610120830151166001600160601b0360a01b825416179055610140810151600a85015501519101556004356000526008845282604060002055600a600560ff198284015416179101556040519081523390827ff920a288d5c90a3dbf73d0621504295a0ecd3cf0b426e8ff83360eaff1e27d078560043593a46001600255604051908152f35b015190508780611aaf565b9250600484016000526020600020906000935b601f1984168510611bfd576001945083601f19811610611be4575b505050811b016004820155611ac7565b015160001960f88460031b161c19169055878080611bd4565b81810151835560209485019460019093019290910190611bb9565b909150600484016000526020600020601f840160051c810160208510611c64575b90849392915b601f830160051c82018110611c55575050611a98565b60008155859450600101611c3f565b5080611c39565b91611953565b50600781146118e8565b604051633fe2486d60e11b8152600490fd5b5060028101546001600160a01b03163314156118b3565b346108d35760003660031901126108d357611cbd613d3c565b611cc5614254565b600160ff19815416176001557f62e78cea01bee320cd4e420270b5ea74000d11b0c9f74754ebdbfc544b05a2586020604051338152a1005b346108d35760203660031901126108d357600435600052600960205260a06040600020600180831b0390818154169160018201541690600281015460ff60046003840154930154169260405194855260208501526040840152606083015215156080820152f35b346108d3576020806003193601126108d3576001600160a01b03611d86613a58565b16600052600b8152604060002090604051908181845491828152019360005281600020916000905b828210611dc557610436856114af81890382613b92565b835486529485019460019384019390910190611dae565b346108d35760003660031901126108d3576012546040516001600160a01b039091168152602090f35b346108d35760e03660031901126108d357611e1e613a58565b611e26613a84565b90611e2f614254565b6001600160a01b03811615611100576001600160a01b03811633146108265760243515610814576001600160a01b0382166000908152600c602052604090205460ff161561087b57426064351115610802576301e133804201804211610fca5760643511612111576276a70060a43511610869576107d060c4351161085757600e54611eba816141be565b600e55604051611ed8816104d36020820194426024358833896141cd565b5190209060405192611ee984613b24565b82845233602085015260018060a01b0382166040850152602435606085015260006080850152600060a085015260018060a01b03811660c08501524260e085015260643561010085015260006101208501526000610140850152608435610160850152600061018085015260a4356101a085015260c4356101c08501528260005260036020526040600020845181556001810160018060a01b03602087015116906001600160601b0360a01b91828254161790556002820160018060a01b0360408801511682825416179055606086015160038301556080860151600483015560a08601516005830155600682019060018060a01b0360c0880151169082541617905560e08501516007820155610100850151600882015561012085015160098201556101408501519460088610156107d6576101c0600e91612031602098600a8601614202565b610160810151600b850155610180810151600c8501556101a0810151600d850155015191015533600052600a845261206d83604060002061421a565b60018060a01b038216600052600b845261208b83604060002061421a565b61209433614627565b61209d82614627565b336000526006845260016040600020016120b781546141be565b905560408051602435815260643560208201526001600160a01b0392831691810191909152911690339083907fe8f4c51b670d59efad68872607300fd71a2fe67155fda4afc725c0b01bcc7e3a90606090a4604051908152f35b6040516323dcaa7360e01b8152600490fd5b346108d35760203660031901126108d35760043561213f613d3c565b6103e881116121815760407fb404cac19fb1cbeff98d325795b08886e3cd8fe8cb1a2f193aac66f13fb239c391601154908060115582519182526020820152a1005b6040516358d620b360e01b8152600490fd5b346108d35760003660031901126108d3576020600e54604051908152f35b346108d35760003660031901126108d35760206040517fa49807205ce4d355092ef5a8a18f56e8913cf4a201fbe287825b095693c217758152f35b346108d35760203660031901126108d3576001600160a01b0361220d613a58565b16600052600c602052602060ff604060002054166040519015158152f35b346108d35760403660031901126108d357600435612247613a6e565b90612250614254565b612258614300565b8060005260036020526040600020600781015415610e3957600a60ff91015416600881101590816107d657600381149182156123da575b82156123c9575b505015612374576040805160208101838152606085901b6bffffffffffffffffffffffff1916928201929092526122d081605481016104d3565b5190206000526009602052604060002060048101805460ff81166123625760028301549485156123505761234086827fbc919d9868e9fbc3290d51b0439225981772d598c943a786fbc81c8decbc3152966020966001809760ff1916179055858060a01b03958691015416614577565b6040519586521693a36001600255005b604051633a23d82560e01b8152600490fd5b60405163bb774ccb60e01b8152600490fd5b60405162461bcd60e51b815260206004820152602760248201527f496e766f69636546696e616e63696e673a20696e766f696365206e6f742066696044820152661b985b1a5e995960ca1b6064820152608490fd5b9091506107d6576007148380612296565b50600681149150600061228f565b346108d35760403660031901126108d357612401613a58565b60249081359061ffff90818316908184036108d3573360009081527f56f8908c37528ec7524af9a7279ab0f7a2b9413cf953158b3e3742c3e21e206660209081526040909120549095907f8d4fdc55ea5b63bf2f21f864efad262179546013380e17db7f77b611d2607a1e9060ff161561252157505061012c82108015612516575b612504577ff0476f83a777b892446c4939723caba7d89f8de16505f4dfe3c17f8b1dda4868936006826124b86124ff94614627565b6001600160a01b0316600081815291909752604090819020805461ffff19811690951781554260079091015580519490931661ffff90811685521660208401528291820190565b0390a2005b6040516301069b4760e21b8152600490fd5b506103528211612483565b869061252c336140f4565b9060405161253981613b77565b6042815283810191606036843781511561269c5760308353815160019081101561268757607860218401536041905b8082116126195750506125d7576048610f3e93610f0f936125bb9360405195869376020b1b1b2b9b9a1b7b73a3937b61d1030b1b1b7bab73a1604d1b8a860152610ee6815180928c603789019101613c59565b60405193849362461bcd60e51b85526004850152830190613c7c565b606485856040519162461bcd60e51b83528160048401528201527f537472696e67733a20686578206c656e67746820696e73756666696369656e746044820152fd5b9091600f81166010811015612672576f181899199a1a9b1b9c1cb0b131b232b360811b901a61264884866140e3565b5360041c91801561265d576000190190612568565b87634e487b7160e01b60005260116004526000fd5b88634e487b7160e01b60005260326004526000fd5b86634e487b7160e01b60005260326004526000fd5b85634e487b7160e01b60005260326004526000fd5b346108d35760003660031901126108d357602060ff600154166040519015158152f35b346108d35760003660031901126108d35760206040516103528152f35b346108d35760603660031901126108d35760043561270d613a6e565b90604435612719614254565b612721614300565b81600052600360205260076040600020015415610e39578015610814576001600160a01b0383166000818152600c602052604090205460ff161561087b57816128077fbd6aca32322dbfdb748728c54b511c53364b8d3f172935119fd15fa6b983b8679361282a9360405160208101906127b9816104d3338c86909160349282526001600160601b03199060601b1660208201520190565b519020600052600960205286600360406000206001600160601b0360a01b3381835416178255846001830191825416179055600281016127fa8682546140bb565b9055015530903390614354565b604080516001600160a01b03909616865260208601919091523394918291820190565b0390a36001600255005b346108d35760003660031901126108d35760206040517fbb08418a67729a078f87bbc8d02a770929bb68f5bfdf134ae2ead6ed38e2f4ae8152f35b346108d35760003660031901126108d35760206040516276a7008152f35b346108d35760203660031901126108d3576001600160a01b036128ae613a58565b166000526006602052610100604060002061ffff81541690600181015490600281015460038201546004830154906005840154926007600686015495015495604051978852602088015260408701526060860152608085015260a084015260c083015260e0820152f35b346108d35760e03660031901126108d357612931613a6e565b612939614254565b6004356000526003602052604060002090600782015415610e395760028201546001600160a01b03163303612c6f576001600160a01b038116158015612c5d575b61082657604435156108145760068201546001600160a01b03166000908152600c602052604090205460ff161561087b57426064351115610802576276a70060a43511610869576107d060c4351161085757600e546129d8816141be565b600e556040516129f6816104d36020820194426044358833896141cd565b519020600683015460405193919291906001600160a01b0316612a1885613b24565b83855233602086015260018060a01b0383166040860152604435606086015260006080860152600060a086015260c08501524260e08501526064356101008501526000610120850152600061014085015260843561016085015260043561018085015260a4356101a085015260c4356101c08501528260005260036020526040600020845181556001810160018060a01b03602087015116906001600160601b0360a01b91828254161790556002820160018060a01b0360408801511682825416179055606086015160038301556080860151600483015560a08601516005830155600682019060018060a01b0360c0880151169082541617905560e08501516007820155610100850151600882015561012085015160098201556101408501519460088610156107d6576101c0600e91612b58602098600a8601614202565b610160810151600b850155610180810151600c8501556101a0810151600d850155015191015533600052600a8452612b9483604060002061421a565b60018060a01b038216600052600b8452612bb283604060002061421a565b612bbb82614627565b33600052600684526001604060002001612bd581546141be565b90556006015460408051604435815260643560208201526001600160a01b0392831691810191909152911690339083907fe8f4c51b670d59efad68872607300fd71a2fe67155fda4afc725c0b01bcc7e3a90606090a46040519033600435827f2ff219ff2caf30ce2e1d9b2bc39bf3406341f70488fd9de6cc3b0c4f292a13dc600080a48152f35b506001600160a01b038116331461297a565b604051630b857edf60e21b8152600490fd5b346108d35760003660031901126108d357612c9a613d3c565b60015460ff811615612cd95760ff19166001557f5db9ee0a495bf2e6ff9c91a7834c1ba4fdd244a5e8aa4e537bd38aeae4b073aa6020604051338152a1005b60405162461bcd60e51b815260206004820152601460248201527314185d5cd8589b194e881b9bdd081c185d5cd95960621b6044820152606490fd5b346108d35760003660031901126108d357600d546040516001600160a01b039091168152602090f35b346108d35760003660031901126108d35760206040516113888152f35b346108d35760403660031901126108d357612d74613a6e565b336001600160a01b03821603612d90576111f490600435614034565b60405162461bcd60e51b815260206004820152602f60248201527f416363657373436f6e74726f6c3a2063616e206f6e6c792072656e6f756e636560448201526e103937b632b9903337b91039b2b63360891b6064820152608490fd5b346108d35760003660031901126108d3576020601154604051908152f35b346108d35760003660031901126108d35760206040516107d08152f35b346108d35760403660031901126108d357600435612e44613a6e565b816000526000602052612e5e600160406000200154613f2a565b81600052600060205260406000209060018060a01b0316908160005260205260ff6040600020541615612e8d57005b8160005260006020526040600020816000526020526040600020600160ff1982541617905533917f2f8788117e7eff1d82e926ec794901d17c78024a50270940304540a733656f0d600080a4005b346108d35760203660031901126108d35760043560005260006020526020600160406000200154604051908152f35b346108d357612f1836613cae565b612f20614254565b612f28614300565b8160005260036020526040600020600781015415610e39576002810180546001600160a01b03929083163303612c6f57831561081457600a810160ff81541660088110156107d6576003811480156130fc575b610e075750612f89826148a0565b612fcf836005810197612f9d8954856142d3565b90818111156130f557505b612fbc818960068501541630903390614354565b612fc7818a546140bb565b8955896148f7565b85541015612fdf575b6001600255005b600360ff1982541617905542600982015582825416600052600660205260406000206008600282019261301284546141be565b8094558654613026600585019182546140bb565b9055015480421161307d575b505050916130656040927f2d2c41ef0a33ad55ec7ef0e5224f292d54e6a49f233ee01709e9a8363e9f7fa89454166146dc565b548151908152426020820152a2808080808080612fd8565b62015180613093600692979596939497426142d3565b04920193845494600019870195878711610fca577f2d2c41ef0a33ad55ec7ef0e5224f292d54e6a49f233ee01709e9a8363e9f7fa8976130e4613065966130df60409a6130e9956140a8565b6140bb565b6142e0565b90559294819450613032565b9050612fa8565b5060078114612f7b565b346108d35760803660031901126108d357600435602490813560048110156108d357606435604435613136614254565b61313e614300565b3360009081527f89777fffb7045c97177d1161cd08d871365cb73d0b18f242761255a7718434cf60209081526040909120549095907fbb08418a67729a078f87bbc8d02a770929bb68f5bfdf134ae2ead6ed38e2f4ae9060ff16156133625750846000526007865260406000209060078201541561335057600682019060ff825416600481101561333b576133295785156132dc575091817fc078c8acb04b2b1dd6c592845df49738b0d47f2216b603df3d2bb6a6ec243c23959385600b6001606098960193845460005260038c5261321c8860406000209561455f565b42600882015560098101336001600160601b0360a01b82541617905585600a8201550155600a8101600660ff1982541617905581546000526008895260006040812055826132b5575b838061328d575b5050549661327d6040518095613ca1565b8301526040820152a36001600255005b60068201546002909201546132ae926001600160a01b039182169116614577565b888361326c565b600681015460018201546132d79185916001600160a01b039081169116614577565b613265565b8760216084926040519262461bcd60e51b845260048401528201527f496e766f69636546696e616e63696e673a20696e76616c6964206f7574636f6d6044820152606560f81b6064820152fd5b6040516325ddc86360e01b8152600490fd5b50634e487b7160e01b60009081526021600452fd5b60405163084a15e160e31b8152600490fd5b869061336d336140f4565b9060405161337a81613b77565b6042815283810191606036843781511561269c5760308353815160019081101561268757607860218401536041905b8082116133fc5750506125d7576048610f3e93610f0f936125bb9360405195869376020b1b1b2b9b9a1b7b73a3937b61d1030b1b1b7bab73a1604d1b8a860152610ee6815180928c603789019101613c59565b9091600f81166010811015612672576f181899199a1a9b1b9c1cb0b131b232b360811b901a61342b84866140e3565b5360041c91801561265d5760001901906133a9565b346108d35760203660031901126108d357600061016060405161346281613b08565b828152826020820152826040820152826060820152606060808201528260a08201528260c08201528260e0820152826101008201528261012082015282610140820152015260043560005260076020526040600020604051906134c482613b08565b805482526001810154602083015260028101546001600160a01b03908116604084015260038201541660608301526134fe60048201613bb3565b6080830152600581015460a083015260ff6006820154169060048210156107d657600b9160c0840152600781015460e0840152600881015461010084015260018060a01b03600982015416610120840152600a8101546101408401520154610160820152604051809160208252805160208301526020810151604083015260018060a01b03604082015116606083015260018060a01b03606082015116608083015260808101516101606135c0610180928360a08701526101a0860190613c7c565b9260a081015160c08601526135dd60c082015160e0870190613ca1565b60e081015161010086015261010081015161012086015260018060a01b0361012082015116610140860152610140810151828601520151908301520390f35b346108d35760203660031901126108d357600435600052600760205260206040600020805490600181015460018060a01b039182600282015416836003830154169361366a60048401613bb3565b946136d56005850154966136c560ff6006880154169160078801549460088901549660098a01541697600b600a8b01549a01549a6040519e8f9e8f908152015260408d015260608c01526101808060808d01528b0190613c7c565b9760a08a015260c0890190613ca1565b60e08701526101008601526101208501526101408401526101608301520390f35b346108d35760203660031901126108d35761370f613a58565b613717613d3c565b6001600160a01b0390811690811561110057600d54826001600160601b0360a01b821617600d55167fd7288000b6f56cad560bfed4cda2e8325d5d9e9342972527c3e56df70c83196c600080a3005b346108d35760003660031901126108d357602060405161012c8152f35b346108d35760403660031901126108d35761379c613a58565b6001600160a01b03166000908152600a60205260409020805460243591908210156108d357602091610a1c91613a9a565b346108d35760203660031901126108d3576137e6613a58565b600060e06040516137f681613aec565b8281528260208201528260408201528260608201528260808201528260a08201528260c0820152015260018060a01b03166000526006602052610100604060002060405161384381613aec565b61ffff825416918282526001810154602083019081526002820154604084019081526003830154606085019081526004840154916080860192835260058501549360a0870194855260e0600760068801549760c08a01988952015497019687526040519788525160208801525160408701525160608601525160808501525160a08401525160c08301525160e0820152f35b346108d35760203660031901126108d3576004356138f1614254565b8060005260036020526040600020600781015415610e3957600a810180549160ff831660088110156107d6576003811480156139fb575b610e075750600881015491613941600d830154846140bb565b4211156139e957613984604093620151809260047f0fbe2f77728c3f38ef84ae03bca11b6e4ddd3eac9367dd5a8c75dae0ffe69b3b9760ff1916179055426142d3565b04906139dc60026237b1d06139ab856139a66003870154600e880154906140a8565b6140a8565b04920160018060a01b0390818154166000526006602052600386600020016139d381546141be565b905554166146dc565b82519182526020820152a2005b6040516390c7bf7560e01b8152600490fd5b5060078114613928565b346108d35760203660031901126108d3576004359063ffffffff60e01b82168092036108d357602091637965db0b60e01b8114908115613a47575b5015158152f35b6301ffc9a760e01b14905083613a40565b600435906001600160a01b03821682036108d357565b602435906001600160a01b03821682036108d357565b604435906001600160a01b03821682036108d357565b80548210156107ec5760005260206000200190600090565b90600182811c92168015613ae2575b6020831014613acc57565b634e487b7160e01b600052602260045260246000fd5b91607f1691613ac1565b61010081019081106001600160401b03821117610db757604052565b61018081019081106001600160401b03821117610db757604052565b6101e081019081106001600160401b03821117610db757604052565b61012081019081106001600160401b03821117610db757604052565b60a081019081106001600160401b03821117610db757604052565b608081019081106001600160401b03821117610db757604052565b90601f801991011681019081106001600160401b03821117610db757604052565b9060405191826000825492613bc784613ab2565b908184526001948581169081600014613c365750600114613bf3575b5050613bf192500383613b92565b565b9093915060005260209081600020936000915b818310613c1e575050613bf193508201013880613be3565b85548884018501529485019487945091830191613c06565b915050613bf194506020925060ff191682840152151560051b8201013880613be3565b60005b838110613c6c5750506000910152565b8181015183820152602001613c5c565b90602091613c9581518092818552858086019101613c59565b601f01601f1916010190565b9060048210156107d65752565b60409060031901126108d3576004359060243590565b6020908160408183019282815285518094520193019160005b828110613ceb575050505090565b835185529381019392810192600101613cdd565b9060088210156107d65752565b9181601f840112156108d3578235916001600160401b0383116108d3576020808501948460051b0101116108d357565b3360009081527f7d7ffb7a348e1c6a02869081a26547b49160dd3df72d1d75a570eb9b698292ec602090815260408083205490927fa49807205ce4d355092ef5a8a18f56e8913cf4a201fbe287825b095693c217759160ff1615613da05750505050565b613da9336140f4565b91845190613db682613b77565b60428252848201926060368537825115613f165760308453825190600191821015613f165790607860218501536041915b818311613ea857505050613e66576048610f3e938693613e4a93613e3b985198899376020b1b1b2b9b9a1b7b73a3937b61d1030b1b1b7bab73a1604d1b8a860152610ee6815180928c603789019101613c59565b01036028810187520185613b92565b5192839262461bcd60e51b845260048401526024830190613c7c565b60648486519062461bcd60e51b825280600483015260248201527f537472696e67733a20686578206c656e67746820696e73756666696369656e746044820152fd5b909192600f81166010811015613f02576f181899199a1a9b1b9c1cb0b131b232b360811b901a613ed885876140e3565b5360041c928015613eee57600019019190613de7565b634e487b7160e01b82526011600452602482fd5b634e487b7160e01b83526032600452602483fd5b634e487b7160e01b81526032600452602490fd5b600090808252602090828252604092838120338252835260ff848220541615613f535750505050565b613f5c336140f4565b91845190613f6982613b77565b60428252848201926060368537825115613f165760308453825190600191821015613f165790607860218501536041915b818311613fee57505050613e66576048610f3e938693613e4a93613e3b985198899376020b1b1b2b9b9a1b7b73a3937b61d1030b1b1b7bab73a1604d1b8a860152610ee6815180928c603789019101613c59565b909192600f81166010811015613f02576f181899199a1a9b1b9c1cb0b131b232b360811b901a61401e85876140e3565b5360041c928015613eee57600019019190613f9a565b9060009180835282602052604083209160018060a01b03169182845260205260ff60408420541661406457505050565b80835282602052604083208284526020526040832060ff1981541690557ff6391f5c32d9c69d2a47ea670b442974b53935d1edc7fd64eb21e047a839171b339380a4565b81810292918115918404141715610fca57565b91908201809211610fca57565b6001600160401b038111610db757601f01601f191660200190565b9081518110156107ec570160200190565b60405190606082018281106001600160401b03821117610db757604052602a82526020820160403682378251156107ec576030905381516001908110156107ec57607860218401536029905b808211614150575050610f425790565b9091600f811660108110156141a9576f181899199a1a9b1b9c1cb0b131b232b360811b901a61417f84866140e3565b5360041c918015614194576000190190614140565b60246000634e487b7160e01b81526011600452fd5b60246000634e487b7160e01b81526032600452fd5b6000198114610fca5760010190565b93919060889593916001600160601b0319809260601b16865260601b1660148501526028840152604883015260688201520190565b9060088110156107d65760ff80198354169116179055565b805468010000000000000000811015610db75761423c91600182018155613a9a565b819291549060031b91821b91600019901b1916179055565b60ff6001541661426057565b60405162461bcd60e51b815260206004820152601060248201526f14185d5cd8589b194e881c185d5cd95960821b6044820152606490fd5b6001600160401b038111610db75760051b60200190565b91908110156107ec5760051b0190565b356001600160a01b03811681036108d35790565b91908203918211610fca57565b81156142ea570490565b634e487b7160e01b600052601260045260246000fd5b600280541461430f5760028055565b60405162461bcd60e51b815260206004820152601f60248201527f5265656e7472616e637947756172643a207265656e7472616e742063616c6c006044820152606490fd5b6040516323b872dd60e01b60208201526001600160a01b039283166024820152929091166044830152606480830193909352918152613bf19161439682613b5c565b60018060a01b03169060405160408101908082106001600160401b03831117610db757614425916040526020938482527f5361666545524332303a206c6f772d6c6576656c2063616c6c206661696c6564858301526000808587829751910182855af13d156144c2573d9161440a836140c8565b926144186040519485613b92565b83523d868885013e6144c6565b805191821591848315614497575b5050509050156144405750565b6084906040519062461bcd60e51b82526004820152602a60248201527f5361666545524332303a204552433230206f7065726174696f6e20646964206e6044820152691bdd081cdd58d8d9595960b21b6064820152fd5b9193818094500103126144be578201519081151582036144bb575080388084614433565b80fd5b5080fd5b6060915b9192901561452857508151156144da575090565b3b156144e35790565b60405162461bcd60e51b815260206004820152601d60248201527f416464726573733a2063616c6c20746f206e6f6e2d636f6e74726163740000006044820152606490fd5b82519091501561453b5750805190602001fd5b60405162461bcd60e51b815260206004820152908190610f3e906024830190613c7c565b9060048110156107d65760ff80198354169116179055565b60405163a9059cbb60e01b60208201526001600160a01b03929092166024830152604480830193909352918152613bf191614396606483613b92565b6001600160a01b03166000908152600660205260409020600781015415614620575461ffff166102ee81101561461a5761028a8110156146135761022681101561460c576101c21115614606576109c490565b6105dc90565b506103e890565b506101f490565b5060c890565b506105dc90565b6001600160a01b03166000818152600660205260408120600701549091901561464e575050565b6007906040519261465e84613aec565b6102268452602084018181526040850182815260608601838152608087019184835260a088019385855261ffff604060c08b019780895260e08c0199428b52815260066020522099511661ffff198a541617895551600189015551600288015551600387015551600486015551600585015551600684015551910155565b60018060a01b0316600081815260066020526040812080549061ffff80831693600283015461470f6003850154826140bb565b908115614896576064810290808204606414901517156148825790614733916142e0565b908160021b918083046004149015171561486e5761012c9182019081831161486e57908161479492906006870154801560001461484c5750606491505b9060058701546509184e72a000811160001461481257506130df91506032926140bb565b9061035280831161480a575b50808210614802575b5016809261ffff19161781556007429101558082036147c757505050565b6040805161ffff93841681529190921660208201527ff0476f83a777b892446c4939723caba7d89f8de16505f4dfe3c17f8b1dda48689190a2565b9050386147a9565b9150386147a0565b64e8d4a5100081111561482d57506130df9150601e926140bb565b64174876e80010614843575b6130df91926140bb565b600a9150614839565b6007811161485e575060329150614770565b601e106147705760149150614770565b634e487b7160e01b81526011600452602490fd5b634e487b7160e01b83526011600452602483fd5b5050505050505050565b60038101549060088101546148b9600d830154826140bb565b42116148c457505090565b6148ed6148f493926139a6600e620151806148e36237b1d096426142d3565b04920154856140a8565b04906140bb565b90565b9291909280600052600560205260406000209384548015614a6f5760009260005b8281106149585750505061492e929394506142d3565b80614937575050565b6006820154600190920154613bf1926001600160a01b039182169116614577565b6149628189613a9a565b90549060031b1c6000526004602052604060002060ff6007820154161561498d575b50600101614918565b6005810154956149a2600883015480986142d3565b966149bf6149b46003850154896140a8565b60048b0154906142e0565b97808911614a65575b5091614a056149ea8987946149e082600199986140bb565b60088601556140bb565b98858060a01b038060068d0154169060028501541690614577565b6008810154906005810154821015614a21575b50505090614984565b60078101805460ff19168617905554604051918252907f624e5cfc9663b72a3cf121b9a9dea18aea74a6405d3aa0747bb573010e7f8e1690602090a3823880614a18565b9750614a056149c8565b506006830154600190930154939450613bf19390926001600160a01b0391821692501661457756fea26469706673582212203740047b0abb185d86275d868b57463d5bb90280aacf303c35938af2403e9ac764736f6c634300081300332f8788117e7eff1d82e926ec794901d17c78024a50270940304540a733656f0d",
  "linkReferences": {},
  "deployedLinkReferences": {}
}