{
  "_format": "hh-sol-artifact-1",
  "contractName": "CrossChainRouter",
  "sourceName": "src/CrossChainRouter.sol",
  "abi": [
    {
      "inputs": [
        {
          "internalType": "address",
          "name": "_admin",
          "type": "address"
        },
        {
          "internalType": "address",
          "name": "_treasury",
          "type": "address"
        }
      ],
      "stateMutability": "nonpayable",
      "type": "constructor"
    },
    {
      "inputs": [
        {
          "internalType": "uint256",
          "name": "amount",
          "type": "uint256"
        },
        {
          "internalType": "uint256",
          "name": "maximum",
          "type": "uint256"
        }
      ],
      "name": "AmountAboveMaximum",
      "type": "error"
    },
    {
      "inputs": [
        {
          "internalType": "uint256",
          "name": "amount",
          "type": "uint256"
        },
        {
          "internalType": "uint256",
          "name": "minimum",
          "type": "uint256"
        }
      ],
      "name": "AmountBelowMinimum",
      "type": "error"
    },
    {
      "inputs": [
        {
          "internalType": "uint256",
          "name": "chainId",
          "type": "uint256"
        }
      ],
      "name": "ChainAlreadyExists",
      "type": "error"
    },
    {
      "inputs": [
        {
          "internalType": "uint256",
          "name": "remaining",
          "type": "uint256"
        }
      ],
      "name": "DeadlineNotExpired",
      "type": "error"
    },
    {
      "inputs": [
        {
          "internalType": "uint256",
          "name": "provided",
          "type": "uint256"
        },
        {
          "internalType": "uint256",
          "name": "required",
          "type": "uint256"
        }
      ],
      "name": "InsufficientStake",
      "type": "error"
    },
    {
      "inputs": [
        {
          "internalType": "uint256",
          "name": "provided",
          "type": "uint256"
        },
        {
          "internalType": "uint256",
          "name": "maximum",
          "type": "uint256"
        }
      ],
      "name": "InvalidFeeRate",
      "type": "error"
    },
    {
      "inputs": [],
      "name": "InvalidProof",
      "type": "error"
    },
    {
      "inputs": [
        {
          "internalType": "uint256",
          "name": "provided",
          "type": "uint256"
        },
        {
          "internalType": "uint256",
          "name": "minimum",
          "type": "uint256"
        }
      ],
      "name": "InvalidRecoveryTimeout",
      "type": "error"
    },
    {
      "inputs": [
        {
          "internalType": "enum CrossChainRouter.TransferStatus",
          "name": "current",
          "type": "uint8"
        },
        {
          "internalType": "enum CrossChainRouter.TransferStatus",
          "name": "expected",
          "type": "uint8"
        }
      ],
      "name": "InvalidTransferStatus",
      "type": "error"
    },
    {
      "inputs": [
        {
          "internalType": "uint256",
          "name": "deadline",
          "type": "uint256"
        },
        {
          "internalType": "uint256",
          "name": "currentTime",
          "type": "uint256"
        }
      ],
      "name": "RecoveryNotAvailable",
      "type": "error"
    },
    {
      "inputs": [],
      "name": "RelayAlreadyRegistered",
      "type": "error"
    },
    {
      "inputs": [],
      "name": "RelayNotActive",
      "type": "error"
    },
    {
      "inputs": [],
      "name": "RelayNotFound",
      "type": "error"
    },
    {
      "inputs": [],
      "name": "TransferNotFound",
      "type": "error"
    },
    {
      "inputs": [],
      "name": "Unauthorized",
      "type": "error"
    },
    {
      "inputs": [
        {
          "internalType": "uint256",
          "name": "chainId",
          "type": "uint256"
        }
      ],
      "name": "UnsupportedChain",
      "type": "error"
    },
    {
      "inputs": [
        {
          "internalType": "address",
          "name": "token",
          "type": "address"
        }
      ],
      "name": "UnsupportedToken",
      "type": "error"
    },
    {
      "inputs": [],
      "name": "ZeroAddress",
      "type": "error"
    },
    {
      "inputs": [],
      "name": "ZeroAmount",
      "type": "error"
    },
    {
      "anonymous": false,
      "inputs": [
        {
          "indexed": true,
          "internalType": "uint256",
          "name": "chainId",
          "type": "uint256"
        },
        {
          "indexed": false,
          "internalType": "string",
          "name": "name",
          "type": "string"
        }
      ],
      "name": "ChainAdded",
      "type": "event"
    },
    {
      "anonymous": false,
      "inputs": [
        {
          "indexed": true,
          "internalType": "uint256",
          "name": "chainId",
          "type": "uint256"
        }
      ],
      "name": "ChainConfigUpdated",
      "type": "event"
    },
    {
      "anonymous": false,
      "inputs": [
        {
          "indexed": true,
          "internalType": "uint256",
          "name": "chainId",
          "type": "uint256"
        }
      ],
      "name": "ChainRemoved",
      "type": "event"
    },
    {
      "anonymous": false,
      "inputs": [
        {
          "indexed": false,
          "internalType": "address",
          "name": "account",
          "type": "address"
        }
      ],
      "name": "Paused",
      "type": "event"
    },
    {
      "anonymous": false,
      "inputs": [
        {
          "indexed": true,
          "internalType": "address",
          "name": "operator",
          "type": "address"
        },
        {
          "indexed": false,
          "internalType": "uint256",
          "name": "stakeReturned",
          "type": "uint256"
        }
      ],
      "name": "RelayDeregistered",
      "type": "event"
    },
    {
      "anonymous": false,
      "inputs": [
        {
          "indexed": true,
          "internalType": "address",
          "name": "operator",
          "type": "address"
        },
        {
          "indexed": false,
          "internalType": "uint256",
          "name": "stake",
          "type": "uint256"
        },
        {
          "indexed": false,
          "internalType": "uint256",
          "name": "reputation",
          "type": "uint256"
        }
      ],
      "name": "RelayRegistered",
      "type": "event"
    },
    {
      "anonymous": false,
      "inputs": [
        {
          "indexed": true,
          "internalType": "address",
          "name": "operator",
          "type": "address"
        },
        {
          "indexed": false,
          "internalType": "uint256",
          "name": "oldReputation",
          "type": "uint256"
        },
        {
          "indexed": false,
          "internalType": "uint256",
          "name": "newReputation",
          "type": "uint256"
        }
      ],
      "name": "RelayReputationUpdated",
      "type": "event"
    },
    {
      "anonymous": false,
      "inputs": [
        {
          "indexed": true,
          "internalType": "bytes32",
          "name": "role",
          "type": "bytes32"
        },
        {
          "indexed": true,
          "internalType": "bytes32",
          "name": "previousAdminRole",
          "type": "bytes32"
        },
        {
          "indexed": true,
          "internalType": "bytes32",
          "name": "newAdminRole",
          "type": "bytes32"
        }
      ],
      "name": "RoleAdminChanged",
      "type": "event"
    },
    {
      "anonymous": false,
      "inputs": [
        {
          "indexed": true,
          "internalType": "bytes32",
          "name": "role",
          "type": "bytes32"
        },
        {
          "indexed": true,
          "internalType": "address",
          "name": "account",
          "type": "address"
        },
        {
          "indexed": true,
          "internalType": "address",
          "name": "sender",
          "type": "address"
        }
      ],
      "name": "RoleGranted",
      "type": "event"
    },
    {
      "anonymous": false,
      "inputs": [
        {
          "indexed": true,
          "internalType": "bytes32",
          "name": "role",
          "type": "bytes32"
        },
        {
          "indexed": true,
          "internalType": "address",
          "name": "account",
          "type": "address"
        },
        {
          "indexed": true,
          "internalType": "address",
          "name": "sender",
          "type": "address"
        }
      ],
      "name": "RoleRevoked",
      "type": "event"
    },
    {
      "anonymous": false,
      "inputs": [
        {
          "indexed": true,
          "internalType": "address",
          "name": "token",
          "type": "address"
        },
        {
          "indexed": false,
          "internalType": "bool",
          "name": "supported",
          "type": "bool"
        }
      ],
      "name": "TokenSupportUpdated",
      "type": "event"
    },
    {
      "anonymous": false,
      "inputs": [
        {
          "indexed": true,
          "internalType": "bytes32",
          "name": "transferId",
          "type": "bytes32"
        },
        {
          "indexed": false,
          "internalType": "uint256",
          "name": "completedAt",
          "type": "uint256"
        }
      ],
      "name": "TransferCompleted",
      "type": "event"
    },
    {
      "anonymous": false,
      "inputs": [
        {
          "indexed": true,
          "internalType": "bytes32",
          "name": "transferId",
          "type": "bytes32"
        },
        {
          "indexed": true,
          "internalType": "address",
          "name": "relay",
          "type": "address"
        },
        {
          "indexed": false,
          "internalType": "string",
          "name": "reason",
          "type": "string"
        }
      ],
      "name": "TransferFailed",
      "type": "event"
    },
    {
      "anonymous": false,
      "inputs": [
        {
          "indexed": true,
          "internalType": "bytes32",
          "name": "transferId",
          "type": "bytes32"
        },
        {
          "indexed": true,
          "internalType": "address",
          "name": "sender",
          "type": "address"
        },
        {
          "indexed": true,
          "internalType": "uint256",
          "name": "destinationChainId",
          "type": "uint256"
        },
        {
          "indexed": false,
          "internalType": "address",
          "name": "sourceToken",
          "type": "address"
        },
        {
          "indexed": false,
          "internalType": "uint256",
          "name": "amount",
          "type": "uint256"
        },
        {
          "indexed": false,
          "internalType": "uint256",
          "name": "fee",
          "type": "uint256"
        },
        {
          "indexed": false,
          "internalType": "bytes32",
          "name": "recipientHash",
          "type": "bytes32"
        }
      ],
      "name": "TransferInitiated",
      "type": "event"
    },
    {
      "anonymous": false,
      "inputs": [
        {
          "indexed": true,
          "internalType": "bytes32",
          "name": "transferId",
          "type": "bytes32"
        },
        {
          "indexed": true,
          "internalType": "address",
          "name": "sender",
          "type": "address"
        },
        {
          "indexed": false,
          "internalType": "uint256",
          "name": "refundAmount",
          "type": "uint256"
        },
        {
          "indexed": false,
          "internalType": "uint256",
          "name": "recoveredAt",
          "type": "uint256"
        }
      ],
      "name": "TransferRecovered",
      "type": "event"
    },
    {
      "anonymous": false,
      "inputs": [
        {
          "indexed": true,
          "internalType": "bytes32",
          "name": "transferId",
          "type": "bytes32"
        },
        {
          "indexed": true,
          "internalType": "address",
          "name": "relay",
          "type": "address"
        },
        {
          "indexed": false,
          "internalType": "bytes32",
          "name": "destinationTxHash",
          "type": "bytes32"
        }
      ],
      "name": "TransferRelayed",
      "type": "event"
    },
    {
      "anonymous": false,
      "inputs": [
        {
          "indexed": true,
          "internalType": "address",
          "name": "oldTreasury",
          "type": "address"
        },
        {
          "indexed": true,
          "internalType": "address",
          "name": "newTreasury",
          "type": "address"
        }
      ],
      "name": "TreasuryUpdated",
      "type": "event"
    },
    {
      "anonymous": false,
      "inputs": [
        {
          "indexed": false,
          "internalType": "address",
          "name": "account",
          "type": "address"
        }
      ],
      "name": "Unpaused",
      "type": "event"
    },
    {
      "inputs": [],
      "name": "DEFAULT_ADMIN_ROLE",
      "outputs": [
        {
          "internalType": "bytes32",
          "name": "",
          "type": "bytes32"
        }
      ],
      "stateMutability": "view",
      "type": "function"
    },
    {
      "inputs": [],
      "name": "FAILURE_PENALTY",
      "outputs": [
        {
          "internalType": "uint256",
          "name": "",
          "type": "uint256"
        }
      ],
      "stateMutability": "view",
      "type": "function"
    },
    {
      "inputs": [],
      "name": "INITIAL_REPUTATION",
      "outputs": [
        {
          "internalType": "uint256",
          "name": "",
          "type": "uint256"
        }
      ],
      "stateMutability": "view",
      "type": "function"
    },
    {
      "inputs": [],
      "name": "MAX_FEE_RATE_BP",
      "outputs": [
        {
          "internalType": "uint256",
          "name": "",
          "type": "uint256"
        }
      ],
      "stateMutability": "view",
      "type": "function"
    },
    {
      "inputs": [],
      "name": "MIN_RECOVERY_TIMEOUT",
      "outputs": [
        {
          "internalType": "uint256",
          "name": "",
          "type": "uint256"
        }
      ],
      "stateMutability": "view",
      "type": "function"
    },
    {
      "inputs": [],
      "name": "MIN_RELAY_STAKE",
      "outputs": [
        {
          "internalType": "uint256",
          "name": "",
          "type": "uint256"
        }
      ],
      "stateMutability": "view",
      "type": "function"
    },
    {
      "inputs": [],
      "name": "RELAY_OPERATOR_ROLE",
      "outputs": [
        {
          "internalType": "bytes32",
          "name": "",
          "type": "bytes32"
        }
      ],
      "stateMutability": "view",
      "type": "function"
    },
    {
      "inputs": [],
      "name": "ROUTER_ADMIN_ROLE",
      "outputs": [
        {
          "internalType": "bytes32",
          "name": "",
          "type": "bytes32"
        }
      ],
      "stateMutability": "view",
      "type": "function"
    },
    {
      "inputs": [],
      "name": "SUCCESS_REWARD",
      "outputs": [
        {
          "internalType": "uint256",
          "name": "",
          "type": "uint256"
        }
      ],
      "stateMutability": "view",
      "type": "function"
    },
    {
      "inputs": [
        {
          "internalType": "uint256",
          "name": "",
          "type": "uint256"
        }
      ],
      "name": "activeRelays",
      "outputs": [
        {
          "internalType": "address",
          "name": "",
          "type": "address"
        }
      ],
      "stateMutability": "view",
      "type": "function"
    },
    {
      "inputs": [
        {
          "internalType": "uint256",
          "name": "_chainId",
          "type": "uint256"
        },
        {
          "internalType": "string",
          "name": "_name",
          "type": "string"
        },
        {
          "internalType": "uint256",
          "name": "_baseFee",
          "type": "uint256"
        },
        {
          "internalType": "uint256",
          "name": "_feeRateBP",
          "type": "uint256"
        },
        {
          "internalType": "uint256",
          "name": "_finalityBlocks",
          "type": "uint256"
        },
        {
          "internalType": "uint256",
          "name": "_recoveryTimeout",
          "type": "uint256"
        },
        {
          "internalType": "uint256",
          "name": "_minTransfer",
          "type": "uint256"
        },
        {
          "internalType": "uint256",
          "name": "_maxTransfer",
          "type": "uint256"
        }
      ],
      "name": "addChain",
      "outputs": [],
      "stateMutability": "nonpayable",
      "type": "function"
    },
    {
      "inputs": [
        {
          "internalType": "uint256",
          "name": "",
          "type": "uint256"
        }
      ],
      "name": "chainConfigs",
      "outputs": [
        {
          "internalType": "uint256",
          "name": "chainId",
          "type": "uint256"
        },
        {
          "internalType": "string",
          "name": "name",
          "type": "string"
        },
        {
          "internalType": "uint256",
          "name": "baseFee",
          "type": "uint256"
        },
        {
          "internalType": "uint256",
          "name": "feeRateBP",
          "type": "uint256"
        },
        {
          "internalType": "uint256",
          "name": "finalityBlocks",
          "type": "uint256"
        },
        {
          "internalType": "uint256",
          "name": "recoveryTimeout",
          "type": "uint256"
        },
        {
          "internalType": "uint256",
          "name": "minTransferAmount",
          "type": "uint256"
        },
        {
          "internalType": "uint256",
          "name": "maxTransferAmount",
          "type": "uint256"
        },
        {
          "internalType": "bool",
          "name": "active",
          "type": "bool"
        }
      ],
      "stateMutability": "view",
      "type": "function"
    },
    {
      "inputs": [
        {
          "internalType": "bytes32",
          "name": "_transferId",
          "type": "bytes32"
        }
      ],
      "name": "confirmTransfer",
      "outputs": [],
      "stateMutability": "nonpayable",
      "type": "function"
    },
    {
      "inputs": [
        {
          "internalType": "address",
          "name": "_operator",
          "type": "address"
        }
      ],
      "name": "deregisterRelay",
      "outputs": [],
      "stateMutability": "nonpayable",
      "type": "function"
    },
    {
      "inputs": [
        {
          "internalType": "uint256",
          "name": "_amount",
          "type": "uint256"
        },
        {
          "internalType": "uint256",
          "name": "_destinationChainId",
          "type": "uint256"
        }
      ],
      "name": "estimateFee",
      "outputs": [
        {
          "components": [
            {
              "internalType": "uint256",
              "name": "baseFee",
              "type": "uint256"
            },
            {
              "internalType": "uint256",
              "name": "percentageFee",
              "type": "uint256"
            },
            {
              "internalType": "uint256",
              "name": "totalFee",
              "type": "uint256"
            },
            {
              "internalType": "uint256",
              "name": "estimatedDeliveryTime",
              "type": "uint256"
            }
          ],
          "internalType": "struct CrossChainRouter.FeeEstimate",
          "name": "estimate",
          "type": "tuple"
        }
      ],
      "stateMutability": "view",
      "type": "function"
    },
    {
      "inputs": [],
      "name": "getActiveRelayCount",
      "outputs": [
        {
          "internalType": "uint256",
          "name": "",
          "type": "uint256"
        }
      ],
      "stateMutability": "view",
      "type": "function"
    },
    {
      "inputs": [
        {
          "internalType": "address",
          "name": "_operator",
          "type": "address"
        }
      ],
      "name": "getRelayNode",
      "outputs": [
        {
          "components": [
            {
              "internalType": "address",
              "name": "operator",
              "type": "address"
            },
            {
              "internalType": "uint256",
              "name": "stake",
              "type": "uint256"
            },
            {
              "internalType": "uint256",
              "name": "reputation",
              "type": "uint256"
            },
            {
              "internalType": "uint256",
              "name": "totalRelayed",
              "type": "uint256"
            },
            {
              "internalType": "uint256",
              "name": "totalFailed",
              "type": "uint256"
            },
            {
              "internalType": "uint256",
              "name": "registeredAt",
              "type": "uint256"
            },
            {
              "internalType": "bool",
              "name": "active",
              "type": "bool"
            }
          ],
          "internalType": "struct CrossChainRouter.RelayNode",
          "name": "",
          "type": "tuple"
        }
      ],
      "stateMutability": "view",
      "type": "function"
    },
    {
      "inputs": [
        {
          "internalType": "bytes32",
          "name": "role",
          "type": "bytes32"
        }
      ],
      "name": "getRoleAdmin",
      "outputs": [
        {
          "internalType": "bytes32",
          "name": "",
          "type": "bytes32"
        }
      ],
      "stateMutability": "view",
      "type": "function"
    },
    {
      "inputs": [
        {
          "internalType": "address",
          "name": "_sender",
          "type": "address"
        }
      ],
      "name": "getSenderTransferCount",
      "outputs": [
        {
          "internalType": "uint256",
          "name": "",
          "type": "uint256"
        }
      ],
      "stateMutability": "view",
      "type": "function"
    },
    {
      "inputs": [],
      "name": "getSupportedChainCount",
      "outputs": [
        {
          "internalType": "uint256",
          "name": "",
          "type": "uint256"
        }
      ],
      "stateMutability": "view",
      "type": "function"
    },
    {
      "inputs": [
        {
          "internalType": "bytes32",
          "name": "_transferId",
          "type": "bytes32"
        }
      ],
      "name": "getTransfer",
      "outputs": [
        {
          "components": [
            {
              "internalType": "address",
              "name": "sender",
              "type": "address"
            },
            {
              "internalType": "bytes32",
              "name": "recipientHash",
              "type": "bytes32"
            },
            {
              "internalType": "address",
              "name": "sourceToken",
              "type": "address"
            },
            {
              "internalType": "uint256",
              "name": "amount",
              "type": "uint256"
            },
            {
              "internalType": "uint256",
              "name": "fee",
              "type": "uint256"
            },
            {
              "internalType": "uint256",
              "name": "destinationChainId",
              "type": "uint256"
            },
            {
              "internalType": "bytes32",
              "name": "destinationTxHash",
              "type": "bytes32"
            },
            {
              "internalType": "enum CrossChainRouter.TransferStatus",
              "name": "status",
              "type": "uint8"
            },
            {
              "internalType": "address",
              "name": "assignedRelay",
              "type": "address"
            },
            {
              "internalType": "uint256",
              "name": "initiatedAt",
              "type": "uint256"
            },
            {
              "internalType": "uint256",
              "name": "completedAt",
              "type": "uint256"
            },
            {
              "internalType": "uint256",
              "name": "deadline",
              "type": "uint256"
            },
            {
              "internalType": "bytes",
              "name": "relayProof",
              "type": "bytes"
            }
          ],
          "internalType": "struct CrossChainRouter.Transfer",
          "name": "",
          "type": "tuple"
        }
      ],
      "stateMutability": "view",
      "type": "function"
    },
    {
      "inputs": [
        {
          "internalType": "bytes32",
          "name": "role",
          "type": "bytes32"
        },
        {
          "internalType": "address",
          "name": "account",
          "type": "address"
        }
      ],
      "name": "grantRole",
      "outputs": [],
      "stateMutability": "nonpayable",
      "type": "function"
    },
    {
      "inputs": [
        {
          "internalType": "bytes32",
          "name": "role",
          "type": "bytes32"
        },
        {
          "internalType": "address",
          "name": "account",
          "type": "address"
        }
      ],
      "name": "hasRole",
      "outputs": [
        {
          "internalType": "bool",
          "name": "",
          "type": "bool"
        }
      ],
      "stateMutability": "view",
      "type": "function"
    },
    {
      "inputs": [
        {
          "internalType": "address",
          "name": "_sourceToken",
          "type": "address"
        },
        {
          "internalType": "uint256",
          "name": "_amount",
          "type": "uint256"
        },
        {
          "internalType": "uint256",
          "name": "_destinationChainId",
          "type": "uint256"
        },
        {
          "internalType": "bytes32",
          "name": "_recipientHash",
          "type": "bytes32"
        }
      ],
      "name": "initiateTransfer",
      "outputs": [
        {
          "internalType": "bytes32",
          "name": "transferId",
          "type": "bytes32"
        }
      ],
      "stateMutability": "nonpayable",
      "type": "function"
    },
    {
      "inputs": [
        {
          "internalType": "bytes32",
          "name": "_transferId",
          "type": "bytes32"
        },
        {
          "internalType": "string",
          "name": "_reason",
          "type": "string"
        }
      ],
      "name": "markTransferFailed",
      "outputs": [],
      "stateMutability": "nonpayable",
      "type": "function"
    },
    {
      "inputs": [],
      "name": "pause",
      "outputs": [],
      "stateMutability": "nonpayable",
      "type": "function"
    },
    {
      "inputs": [],
      "name": "paused",
      "outputs": [
        {
          "internalType": "bool",
          "name": "",
          "type": "bool"
        }
      ],
      "stateMutability": "view",
      "type": "function"
    },
    {
      "inputs": [],
      "name": "protocolFeeBP",
      "outputs": [
        {
          "internalType": "uint256",
          "name": "",
          "type": "uint256"
        }
      ],
      "stateMutability": "view",
      "type": "function"
    },
    {
      "inputs": [
        {
          "internalType": "bytes32",
          "name": "_transferId",
          "type": "bytes32"
        }
      ],
      "name": "recoverTransfer",
      "outputs": [],
      "stateMutability": "nonpayable",
      "type": "function"
    },
    {
      "inputs": [],
      "name": "registerRelay",
      "outputs": [],
      "stateMutability": "payable",
      "type": "function"
    },
    {
      "inputs": [
        {
          "internalType": "address",
          "name": "",
          "type": "address"
        }
      ],
      "name": "relayNodes",
      "outputs": [
        {
          "internalType": "address",
          "name": "operator",
          "type": "address"
        },
        {
          "internalType": "uint256",
          "name": "stake",
          "type": "uint256"
        },
        {
          "internalType": "uint256",
          "name": "reputation",
          "type": "uint256"
        },
        {
          "internalType": "uint256",
          "name": "totalRelayed",
          "type": "uint256"
        },
        {
          "internalType": "uint256",
          "name": "totalFailed",
          "type": "uint256"
        },
        {
          "internalType": "uint256",
          "name": "registeredAt",
          "type": "uint256"
        },
        {
          "internalType": "bool",
          "name": "active",
          "type": "bool"
        }
      ],
      "stateMutability": "view",
      "type": "function"
    },
    {
      "inputs": [
        {
          "internalType": "address",
          "name": "",
          "type": "address"
        },
        {
          "internalType": "uint256",
          "name": "",
          "type": "uint256"
        }
      ],
      "name": "relayedTransfers",
      "outputs": [
        {
          "internalType": "bytes32",
          "name": "",
          "type": "bytes32"
        }
      ],
      "stateMutability": "view",
      "type": "function"
    },
    {
      "inputs": [
        {
          "internalType": "uint256",
          "name": "_chainId",
          "type": "uint256"
        }
      ],
      "name": "removeChain",
      "outputs": [],
      "stateMutability": "nonpayable",
      "type": "function"
    },
    {
      "inputs": [
        {
          "internalType": "bytes32",
          "name": "role",
          "type": "bytes32"
        },
        {
          "internalType": "address",
          "name": "account",
          "type": "address"
        }
      ],
      "name": "renounceRole",
      "outputs": [],
      "stateMutability": "nonpayable",
      "type": "function"
    },
    {
      "inputs": [
        {
          "internalType": "bytes32",
          "name": "role",
          "type": "bytes32"
        },
        {
          "internalType": "address",
          "name": "account",
          "type": "address"
        }
      ],
      "name": "revokeRole",
      "outputs": [],
      "stateMutability": "nonpayable",
      "type": "function"
    },
    {
      "inputs": [
        {
          "internalType": "address",
          "name": "",
          "type": "address"
        },
        {
          "internalType": "uint256",
          "name": "",
          "type": "uint256"
        }
      ],
      "name": "senderTransfers",
      "outputs": [
        {
          "internalType": "bytes32",
          "name": "",
          "type": "bytes32"
        }
      ],
      "stateMutability": "view",
      "type": "function"
    },
    {
      "inputs": [
        {
          "internalType": "address",
          "name": "_token",
          "type": "address"
        },
        {
          "internalType": "bool",
          "name": "_supported",
          "type": "bool"
        }
      ],
      "name": "setTokenSupport",
      "outputs": [],
      "stateMutability": "nonpayable",
      "type": "function"
    },
    {
      "inputs": [
        {
          "internalType": "address",
          "name": "_newTreasury",
          "type": "address"
        }
      ],
      "name": "setTreasury",
      "outputs": [],
      "stateMutability": "nonpayable",
      "type": "function"
    },
    {
      "inputs": [
        {
          "internalType": "bytes32",
          "name": "_transferId",
          "type": "bytes32"
        },
        {
          "internalType": "bytes32",
          "name": "_destinationTxHash",
          "type": "bytes32"
        },
        {
          "internalType": "bytes",
          "name": "_proof",
          "type": "bytes"
        }
      ],
      "name": "submitRelayProof",
      "outputs": [],
      "stateMutability": "nonpayable",
      "type": "function"
    },
    {
      "inputs": [
        {
          "internalType": "uint256",
          "name": "",
          "type": "uint256"
        }
      ],
      "name": "supportedChainIds",
      "outputs": [
        {
          "internalType": "uint256",
          "name": "",
          "type": "uint256"
        }
      ],
      "stateMutability": "view",
      "type": "function"
    },
    {
      "inputs": [
        {
          "internalType": "address",
          "name": "",
          "type": "address"
        }
      ],
      "name": "supportedTokens",
      "outputs": [
        {
          "internalType": "bool",
          "name": "",
          "type": "bool"
        }
      ],
      "stateMutability": "view",
      "type": "function"
    },
    {
      "inputs": [
        {
          "internalType": "bytes4",
          "name": "interfaceId",
          "type": "bytes4"
        }
      ],
      "name": "supportsInterface",
      "outputs": [
        {
          "internalType": "bool",
          "name": "",
          "type": "bool"
        }
      ],
      "stateMutability": "view",
      "type": "function"
    },
    {
      "inputs": [],
      "name": "transferNonce",
      "outputs": [
        {
          "internalType": "uint256",
          "name": "",
          "type": "uint256"
        }
      ],
      "stateMutability": "view",
      "type": "function"
    },
    {
      "inputs": [
        {
          "internalType": "bytes32",
          "name": "",
          "type": "bytes32"
        }
      ],
      "name": "transfers",
      "outputs": [
        {
          "internalType": "address",
          "name": "sender",
          "type": "address"
        },
        {
          "internalType": "bytes32",
          "name": "recipientHash",
          "type": "bytes32"
        },
        {
          "internalType": "address",
          "name": "sourceToken",
          "type": "address"
        },
        {
          "internalType": "uint256",
          "name": "amount",
          "type": "uint256"
        },
        {
          "internalType": "uint256",
          "name": "fee",
          "type": "uint256"
        },
        {
          "internalType": "uint256",
          "name": "destinationChainId",
          "type": "uint256"
        },
        {
          "internalType": "bytes32",
          "name": "destinationTxHash",
          "type": "bytes32"
        },
        {
          "internalType": "enum CrossChainRouter.TransferStatus",
          "name": "status",
          "type": "uint8"
        },
        {
          "internalType": "address",
          "name": "assignedRelay",
          "type": "address"
        },
        {
          "internalType": "uint256",
          "name": "initiatedAt",
          "type": "uint256"
        },
        {
          "internalType": "uint256",
          "name": "completedAt",
          "type": "uint256"
        },
        {
          "internalType": "uint256",
          "name": "deadline",
          "type": "uint256"
        },
        {
          "internalType": "bytes",
          "name": "relayProof",
          "type": "bytes"
        }
      ],
      "stateMutability": "view",
      "type": "function"
    },
    {
      "inputs": [],
      "name": "treasury",
      "outputs": [
        {
          "internalType": "address",
          "name": "",
          "type": "address"
        }
      ],
      "stateMutability": "view",
      "type": "function"
    },
    {
      "inputs": [],
      "name": "unpause",
      "outputs": [],
      "stateMutability": "nonpayable",
      "type": "function"
    },
    {
      "stateMutability": "payable",
      "type": "receive"
    }
  ],
  "bytecode": "0x608034620001a2576200338390601f38839003908101601f19168201906001600160401b03821183831017620001a75780839160409586948552833981010312620001a2576200004f81620001bd565b6200005e6020809301620001bd565b6001805460ff199081168255600291909155916001600160a01b039081169182156200019157169283156200018057600092838052838252858420838552825260ff8685205416156200014a575b7f56623da34b1ec5cb86498f15a28504a6323a0eedfb150423fe6f418d952826ee91828552848152868520848652815260ff87862054161562000111575b600480546001600160a01b031916871790556103e860055586516131909081620001d38239f35b828552848152868520908486525260018685209182541617905560008051602062003363833981519152339380a43880808080620000ea565b8380528382528584208385528252858420600182825416179055338385600080516020620033638339815191528180a4620000ac565b845163d92e233d60e01b8152600490fd5b855163d92e233d60e01b8152600490fd5b600080fd5b634e487b7160e01b600052604160045260246000fd5b51906001600160a01b0382168203620001a25756fe608080604052600436101561001d575b50361561001b57600080fd5b005b60003560e01c908162e1d8d0146122935750806301ffc9a71461223d5780630c6a753f146121ae57806315462a2c146121645780632127056a14611f6d578063248a9ca314611f3e578063260958a514611d2c5780632bbdcb4e14611ce25780632f10bab614611cc45780632f2ff15d14611c1157806336568abe14611b7f57806336a55b3814611a4f5780633c64f04b1461195c5780633f4ba83a146118c85780634a69536e146117765780634cf2ab321461173f57806351bfbc321461168f5780635c975abb1461166c5780635f006a6a1461143a57806361d027b31461141157806368c4ac26146113d25780637b057258146113b557806383943a081461137b5780638456cb591461132257806391d14854146112d5578063a12d2773146111de578063a217fddf146111c2578063a700c2501461119f578063a7d6885614611182578063ad23e18f146110ff578063ae6862a014610f4c578063b23fd78614610c4c578063b8ed12a414610c2e578063c5fba0b814610c10578063cbf50bb614610b88578063cf7db66c1461066f578063cff5820b14610653578063d03f078b1461062a578063d0e1c1521461060e578063d547741f146105cf578063d9004b0514610361578063db1d77d114610345578063e4dbbc941461030a578063ea6d73fc146102c8578063eced3dfb146102aa5763f0f4426014610223573861000f565b346102a55760203660031901126102a55761023c612377565b610244612604565b6001600160a01b0390811690811561029357600454826001600160601b0360a01b821617600455167f4ab5be82436d353e61ca18726e984e561f5c1cc7c6d38b29d2553c790434705a600080a3005b60405163d92e233d60e01b8152600490fd5b600080fd5b346102a55760003660031901126102a5576020600b54604051908152f35b346102a55760203660031901126102a5576004356008548110156102a5576102f16020916123f0565b905460405160039290921b1c6001600160a01b03168152f35b346102a55760003660031901126102a55760206040517f7394da8644bcdbe029709ab35f323f8cc98479b8822d9eb69ce634c8042e9f948152f35b346102a55760003660031901126102a557602060405160c88152f35b346102a55760603660031901126102a5576001600160401b036024356004356044358381116102a5576103989036906004016125d7565b936103a1612bd6565b336000526020916007835260ff60066040600020015416156105bd576000848152600684526040902080549091906001600160a01b0316156105ab576007820180549260ff84166006811015610595578061056e5750881561055c576001600160a81b03199093163360081b610100600160a81b031617600190811790915591600b908760068201550192871161054657610446876104408554612494565b85612b5c565b600090601f88116001146104c35796809281927f355bcba33988c1ce28a48f29b39e9a7a92328d39362f94ed2aea8fc1e6448c929798996000946104b8575b50501b916000199060031b1c19161790555b33600052600d81526104ad836040600020612bb0565b6040519384523393a3005b013592508980610485565b9690601f1982169784600052856000209160005b8a81106105315750837f355bcba33988c1ce28a48f29b39e9a7a92328d39362f94ed2aea8fc1e6448c9298999a10610517575b505050811b019055610497565b0135600019600384901b60f8161c1916905587808061050a565b828201358455928501929087019087016104d7565b634e487b7160e01b600052604160045260246000fd5b6040516309bde33960e01b8152600490fd5b6040516339681a5b60e11b815260449161058c90600483019061243f565b60006024820152fd5b634e487b7160e01b600052602160045260246000fd5b604051632b44303360e11b8152600490fd5b60405163b3e0403960e01b8152600490fd5b346102a55760403660031901126102a55761001b6004356105ee61238d565b9080600052600060205261060960016040600020015461280d565b6129c3565b346102a55760003660031901126102a557602060405160018152f35b346102a55760003660031901126102a557602060405160008051602061311b8339815191528152f35b346102a55760003660031901126102a557602060405160328152f35b346102a55760803660031901126102a557610688612377565b610690612bd6565b610698612c1a565b6001600160a01b038116156102935760243515610b76576001600160a01b0381166000908152600e602052604090205460ff1615610b5457604435600052600a602052604060002060ff60088201541615610b3a5760068101548060243510610b1a575060078101548060243511610afa5750600281015491610730612710938461072960038601546024356129f3565b0490612a06565b9261073d84602435612a06565b604051906323b872dd60e01b602083015233602483015230604483015260648201526064815260a08101908082106001600160401b0383111761054657604091909152610793906001600160a01b038416612cae565b61079f600554856129f3565b0480610ad9575b506003546107b381612b4d565b600355604051903360601b6020830152604435603483015260243560548301524260748301526094820152609481528060c08101106001600160401b0360c0830111176105465760058160c061081793016040526020815191012093015442612a06565b92604051936108258561257f565b338552606435602086015260018060a01b0383166040860152602435606086015281608086015260443560a0860152600060c0860152600060e086015260006101008601524261012086015260006101408601526101608501526040518060208101106001600160401b0360208301111761054657602081016040526000815261018085015282600052600660205260406000209360018060a01b038151166001600160601b0360a01b865416178555602081015160018601556002850160018060a01b036040830151166001600160601b0360a01b825416179055606081015160038601556080810151600486015560a0810151600586015560c08101516006860155600785019060e08101516006811015610595578254610100830151610100600160a81b0360089190911b1660ff929092166001600160a81b031990911617179091556101809061012081015160088701556101408101516009870155610160810151600a87015501519384516001600160401b038111610546576020956109c0826109b7600b860154612494565b600b8601612b5c565b8690601f8311600114610a6b57600b929160009183610a60575b50508160011b916000199060031b1c1916179101555b33600052600c8452610a06836040600020612bb0565b6040519160018060a01b03168252602435848301526040820152606435606082015260443590827f9a79b5505a82160ae0db48e971abdcb596eff9f99b0108ee469471d6b551cc8760803393a46001600255604051908152f35b0151905088806109da565b90600b8401600052876000209160005b601f1985168110610ac25750918391600193600b95601f19811610610aa9575b505050811b019101556109f0565b015160001960f88460031b161c19169055888080610a9b565b919289600181928685015181550194019201610a7b565b600454610af491906001600160a01b03908116908416612c6e565b836107a6565b60449060405190632a1e4ad560e21b825260243560048301526024820152fd5b6044906040519063180cb56f60e11b825260243560048301526024820152fd5b604051631874ab9360e31b81526044356004820152602490fd5b604051635f8b555b60e11b81526001600160a01b039091166004820152602490fd5b604051631f2a200560e01b8152600490fd5b346102a55760203660031901126102a557600435610ba4612604565b80600052600a60205260406000205415610bf85780600052600a602052600860406000200160ff1981541690557f11a9d1a77f76361ed131c19b1dc5758504c51dbde2e49fc973a0ef9577ad13d5600080a2005b60249060405190631874ab9360e31b82526004820152fd5b346102a55760003660031901126102a5576020600554604051908152f35b346102a55760003660031901126102a5576020600354604051908152f35b346102a557610100806003193601126102a5576001600160401b03906024358281116102a557610c809036906004016125d7565b909160643560a43591610c91612604565b6004359586600052600a602052604060002054610f335760c88311610f1357611c20808510610ef557506040519361012085018581108382111761054657604052878552610cde86612a13565b93610cec60405195866125b6565b86855236878901116102a557868860208701376000602088870101526020860194855260408601906044358252606087019081526080870191608435835260a0880193845260c088019460c435865260e089019660e4358852890197600189528c600052600a602052604060002099518a5551805191821161054657610d8282610d7960018d0154612494565b60018d01612b5c565b602090601f8311600114610e78579180610dfb9b9a9896949260089a989694600092610e6d575b50508160011b916000199060031b1c19161760018a01555b51600289015551600388015551600487015551600586015551600685015551600784015551151591019060ff801983541691151516179055565b600b5491600160401b8310156105465783610e57610e408560017f12d56340507874cc704f6a6ea33cc1d871be90637f1fae4e6e1e1cbd77da3ffd9701600b556123a3565b819391549060031b91821b91600019901b19161790565b9055610e6860405192839283612e92565b0390a2005b015190508f80610da9565b9060018b0160005260206000209160005b601f1985168110610edd575092610dfb9b9a9896949260019260089b99979583601f19811610610ec4575b505050811b0160018a0155610dc1565b015160001960f88460031b161c191690558f8080610eb4565b91926020600181928685015181550194019201610e89565b84604491604051916398f3346d60e01b835260048301526024820152fd5b604051633bead5b360e11b81526004810184905260c86024820152604490fd5b60405163312fe1d360e11b815260048101889052602490fd5b346102a5576020806003193601126102a557610f66612377565b90610f6f612bd6565b610f77612c1a565b6001600160a01b0382169133831480156110cf575b1561108a5782600052600782526040600020906005820154156110785760006001830160068154940160ff19815416905555610fc781613033565b610fd081612917565b81611008575b50907f82e6c2df33b6338a0220a6d232ae524798687b329f8ba1c7a1fe3ec99e771cd891604051908152a26001600255005b600080808481945af1611019612dbc565b50156110255783610fd6565b60405162461bcd60e51b815260048101839052602560248201527f43726f7373436861696e526f757465723a207374616b652072657475726e2066604482015264185a5b195960da1b6064820152608490fd5b604051633f5fb2c160e11b8152600490fd5b60405162461bcd60e51b815260048101839052601e60248201527f43726f7373436861696e526f757465723a20756e617574686f72697a656400006044820152606490fd5b5060008051602061311b83398151915260005260008252604060002033600052825260ff60406000205416610f8c565b346102a55760203660031901126102a55760e06001600160a01b0380611123612377565b166000526007602052604060002090815416906001810154906002810154600382015460048301549160ff600660058601549501541694604051968752602087015260408601526060850152608084015260a0830152151560c0820152f35b346102a55760003660031901126102a5576020604051611c208152f35b346102a55760003660031901126102a5576020604051674563918244f400008152f35b346102a55760003660031901126102a557602060405160008152f35b346102a55760203660031901126102a55760e06111f9612377565b600060c06040516112098161259b565b8281528260208201528260408201528260608201528260808201528260a0820152015260018060a01b038091166000526007602052604060002090604051906112518261259b565b82541691828252600181015460208301908152600282015460408401908152600383015490606085019182526004840154926080860193845260c060ff600660058801549760a08a01988952015416960195151586526040519687525160208701525160408601525160608501525160808401525160a083015251151560c0820152f35b346102a55760403660031901126102a5576112ee61238d565b600435600052600060205260406000209060018060a01b0316600052602052602060ff604060002054166040519015158152f35b346102a55760003660031901126102a55761133b612604565b611343612bd6565b600160ff19815416176001557f62e78cea01bee320cd4e420270b5ea74000d11b0c9f74754ebdbfc544b05a2586020604051338152a1005b346102a55760203660031901126102a5576001600160a01b0361139c612377565b16600052600c6020526020604060002054604051908152f35b346102a55760003660031901126102a55760206040516101f48152f35b346102a55760203660031901126102a5576001600160a01b036113f3612377565b16600052600e602052602060ff604060002054166040519015158152f35b346102a55760003660031901126102a5576004546040516001600160a01b039091168152602090f35b60003660031901126102a55761144e612bd6565b611456612c1a565b3360005260206007815260056040600020015461165a57674563918244f4000080341061163c575060405161148a8161259b565b33815261152482820191348352600660408201936101f494858152606084016000815260808501906000825260a086019242845260c0870194600186523360005260078b5260406000209760018060a01b039051166001600160601b0360a01b89541617885551600188015551600287015551600386015551600485015551600584015551151591019060ff801983541691151516179055565b6008546009835280604060002055600160401b8110156105465761155181600161156f93016008556123f0565b81546001600160a01b0360039290921b91821b19163390911b179055565b7f7394da8644bcdbe029709ab35f323f8cc98479b8822d9eb69ce634c8042e9f948060005260008352604060002033600052835260ff60406000205416156115ea575b50604051913483528201527fa5d9444231d0fde864b7dc645a7fc1945439020cc5d13ed5438f29a5464cd45460403392a26001600255005b806000526000835260406000203360005283526040600020600160ff19825416179055339033907f2f8788117e7eff1d82e926ec794901d17c78024a50270940304540a733656f0d600080a4826115b2565b604490604051906322df051360e11b82523460048301526024820152fd5b604051631348828760e21b8152600490fd5b346102a55760003660031901126102a557602060ff600154166040519015158152f35b346102a55760203660031901126102a557600435600052600a60205260406000208054604051916116ce836116c781600185016124ce565b03846125b6565b6002810154906003810154906004810154600582015460068301549160ff600860078601549501541694611714604051998a998a526101208060208c01528a019061246f565b9660408901526060880152608087015260a086015260c085015260e084015215156101008301520390f35b346102a55760203660031901126102a557600435600b548110156102a5576117686020916123a3565b90546040519160031b1c8152f35b346102a55760403660031901126102a5576004356024356001600160401b0381116102a5576117a99036906004016125d7565b6117b4929192612604565b6117bc612bd6565b600082815260066020526040902080546001600160a01b039291908316156105ab576007019182549260ff841660068110156105955780159081156118bd575b5015611863578160047f7c60a04e7c16b8c7eca9b2a78bdd580ee1bc8944ca02a79e62d46c350dee27059560ff19161780835560081c1680611854575b505460081c169361184f60405192839283612e92565b0390a3005b61185d90612f72565b86611839565b60405162461bcd60e51b815260206004820152602c60248201527f43726f7373436861696e526f757465723a20696e76616c69642073746174757360448201526b20666f72206661696c75726560a01b6064820152608490fd5b6001915014876117fc565b346102a55760003660031901126102a5576118e1612604565b60015460ff8116156119205760ff19166001557f5db9ee0a495bf2e6ff9c91a7834c1ba4fdd244a5e8aa4e537bd38aeae4b073aa6020604051338152a1005b60405162461bcd60e51b815260206004820152601460248201527314185d5cd8589b194e881b9bdd081c185d5cd95960621b6044820152606490fd5b346102a55760203660031901126102a557600435600052600660205260206040600020611a4b60018060a01b0391828154169260018201549080600284015416906003840154906004850154600586015460068701549060078801549260088901549560098a015497600a8b0154996119e8600b6119e16040519e8f928391016124ce565b038d6125b6565b6040519e8f9e8f908152015260408d015260608c015260808b015260a08a015260c0890152611a1d60e0890160ff831661243f565b60081c166101008701526101208601526101408501526101608401526101a08061018085015283019061246f565b0390f35b346102a55760203660031901126102a557600435611a6b612604565b611a73612bd6565b80600052600660205260406000209060018060a01b0380835416156105ab576007830180549360ff851660068110156105955760018103611b5857506003611b00949560ff191617808355426009830155611ae26004830154612710611adb600554836129f3565b0490612e85565b908482151580611b4a575b611b2c575b505050505460081c16612eba565b7f062fb96142a4ea35fc5c48049c3a7d7a418829dea520220e03d76440bbe275c06020604051428152a2005b806002611b41950154169160081c1690612c6e565b84808084611af2565b50808260081c161515611aed565b6040516339681a5b60e11b8152604491611b7690600483019061243f565b60016024820152fd5b346102a55760403660031901126102a557611b9861238d565b336001600160a01b03821603611bb45761001b906004356129c3565b60405162461bcd60e51b815260206004820152602f60248201527f416363657373436f6e74726f6c3a2063616e206f6e6c792072656e6f756e636560448201526e103937b632b9903337b91039b2b63360891b6064820152608490fd5b346102a55760403660031901126102a557600435611c2d61238d565b816000526000602052611c4760016040600020015461280d565b81600052600060205260406000209060018060a01b0316908160005260205260ff6040600020541615611c7657005b8160005260006020526040600020816000526020526040600020600160ff1982541617905533917f2f8788117e7eff1d82e926ec794901d17c78024a50270940304540a733656f0d600080a4005b346102a55760003660031901126102a5576020600854604051908152f35b346102a55760403660031901126102a557611cfb612377565b6001600160a01b03166000908152600c60205260409020805460243591908210156102a55760209161176891612427565b346102a55760203660031901126102a5576060610180604051611d4e8161257f565b60008152600060208201526000604082015260008382015260006080820152600060a0820152600060c0820152600060e08201526000610100820152600061012082015260006101408201526000610160820152015260043560005260066020526040600020604051611dc08161257f565b81546001600160a01b0390811682526001830154602083015260028301541660408201526003820154606082015260048201546080820152600582015460a082015260068083015460c08301526007830154929060ff841610156105955760ff831660e0830152600892831c6001600160a01b0316610100830152918201546101208201526009820154610140820152600a82015461016082015260405161018092611e7d908290611e76908290600b016124ce565b03826125b6565b82820152611a4b6040519283926020845260018060a01b0381511660208501526020810151604085015260018060a01b03604082015116606085015260608101516080850152608081015160a085015260a081015160c085015260c081015160e0850152611ef460e082015161010086019061243f565b60018060a01b03610100820151166101208501526101208101516101408501526101408101516101608501526101608101518285015201516101a0808401526101c083019061246f565b346102a55760203660031901126102a55760043560005260006020526020600160406000200154604051908152f35b346102a5576020806003193601126102a557600435611f8a612bd6565b611f92612c1a565b6000818152600683526040902080546001600160a01b039081169182156105ab578233141580612133575b61212257600781019283549360ff85169460068610158061059557861580978115612113575b50156120b7576105955785612083575b60ff1916600517905560038201547f87f73ff699a3339234b5d3e8612e12cd721a177ad8581bdfa3ffce92abe4e10e946040949193919290612056575b836120419184600285015416612c6e565b54169482519182524290820152a36001600255005b9261207b612041916120756004850154612710611adb600554836129f3565b90612a06565b939050612030565b600a8401548042106120955750611ff3565b6120a26024914290612e85565b60405190633f6ddab160e11b82526004820152fd5b60405162461bcd60e51b8152600481018a9052602e60248201527f43726f7373436861696e526f757465723a2063616e6e6f74207265636f76657260448201526d103a3434b9903a3930b739b332b960911b6064820152608490fd5b9150506004600091148a611fe3565b6040516282b42960e81b8152600490fd5b5060008051602061311b83398151915260005260008552604060002033600052855260ff6040600020541615611fbd565b346102a55760403660031901126102a55761217d612377565b6001600160a01b03166000908152600d60205260409020805460243591908210156102a55760209161176891612427565b346102a55760403660031901126102a5576121c7612377565b60243590811515908183036102a5576121de612604565b6001600160a01b0316918215610293577fbbe72b7d9dcb594ee398a4a617885aba53d833e2aad601c813ce9df99fdeb49b9161223460209285600052600e845260406000209060ff801983541691151516179055565b604051908152a2005b346102a55760203660031901126102a55760043563ffffffff60e01b81168091036102a557602090637965db0b60e01b8114908115612282575b506040519015158152f35b6301ffc9a760e01b14905082612277565b346102a55760403660031901126102a55760006060602435926122b581612564565b828152826020820152826040820152015280600052600a60205260406000209060ff60088301541615610bf857506127106122f660038301546004356129f3565b0490600281015490600461230a8484612a06565b91015490600c820291808304600c149015171561236157608093606060405161233281612564565b858152602081019283526040810193845201928352604051938452516020840152516040830152516060820152f35b634e487b7160e01b600052601160045260246000fd5b600435906001600160a01b03821682036102a557565b602435906001600160a01b03821682036102a557565b600b548110156123da57600b6000527f0175b7a638427703f0dbe7bb9bbf987a2551717b34e79f33b5b1008d1fa01db90190600090565b634e487b7160e01b600052603260045260246000fd5b6008548110156123da5760086000527ff3f7a9fe364faab93b216da50a3214154f22a0a2b415b23a84c8169e8b636ee30190600090565b80548210156123da5760005260206000200190600090565b9060068210156105955752565b60005b83811061245f5750506000910152565b818101518382015260200161244f565b906020916124888151809281855285808601910161244c565b601f01601f1916010190565b90600182811c921680156124c4575b60208310146124ae57565b634e487b7160e01b600052602260045260246000fd5b91607f16916124a3565b90600092918054916124df83612494565b9182825260019384811690816000146125415750600114612501575b50505050565b90919394506000526020928360002092846000945b83861061252d5750505050010190388080806124fb565b805485870183015294019385908201612516565b9294505050602093945060ff191683830152151560051b010190388080806124fb565b608081019081106001600160401b0382111761054657604052565b6101a081019081106001600160401b0382111761054657604052565b60e081019081106001600160401b0382111761054657604052565b90601f801991011681019081106001600160401b0382111761054657604052565b9181601f840112156102a5578235916001600160401b0383116102a557602083818601950101116102a557565b3360009081527f0bfee35f0032dacbfdd76dca49d350db3408626e01eb729b0e8c8ad79ed51b766020908152604080832054909260008051602061311b8339815191529160ff16156126565750505050565b61265f33612a3f565b9184519061266c82612564565b604282528482019260603685378251156127f957603084538251906001918210156127f95790607860218501536041915b81831161278b575050506127495760486127459386936127299361271a985198899376020b1b1b2b9b9a1b7b73a3937b61d1030b1b1b7bab73a1604d1b8a8601526126f1815180928c60378901910161244c565b8401917001034b99036b4b9b9b4b733903937b6329607d1b60378401525180938684019061244c565b010360288101875201856125b6565b5192839262461bcd60e51b84526004840152602483019061246f565b0390fd5b60648486519062461bcd60e51b825280600483015260248201527f537472696e67733a20686578206c656e67746820696e73756666696369656e746044820152fd5b909192600f811660108110156127e5576f181899199a1a9b1b9c1cb0b131b232b360811b901a6127bb8587612a2e565b5360041c9280156127d15760001901919061269d565b634e487b7160e01b82526011600452602482fd5b634e487b7160e01b83526032600452602483fd5b634e487b7160e01b81526032600452602490fd5b600090808252602090828252604092838120338252835260ff8482205416156128365750505050565b61283f33612a3f565b9184519061284c82612564565b604282528482019260603685378251156127f957603084538251906001918210156127f95790607860218501536041915b8183116128d1575050506127495760486127459386936127299361271a985198899376020b1b1b2b9b9a1b7b73a3937b61d1030b1b1b7bab73a1604d1b8a8601526126f1815180928c60378901910161244c565b909192600f811660108110156127e5576f181899199a1a9b1b9c1cb0b131b232b360811b901a6129018587612a2e565b5360041c9280156127d15760001901919061287d565b6001600160a01b031660008181527f2d1c045ff1fd7258c60b25c5a1c59eccac1a810a0f8e25668e8b03d1ff3bd2ed60205260408120549091907f7394da8644bcdbe029709ab35f323f8cc98479b8822d9eb69ce634c8042e9f949060ff1661297f57505050565b80835282602052604083208284526020526040832060ff1981541690557ff6391f5c32d9c69d2a47ea670b442974b53935d1edc7fd64eb21e047a839171b339380a4565b9060009180835282602052604083209160018060a01b03169182845260205260ff60408420541661297f57505050565b8181029291811591840414171561236157565b9190820180921161236157565b6001600160401b03811161054657601f01601f191660200190565b9081518110156123da570160200190565b60405190606082018281106001600160401b0382111761054657604052602a82526020820160403682378251156123da576030905381516001908110156123da57607860218401536029905b808211612adf575050612a9b5790565b606460405162461bcd60e51b815260206004820152602060248201527f537472696e67733a20686578206c656e67746820696e73756666696369656e746044820152fd5b9091600f81166010811015612b38576f181899199a1a9b1b9c1cb0b131b232b360811b901a612b0e8486612a2e565b5360041c918015612b23576000190190612a8b565b60246000634e487b7160e01b81526011600452fd5b60246000634e487b7160e01b81526032600452fd5b60001981146123615760010190565b90601f8111612b6a57505050565b600091825260208220906020601f850160051c83019410612ba6575b601f0160051c01915b828110612b9b57505050565b818155600101612b8f565b9092508290612b86565b805490600160401b8210156105465781610e40916001612bd294018155612427565b9055565b60ff60015416612be257565b60405162461bcd60e51b815260206004820152601060248201526f14185d5cd8589b194e881c185d5cd95960821b6044820152606490fd5b6002805414612c295760028055565b60405162461bcd60e51b815260206004820152601f60248201527f5265656e7472616e637947756172643a207265656e7472616e742063616c6c006044820152606490fd5b60405163a9059cbb60e01b60208201526001600160a01b039092166024830152604480830193909352918152612cac91612ca782612564565b612cae565b565b60018060a01b03169060405160408101908082106001600160401b0383111761054657612d1f916040526020938482527f5361666545524332303a206c6f772d6c6576656c2063616c6c206661696c6564858301526000808587829751910182855af1612d19612dbc565b91612dec565b805191821591848315612d91575b505050905015612d3a5750565b6084906040519062461bcd60e51b82526004820152602a60248201527f5361666545524332303a204552433230206f7065726174696f6e20646964206e6044820152691bdd081cdd58d8d9595960b21b6064820152fd5b919381809450010312612db857820151908115158203612db5575080388084612d2d565b80fd5b5080fd5b3d15612de7573d90612dcd82612a13565b91612ddb60405193846125b6565b82523d6000602084013e565b606090565b91929015612e4e5750815115612e00575090565b3b15612e095790565b60405162461bcd60e51b815260206004820152601d60248201527f416464726573733a2063616c6c20746f206e6f6e2d636f6e74726163740000006044820152606490fd5b825190915015612e615750805190602001fd5b60405162461bcd60e51b81526020600482015290819061274590602483019061246f565b9190820391821161236157565b90918060409360208452816020850152848401376000828201840152601f01601f1916010190565b6001600160a01b03166000818152600760205260408120600581015490919015612f6d576002820190600382549301612ef38154612b4d565b9055600183018084116127d1576103e8908110612f52575081549060018201809211612f3e5750815560008051602061313b833981519152916040915b5482519182526020820152a2565b634e487b7160e01b81526011600452602490fd5b82555060008051602061313b83398151915291604091612f30565b505050565b6001600160a01b0381166000818152600760205260409020600581015491929115612f6d576002810180549060048301612fac8154612b4d565b9055603282106130175780546031198101939084116123615760008051602061313b8339815191529460409483555b825415612ff3575b50505482519182526020820152a2565b6006613010920160ff19815416905561300b81613033565b612917565b3880612fe3565b60409260008051602061313b8339815191529460008355612fdb565b6001600160a01b0390811660008181526009602052604081205460085491939160001991908281019081116131065780849183036130b5575b50505060085480156130a1570190613083826123f0565b909182549160031b1b19169055600855815260096020526040812055565b634e487b7160e01b85526031600452602485fd5b6130be906123f0565b90549060031b1c166130f2816130d3846123f0565b90919082549060031b9160018060a01b03809116831b921b1916179055565b85526009602052604085205538828161306c565b634e487b7160e01b86526011600452602486fdfe56623da34b1ec5cb86498f15a28504a6323a0eedfb150423fe6f418d952826eea8bd5490d5e26094fcdd27a47445ff9f7bbab091681c9a4ec2a4dcb8ffb97672a26469706673582212201ffb8e7df585002440481dc1251de55e40630d52280f588d43434a2bfd1eb1cf64736f6c634300081300332f8788117e7eff1d82e926ec794901d17c78024a50270940304540a733656f0d",
  "linkReferences": {},
  "deployedLinkReferences": {}
}